{"packages/hardhat/contracts/NoLossBet.sol":{"NoLossBet":{"abi":[{"inputs":[{"internalType":"address","name":"_celoToken","type":"address"}],"stateMutability":"nonpayable","type":"constructor"},{"anonymous":false,"inputs":[{"indexed":true,"internalType":"uint256","name":"betId","type":"uint256"},{"indexed":true,"internalType":"address","name":"opponent","type":"address"},{"indexed":false,"internalType":"bool","name":"prediction","type":"bool"},{"indexed":false,"internalType":"uint256","name":"customStake","type":"uint256"}],"name":"BetAccepted","type":"event"},{"anonymous":false,"inputs":[{"indexed":true,"internalType":"uint256","name":"betId","type":"uint256"}],"name":"BetCancelled","type":"event"},{"anonymous":false,"inputs":[{"indexed":true,"internalType":"uint256","name":"betId","type":"uint256"},{"indexed":true,"internalType":"address","name":"creator","type":"address"},{"indexed":false,"internalType":"uint256","name":"creatorStake","type":"uint256"},{"indexed":false,"internalType":"uint256","name":"opponentStake","type":"uint256"},{"indexed":false,"internalType":"string","name":"condition","type":"string"},{"indexed":false,"internalType":"uint256","name":"expiration","type":"uint256"}],"name":"BetCreated","type":"event"},{"anonymous":false,"inputs":[{"indexed":true,"internalType":"uint256","name":"betId","type":"uint256"},{"indexed":true,"internalType":"address","name":"winner","type":"address"},{"indexed":false,"internalType":"uint256","name":"simulatedYield","type":"uint256"}],"name":"BetResolved","type":"event"},{"anonymous":false,"inputs":[{"indexed":true,"internalType":"uint256","name":"betId","type":"uint256"},{"indexed":true,"internalType":"address","name":"submitter","type":"address"},{"indexed":false,"internalType":"bool","name":"outcome","type":"bool"}],"name":"OutcomeSubmitted","type":"event"},{"anonymous":false,"inputs":[{"indexed":true,"internalType":"address","name":"previousOwner","type":"address"},{"indexed":true,"internalType":"address","name":"newOwner","type":"address"}],"name":"OwnershipTransferred","type":"event"},{"inputs":[],"name":"DEFAULT_BET_DURATION","outputs":[{"internalType":"uint256","name":"","type":"uint256"}],"stateMutability":"view","type":"function"},{"inputs":[],"name":"MIN_CREATOR_STAKE","outputs":[{"internalType":"uint256","name":"","type":"uint256"}],"stateMutability":"view","type":"function"},{"inputs":[],"name":"MIN_OPPONENT_STAKE","outputs":[{"internalType":"uint256","name":"","type":"uint256"}],"stateMutability":"view","type":"function"},{"inputs":[{"internalType":"uint256","name":"_betId","type":"uint256"},{"internalType":"bool","name":"_prediction","type":"bool"},{"internalType":"uint256","name":"_customStake","type":"uint256"}],"name":"acceptBet","outputs":[],"stateMutability":"nonpayable","type":"function"},{"inputs":[],"name":"betCounter","outputs":[{"internalType":"uint256","name":"","type":"uint256"}],"stateMutability":"view","type":"function"},{"inputs":[{"internalType":"uint256","name":"","type":"uint256"}],"name":"bets","outputs":[{"internalType":"address","name":"creator","type":"address"},{"internalType":"address","name":"opponent","type":"address"},{"internalType":"uint256","name":"creatorStake","type":"uint256"},{"internalType":"uint256","name":"opponentStake","type":"uint256"},{"internalType":"string","name":"condition","type":"string"},{"internalType":"bool","name":"creatorOutcome","type":"bool"},{"internalType":"bool","name":"opponentOutcome","type":"bool"},{"internalType":"bool","name":"resolved","type":"bool"},{"internalType":"uint256","name":"expiration","type":"uint256"}],"stateMutability":"view","type":"function"},{"inputs":[{"internalType":"uint256","name":"_betId","type":"uint256"}],"name":"cancelBet","outputs":[],"stateMutability":"nonpayable","type":"function"},{"inputs":[],"name":"celoToken","outputs":[{"internalType":"contract IERC20","name":"","type":"address"}],"stateMutability":"view","type":"function"},{"inputs":[{"internalType":"uint256","name":"_creatorStake","type":"uint256"},{"internalType":"uint256","name":"_opponentStake","type":"uint256"},{"internalType":"string","name":"_condition","type":"string"},{"internalType":"uint256","name":"_durationDays","type":"uint256"}],"name":"createBet","outputs":[],"stateMutability":"nonpayable","type":"function"},{"inputs":[{"internalType":"uint256","name":"_betId","type":"uint256"}],"name":"getBet","outputs":[{"components":[{"internalType":"address","name":"creator","type":"address"},{"internalType":"address","name":"opponent","type":"address"},{"internalType":"uint256","name":"creatorStake","type":"uint256"},{"internalType":"uint256","name":"opponentStake","type":"uint256"},{"internalType":"string","name":"condition","type":"string"},{"internalType":"bool","name":"creatorOutcome","type":"bool"},{"internalType":"bool","name":"opponentOutcome","type":"bool"},{"internalType":"bool","name":"resolved","type":"bool"},{"internalType":"uint256","name":"expiration","type":"uint256"}],"internalType":"struct NoLossBet.Bet","name":"","type":"tuple"}],"stateMutability":"view","type":"function"},{"inputs":[],"name":"getBetCount","outputs":[{"internalType":"uint256","name":"","type":"uint256"}],"stateMutability":"view","type":"function"},{"inputs":[],"name":"owner","outputs":[{"internalType":"address","name":"","type":"address"}],"stateMutability":"view","type":"function"},{"inputs":[{"internalType":"address","name":"_token","type":"address"},{"internalType":"uint256","name":"_amount","type":"uint256"}],"name":"recoverTokens","outputs":[],"stateMutability":"nonpayable","type":"function"},{"inputs":[],"name":"renounceOwnership","outputs":[],"stateMutability":"nonpayable","type":"function"},{"inputs":[{"internalType":"uint256","name":"_betId","type":"uint256"}],"name":"resolveBet","outputs":[],"stateMutability":"nonpayable","type":"function"},{"inputs":[{"internalType":"uint256","name":"_betId","type":"uint256"},{"internalType":"bool","name":"_outcome","type":"bool"}],"name":"submitOutcome","outputs":[],"stateMutability":"nonpayable","type":"function"},{"inputs":[{"internalType":"address","name":"newOwner","type":"address"}],"name":"transferOwnership","outputs":[],"stateMutability":"nonpayable","type":"function"}],"evm":{"bytecode":{"linkReferences":{},"object":"60806040523480156200001157600080fd5b5060405162002041380380620020418339810160408190526200003491620000b9565b6200003f3362000069565b60018055600380546001600160a01b0319166001600160a01b0392909216919091179055620000eb565b600080546001600160a01b038381166001600160a01b0319831681178455604051919092169283917f8be0079c531659141344cd1fd0a4f28419497f9722a3daafe3b4186f6b6457e09190a35050565b600060208284031215620000cc57600080fd5b81516001600160a01b0381168114620000e457600080fd5b9392505050565b611f4680620000fb6000396000f3fe608060405234801561001057600080fd5b506004361061010b5760003560e01c806372bebffe116100a2578063ae0ea67511610071578063ae0ea6751461020c578063b93dab0b1461021f578063c93f002314610227578063e22d551a1461023a578063f2fde38b1461024d57600080fd5b806372bebffe146101cf578063788965e9146101cf5780638da5cb5b146101de578063a416f5ab1461020357600080fd5b8063357401f5116100de578063357401f51461018e57806341b80300146101a15780634c36c36e146101b4578063715018a6146101c757600080fd5b8063061e494f14610110578063069c9fae1461013957806316ae48281461014e57806322af00fa14610166575b600080fd5b61012361011e36600461193d565b610260565b604051610130919061199c565b60405180910390f35b61014c610147366004611a69565b6103ca565b005b61015862093a8081565b604051908152602001610130565b61017961017436600461193d565b610459565b60405161013099989796959493929190611a93565b61014c61019c36600461193d565b610543565b61014c6101af366004611b06565b610725565b61014c6101c236600461193d565b6108d7565b61014c6109f1565b610158678ac7230489e8000081565b6000546001600160a01b03165b6040516001600160a01b039091168152602001610130565b61015860045481565b61014c61021a366004611b36565b610a05565b600454610158565b61014c610235366004611bbe565b610d3e565b6003546101eb906001600160a01b031681565b61014c61025b366004611bf6565b611026565b60408051610120810182526000808252602082018190529181018290526060808201839052608082015260a0810182905260c0810182905260e0810182905261010081019190915260008281526002602081815260409283902083516101208101855281546001600160a01b0390811682526001830154169281019290925291820154928101929092526003810154606083015260048101805460808401919061030990611c18565b80601f016020809104026020016040519081016040528092919081815260200182805461033590611c18565b80156103825780601f1061035757610100808354040283529160200191610382565b820191906000526020600020905b81548152906001019060200180831161036557829003601f168201915b5050509183525050600582015460ff80821615156020840152610100820481161515604084015262010000909104161515606082015260069091015460809091015292915050565b6103d261109c565b816001600160a01b031663a9059cbb6103f36000546001600160a01b031690565b836040518363ffffffff1660e01b8152600401610411929190611c52565b6020604051808303816000875af1158015610430573d6000803e3d6000fd5b505050506040513d601f19601f820116820180604052508101906104549190611c6b565b505050565b6002602081905260009182526040909120805460018201549282015460038301546004840180546001600160a01b039485169690941694929391929161049e90611c18565b80601f01602080910402602001604051908101604052809291908181526020018280546104ca90611c18565b80156105175780601f106104ec57610100808354040283529160200191610517565b820191906000526020600020905b8154815290600101906020018083116104fa57829003601f168201915b5050506005840154600690940154929360ff808216946101008304821694506201000090920416915089565b600081815260026020526040902080546001600160a01b031633146105af5760405162461bcd60e51b815260206004820152601760248201527f4f6e6c792063726561746f722063616e2063616e63656c00000000000000000060448201526064015b60405180910390fd5b60018101546001600160a01b0316156106015760405162461bcd60e51b815260206004820152601460248201527310995d08185b1c9958591e481858d8d95c1d195960621b60448201526064016105a6565b600581015462010000900460ff161561062c5760405162461bcd60e51b81526004016105a690611c88565b60058101805462ff00001916620100001790556003548154600283015460405163a9059cbb60e01b81526001600160a01b039384169363a9059cbb9361067793911691600401611c52565b6020604051808303816000875af1158015610696573d6000803e3d6000fd5b505050506040513d601f19601f820116820180604052508101906106ba9190611c6b565b6106f65760405162461bcd60e51b815260206004820152600d60248201526c1499599d5b990819985a5b1959609a1b60448201526064016105a6565b60405182907fe3906e8d1e2167ef706b023e6e83af697db5cd38f233c71bf5021b26b316c3a290600090a25050565b600082815260026020526040902060018101546001600160a01b03166107845760405162461bcd60e51b815260206004820152601460248201527310995d081b9bdd081858d8d95c1d1959081e595d60621b60448201526064016105a6565b600581015462010000900460ff16156107af5760405162461bcd60e51b81526004016105a690611c88565b80546001600160a01b03163314806107d3575060018101546001600160a01b031633145b6108135760405162461bcd60e51b8152602060048201526011602482015270139bdd0818481c185c9d1a58da5c185b9d607a1b60448201526064016105a6565b80546001600160a01b031633036108395760058101805460ff191683151517905561084f565b60058101805461ff001916610100841515021790555b6040518215158152339084907fe64fc5d3ec89c58b1bc0305aa4e968c6bead6672aaacc91b33f219bfcf361a2b9060200160405180910390a3600581015460ff80821615156101009092041615151480156108c9575080546001600160a01b03163314806108c9575060018101546001600160a01b031633145b1561045457610454836110f6565b6108df6114bc565b600081815260026020526040902060018101546001600160a01b031661093e5760405162461bcd60e51b815260206004820152601460248201527310995d081b9bdd081858d8d95c1d1959081e595d60621b60448201526064016105a6565b600581015462010000900460ff16156109695760405162461bcd60e51b81526004016105a690611c88565b806006015442106109825761097d82611515565b6109e4565b600581015460ff8082161515610100909204161515146109db5760405162461bcd60e51b815260206004820152601460248201527309eeae8c6dedacae640c8dedc4ee840dac2e8c6d60631b60448201526064016105a6565b6109e4826110f6565b506109ee60018055565b50565b6109f961109c565b610a0360006118ed565b565b678ac7230489e80000851015610a555760405162461bcd60e51b815260206004820152601560248201527443726561746f72207374616b6520746f6f206c6f7760581b60448201526064016105a6565b678ac7230489e80000841015610aa65760405162461bcd60e51b81526020600482015260166024820152754f70706f6e656e74207374616b6520746f6f206c6f7760501b60448201526064016105a6565b6003546040516323b872dd60e01b8152336004820152306024820152604481018790526001600160a01b03909116906323b872dd906064016020604051808303816000875af1158015610afd573d6000803e3d6000fd5b505050506040513d601f19601f82011682018060405250810190610b219190611c6b565b610b655760405162461bcd60e51b815260206004820152601560248201527414dd185ad9481d1c985b9cd9995c8819985a5b1959605a1b60448201526064016105a6565b6000808211610b775762093a80610b84565b610b848262015180611ccc565b90506000610b928242611ce9565b600480549192506000919082610ba783611cfc565b919050559050604051806101200160405280336001600160a01b0316815260200160006001600160a01b0316815260200189815260200188815260200187878080601f01602080910402602001604051908101604052809392919081815260200183838082843760009201829052509385525050506020808301829052604080840183905260608085018490526080948501889052868452600280845293829020865181546001600160a01b03199081166001600160a01b03928316178355948801516001830180549096169116179093559085015192820192909255908301516003820155908201516004820190610ca09082611d79565b5060a082015160058201805460c085015160e086015161ffff1990921693151561ff0019169390931761010093151584021762ff00001916620100009115159190910217905590910151600690910155604051339082907faa04bf3b345f165d756c64731bad28cc81a001fbf6d22081afbbfd310a53065b90610d2c908c908c908c908c908a90611e39565b60405180910390a35050505050505050565b600083815260026020526040902080546001600160a01b0316610d985760405162461bcd60e51b815260206004820152601260248201527110995d08191bd95cc81b9bdd08195e1a5cdd60721b60448201526064016105a6565b60018101546001600160a01b031615610dea5760405162461bcd60e51b815260206004820152601460248201527310995d08185b1c9958591e481858d8d95c1d195960621b60448201526064016105a6565b80546001600160a01b03163303610e435760405162461bcd60e51b815260206004820152601d60248201527f43726561746f722063616e6e6f7420616363657074206f776e2062657400000060448201526064016105a6565b80600601544210610e885760405162461bcd60e51b815260206004820152600f60248201526e10995d081a185cc8195e1c1a5c9959608a1b60448201526064016105a6565b6000808311610e9b578160030154610e9d565b825b9050678ac7230489e80000811015610ee75760405162461bcd60e51b815260206004820152600d60248201526c5374616b6520746f6f206c6f7760981b60448201526064016105a6565b6003546040516323b872dd60e01b8152336004820152306024820152604481018390526001600160a01b03909116906323b872dd906064016020604051808303816000875af1158015610f3e573d6000803e3d6000fd5b505050506040513d601f19601f82011682018060405250810190610f629190611c6b565b610fa65760405162461bcd60e51b815260206004820152601560248201527414dd185ad9481d1c985b9cd9995c8819985a5b1959605a1b60448201526064016105a6565b6001820180546001600160a01b031916331790556005820180548515156101000261ff00199091161790558215610fdf57600382018390555b60408051851515815260208101839052339187917f097afe110a07d405b1fe267d4d6755c88da971ea07d6f465d4a14e0e82c5fc6791015b60405180910390a35050505050565b61102e61109c565b6001600160a01b0381166110935760405162461bcd60e51b815260206004820152602660248201527f4f776e61626c653a206e6577206f776e657220697320746865207a65726f206160448201526564647265737360d01b60648201526084016105a6565b6109ee816118ed565b6000546001600160a01b03163314610a035760405162461bcd60e51b815260206004820181905260248201527f4f776e61626c653a2063616c6c6572206973206e6f7420746865206f776e657260448201526064016105a6565b6000818152600260208190526040822060058101805462ff000019166201000017905560038101549181015490929161112e91611ce9565b90506000606461113f836005611ccc565b6111499190611e80565b600584015490915060009060ff16156112ef576000606461116b846050611ccc565b6111759190611e80565b85600201546111849190611ce9565b905060006064611195856014611ccc565b61119f9190611e80565b86600301546111ae9190611ce9565b600354875460405163a9059cbb60e01b81529293506001600160a01b039182169263a9059cbb926111e59216908690600401611c52565b6020604051808303816000875af1158015611204573d6000803e3d6000fd5b505050506040513d601f19601f820116820180604052508101906112289190611c6b565b6112445760405162461bcd60e51b81526004016105a690611ea2565b600354600187015460405163a9059cbb60e01b81526001600160a01b039283169263a9059cbb9261127c929116908590600401611c52565b6020604051808303816000875af115801561129b573d6000803e3d6000fd5b505050506040513d601f19601f820116820180604052508101906112bf9190611c6b565b6112db5760405162461bcd60e51b81526004016105a690611ed9565b505083546001600160a01b03169050611480565b600060646112fe846014611ccc565b6113089190611e80565b85600201546113179190611ce9565b905060006064611328856050611ccc565b6113329190611e80565b86600301546113419190611ce9565b600354875460405163a9059cbb60e01b81529293506001600160a01b039182169263a9059cbb926113789216908690600401611c52565b6020604051808303816000875af1158015611397573d6000803e3d6000fd5b505050506040513d601f19601f820116820180604052508101906113bb9190611c6b565b6113d75760405162461bcd60e51b81526004016105a690611ea2565b600354600187015460405163a9059cbb60e01b81526001600160a01b039283169263a9059cbb9261140f929116908590600401611c52565b6020604051808303816000875af115801561142e573d6000803e3d6000fd5b505050506040513d601f19601f820116820180604052508101906114529190611c6b565b61146e5760405162461bcd60e51b81526004016105a690611ed9565b50505060018301546001600160a01b03165b806001600160a01b0316857f96a2bff66387be9e7910e4a9ddf9ba9d0b23439aa8c0790b867617d60a8891438460405161101791815260200190565b60026001540361150e5760405162461bcd60e51b815260206004820152601f60248201527f5265656e7472616e637947756172643a207265656e7472616e742063616c6c0060448201526064016105a6565b6002600155565b6000818152600260208190526040822060058101805462ff000019166201000017905560038101549181015490929161154d91611ce9565b90506000606461155e836005611ccc565b6115689190611e80565b600584015490915060009060ff80821615156101009092041615151480156115965750600584015460ff1615155b1561174c57600584015460ff16156115b7576000606461116b846050611ccc565b600060646115c6846014611ccc565b6115d09190611e80565b85600201546115df9190611ce9565b9050600060646115f0856050611ccc565b6115fa9190611e80565b86600301546116099190611ce9565b600354875460405163a9059cbb60e01b81529293506001600160a01b039182169263a9059cbb926116409216908690600401611c52565b6020604051808303816000875af115801561165f573d6000803e3d6000fd5b505050506040513d601f19601f820116820180604052508101906116839190611c6b565b61169f5760405162461bcd60e51b81526004016105a690611ea2565b600354600187015460405163a9059cbb60e01b81526001600160a01b039283169263a9059cbb926116d7929116908590600401611c52565b6020604051808303816000875af11580156116f6573d6000803e3d6000fd5b505050506040513d601f19601f8201168201806040525081019061171a9190611c6b565b6117365760405162461bcd60e51b81526004016105a690611ed9565b50505060018301546001600160a01b0316611480565b6000611759600284611e80565b85600201546117689190611ce9565b90506000611777600285611e80565b86600301546117869190611ce9565b600354875460405163a9059cbb60e01b81529293506001600160a01b039182169263a9059cbb926117bd9216908690600401611c52565b6020604051808303816000875af11580156117dc573d6000803e3d6000fd5b505050506040513d601f19601f820116820180604052508101906118009190611c6b565b61181c5760405162461bcd60e51b81526004016105a690611ea2565b600354600187015460405163a9059cbb60e01b81526001600160a01b039283169263a9059cbb92611854929116908590600401611c52565b6020604051808303816000875af1158015611873573d6000803e3d6000fd5b505050506040513d601f19601f820116820180604052508101906118979190611c6b565b6118b35760405162461bcd60e51b81526004016105a690611ed9565b505060405182815260009150819086907f96a2bff66387be9e7910e4a9ddf9ba9d0b23439aa8c0790b867617d60a88914390602001611017565b600080546001600160a01b038381166001600160a01b0319831681178455604051919092169283917f8be0079c531659141344cd1fd0a4f28419497f9722a3daafe3b4186f6b6457e09190a35050565b60006020828403121561194f57600080fd5b5035919050565b6000815180845260005b8181101561197c57602081850181015186830182015201611960565b506000602082860101526020601f19601f83011685010191505092915050565b602081526119b66020820183516001600160a01b03169052565b600060208301516119d260408401826001600160a01b03169052565b50604083015160608301526060830151608083015260808301516101208060a0850152611a03610140850183611956565b915060a0850151611a1860c086018215159052565b5060c085015180151560e08601525060e0850151610100611a3c8187018315159052565b959095015193019290925250919050565b80356001600160a01b0381168114611a6457600080fd5b919050565b60008060408385031215611a7c57600080fd5b611a8583611a4d565b946020939093013593505050565b6001600160a01b038a8116825289166020820152604081018890526060810187905261012060808201819052600090611ace83820189611956565b96151560a0840152505092151560c084015290151560e08301526101009091015295945050505050565b80151581146109ee57600080fd5b60008060408385031215611b1957600080fd5b823591506020830135611b2b81611af8565b809150509250929050565b600080600080600060808688031215611b4e57600080fd5b8535945060208601359350604086013567ffffffffffffffff80821115611b7457600080fd5b818801915088601f830112611b8857600080fd5b813581811115611b9757600080fd5b896020828501011115611ba957600080fd5b96999598505060200195606001359392505050565b600080600060608486031215611bd357600080fd5b833592506020840135611be581611af8565b929592945050506040919091013590565b600060208284031215611c0857600080fd5b611c1182611a4d565b9392505050565b600181811c90821680611c2c57607f821691505b602082108103611c4c57634e487b7160e01b600052602260045260246000fd5b50919050565b6001600160a01b03929092168252602082015260400190565b600060208284031215611c7d57600080fd5b8151611c1181611af8565b60208082526014908201527310995d08185b1c9958591e481c995cdbdb1d995960621b604082015260600190565b634e487b7160e01b600052601160045260246000fd5b8082028115828204841417611ce357611ce3611cb6565b92915050565b80820180821115611ce357611ce3611cb6565b600060018201611d0e57611d0e611cb6565b5060010190565b634e487b7160e01b600052604160045260246000fd5b601f82111561045457600081815260208120601f850160051c81016020861015611d525750805b601f850160051c820191505b81811015611d7157828155600101611d5e565b505050505050565b815167ffffffffffffffff811115611d9357611d93611d15565b611da781611da18454611c18565b84611d2b565b602080601f831160018114611ddc5760008415611dc45750858301515b600019600386901b1c1916600185901b178555611d71565b600085815260208120601f198616915b82811015611e0b57888601518255948401946001909101908401611dec565b5085821015611e295787850151600019600388901b60f8161c191681555b5050505050600190811b01905550565b85815284602082015260806040820152826080820152828460a0830137600060a08483010152600060a0601f19601f86011683010190508260608301529695505050505050565b600082611e9d57634e487b7160e01b600052601260045260246000fd5b500490565b60208082526017908201527f43726561746f72207472616e73666572206661696c6564000000000000000000604082015260600190565b60208082526018908201527f4f70706f6e656e74207472616e73666572206661696c6564000000000000000060408201526060019056fea264697066735822122016e711af06abf0b7602884f38ef22cd3656a98f6772b9fc0ed48bd981fa9623364736f6c63430008130033","opcodes":"PUSH1 0x80 PUSH1 0x40 MSTORE CALLVALUE DUP1 ISZERO PUSH3 0x11 JUMPI PUSH1 0x0 DUP1 REVERT JUMPDEST POP PUSH1 0x40 MLOAD PUSH3 0x2041 CODESIZE SUB DUP1 PUSH3 0x2041 DUP4 CODECOPY DUP2 ADD PUSH1 0x40 DUP2 SWAP1 MSTORE PUSH3 0x34 SWAP2 PUSH3 0xB9 JUMP JUMPDEST PUSH3 0x3F CALLER PUSH3 0x69 JUMP JUMPDEST PUSH1 0x1 DUP1 SSTORE PUSH1 0x3 DUP1 SLOAD PUSH1 0x1 PUSH1 0x1 PUSH1 0xA0 SHL SUB NOT AND PUSH1 0x1 PUSH1 0x1 PUSH1 0xA0 SHL SUB SWAP3 SWAP1 SWAP3 AND SWAP2 SWAP1 SWAP2 OR SWAP1 SSTORE PUSH3 0xEB JUMP JUMPDEST PUSH1 0x0 DUP1 SLOAD PUSH1 0x1 PUSH1 0x1 PUSH1 0xA0 SHL SUB DUP4 DUP2 AND PUSH1 0x1 PUSH1 0x1 PUSH1 0xA0 SHL SUB NOT DUP4 AND DUP2 OR DUP5 SSTORE PUSH1 0x40 MLOAD SWAP2 SWAP1 SWAP3 AND SWAP3 DUP4 SWAP2 PUSH32 0x8BE0079C531659141344CD1FD0A4F28419497F9722A3DAAFE3B4186F6B6457E0 SWAP2 SWAP1 LOG3 POP POP JUMP JUMPDEST PUSH1 0x0 PUSH1 0x20 DUP3 DUP5 SUB SLT ISZERO PUSH3 0xCC JUMPI PUSH1 0x0 DUP1 REVERT JUMPDEST DUP2 MLOAD PUSH1 0x1 PUSH1 0x1 PUSH1 0xA0 SHL SUB DUP2 AND DUP2 EQ PUSH3 0xE4 JUMPI PUSH1 0x0 DUP1 REVERT JUMPDEST SWAP4 SWAP3 POP POP POP JUMP JUMPDEST PUSH2 0x1F46 DUP1 PUSH3 0xFB PUSH1 0x0 CODECOPY PUSH1 0x0 RETURN INVALID PUSH1 0x80 PUSH1 0x40 MSTORE CALLVALUE DUP1 ISZERO PUSH2 0x10 JUMPI PUSH1 0x0 DUP1 REVERT JUMPDEST POP PUSH1 0x4 CALLDATASIZE LT PUSH2 0x10B JUMPI PUSH1 0x0 CALLDATALOAD PUSH1 0xE0 SHR DUP1 PUSH4 0x72BEBFFE GT PUSH2 0xA2 JUMPI DUP1 PUSH4 0xAE0EA675 GT PUSH2 0x71 JUMPI DUP1 PUSH4 0xAE0EA675 EQ PUSH2 0x20C JUMPI DUP1 PUSH4 0xB93DAB0B EQ PUSH2 0x21F JUMPI DUP1 PUSH4 0xC93F0023 EQ PUSH2 0x227 JUMPI DUP1 PUSH4 0xE22D551A EQ PUSH2 0x23A JUMPI DUP1 PUSH4 0xF2FDE38B EQ PUSH2 0x24D JUMPI PUSH1 0x0 DUP1 REVERT JUMPDEST DUP1 PUSH4 0x72BEBFFE EQ PUSH2 0x1CF JUMPI DUP1 PUSH4 0x788965E9 EQ PUSH2 0x1CF JUMPI DUP1 PUSH4 0x8DA5CB5B EQ PUSH2 0x1DE JUMPI DUP1 PUSH4 0xA416F5AB EQ PUSH2 0x203 JUMPI PUSH1 0x0 DUP1 REVERT JUMPDEST DUP1 PUSH4 0x357401F5 GT PUSH2 0xDE JUMPI DUP1 PUSH4 0x357401F5 EQ PUSH2 0x18E JUMPI DUP1 PUSH4 0x41B80300 EQ PUSH2 0x1A1 JUMPI DUP1 PUSH4 0x4C36C36E EQ PUSH2 0x1B4 JUMPI DUP1 PUSH4 0x715018A6 EQ PUSH2 0x1C7 JUMPI PUSH1 0x0 DUP1 REVERT JUMPDEST DUP1 PUSH4 0x61E494F EQ PUSH2 0x110 JUMPI DUP1 PUSH4 0x69C9FAE EQ PUSH2 0x139 JUMPI DUP1 PUSH4 0x16AE4828 EQ PUSH2 0x14E JUMPI DUP1 PUSH4 0x22AF00FA EQ PUSH2 0x166 JUMPI JUMPDEST PUSH1 0x0 DUP1 REVERT JUMPDEST PUSH2 0x123 PUSH2 0x11E CALLDATASIZE PUSH1 0x4 PUSH2 0x193D JUMP JUMPDEST PUSH2 0x260 JUMP JUMPDEST PUSH1 0x40 MLOAD PUSH2 0x130 SWAP2 SWAP1 PUSH2 0x199C JUMP JUMPDEST PUSH1 0x40 MLOAD DUP1 SWAP2 SUB SWAP1 RETURN JUMPDEST PUSH2 0x14C PUSH2 0x147 CALLDATASIZE PUSH1 0x4 PUSH2 0x1A69 JUMP JUMPDEST PUSH2 0x3CA JUMP JUMPDEST STOP JUMPDEST PUSH2 0x158 PUSH3 0x93A80 DUP2 JUMP JUMPDEST PUSH1 0x40 MLOAD SWAP1 DUP2 MSTORE PUSH1 0x20 ADD PUSH2 0x130 JUMP JUMPDEST PUSH2 0x179 PUSH2 0x174 CALLDATASIZE PUSH1 0x4 PUSH2 0x193D JUMP JUMPDEST PUSH2 0x459 JUMP JUMPDEST PUSH1 0x40 MLOAD PUSH2 0x130 SWAP10 SWAP9 SWAP8 SWAP7 SWAP6 SWAP5 SWAP4 SWAP3 SWAP2 SWAP1 PUSH2 0x1A93 JUMP JUMPDEST PUSH2 0x14C PUSH2 0x19C CALLDATASIZE PUSH1 0x4 PUSH2 0x193D JUMP JUMPDEST PUSH2 0x543 JUMP JUMPDEST PUSH2 0x14C PUSH2 0x1AF CALLDATASIZE PUSH1 0x4 PUSH2 0x1B06 JUMP JUMPDEST PUSH2 0x725 JUMP JUMPDEST PUSH2 0x14C PUSH2 0x1C2 CALLDATASIZE PUSH1 0x4 PUSH2 0x193D JUMP JUMPDEST PUSH2 0x8D7 JUMP JUMPDEST PUSH2 0x14C PUSH2 0x9F1 JUMP JUMPDEST PUSH2 0x158 PUSH8 0x8AC7230489E80000 DUP2 JUMP JUMPDEST PUSH1 0x0 SLOAD PUSH1 0x1 PUSH1 0x1 PUSH1 0xA0 SHL SUB AND JUMPDEST PUSH1 0x40 MLOAD PUSH1 0x1 PUSH1 0x1 PUSH1 0xA0 SHL SUB SWAP1 SWAP2 AND DUP2 MSTORE PUSH1 0x20 ADD PUSH2 0x130 JUMP JUMPDEST PUSH2 0x158 PUSH1 0x4 SLOAD DUP2 JUMP JUMPDEST PUSH2 0x14C PUSH2 0x21A CALLDATASIZE PUSH1 0x4 PUSH2 0x1B36 JUMP JUMPDEST PUSH2 0xA05 JUMP JUMPDEST PUSH1 0x4 SLOAD PUSH2 0x158 JUMP JUMPDEST PUSH2 0x14C PUSH2 0x235 CALLDATASIZE PUSH1 0x4 PUSH2 0x1BBE JUMP JUMPDEST PUSH2 0xD3E JUMP JUMPDEST PUSH1 0x3 SLOAD PUSH2 0x1EB SWAP1 PUSH1 0x1 PUSH1 0x1 PUSH1 0xA0 SHL SUB AND DUP2 JUMP JUMPDEST PUSH2 0x14C PUSH2 0x25B CALLDATASIZE PUSH1 0x4 PUSH2 0x1BF6 JUMP JUMPDEST PUSH2 0x1026 JUMP JUMPDEST PUSH1 0x40 DUP1 MLOAD PUSH2 0x120 DUP2 ADD DUP3 MSTORE PUSH1 0x0 DUP1 DUP3 MSTORE PUSH1 0x20 DUP3 ADD DUP2 SWAP1 MSTORE SWAP2 DUP2 ADD DUP3 SWAP1 MSTORE PUSH1 0x60 DUP1 DUP3 ADD DUP4 SWAP1 MSTORE PUSH1 0x80 DUP3 ADD MSTORE PUSH1 0xA0 DUP2 ADD DUP3 SWAP1 MSTORE PUSH1 0xC0 DUP2 ADD DUP3 SWAP1 MSTORE PUSH1 0xE0 DUP2 ADD DUP3 SWAP1 MSTORE PUSH2 0x100 DUP2 ADD SWAP2 SWAP1 SWAP2 MSTORE PUSH1 0x0 DUP3 DUP2 MSTORE PUSH1 0x2 PUSH1 0x20 DUP2 DUP2 MSTORE PUSH1 0x40 SWAP3 DUP4 SWAP1 KECCAK256 DUP4 MLOAD PUSH2 0x120 DUP2 ADD DUP6 MSTORE DUP2 SLOAD PUSH1 0x1 PUSH1 0x1 PUSH1 0xA0 SHL SUB SWAP1 DUP2 AND DUP3 MSTORE PUSH1 0x1 DUP4 ADD SLOAD AND SWAP3 DUP2 ADD SWAP3 SWAP1 SWAP3 MSTORE SWAP2 DUP3 ADD SLOAD SWAP3 DUP2 ADD SWAP3 SWAP1 SWAP3 MSTORE PUSH1 0x3 DUP2 ADD SLOAD PUSH1 0x60 DUP4 ADD MSTORE PUSH1 0x4 DUP2 ADD DUP1 SLOAD PUSH1 0x80 DUP5 ADD SWAP2 SWAP1 PUSH2 0x309 SWAP1 PUSH2 0x1C18 JUMP JUMPDEST DUP1 PUSH1 0x1F ADD PUSH1 0x20 DUP1 SWAP2 DIV MUL PUSH1 0x20 ADD PUSH1 0x40 MLOAD SWAP1 DUP2 ADD PUSH1 0x40 MSTORE DUP1 SWAP3 SWAP2 SWAP1 DUP2 DUP2 MSTORE PUSH1 0x20 ADD DUP3 DUP1 SLOAD PUSH2 0x335 SWAP1 PUSH2 0x1C18 JUMP JUMPDEST DUP1 ISZERO PUSH2 0x382 JUMPI DUP1 PUSH1 0x1F LT PUSH2 0x357 JUMPI PUSH2 0x100 DUP1 DUP4 SLOAD DIV MUL DUP4 MSTORE SWAP2 PUSH1 0x20 ADD SWAP2 PUSH2 0x382 JUMP JUMPDEST DUP3 ADD SWAP2 SWAP1 PUSH1 0x0 MSTORE PUSH1 0x20 PUSH1 0x0 KECCAK256 SWAP1 JUMPDEST DUP2 SLOAD DUP2 MSTORE SWAP1 PUSH1 0x1 ADD SWAP1 PUSH1 0x20 ADD DUP1 DUP4 GT PUSH2 0x365 JUMPI DUP3 SWAP1 SUB PUSH1 0x1F AND DUP3 ADD SWAP2 JUMPDEST POP POP POP SWAP2 DUP4 MSTORE POP POP PUSH1 0x5 DUP3 ADD SLOAD PUSH1 0xFF DUP1 DUP3 AND ISZERO ISZERO PUSH1 0x20 DUP5 ADD MSTORE PUSH2 0x100 DUP3 DIV DUP2 AND ISZERO ISZERO PUSH1 0x40 DUP5 ADD MSTORE PUSH3 0x10000 SWAP1 SWAP2 DIV AND ISZERO ISZERO PUSH1 0x60 DUP3 ADD MSTORE PUSH1 0x6 SWAP1 SWAP2 ADD SLOAD PUSH1 0x80 SWAP1 SWAP2 ADD MSTORE SWAP3 SWAP2 POP POP JUMP JUMPDEST PUSH2 0x3D2 PUSH2 0x109C JUMP JUMPDEST DUP2 PUSH1 0x1 PUSH1 0x1 PUSH1 0xA0 SHL SUB AND PUSH4 0xA9059CBB PUSH2 0x3F3 PUSH1 0x0 SLOAD PUSH1 0x1 PUSH1 0x1 PUSH1 0xA0 SHL SUB AND SWAP1 JUMP JUMPDEST DUP4 PUSH1 0x40 MLOAD DUP4 PUSH4 0xFFFFFFFF AND PUSH1 0xE0 SHL DUP2 MSTORE PUSH1 0x4 ADD PUSH2 0x411 SWAP3 SWAP2 SWAP1 PUSH2 0x1C52 JUMP JUMPDEST PUSH1 0x20 PUSH1 0x40 MLOAD DUP1 DUP4 SUB DUP2 PUSH1 0x0 DUP8 GAS CALL ISZERO DUP1 ISZERO PUSH2 0x430 JUMPI RETURNDATASIZE PUSH1 0x0 DUP1 RETURNDATACOPY RETURNDATASIZE PUSH1 0x0 REVERT JUMPDEST POP POP POP POP PUSH1 0x40 MLOAD RETURNDATASIZE PUSH1 0x1F NOT PUSH1 0x1F DUP3 ADD AND DUP3 ADD DUP1 PUSH1 0x40 MSTORE POP DUP2 ADD SWAP1 PUSH2 0x454 SWAP2 SWAP1 PUSH2 0x1C6B JUMP JUMPDEST POP POP POP JUMP JUMPDEST PUSH1 0x2 PUSH1 0x20 DUP2 SWAP1 MSTORE PUSH1 0x0 SWAP2 DUP3 MSTORE PUSH1 0x40 SWAP1 SWAP2 KECCAK256 DUP1 SLOAD PUSH1 0x1 DUP3 ADD SLOAD SWAP3 DUP3 ADD SLOAD PUSH1 0x3 DUP4 ADD SLOAD PUSH1 0x4 DUP5 ADD DUP1 SLOAD PUSH1 0x1 PUSH1 0x1 PUSH1 0xA0 SHL SUB SWAP5 DUP6 AND SWAP7 SWAP1 SWAP5 AND SWAP5 SWAP3 SWAP4 SWAP2 SWAP3 SWAP2 PUSH2 0x49E SWAP1 PUSH2 0x1C18 JUMP JUMPDEST DUP1 PUSH1 0x1F ADD PUSH1 0x20 DUP1 SWAP2 DIV MUL PUSH1 0x20 ADD PUSH1 0x40 MLOAD SWAP1 DUP2 ADD PUSH1 0x40 MSTORE DUP1 SWAP3 SWAP2 SWAP1 DUP2 DUP2 MSTORE PUSH1 0x20 ADD DUP3 DUP1 SLOAD PUSH2 0x4CA SWAP1 PUSH2 0x1C18 JUMP JUMPDEST DUP1 ISZERO PUSH2 0x517 JUMPI DUP1 PUSH1 0x1F LT PUSH2 0x4EC JUMPI PUSH2 0x100 DUP1 DUP4 SLOAD DIV MUL DUP4 MSTORE SWAP2 PUSH1 0x20 ADD SWAP2 PUSH2 0x517 JUMP JUMPDEST DUP3 ADD SWAP2 SWAP1 PUSH1 0x0 MSTORE PUSH1 0x20 PUSH1 0x0 KECCAK256 SWAP1 JUMPDEST DUP2 SLOAD DUP2 MSTORE SWAP1 PUSH1 0x1 ADD SWAP1 PUSH1 0x20 ADD DUP1 DUP4 GT PUSH2 0x4FA JUMPI DUP3 SWAP1 SUB PUSH1 0x1F AND DUP3 ADD SWAP2 JUMPDEST POP POP POP PUSH1 0x5 DUP5 ADD SLOAD PUSH1 0x6 SWAP1 SWAP5 ADD SLOAD SWAP3 SWAP4 PUSH1 0xFF DUP1 DUP3 AND SWAP5 PUSH2 0x100 DUP4 DIV DUP3 AND SWAP5 POP PUSH3 0x10000 SWAP1 SWAP3 DIV AND SWAP2 POP DUP10 JUMP JUMPDEST PUSH1 0x0 DUP2 DUP2 MSTORE PUSH1 0x2 PUSH1 0x20 MSTORE PUSH1 0x40 SWAP1 KECCAK256 DUP1 SLOAD PUSH1 0x1 PUSH1 0x1 PUSH1 0xA0 SHL SUB AND CALLER EQ PUSH2 0x5AF JUMPI PUSH1 0x40 MLOAD PUSH3 0x461BCD PUSH1 0xE5 SHL DUP2 MSTORE PUSH1 0x20 PUSH1 0x4 DUP3 ADD MSTORE PUSH1 0x17 PUSH1 0x24 DUP3 ADD MSTORE PUSH32 0x4F6E6C792063726561746F722063616E2063616E63656C000000000000000000 PUSH1 0x44 DUP3 ADD MSTORE PUSH1 0x64 ADD JUMPDEST PUSH1 0x40 MLOAD DUP1 SWAP2 SUB SWAP1 REVERT JUMPDEST PUSH1 0x1 DUP2 ADD SLOAD PUSH1 0x1 PUSH1 0x1 PUSH1 0xA0 SHL SUB AND ISZERO PUSH2 0x601 JUMPI PUSH1 0x40 MLOAD PUSH3 0x461BCD PUSH1 0xE5 SHL DUP2 MSTORE PUSH1 0x20 PUSH1 0x4 DUP3 ADD MSTORE PUSH1 0x14 PUSH1 0x24 DUP3 ADD MSTORE PUSH20 0x10995D08185B1C9958591E481858D8D95C1D1959 PUSH1 0x62 SHL PUSH1 0x44 DUP3 ADD MSTORE PUSH1 0x64 ADD PUSH2 0x5A6 JUMP JUMPDEST PUSH1 0x5 DUP2 ADD SLOAD PUSH3 0x10000 SWAP1 DIV PUSH1 0xFF AND ISZERO PUSH2 0x62C JUMPI PUSH1 0x40 MLOAD PUSH3 0x461BCD PUSH1 0xE5 SHL DUP2 MSTORE PUSH1 0x4 ADD PUSH2 0x5A6 SWAP1 PUSH2 0x1C88 JUMP JUMPDEST PUSH1 0x5 DUP2 ADD DUP1 SLOAD PUSH3 0xFF0000 NOT AND PUSH3 0x10000 OR SWAP1 SSTORE PUSH1 0x3 SLOAD DUP2 SLOAD PUSH1 0x2 DUP4 ADD SLOAD PUSH1 0x40 MLOAD PUSH4 0xA9059CBB PUSH1 0xE0 SHL DUP2 MSTORE PUSH1 0x1 PUSH1 0x1 PUSH1 0xA0 SHL SUB SWAP4 DUP5 AND SWAP4 PUSH4 0xA9059CBB SWAP4 PUSH2 0x677 SWAP4 SWAP2 AND SWAP2 PUSH1 0x4 ADD PUSH2 0x1C52 JUMP JUMPDEST PUSH1 0x20 PUSH1 0x40 MLOAD DUP1 DUP4 SUB DUP2 PUSH1 0x0 DUP8 GAS CALL ISZERO DUP1 ISZERO PUSH2 0x696 JUMPI RETURNDATASIZE PUSH1 0x0 DUP1 RETURNDATACOPY RETURNDATASIZE PUSH1 0x0 REVERT JUMPDEST POP POP POP POP PUSH1 0x40 MLOAD RETURNDATASIZE PUSH1 0x1F NOT PUSH1 0x1F DUP3 ADD AND DUP3 ADD DUP1 PUSH1 0x40 MSTORE POP DUP2 ADD SWAP1 PUSH2 0x6BA SWAP2 SWAP1 PUSH2 0x1C6B JUMP JUMPDEST PUSH2 0x6F6 JUMPI PUSH1 0x40 MLOAD PUSH3 0x461BCD PUSH1 0xE5 SHL DUP2 MSTORE PUSH1 0x20 PUSH1 0x4 DUP3 ADD MSTORE PUSH1 0xD PUSH1 0x24 DUP3 ADD MSTORE PUSH13 0x1499599D5B990819985A5B1959 PUSH1 0x9A SHL PUSH1 0x44 DUP3 ADD MSTORE PUSH1 0x64 ADD PUSH2 0x5A6 JUMP JUMPDEST PUSH1 0x40 MLOAD DUP3 SWAP1 PUSH32 0xE3906E8D1E2167EF706B023E6E83AF697DB5CD38F233C71BF5021B26B316C3A2 SWAP1 PUSH1 0x0 SWAP1 LOG2 POP POP JUMP JUMPDEST PUSH1 0x0 DUP3 DUP2 MSTORE PUSH1 0x2 PUSH1 0x20 MSTORE PUSH1 0x40 SWAP1 KECCAK256 PUSH1 0x1 DUP2 ADD SLOAD PUSH1 0x1 PUSH1 0x1 PUSH1 0xA0 SHL SUB AND PUSH2 0x784 JUMPI PUSH1 0x40 MLOAD PUSH3 0x461BCD PUSH1 0xE5 SHL DUP2 MSTORE PUSH1 0x20 PUSH1 0x4 DUP3 ADD MSTORE PUSH1 0x14 PUSH1 0x24 DUP3 ADD MSTORE PUSH20 0x10995D081B9BDD081858D8D95C1D1959081E595D PUSH1 0x62 SHL PUSH1 0x44 DUP3 ADD MSTORE PUSH1 0x64 ADD PUSH2 0x5A6 JUMP JUMPDEST PUSH1 0x5 DUP2 ADD SLOAD PUSH3 0x10000 SWAP1 DIV PUSH1 0xFF AND ISZERO PUSH2 0x7AF JUMPI PUSH1 0x40 MLOAD PUSH3 0x461BCD PUSH1 0xE5 SHL DUP2 MSTORE PUSH1 0x4 ADD PUSH2 0x5A6 SWAP1 PUSH2 0x1C88 JUMP JUMPDEST DUP1 SLOAD PUSH1 0x1 PUSH1 0x1 PUSH1 0xA0 SHL SUB AND CALLER EQ DUP1 PUSH2 0x7D3 JUMPI POP PUSH1 0x1 DUP2 ADD SLOAD PUSH1 0x1 PUSH1 0x1 PUSH1 0xA0 SHL SUB AND CALLER EQ JUMPDEST PUSH2 0x813 JUMPI PUSH1 0x40 MLOAD PUSH3 0x461BCD PUSH1 0xE5 SHL DUP2 MSTORE PUSH1 0x20 PUSH1 0x4 DUP3 ADD MSTORE PUSH1 0x11 PUSH1 0x24 DUP3 ADD MSTORE PUSH17 0x139BDD0818481C185C9D1A58DA5C185B9D PUSH1 0x7A SHL PUSH1 0x44 DUP3 ADD MSTORE PUSH1 0x64 ADD PUSH2 0x5A6 JUMP JUMPDEST DUP1 SLOAD PUSH1 0x1 PUSH1 0x1 PUSH1 0xA0 SHL SUB AND CALLER SUB PUSH2 0x839 JUMPI PUSH1 0x5 DUP2 ADD DUP1 SLOAD PUSH1 0xFF NOT AND DUP4 ISZERO ISZERO OR SWAP1 SSTORE PUSH2 0x84F JUMP JUMPDEST PUSH1 0x5 DUP2 ADD DUP1 SLOAD PUSH2 0xFF00 NOT AND PUSH2 0x100 DUP5 ISZERO ISZERO MUL OR SWAP1 SSTORE JUMPDEST PUSH1 0x40 MLOAD DUP3 ISZERO ISZERO DUP2 MSTORE CALLER SWAP1 DUP5 SWAP1 PUSH32 0xE64FC5D3EC89C58B1BC0305AA4E968C6BEAD6672AAACC91B33F219BFCF361A2B SWAP1 PUSH1 0x20 ADD PUSH1 0x40 MLOAD DUP1 SWAP2 SUB SWAP1 LOG3 PUSH1 0x5 DUP2 ADD SLOAD PUSH1 0xFF DUP1 DUP3 AND ISZERO ISZERO PUSH2 0x100 SWAP1 SWAP3 DIV AND ISZERO ISZERO EQ DUP1 ISZERO PUSH2 0x8C9 JUMPI POP DUP1 SLOAD PUSH1 0x1 PUSH1 0x1 PUSH1 0xA0 SHL SUB AND CALLER EQ DUP1 PUSH2 0x8C9 JUMPI POP PUSH1 0x1 DUP2 ADD SLOAD PUSH1 0x1 PUSH1 0x1 PUSH1 0xA0 SHL SUB AND CALLER EQ JUMPDEST ISZERO PUSH2 0x454 JUMPI PUSH2 0x454 DUP4 PUSH2 0x10F6 JUMP JUMPDEST PUSH2 0x8DF PUSH2 0x14BC JUMP JUMPDEST PUSH1 0x0 DUP2 DUP2 MSTORE PUSH1 0x2 PUSH1 0x20 MSTORE PUSH1 0x40 SWAP1 KECCAK256 PUSH1 0x1 DUP2 ADD SLOAD PUSH1 0x1 PUSH1 0x1 PUSH1 0xA0 SHL SUB AND PUSH2 0x93E JUMPI PUSH1 0x40 MLOAD PUSH3 0x461BCD PUSH1 0xE5 SHL DUP2 MSTORE PUSH1 0x20 PUSH1 0x4 DUP3 ADD MSTORE PUSH1 0x14 PUSH1 0x24 DUP3 ADD MSTORE PUSH20 0x10995D081B9BDD081858D8D95C1D1959081E595D PUSH1 0x62 SHL PUSH1 0x44 DUP3 ADD MSTORE PUSH1 0x64 ADD PUSH2 0x5A6 JUMP JUMPDEST PUSH1 0x5 DUP2 ADD SLOAD PUSH3 0x10000 SWAP1 DIV PUSH1 0xFF AND ISZERO PUSH2 0x969 JUMPI PUSH1 0x40 MLOAD PUSH3 0x461BCD PUSH1 0xE5 SHL DUP2 MSTORE PUSH1 0x4 ADD PUSH2 0x5A6 SWAP1 PUSH2 0x1C88 JUMP JUMPDEST DUP1 PUSH1 0x6 ADD SLOAD TIMESTAMP LT PUSH2 0x982 JUMPI PUSH2 0x97D DUP3 PUSH2 0x1515 JUMP JUMPDEST PUSH2 0x9E4 JUMP JUMPDEST PUSH1 0x5 DUP2 ADD SLOAD PUSH1 0xFF DUP1 DUP3 AND ISZERO ISZERO PUSH2 0x100 SWAP1 SWAP3 DIV AND ISZERO ISZERO EQ PUSH2 0x9DB JUMPI PUSH1 0x40 MLOAD PUSH3 0x461BCD PUSH1 0xE5 SHL DUP2 MSTORE PUSH1 0x20 PUSH1 0x4 DUP3 ADD MSTORE PUSH1 0x14 PUSH1 0x24 DUP3 ADD MSTORE PUSH20 0x9EEAE8C6DEDACAE640C8DEDC4EE840DAC2E8C6D PUSH1 0x63 SHL PUSH1 0x44 DUP3 ADD MSTORE PUSH1 0x64 ADD PUSH2 0x5A6 JUMP JUMPDEST PUSH2 0x9E4 DUP3 PUSH2 0x10F6 JUMP JUMPDEST POP PUSH2 0x9EE PUSH1 0x1 DUP1 SSTORE JUMP JUMPDEST POP JUMP JUMPDEST PUSH2 0x9F9 PUSH2 0x109C JUMP JUMPDEST PUSH2 0xA03 PUSH1 0x0 PUSH2 0x18ED JUMP JUMPDEST JUMP JUMPDEST PUSH8 0x8AC7230489E80000 DUP6 LT ISZERO PUSH2 0xA55 JUMPI PUSH1 0x40 MLOAD PUSH3 0x461BCD PUSH1 0xE5 SHL DUP2 MSTORE PUSH1 0x20 PUSH1 0x4 DUP3 ADD MSTORE PUSH1 0x15 PUSH1 0x24 DUP3 ADD MSTORE PUSH21 0x43726561746F72207374616B6520746F6F206C6F77 PUSH1 0x58 SHL PUSH1 0x44 DUP3 ADD MSTORE PUSH1 0x64 ADD PUSH2 0x5A6 JUMP JUMPDEST PUSH8 0x8AC7230489E80000 DUP5 LT ISZERO PUSH2 0xAA6 JUMPI PUSH1 0x40 MLOAD PUSH3 0x461BCD PUSH1 0xE5 SHL DUP2 MSTORE PUSH1 0x20 PUSH1 0x4 DUP3 ADD MSTORE PUSH1 0x16 PUSH1 0x24 DUP3 ADD MSTORE PUSH22 0x4F70706F6E656E74207374616B6520746F6F206C6F77 PUSH1 0x50 SHL PUSH1 0x44 DUP3 ADD MSTORE PUSH1 0x64 ADD PUSH2 0x5A6 JUMP JUMPDEST PUSH1 0x3 SLOAD PUSH1 0x40 MLOAD PUSH4 0x23B872DD PUSH1 0xE0 SHL DUP2 MSTORE CALLER PUSH1 0x4 DUP3 ADD MSTORE ADDRESS PUSH1 0x24 DUP3 ADD MSTORE PUSH1 0x44 DUP2 ADD DUP8 SWAP1 MSTORE PUSH1 0x1 PUSH1 0x1 PUSH1 0xA0 SHL SUB SWAP1 SWAP2 AND SWAP1 PUSH4 0x23B872DD SWAP1 PUSH1 0x64 ADD PUSH1 0x20 PUSH1 0x40 MLOAD DUP1 DUP4 SUB DUP2 PUSH1 0x0 DUP8 GAS CALL ISZERO DUP1 ISZERO PUSH2 0xAFD JUMPI RETURNDATASIZE PUSH1 0x0 DUP1 RETURNDATACOPY RETURNDATASIZE PUSH1 0x0 REVERT JUMPDEST POP POP POP POP PUSH1 0x40 MLOAD RETURNDATASIZE PUSH1 0x1F NOT PUSH1 0x1F DUP3 ADD AND DUP3 ADD DUP1 PUSH1 0x40 MSTORE POP DUP2 ADD SWAP1 PUSH2 0xB21 SWAP2 SWAP1 PUSH2 0x1C6B JUMP JUMPDEST PUSH2 0xB65 JUMPI PUSH1 0x40 MLOAD PUSH3 0x461BCD PUSH1 0xE5 SHL DUP2 MSTORE PUSH1 0x20 PUSH1 0x4 DUP3 ADD MSTORE PUSH1 0x15 PUSH1 0x24 DUP3 ADD MSTORE PUSH21 0x14DD185AD9481D1C985B9CD9995C8819985A5B1959 PUSH1 0x5A SHL PUSH1 0x44 DUP3 ADD MSTORE PUSH1 0x64 ADD PUSH2 0x5A6 JUMP JUMPDEST PUSH1 0x0 DUP1 DUP3 GT PUSH2 0xB77 JUMPI PUSH3 0x93A80 PUSH2 0xB84 JUMP JUMPDEST PUSH2 0xB84 DUP3 PUSH3 0x15180 PUSH2 0x1CCC JUMP JUMPDEST SWAP1 POP PUSH1 0x0 PUSH2 0xB92 DUP3 TIMESTAMP PUSH2 0x1CE9 JUMP JUMPDEST PUSH1 0x4 DUP1 SLOAD SWAP2 SWAP3 POP PUSH1 0x0 SWAP2 SWAP1 DUP3 PUSH2 0xBA7 DUP4 PUSH2 0x1CFC JUMP JUMPDEST SWAP2 SWAP1 POP SSTORE SWAP1 POP PUSH1 0x40 MLOAD DUP1 PUSH2 0x120 ADD PUSH1 0x40 MSTORE DUP1 CALLER PUSH1 0x1 PUSH1 0x1 PUSH1 0xA0 SHL SUB AND DUP2 MSTORE PUSH1 0x20 ADD PUSH1 0x0 PUSH1 0x1 PUSH1 0x1 PUSH1 0xA0 SHL SUB AND DUP2 MSTORE PUSH1 0x20 ADD DUP10 DUP2 MSTORE PUSH1 0x20 ADD DUP9 DUP2 MSTORE PUSH1 0x20 ADD DUP8 DUP8 DUP1 DUP1 PUSH1 0x1F ADD PUSH1 0x20 DUP1 SWAP2 DIV MUL PUSH1 0x20 ADD PUSH1 0x40 MLOAD SWAP1 DUP2 ADD PUSH1 0x40 MSTORE DUP1 SWAP4 SWAP3 SWAP2 SWAP1 DUP2 DUP2 MSTORE PUSH1 0x20 ADD DUP4 DUP4 DUP1 DUP3 DUP5 CALLDATACOPY PUSH1 0x0 SWAP3 ADD DUP3 SWAP1 MSTORE POP SWAP4 DUP6 MSTORE POP POP POP PUSH1 0x20 DUP1 DUP4 ADD DUP3 SWAP1 MSTORE PUSH1 0x40 DUP1 DUP5 ADD DUP4 SWAP1 MSTORE PUSH1 0x60 DUP1 DUP6 ADD DUP5 SWAP1 MSTORE PUSH1 0x80 SWAP5 DUP6 ADD DUP9 SWAP1 MSTORE DUP7 DUP5 MSTORE PUSH1 0x2 DUP1 DUP5 MSTORE SWAP4 DUP3 SWAP1 KECCAK256 DUP7 MLOAD DUP2 SLOAD PUSH1 0x1 PUSH1 0x1 PUSH1 0xA0 SHL SUB NOT SWAP1 DUP2 AND PUSH1 0x1 PUSH1 0x1 PUSH1 0xA0 SHL SUB SWAP3 DUP4 AND OR DUP4 SSTORE SWAP5 DUP9 ADD MLOAD PUSH1 0x1 DUP4 ADD DUP1 SLOAD SWAP1 SWAP7 AND SWAP2 AND OR SWAP1 SWAP4 SSTORE SWAP1 DUP6 ADD MLOAD SWAP3 DUP3 ADD SWAP3 SWAP1 SWAP3 SSTORE SWAP1 DUP4 ADD MLOAD PUSH1 0x3 DUP3 ADD SSTORE SWAP1 DUP3 ADD MLOAD PUSH1 0x4 DUP3 ADD SWAP1 PUSH2 0xCA0 SWAP1 DUP3 PUSH2 0x1D79 JUMP JUMPDEST POP PUSH1 0xA0 DUP3 ADD MLOAD PUSH1 0x5 DUP3 ADD DUP1 SLOAD PUSH1 0xC0 DUP6 ADD MLOAD PUSH1 0xE0 DUP7 ADD MLOAD PUSH2 0xFFFF NOT SWAP1 SWAP3 AND SWAP4 ISZERO ISZERO PUSH2 0xFF00 NOT AND SWAP4 SWAP1 SWAP4 OR PUSH2 0x100 SWAP4 ISZERO ISZERO DUP5 MUL OR PUSH3 0xFF0000 NOT AND PUSH3 0x10000 SWAP2 ISZERO ISZERO SWAP2 SWAP1 SWAP2 MUL OR SWAP1 SSTORE SWAP1 SWAP2 ADD MLOAD PUSH1 0x6 SWAP1 SWAP2 ADD SSTORE PUSH1 0x40 MLOAD CALLER SWAP1 DUP3 SWAP1 PUSH32 0xAA04BF3B345F165D756C64731BAD28CC81A001FBF6D22081AFBBFD310A53065B SWAP1 PUSH2 0xD2C SWAP1 DUP13 SWAP1 DUP13 SWAP1 DUP13 SWAP1 DUP13 SWAP1 DUP11 SWAP1 PUSH2 0x1E39 JUMP JUMPDEST PUSH1 0x40 MLOAD DUP1 SWAP2 SUB SWAP1 LOG3 POP POP POP POP POP POP POP POP JUMP JUMPDEST PUSH1 0x0 DUP4 DUP2 MSTORE PUSH1 0x2 PUSH1 0x20 MSTORE PUSH1 0x40 SWAP1 KECCAK256 DUP1 SLOAD PUSH1 0x1 PUSH1 0x1 PUSH1 0xA0 SHL SUB AND PUSH2 0xD98 JUMPI PUSH1 0x40 MLOAD PUSH3 0x461BCD PUSH1 0xE5 SHL DUP2 MSTORE PUSH1 0x20 PUSH1 0x4 DUP3 ADD MSTORE PUSH1 0x12 PUSH1 0x24 DUP3 ADD MSTORE PUSH18 0x10995D08191BD95CC81B9BDD08195E1A5CDD PUSH1 0x72 SHL PUSH1 0x44 DUP3 ADD MSTORE PUSH1 0x64 ADD PUSH2 0x5A6 JUMP JUMPDEST PUSH1 0x1 DUP2 ADD SLOAD PUSH1 0x1 PUSH1 0x1 PUSH1 0xA0 SHL SUB AND ISZERO PUSH2 0xDEA JUMPI PUSH1 0x40 MLOAD PUSH3 0x461BCD PUSH1 0xE5 SHL DUP2 MSTORE PUSH1 0x20 PUSH1 0x4 DUP3 ADD MSTORE PUSH1 0x14 PUSH1 0x24 DUP3 ADD MSTORE PUSH20 0x10995D08185B1C9958591E481858D8D95C1D1959 PUSH1 0x62 SHL PUSH1 0x44 DUP3 ADD MSTORE PUSH1 0x64 ADD PUSH2 0x5A6 JUMP JUMPDEST DUP1 SLOAD PUSH1 0x1 PUSH1 0x1 PUSH1 0xA0 SHL SUB AND CALLER SUB PUSH2 0xE43 JUMPI PUSH1 0x40 MLOAD PUSH3 0x461BCD PUSH1 0xE5 SHL DUP2 MSTORE PUSH1 0x20 PUSH1 0x4 DUP3 ADD MSTORE PUSH1 0x1D PUSH1 0x24 DUP3 ADD MSTORE PUSH32 0x43726561746F722063616E6E6F7420616363657074206F776E20626574000000 PUSH1 0x44 DUP3 ADD MSTORE PUSH1 0x64 ADD PUSH2 0x5A6 JUMP JUMPDEST DUP1 PUSH1 0x6 ADD SLOAD TIMESTAMP LT PUSH2 0xE88 JUMPI PUSH1 0x40 MLOAD PUSH3 0x461BCD PUSH1 0xE5 SHL DUP2 MSTORE PUSH1 0x20 PUSH1 0x4 DUP3 ADD MSTORE PUSH1 0xF PUSH1 0x24 DUP3 ADD MSTORE PUSH15 0x10995D081A185CC8195E1C1A5C9959 PUSH1 0x8A SHL PUSH1 0x44 DUP3 ADD MSTORE PUSH1 0x64 ADD PUSH2 0x5A6 JUMP JUMPDEST PUSH1 0x0 DUP1 DUP4 GT PUSH2 0xE9B JUMPI DUP2 PUSH1 0x3 ADD SLOAD PUSH2 0xE9D JUMP JUMPDEST DUP3 JUMPDEST SWAP1 POP PUSH8 0x8AC7230489E80000 DUP2 LT ISZERO PUSH2 0xEE7 JUMPI PUSH1 0x40 MLOAD PUSH3 0x461BCD PUSH1 0xE5 SHL DUP2 MSTORE PUSH1 0x20 PUSH1 0x4 DUP3 ADD MSTORE PUSH1 0xD PUSH1 0x24 DUP3 ADD MSTORE PUSH13 0x5374616B6520746F6F206C6F77 PUSH1 0x98 SHL PUSH1 0x44 DUP3 ADD MSTORE PUSH1 0x64 ADD PUSH2 0x5A6 JUMP JUMPDEST PUSH1 0x3 SLOAD PUSH1 0x40 MLOAD PUSH4 0x23B872DD PUSH1 0xE0 SHL DUP2 MSTORE CALLER PUSH1 0x4 DUP3 ADD MSTORE ADDRESS PUSH1 0x24 DUP3 ADD MSTORE PUSH1 0x44 DUP2 ADD DUP4 SWAP1 MSTORE PUSH1 0x1 PUSH1 0x1 PUSH1 0xA0 SHL SUB SWAP1 SWAP2 AND SWAP1 PUSH4 0x23B872DD SWAP1 PUSH1 0x64 ADD PUSH1 0x20 PUSH1 0x40 MLOAD DUP1 DUP4 SUB DUP2 PUSH1 0x0 DUP8 GAS CALL ISZERO DUP1 ISZERO PUSH2 0xF3E JUMPI RETURNDATASIZE PUSH1 0x0 DUP1 RETURNDATACOPY RETURNDATASIZE PUSH1 0x0 REVERT JUMPDEST POP POP POP POP PUSH1 0x40 MLOAD RETURNDATASIZE PUSH1 0x1F NOT PUSH1 0x1F DUP3 ADD AND DUP3 ADD DUP1 PUSH1 0x40 MSTORE POP DUP2 ADD SWAP1 PUSH2 0xF62 SWAP2 SWAP1 PUSH2 0x1C6B JUMP JUMPDEST PUSH2 0xFA6 JUMPI PUSH1 0x40 MLOAD PUSH3 0x461BCD PUSH1 0xE5 SHL DUP2 MSTORE PUSH1 0x20 PUSH1 0x4 DUP3 ADD MSTORE PUSH1 0x15 PUSH1 0x24 DUP3 ADD MSTORE PUSH21 0x14DD185AD9481D1C985B9CD9995C8819985A5B1959 PUSH1 0x5A SHL PUSH1 0x44 DUP3 ADD MSTORE PUSH1 0x64 ADD PUSH2 0x5A6 JUMP JUMPDEST PUSH1 0x1 DUP3 ADD DUP1 SLOAD PUSH1 0x1 PUSH1 0x1 PUSH1 0xA0 SHL SUB NOT AND CALLER OR SWAP1 SSTORE PUSH1 0x5 DUP3 ADD DUP1 SLOAD DUP6 ISZERO ISZERO PUSH2 0x100 MUL PUSH2 0xFF00 NOT SWAP1 SWAP2 AND OR SWAP1 SSTORE DUP3 ISZERO PUSH2 0xFDF JUMPI PUSH1 0x3 DUP3 ADD DUP4 SWAP1 SSTORE JUMPDEST PUSH1 0x40 DUP1 MLOAD DUP6 ISZERO ISZERO DUP2 MSTORE PUSH1 0x20 DUP2 ADD DUP4 SWAP1 MSTORE CALLER SWAP2 DUP8 SWAP2 PUSH32 0x97AFE110A07D405B1FE267D4D6755C88DA971EA07D6F465D4A14E0E82C5FC67 SWAP2 ADD JUMPDEST PUSH1 0x40 MLOAD DUP1 SWAP2 SUB SWAP1 LOG3 POP POP POP POP POP JUMP JUMPDEST PUSH2 0x102E PUSH2 0x109C JUMP JUMPDEST PUSH1 0x1 PUSH1 0x1 PUSH1 0xA0 SHL SUB DUP2 AND PUSH2 0x1093 JUMPI PUSH1 0x40 MLOAD PUSH3 0x461BCD PUSH1 0xE5 SHL DUP2 MSTORE PUSH1 0x20 PUSH1 0x4 DUP3 ADD MSTORE PUSH1 0x26 PUSH1 0x24 DUP3 ADD MSTORE PUSH32 0x4F776E61626C653A206E6577206F776E657220697320746865207A65726F2061 PUSH1 0x44 DUP3 ADD MSTORE PUSH6 0x646472657373 PUSH1 0xD0 SHL PUSH1 0x64 DUP3 ADD MSTORE PUSH1 0x84 ADD PUSH2 0x5A6 JUMP JUMPDEST PUSH2 0x9EE DUP2 PUSH2 0x18ED JUMP JUMPDEST PUSH1 0x0 SLOAD PUSH1 0x1 PUSH1 0x1 PUSH1 0xA0 SHL SUB AND CALLER EQ PUSH2 0xA03 JUMPI PUSH1 0x40 MLOAD PUSH3 0x461BCD PUSH1 0xE5 SHL DUP2 MSTORE PUSH1 0x20 PUSH1 0x4 DUP3 ADD DUP2 SWAP1 MSTORE PUSH1 0x24 DUP3 ADD MSTORE PUSH32 0x4F776E61626C653A2063616C6C6572206973206E6F7420746865206F776E6572 PUSH1 0x44 DUP3 ADD MSTORE PUSH1 0x64 ADD PUSH2 0x5A6 JUMP JUMPDEST PUSH1 0x0 DUP2 DUP2 MSTORE PUSH1 0x2 PUSH1 0x20 DUP2 SWAP1 MSTORE PUSH1 0x40 DUP3 KECCAK256 PUSH1 0x5 DUP2 ADD DUP1 SLOAD PUSH3 0xFF0000 NOT AND PUSH3 0x10000 OR SWAP1 SSTORE PUSH1 0x3 DUP2 ADD SLOAD SWAP2 DUP2 ADD SLOAD SWAP1 SWAP3 SWAP2 PUSH2 0x112E SWAP2 PUSH2 0x1CE9 JUMP JUMPDEST SWAP1 POP PUSH1 0x0 PUSH1 0x64 PUSH2 0x113F DUP4 PUSH1 0x5 PUSH2 0x1CCC JUMP JUMPDEST PUSH2 0x1149 SWAP2 SWAP1 PUSH2 0x1E80 JUMP JUMPDEST PUSH1 0x5 DUP5 ADD SLOAD SWAP1 SWAP2 POP PUSH1 0x0 SWAP1 PUSH1 0xFF AND ISZERO PUSH2 0x12EF JUMPI PUSH1 0x0 PUSH1 0x64 PUSH2 0x116B DUP5 PUSH1 0x50 PUSH2 0x1CCC JUMP JUMPDEST PUSH2 0x1175 SWAP2 SWAP1 PUSH2 0x1E80 JUMP JUMPDEST DUP6 PUSH1 0x2 ADD SLOAD PUSH2 0x1184 SWAP2 SWAP1 PUSH2 0x1CE9 JUMP JUMPDEST SWAP1 POP PUSH1 0x0 PUSH1 0x64 PUSH2 0x1195 DUP6 PUSH1 0x14 PUSH2 0x1CCC JUMP JUMPDEST PUSH2 0x119F SWAP2 SWAP1 PUSH2 0x1E80 JUMP JUMPDEST DUP7 PUSH1 0x3 ADD SLOAD PUSH2 0x11AE SWAP2 SWAP1 PUSH2 0x1CE9 JUMP JUMPDEST PUSH1 0x3 SLOAD DUP8 SLOAD PUSH1 0x40 MLOAD PUSH4 0xA9059CBB PUSH1 0xE0 SHL DUP2 MSTORE SWAP3 SWAP4 POP PUSH1 0x1 PUSH1 0x1 PUSH1 0xA0 SHL SUB SWAP2 DUP3 AND SWAP3 PUSH4 0xA9059CBB SWAP3 PUSH2 0x11E5 SWAP3 AND SWAP1 DUP7 SWAP1 PUSH1 0x4 ADD PUSH2 0x1C52 JUMP JUMPDEST PUSH1 0x20 PUSH1 0x40 MLOAD DUP1 DUP4 SUB DUP2 PUSH1 0x0 DUP8 GAS CALL ISZERO DUP1 ISZERO PUSH2 0x1204 JUMPI RETURNDATASIZE PUSH1 0x0 DUP1 RETURNDATACOPY RETURNDATASIZE PUSH1 0x0 REVERT JUMPDEST POP POP POP POP PUSH1 0x40 MLOAD RETURNDATASIZE PUSH1 0x1F NOT PUSH1 0x1F DUP3 ADD AND DUP3 ADD DUP1 PUSH1 0x40 MSTORE POP DUP2 ADD SWAP1 PUSH2 0x1228 SWAP2 SWAP1 PUSH2 0x1C6B JUMP JUMPDEST PUSH2 0x1244 JUMPI PUSH1 0x40 MLOAD PUSH3 0x461BCD PUSH1 0xE5 SHL DUP2 MSTORE PUSH1 0x4 ADD PUSH2 0x5A6 SWAP1 PUSH2 0x1EA2 JUMP JUMPDEST PUSH1 0x3 SLOAD PUSH1 0x1 DUP8 ADD SLOAD PUSH1 0x40 MLOAD PUSH4 0xA9059CBB PUSH1 0xE0 SHL DUP2 MSTORE PUSH1 0x1 PUSH1 0x1 PUSH1 0xA0 SHL SUB SWAP3 DUP4 AND SWAP3 PUSH4 0xA9059CBB SWAP3 PUSH2 0x127C SWAP3 SWAP2 AND SWAP1 DUP6 SWAP1 PUSH1 0x4 ADD PUSH2 0x1C52 JUMP JUMPDEST PUSH1 0x20 PUSH1 0x40 MLOAD DUP1 DUP4 SUB DUP2 PUSH1 0x0 DUP8 GAS CALL ISZERO DUP1 ISZERO PUSH2 0x129B JUMPI RETURNDATASIZE PUSH1 0x0 DUP1 RETURNDATACOPY RETURNDATASIZE PUSH1 0x0 REVERT JUMPDEST POP POP POP POP PUSH1 0x40 MLOAD RETURNDATASIZE PUSH1 0x1F NOT PUSH1 0x1F DUP3 ADD AND DUP3 ADD DUP1 PUSH1 0x40 MSTORE POP DUP2 ADD SWAP1 PUSH2 0x12BF SWAP2 SWAP1 PUSH2 0x1C6B JUMP JUMPDEST PUSH2 0x12DB JUMPI PUSH1 0x40 MLOAD PUSH3 0x461BCD PUSH1 0xE5 SHL DUP2 MSTORE PUSH1 0x4 ADD PUSH2 0x5A6 SWAP1 PUSH2 0x1ED9 JUMP JUMPDEST POP POP DUP4 SLOAD PUSH1 0x1 PUSH1 0x1 PUSH1 0xA0 SHL SUB AND SWAP1 POP PUSH2 0x1480 JUMP JUMPDEST PUSH1 0x0 PUSH1 0x64 PUSH2 0x12FE DUP5 PUSH1 0x14 PUSH2 0x1CCC JUMP JUMPDEST PUSH2 0x1308 SWAP2 SWAP1 PUSH2 0x1E80 JUMP JUMPDEST DUP6 PUSH1 0x2 ADD SLOAD PUSH2 0x1317 SWAP2 SWAP1 PUSH2 0x1CE9 JUMP JUMPDEST SWAP1 POP PUSH1 0x0 PUSH1 0x64 PUSH2 0x1328 DUP6 PUSH1 0x50 PUSH2 0x1CCC JUMP JUMPDEST PUSH2 0x1332 SWAP2 SWAP1 PUSH2 0x1E80 JUMP JUMPDEST DUP7 PUSH1 0x3 ADD SLOAD PUSH2 0x1341 SWAP2 SWAP1 PUSH2 0x1CE9 JUMP JUMPDEST PUSH1 0x3 SLOAD DUP8 SLOAD PUSH1 0x40 MLOAD PUSH4 0xA9059CBB PUSH1 0xE0 SHL DUP2 MSTORE SWAP3 SWAP4 POP PUSH1 0x1 PUSH1 0x1 PUSH1 0xA0 SHL SUB SWAP2 DUP3 AND SWAP3 PUSH4 0xA9059CBB SWAP3 PUSH2 0x1378 SWAP3 AND SWAP1 DUP7 SWAP1 PUSH1 0x4 ADD PUSH2 0x1C52 JUMP JUMPDEST PUSH1 0x20 PUSH1 0x40 MLOAD DUP1 DUP4 SUB DUP2 PUSH1 0x0 DUP8 GAS CALL ISZERO DUP1 ISZERO PUSH2 0x1397 JUMPI RETURNDATASIZE PUSH1 0x0 DUP1 RETURNDATACOPY RETURNDATASIZE PUSH1 0x0 REVERT JUMPDEST POP POP POP POP PUSH1 0x40 MLOAD RETURNDATASIZE PUSH1 0x1F NOT PUSH1 0x1F DUP3 ADD AND DUP3 ADD DUP1 PUSH1 0x40 MSTORE POP DUP2 ADD SWAP1 PUSH2 0x13BB SWAP2 SWAP1 PUSH2 0x1C6B JUMP JUMPDEST PUSH2 0x13D7 JUMPI PUSH1 0x40 MLOAD PUSH3 0x461BCD PUSH1 0xE5 SHL DUP2 MSTORE PUSH1 0x4 ADD PUSH2 0x5A6 SWAP1 PUSH2 0x1EA2 JUMP JUMPDEST PUSH1 0x3 SLOAD PUSH1 0x1 DUP8 ADD SLOAD PUSH1 0x40 MLOAD PUSH4 0xA9059CBB PUSH1 0xE0 SHL DUP2 MSTORE PUSH1 0x1 PUSH1 0x1 PUSH1 0xA0 SHL SUB SWAP3 DUP4 AND SWAP3 PUSH4 0xA9059CBB SWAP3 PUSH2 0x140F SWAP3 SWAP2 AND SWAP1 DUP6 SWAP1 PUSH1 0x4 ADD PUSH2 0x1C52 JUMP JUMPDEST PUSH1 0x20 PUSH1 0x40 MLOAD DUP1 DUP4 SUB DUP2 PUSH1 0x0 DUP8 GAS CALL ISZERO DUP1 ISZERO PUSH2 0x142E JUMPI RETURNDATASIZE PUSH1 0x0 DUP1 RETURNDATACOPY RETURNDATASIZE PUSH1 0x0 REVERT JUMPDEST POP POP POP POP PUSH1 0x40 MLOAD RETURNDATASIZE PUSH1 0x1F NOT PUSH1 0x1F DUP3 ADD AND DUP3 ADD DUP1 PUSH1 0x40 MSTORE POP DUP2 ADD SWAP1 PUSH2 0x1452 SWAP2 SWAP1 PUSH2 0x1C6B JUMP JUMPDEST PUSH2 0x146E JUMPI PUSH1 0x40 MLOAD PUSH3 0x461BCD PUSH1 0xE5 SHL DUP2 MSTORE PUSH1 0x4 ADD PUSH2 0x5A6 SWAP1 PUSH2 0x1ED9 JUMP JUMPDEST POP POP POP PUSH1 0x1 DUP4 ADD SLOAD PUSH1 0x1 PUSH1 0x1 PUSH1 0xA0 SHL SUB AND JUMPDEST DUP1 PUSH1 0x1 PUSH1 0x1 PUSH1 0xA0 SHL SUB AND DUP6 PUSH32 0x96A2BFF66387BE9E7910E4A9DDF9BA9D0B23439AA8C0790B867617D60A889143 DUP5 PUSH1 0x40 MLOAD PUSH2 0x1017 SWAP2 DUP2 MSTORE PUSH1 0x20 ADD SWAP1 JUMP JUMPDEST PUSH1 0x2 PUSH1 0x1 SLOAD SUB PUSH2 0x150E JUMPI PUSH1 0x40 MLOAD PUSH3 0x461BCD PUSH1 0xE5 SHL DUP2 MSTORE PUSH1 0x20 PUSH1 0x4 DUP3 ADD MSTORE PUSH1 0x1F PUSH1 0x24 DUP3 ADD MSTORE PUSH32 0x5265656E7472616E637947756172643A207265656E7472616E742063616C6C00 PUSH1 0x44 DUP3 ADD MSTORE PUSH1 0x64 ADD PUSH2 0x5A6 JUMP JUMPDEST PUSH1 0x2 PUSH1 0x1 SSTORE JUMP JUMPDEST PUSH1 0x0 DUP2 DUP2 MSTORE PUSH1 0x2 PUSH1 0x20 DUP2 SWAP1 MSTORE PUSH1 0x40 DUP3 KECCAK256 PUSH1 0x5 DUP2 ADD DUP1 SLOAD PUSH3 0xFF0000 NOT AND PUSH3 0x10000 OR SWAP1 SSTORE PUSH1 0x3 DUP2 ADD SLOAD SWAP2 DUP2 ADD SLOAD SWAP1 SWAP3 SWAP2 PUSH2 0x154D SWAP2 PUSH2 0x1CE9 JUMP JUMPDEST SWAP1 POP PUSH1 0x0 PUSH1 0x64 PUSH2 0x155E DUP4 PUSH1 0x5 PUSH2 0x1CCC JUMP JUMPDEST PUSH2 0x1568 SWAP2 SWAP1 PUSH2 0x1E80 JUMP JUMPDEST PUSH1 0x5 DUP5 ADD SLOAD SWAP1 SWAP2 POP PUSH1 0x0 SWAP1 PUSH1 0xFF DUP1 DUP3 AND ISZERO ISZERO PUSH2 0x100 SWAP1 SWAP3 DIV AND ISZERO ISZERO EQ DUP1 ISZERO PUSH2 0x1596 JUMPI POP PUSH1 0x5 DUP5 ADD SLOAD PUSH1 0xFF AND ISZERO ISZERO JUMPDEST ISZERO PUSH2 0x174C JUMPI PUSH1 0x5 DUP5 ADD SLOAD PUSH1 0xFF AND ISZERO PUSH2 0x15B7 JUMPI PUSH1 0x0 PUSH1 0x64 PUSH2 0x116B DUP5 PUSH1 0x50 PUSH2 0x1CCC JUMP JUMPDEST PUSH1 0x0 PUSH1 0x64 PUSH2 0x15C6 DUP5 PUSH1 0x14 PUSH2 0x1CCC JUMP JUMPDEST PUSH2 0x15D0 SWAP2 SWAP1 PUSH2 0x1E80 JUMP JUMPDEST DUP6 PUSH1 0x2 ADD SLOAD PUSH2 0x15DF SWAP2 SWAP1 PUSH2 0x1CE9 JUMP JUMPDEST SWAP1 POP PUSH1 0x0 PUSH1 0x64 PUSH2 0x15F0 DUP6 PUSH1 0x50 PUSH2 0x1CCC JUMP JUMPDEST PUSH2 0x15FA SWAP2 SWAP1 PUSH2 0x1E80 JUMP JUMPDEST DUP7 PUSH1 0x3 ADD SLOAD PUSH2 0x1609 SWAP2 SWAP1 PUSH2 0x1CE9 JUMP JUMPDEST PUSH1 0x3 SLOAD DUP8 SLOAD PUSH1 0x40 MLOAD PUSH4 0xA9059CBB PUSH1 0xE0 SHL DUP2 MSTORE SWAP3 SWAP4 POP PUSH1 0x1 PUSH1 0x1 PUSH1 0xA0 SHL SUB SWAP2 DUP3 AND SWAP3 PUSH4 0xA9059CBB SWAP3 PUSH2 0x1640 SWAP3 AND SWAP1 DUP7 SWAP1 PUSH1 0x4 ADD PUSH2 0x1C52 JUMP JUMPDEST PUSH1 0x20 PUSH1 0x40 MLOAD DUP1 DUP4 SUB DUP2 PUSH1 0x0 DUP8 GAS CALL ISZERO DUP1 ISZERO PUSH2 0x165F JUMPI RETURNDATASIZE PUSH1 0x0 DUP1 RETURNDATACOPY RETURNDATASIZE PUSH1 0x0 REVERT JUMPDEST POP POP POP POP PUSH1 0x40 MLOAD RETURNDATASIZE PUSH1 0x1F NOT PUSH1 0x1F DUP3 ADD AND DUP3 ADD DUP1 PUSH1 0x40 MSTORE POP DUP2 ADD SWAP1 PUSH2 0x1683 SWAP2 SWAP1 PUSH2 0x1C6B JUMP JUMPDEST PUSH2 0x169F JUMPI PUSH1 0x40 MLOAD PUSH3 0x461BCD PUSH1 0xE5 SHL DUP2 MSTORE PUSH1 0x4 ADD PUSH2 0x5A6 SWAP1 PUSH2 0x1EA2 JUMP JUMPDEST PUSH1 0x3 SLOAD PUSH1 0x1 DUP8 ADD SLOAD PUSH1 0x40 MLOAD PUSH4 0xA9059CBB PUSH1 0xE0 SHL DUP2 MSTORE PUSH1 0x1 PUSH1 0x1 PUSH1 0xA0 SHL SUB SWAP3 DUP4 AND SWAP3 PUSH4 0xA9059CBB SWAP3 PUSH2 0x16D7 SWAP3 SWAP2 AND SWAP1 DUP6 SWAP1 PUSH1 0x4 ADD PUSH2 0x1C52 JUMP JUMPDEST PUSH1 0x20 PUSH1 0x40 MLOAD DUP1 DUP4 SUB DUP2 PUSH1 0x0 DUP8 GAS CALL ISZERO DUP1 ISZERO PUSH2 0x16F6 JUMPI RETURNDATASIZE PUSH1 0x0 DUP1 RETURNDATACOPY RETURNDATASIZE PUSH1 0x0 REVERT JUMPDEST POP POP POP POP PUSH1 0x40 MLOAD RETURNDATASIZE PUSH1 0x1F NOT PUSH1 0x1F DUP3 ADD AND DUP3 ADD DUP1 PUSH1 0x40 MSTORE POP DUP2 ADD SWAP1 PUSH2 0x171A SWAP2 SWAP1 PUSH2 0x1C6B JUMP JUMPDEST PUSH2 0x1736 JUMPI PUSH1 0x40 MLOAD PUSH3 0x461BCD PUSH1 0xE5 SHL DUP2 MSTORE PUSH1 0x4 ADD PUSH2 0x5A6 SWAP1 PUSH2 0x1ED9 JUMP JUMPDEST POP POP POP PUSH1 0x1 DUP4 ADD SLOAD PUSH1 0x1 PUSH1 0x1 PUSH1 0xA0 SHL SUB AND PUSH2 0x1480 JUMP JUMPDEST PUSH1 0x0 PUSH2 0x1759 PUSH1 0x2 DUP5 PUSH2 0x1E80 JUMP JUMPDEST DUP6 PUSH1 0x2 ADD SLOAD PUSH2 0x1768 SWAP2 SWAP1 PUSH2 0x1CE9 JUMP JUMPDEST SWAP1 POP PUSH1 0x0 PUSH2 0x1777 PUSH1 0x2 DUP6 PUSH2 0x1E80 JUMP JUMPDEST DUP7 PUSH1 0x3 ADD SLOAD PUSH2 0x1786 SWAP2 SWAP1 PUSH2 0x1CE9 JUMP JUMPDEST PUSH1 0x3 SLOAD DUP8 SLOAD PUSH1 0x40 MLOAD PUSH4 0xA9059CBB PUSH1 0xE0 SHL DUP2 MSTORE SWAP3 SWAP4 POP PUSH1 0x1 PUSH1 0x1 PUSH1 0xA0 SHL SUB SWAP2 DUP3 AND SWAP3 PUSH4 0xA9059CBB SWAP3 PUSH2 0x17BD SWAP3 AND SWAP1 DUP7 SWAP1 PUSH1 0x4 ADD PUSH2 0x1C52 JUMP JUMPDEST PUSH1 0x20 PUSH1 0x40 MLOAD DUP1 DUP4 SUB DUP2 PUSH1 0x0 DUP8 GAS CALL ISZERO DUP1 ISZERO PUSH2 0x17DC JUMPI RETURNDATASIZE PUSH1 0x0 DUP1 RETURNDATACOPY RETURNDATASIZE PUSH1 0x0 REVERT JUMPDEST POP POP POP POP PUSH1 0x40 MLOAD RETURNDATASIZE PUSH1 0x1F NOT PUSH1 0x1F DUP3 ADD AND DUP3 ADD DUP1 PUSH1 0x40 MSTORE POP DUP2 ADD SWAP1 PUSH2 0x1800 SWAP2 SWAP1 PUSH2 0x1C6B JUMP JUMPDEST PUSH2 0x181C JUMPI PUSH1 0x40 MLOAD PUSH3 0x461BCD PUSH1 0xE5 SHL DUP2 MSTORE PUSH1 0x4 ADD PUSH2 0x5A6 SWAP1 PUSH2 0x1EA2 JUMP JUMPDEST PUSH1 0x3 SLOAD PUSH1 0x1 DUP8 ADD SLOAD PUSH1 0x40 MLOAD PUSH4 0xA9059CBB PUSH1 0xE0 SHL DUP2 MSTORE PUSH1 0x1 PUSH1 0x1 PUSH1 0xA0 SHL SUB SWAP3 DUP4 AND SWAP3 PUSH4 0xA9059CBB SWAP3 PUSH2 0x1854 SWAP3 SWAP2 AND SWAP1 DUP6 SWAP1 PUSH1 0x4 ADD PUSH2 0x1C52 JUMP JUMPDEST PUSH1 0x20 PUSH1 0x40 MLOAD DUP1 DUP4 SUB DUP2 PUSH1 0x0 DUP8 GAS CALL ISZERO DUP1 ISZERO PUSH2 0x1873 JUMPI RETURNDATASIZE PUSH1 0x0 DUP1 RETURNDATACOPY RETURNDATASIZE PUSH1 0x0 REVERT JUMPDEST POP POP POP POP PUSH1 0x40 MLOAD RETURNDATASIZE PUSH1 0x1F NOT PUSH1 0x1F DUP3 ADD AND DUP3 ADD DUP1 PUSH1 0x40 MSTORE POP DUP2 ADD SWAP1 PUSH2 0x1897 SWAP2 SWAP1 PUSH2 0x1C6B JUMP JUMPDEST PUSH2 0x18B3 JUMPI PUSH1 0x40 MLOAD PUSH3 0x461BCD PUSH1 0xE5 SHL DUP2 MSTORE PUSH1 0x4 ADD PUSH2 0x5A6 SWAP1 PUSH2 0x1ED9 JUMP JUMPDEST POP POP PUSH1 0x40 MLOAD DUP3 DUP2 MSTORE PUSH1 0x0 SWAP2 POP DUP2 SWAP1 DUP7 SWAP1 PUSH32 0x96A2BFF66387BE9E7910E4A9DDF9BA9D0B23439AA8C0790B867617D60A889143 SWAP1 PUSH1 0x20 ADD PUSH2 0x1017 JUMP JUMPDEST PUSH1 0x0 DUP1 SLOAD PUSH1 0x1 PUSH1 0x1 PUSH1 0xA0 SHL SUB DUP4 DUP2 AND PUSH1 0x1 PUSH1 0x1 PUSH1 0xA0 SHL SUB NOT DUP4 AND DUP2 OR DUP5 SSTORE PUSH1 0x40 MLOAD SWAP2 SWAP1 SWAP3 AND SWAP3 DUP4 SWAP2 PUSH32 0x8BE0079C531659141344CD1FD0A4F28419497F9722A3DAAFE3B4186F6B6457E0 SWAP2 SWAP1 LOG3 POP POP JUMP JUMPDEST PUSH1 0x0 PUSH1 0x20 DUP3 DUP5 SUB SLT ISZERO PUSH2 0x194F JUMPI PUSH1 0x0 DUP1 REVERT JUMPDEST POP CALLDATALOAD SWAP2 SWAP1 POP JUMP JUMPDEST PUSH1 0x0 DUP2 MLOAD DUP1 DUP5 MSTORE PUSH1 0x0 JUMPDEST DUP2 DUP2 LT ISZERO PUSH2 0x197C JUMPI PUSH1 0x20 DUP2 DUP6 ADD DUP2 ADD MLOAD DUP7 DUP4 ADD DUP3 ADD MSTORE ADD PUSH2 0x1960 JUMP JUMPDEST POP PUSH1 0x0 PUSH1 0x20 DUP3 DUP7 ADD ADD MSTORE PUSH1 0x20 PUSH1 0x1F NOT PUSH1 0x1F DUP4 ADD AND DUP6 ADD ADD SWAP2 POP POP SWAP3 SWAP2 POP POP JUMP JUMPDEST PUSH1 0x20 DUP2 MSTORE PUSH2 0x19B6 PUSH1 0x20 DUP3 ADD DUP4 MLOAD PUSH1 0x1 PUSH1 0x1 PUSH1 0xA0 SHL SUB AND SWAP1 MSTORE JUMP JUMPDEST PUSH1 0x0 PUSH1 0x20 DUP4 ADD MLOAD PUSH2 0x19D2 PUSH1 0x40 DUP5 ADD DUP3 PUSH1 0x1 PUSH1 0x1 PUSH1 0xA0 SHL SUB AND SWAP1 MSTORE JUMP JUMPDEST POP PUSH1 0x40 DUP4 ADD MLOAD PUSH1 0x60 DUP4 ADD MSTORE PUSH1 0x60 DUP4 ADD MLOAD PUSH1 0x80 DUP4 ADD MSTORE PUSH1 0x80 DUP4 ADD MLOAD PUSH2 0x120 DUP1 PUSH1 0xA0 DUP6 ADD MSTORE PUSH2 0x1A03 PUSH2 0x140 DUP6 ADD DUP4 PUSH2 0x1956 JUMP JUMPDEST SWAP2 POP PUSH1 0xA0 DUP6 ADD MLOAD PUSH2 0x1A18 PUSH1 0xC0 DUP7 ADD DUP3 ISZERO ISZERO SWAP1 MSTORE JUMP JUMPDEST POP PUSH1 0xC0 DUP6 ADD MLOAD DUP1 ISZERO ISZERO PUSH1 0xE0 DUP7 ADD MSTORE POP PUSH1 0xE0 DUP6 ADD MLOAD PUSH2 0x100 PUSH2 0x1A3C DUP2 DUP8 ADD DUP4 ISZERO ISZERO SWAP1 MSTORE JUMP JUMPDEST SWAP6 SWAP1 SWAP6 ADD MLOAD SWAP4 ADD SWAP3 SWAP1 SWAP3 MSTORE POP SWAP2 SWAP1 POP JUMP JUMPDEST DUP1 CALLDATALOAD PUSH1 0x1 PUSH1 0x1 PUSH1 0xA0 SHL SUB DUP2 AND DUP2 EQ PUSH2 0x1A64 JUMPI PUSH1 0x0 DUP1 REVERT JUMPDEST SWAP2 SWAP1 POP JUMP JUMPDEST PUSH1 0x0 DUP1 PUSH1 0x40 DUP4 DUP6 SUB SLT ISZERO PUSH2 0x1A7C JUMPI PUSH1 0x0 DUP1 REVERT JUMPDEST PUSH2 0x1A85 DUP4 PUSH2 0x1A4D JUMP JUMPDEST SWAP5 PUSH1 0x20 SWAP4 SWAP1 SWAP4 ADD CALLDATALOAD SWAP4 POP POP POP JUMP JUMPDEST PUSH1 0x1 PUSH1 0x1 PUSH1 0xA0 SHL SUB DUP11 DUP2 AND DUP3 MSTORE DUP10 AND PUSH1 0x20 DUP3 ADD MSTORE PUSH1 0x40 DUP2 ADD DUP9 SWAP1 MSTORE PUSH1 0x60 DUP2 ADD DUP8 SWAP1 MSTORE PUSH2 0x120 PUSH1 0x80 DUP3 ADD DUP2 SWAP1 MSTORE PUSH1 0x0 SWAP1 PUSH2 0x1ACE DUP4 DUP3 ADD DUP10 PUSH2 0x1956 JUMP JUMPDEST SWAP7 ISZERO ISZERO PUSH1 0xA0 DUP5 ADD MSTORE POP POP SWAP3 ISZERO ISZERO PUSH1 0xC0 DUP5 ADD MSTORE SWAP1 ISZERO ISZERO PUSH1 0xE0 DUP4 ADD MSTORE PUSH2 0x100 SWAP1 SWAP2 ADD MSTORE SWAP6 SWAP5 POP POP POP POP POP JUMP JUMPDEST DUP1 ISZERO ISZERO DUP2 EQ PUSH2 0x9EE JUMPI PUSH1 0x0 DUP1 REVERT JUMPDEST PUSH1 0x0 DUP1 PUSH1 0x40 DUP4 DUP6 SUB SLT ISZERO PUSH2 0x1B19 JUMPI PUSH1 0x0 DUP1 REVERT JUMPDEST DUP3 CALLDATALOAD SWAP2 POP PUSH1 0x20 DUP4 ADD CALLDATALOAD PUSH2 0x1B2B DUP2 PUSH2 0x1AF8 JUMP JUMPDEST DUP1 SWAP2 POP POP SWAP3 POP SWAP3 SWAP1 POP JUMP JUMPDEST PUSH1 0x0 DUP1 PUSH1 0x0 DUP1 PUSH1 0x0 PUSH1 0x80 DUP7 DUP9 SUB SLT ISZERO PUSH2 0x1B4E JUMPI PUSH1 0x0 DUP1 REVERT JUMPDEST DUP6 CALLDATALOAD SWAP5 POP PUSH1 0x20 DUP7 ADD CALLDATALOAD SWAP4 POP PUSH1 0x40 DUP7 ADD CALLDATALOAD PUSH8 0xFFFFFFFFFFFFFFFF DUP1 DUP3 GT ISZERO PUSH2 0x1B74 JUMPI PUSH1 0x0 DUP1 REVERT JUMPDEST DUP2 DUP9 ADD SWAP2 POP DUP9 PUSH1 0x1F DUP4 ADD SLT PUSH2 0x1B88 JUMPI PUSH1 0x0 DUP1 REVERT JUMPDEST DUP2 CALLDATALOAD DUP2 DUP2 GT ISZERO PUSH2 0x1B97 JUMPI PUSH1 0x0 DUP1 REVERT JUMPDEST DUP10 PUSH1 0x20 DUP3 DUP6 ADD ADD GT ISZERO PUSH2 0x1BA9 JUMPI PUSH1 0x0 DUP1 REVERT JUMPDEST SWAP7 SWAP10 SWAP6 SWAP9 POP POP PUSH1 0x20 ADD SWAP6 PUSH1 0x60 ADD CALLDATALOAD SWAP4 SWAP3 POP POP POP JUMP JUMPDEST PUSH1 0x0 DUP1 PUSH1 0x0 PUSH1 0x60 DUP5 DUP7 SUB SLT ISZERO PUSH2 0x1BD3 JUMPI PUSH1 0x0 DUP1 REVERT JUMPDEST DUP4 CALLDATALOAD SWAP3 POP PUSH1 0x20 DUP5 ADD CALLDATALOAD PUSH2 0x1BE5 DUP2 PUSH2 0x1AF8 JUMP JUMPDEST SWAP3 SWAP6 SWAP3 SWAP5 POP POP POP PUSH1 0x40 SWAP2 SWAP1 SWAP2 ADD CALLDATALOAD SWAP1 JUMP JUMPDEST PUSH1 0x0 PUSH1 0x20 DUP3 DUP5 SUB SLT ISZERO PUSH2 0x1C08 JUMPI PUSH1 0x0 DUP1 REVERT JUMPDEST PUSH2 0x1C11 DUP3 PUSH2 0x1A4D JUMP JUMPDEST SWAP4 SWAP3 POP POP POP JUMP JUMPDEST PUSH1 0x1 DUP2 DUP2 SHR SWAP1 DUP3 AND DUP1 PUSH2 0x1C2C JUMPI PUSH1 0x7F DUP3 AND SWAP2 POP JUMPDEST PUSH1 0x20 DUP3 LT DUP2 SUB PUSH2 0x1C4C JUMPI PUSH4 0x4E487B71 PUSH1 0xE0 SHL PUSH1 0x0 MSTORE PUSH1 0x22 PUSH1 0x4 MSTORE PUSH1 0x24 PUSH1 0x0 REVERT JUMPDEST POP SWAP2 SWAP1 POP JUMP JUMPDEST PUSH1 0x1 PUSH1 0x1 PUSH1 0xA0 SHL SUB SWAP3 SWAP1 SWAP3 AND DUP3 MSTORE PUSH1 0x20 DUP3 ADD MSTORE PUSH1 0x40 ADD SWAP1 JUMP JUMPDEST PUSH1 0x0 PUSH1 0x20 DUP3 DUP5 SUB SLT ISZERO PUSH2 0x1C7D JUMPI PUSH1 0x0 DUP1 REVERT JUMPDEST DUP2 MLOAD PUSH2 0x1C11 DUP2 PUSH2 0x1AF8 JUMP JUMPDEST PUSH1 0x20 DUP1 DUP3 MSTORE PUSH1 0x14 SWAP1 DUP3 ADD MSTORE PUSH20 0x10995D08185B1C9958591E481C995CDBDB1D9959 PUSH1 0x62 SHL PUSH1 0x40 DUP3 ADD MSTORE PUSH1 0x60 ADD SWAP1 JUMP JUMPDEST PUSH4 0x4E487B71 PUSH1 0xE0 SHL PUSH1 0x0 MSTORE PUSH1 0x11 PUSH1 0x4 MSTORE PUSH1 0x24 PUSH1 0x0 REVERT JUMPDEST DUP1 DUP3 MUL DUP2 ISZERO DUP3 DUP3 DIV DUP5 EQ OR PUSH2 0x1CE3 JUMPI PUSH2 0x1CE3 PUSH2 0x1CB6 JUMP JUMPDEST SWAP3 SWAP2 POP POP JUMP JUMPDEST DUP1 DUP3 ADD DUP1 DUP3 GT ISZERO PUSH2 0x1CE3 JUMPI PUSH2 0x1CE3 PUSH2 0x1CB6 JUMP JUMPDEST PUSH1 0x0 PUSH1 0x1 DUP3 ADD PUSH2 0x1D0E JUMPI PUSH2 0x1D0E PUSH2 0x1CB6 JUMP JUMPDEST POP PUSH1 0x1 ADD SWAP1 JUMP JUMPDEST PUSH4 0x4E487B71 PUSH1 0xE0 SHL PUSH1 0x0 MSTORE PUSH1 0x41 PUSH1 0x4 MSTORE PUSH1 0x24 PUSH1 0x0 REVERT JUMPDEST PUSH1 0x1F DUP3 GT ISZERO PUSH2 0x454 JUMPI PUSH1 0x0 DUP2 DUP2 MSTORE PUSH1 0x20 DUP2 KECCAK256 PUSH1 0x1F DUP6 ADD PUSH1 0x5 SHR DUP2 ADD PUSH1 0x20 DUP7 LT ISZERO PUSH2 0x1D52 JUMPI POP DUP1 JUMPDEST PUSH1 0x1F DUP6 ADD PUSH1 0x5 SHR DUP3 ADD SWAP2 POP JUMPDEST DUP2 DUP2 LT ISZERO PUSH2 0x1D71 JUMPI DUP3 DUP2 SSTORE PUSH1 0x1 ADD PUSH2 0x1D5E JUMP JUMPDEST POP POP POP POP POP POP JUMP JUMPDEST DUP2 MLOAD PUSH8 0xFFFFFFFFFFFFFFFF DUP2 GT ISZERO PUSH2 0x1D93 JUMPI PUSH2 0x1D93 PUSH2 0x1D15 JUMP JUMPDEST PUSH2 0x1DA7 DUP2 PUSH2 0x1DA1 DUP5 SLOAD PUSH2 0x1C18 JUMP JUMPDEST DUP5 PUSH2 0x1D2B JUMP JUMPDEST PUSH1 0x20 DUP1 PUSH1 0x1F DUP4 GT PUSH1 0x1 DUP2 EQ PUSH2 0x1DDC JUMPI PUSH1 0x0 DUP5 ISZERO PUSH2 0x1DC4 JUMPI POP DUP6 DUP4 ADD MLOAD JUMPDEST PUSH1 0x0 NOT PUSH1 0x3 DUP7 SWAP1 SHL SHR NOT AND PUSH1 0x1 DUP6 SWAP1 SHL OR DUP6 SSTORE PUSH2 0x1D71 JUMP JUMPDEST PUSH1 0x0 DUP6 DUP2 MSTORE PUSH1 0x20 DUP2 KECCAK256 PUSH1 0x1F NOT DUP7 AND SWAP2 JUMPDEST DUP3 DUP2 LT ISZERO PUSH2 0x1E0B JUMPI DUP9 DUP7 ADD MLOAD DUP3 SSTORE SWAP5 DUP5 ADD SWAP5 PUSH1 0x1 SWAP1 SWAP2 ADD SWAP1 DUP5 ADD PUSH2 0x1DEC JUMP JUMPDEST POP DUP6 DUP3 LT ISZERO PUSH2 0x1E29 JUMPI DUP8 DUP6 ADD MLOAD PUSH1 0x0 NOT PUSH1 0x3 DUP9 SWAP1 SHL PUSH1 0xF8 AND SHR NOT AND DUP2 SSTORE JUMPDEST POP POP POP POP POP PUSH1 0x1 SWAP1 DUP2 SHL ADD SWAP1 SSTORE POP JUMP JUMPDEST DUP6 DUP2 MSTORE DUP5 PUSH1 0x20 DUP3 ADD MSTORE PUSH1 0x80 PUSH1 0x40 DUP3 ADD MSTORE DUP3 PUSH1 0x80 DUP3 ADD MSTORE DUP3 DUP5 PUSH1 0xA0 DUP4 ADD CALLDATACOPY PUSH1 0x0 PUSH1 0xA0 DUP5 DUP4 ADD ADD MSTORE PUSH1 0x0 PUSH1 0xA0 PUSH1 0x1F NOT PUSH1 0x1F DUP7 ADD AND DUP4 ADD ADD SWAP1 POP DUP3 PUSH1 0x60 DUP4 ADD MSTORE SWAP7 SWAP6 POP POP POP POP POP POP JUMP JUMPDEST PUSH1 0x0 DUP3 PUSH2 0x1E9D JUMPI PUSH4 0x4E487B71 PUSH1 0xE0 SHL PUSH1 0x0 MSTORE PUSH1 0x12 PUSH1 0x4 MSTORE PUSH1 0x24 PUSH1 0x0 REVERT JUMPDEST POP DIV SWAP1 JUMP JUMPDEST PUSH1 0x20 DUP1 DUP3 MSTORE PUSH1 0x17 SWAP1 DUP3 ADD MSTORE PUSH32 0x43726561746F72207472616E73666572206661696C6564000000000000000000 PUSH1 0x40 DUP3 ADD MSTORE PUSH1 0x60 ADD SWAP1 JUMP JUMPDEST PUSH1 0x20 DUP1 DUP3 MSTORE PUSH1 0x18 SWAP1 DUP3 ADD MSTORE PUSH32 0x4F70706F6E656E74207472616E73666572206661696C65640000000000000000 PUSH1 0x40 DUP3 ADD MSTORE PUSH1 0x60 ADD SWAP1 JUMP INVALID LOG2 PUSH5 0x6970667358 0x22 SLT KECCAK256 AND 0xE7 GT 0xAF MOD 0xAB CREATE 0xB7 PUSH1 0x28 DUP5 RETURN DUP15 CALLCODE 0x2C 0xD3 PUSH6 0x6A98F6772B9F 0xC0 0xED BASEFEE 0xBD SWAP9 0x1F 0xA9 PUSH3 0x336473 PUSH16 0x6C634300081300330000000000000000 "},"methodIdentifiers":{"DEFAULT_BET_DURATION()":"16ae4828","MIN_CREATOR_STAKE()":"788965e9","MIN_OPPONENT_STAKE()":"72bebffe","acceptBet(uint256,bool,uint256)":"c93f0023","betCounter()":"a416f5ab","bets(uint256)":"22af00fa","cancelBet(uint256)":"357401f5","celoToken()":"e22d551a","createBet(uint256,uint256,string,uint256)":"ae0ea675","getBet(uint256)":"061e494f","getBetCount()":"b93dab0b","owner()":"8da5cb5b","recoverTokens(address,uint256)":"069c9fae","renounceOwnership()":"715018a6","resolveBet(uint256)":"4c36c36e","submitOutcome(uint256,bool)":"41b80300","transferOwnership(address)":"f2fde38b"}}}}}