{"packages/hardhat/contracts/BettingManagerFactory.sol":{"BettingManagerFactory":{"abi":[{"anonymous":false,"inputs":[{"indexed":true,"internalType":"address","name":"bettingContract","type":"address"},{"indexed":true,"internalType":"address","name":"creator","type":"address"}],"name":"BettingContractCreated","type":"event"},{"anonymous":false,"inputs":[{"indexed":true,"internalType":"address","name":"previousOwner","type":"address"},{"indexed":true,"internalType":"address","name":"newOwner","type":"address"}],"name":"OwnershipTransferred","type":"event"},{"inputs":[{"internalType":"uint256","name":"","type":"uint256"}],"name":"bettingContracts","outputs":[{"internalType":"address","name":"","type":"address"}],"stateMutability":"view","type":"function"},{"inputs":[{"internalType":"address","name":"_token","type":"address"}],"name":"createBettingContract","outputs":[{"internalType":"address","name":"","type":"address"}],"stateMutability":"nonpayable","type":"function"},{"inputs":[{"internalType":"uint256","name":"index","type":"uint256"}],"name":"getBettingContract","outputs":[{"internalType":"address","name":"","type":"address"}],"stateMutability":"view","type":"function"},{"inputs":[],"name":"getBettingContractsCount","outputs":[{"internalType":"uint256","name":"","type":"uint256"}],"stateMutability":"view","type":"function"},{"inputs":[],"name":"owner","outputs":[{"internalType":"address","name":"","type":"address"}],"stateMutability":"view","type":"function"},{"inputs":[],"name":"renounceOwnership","outputs":[],"stateMutability":"nonpayable","type":"function"},{"inputs":[{"internalType":"address","name":"newOwner","type":"address"}],"name":"transferOwnership","outputs":[],"stateMutability":"nonpayable","type":"function"}],"evm":{"bytecode":{"linkReferences":{},"object":"608060405234801561001057600080fd5b5061001a3361001f565b61006f565b600080546001600160a01b038381166001600160a01b0319831681178455604051919092169283917f8be0079c531659141344cd1fd0a4f28419497f9722a3daafe3b4186f6b6457e09190a35050565b6125538061007e6000396000f3fe608060405234801561001057600080fd5b506004361061007d5760003560e01c80638da5cb5b1161005b5780638da5cb5b146100cd578063b7d139da146100de578063d704624b146100f1578063f2fde38b1461010457600080fd5b80630b1983de1461008257806332b47797146100b2578063715018a6146100c3575b600080fd5b610095610090366004610418565b610117565b6040516001600160a01b0390911681526020015b60405180910390f35b6001546040519081526020016100a9565b6100cb610141565b005b6000546001600160a01b0316610095565b6100956100ec366004610431565b610155565b6100956100ff366004610418565b61026b565b6100cb610112366004610431565b6102e8565b6001818154811061012757600080fd5b6000918252602090912001546001600160a01b0316905081565b610149610361565b61015360006103bb565b565b600080826040516101659061040b565b6001600160a01b039091168152602001604051809103906000f080158015610191573d6000803e3d6000fd5b5060405163f2fde38b60e01b81523360048201529091506001600160a01b0382169063f2fde38b90602401600060405180830381600087803b1580156101d657600080fd5b505af11580156101ea573d6000803e3d6000fd5b505060018054808201825560009182527fb10e2d527612073b26eecdfd717e6a320cf44b4afac2b0732d9fcbe2b7fa0cf60180546001600160a01b0319166001600160a01b0386169081179091556040513394509092507f48fe6b475437c69375486920959a02e2dd1be3bb6fb26ca084a9d0378b96b2759190a392915050565b60015460009082106102ba5760405162461bcd60e51b8152602060048201526013602482015272496e646578206f7574206f6620626f756e647360681b60448201526064015b60405180910390fd5b600182815481106102cd576102cd610461565b6000918252602090912001546001600160a01b031692915050565b6102f0610361565b6001600160a01b0381166103555760405162461bcd60e51b815260206004820152602660248201527f4f776e61626c653a206e6577206f776e657220697320746865207a65726f206160448201526564647265737360d01b60648201526084016102b1565b61035e816103bb565b50565b6000546001600160a01b031633146101535760405162461bcd60e51b815260206004820181905260248201527f4f776e61626c653a2063616c6c6572206973206e6f7420746865206f776e657260448201526064016102b1565b600080546001600160a01b038381166001600160a01b0319831681178455604051919092169283917f8be0079c531659141344cd1fd0a4f28419497f9722a3daafe3b4186f6b6457e09190a35050565b6120a68061047883390190565b60006020828403121561042a57600080fd5b5035919050565b60006020828403121561044357600080fd5b81356001600160a01b038116811461045a57600080fd5b9392505050565b634e487b7160e01b600052603260045260246000fdfe6080604052600580553480156200001557600080fd5b50604051620020a6380380620020a68339810160408190526200003891620000bd565b62000043336200006d565b60018055600480546001600160a01b0319166001600160a01b0392909216919091179055620000ef565b600080546001600160a01b038381166001600160a01b0319831681178455604051919092169283917f8be0079c531659141344cd1fd0a4f28419497f9722a3daafe3b4186f6b6457e09190a35050565b600060208284031215620000d057600080fd5b81516001600160a01b0381168114620000e857600080fd5b9392505050565b611fa780620000ff6000396000f3fe608060405234801561001057600080fd5b506004361061010b5760003560e01c8063715018a6116100a2578063c1f0906111610071578063c1f09061146101fe578063cb1c2b5c14610211578063f2fde38b14610220578063f5489b7e14610233578063fc0c546a1461024657600080fd5b8063715018a6146101b55780638da5cb5b146101bd578063a416f5ab146101e2578063b893ca1a146101eb57600080fd5b806331bfe3a9116100de57806331bfe3a9146101685780633df2967e1461017b57806350f90594146101a25780636999ac93146101ac57600080fd5b80631411dab01461011057806316ae482814610125578063196b256714610142578063221b14d914610155575b600080fd5b61012361011e366004611a13565b610259565b005b61012f62093a8081565b6040519081526020015b60405180910390f35b610123610150366004611a3a565b610266565b61012f610163366004611af1565b6104d8565b610123610176366004611b1d565b61051f565b61018e610189366004611a13565b61083b565b604051610139989796959493929190611b56565b61012f6201518081565b61012f60055481565b610123610949565b6000546001600160a01b03165b6040516001600160a01b039091168152602001610139565b61012f60035481565b6101236101f9366004611bfc565b61095d565b61012361020c366004611c33565b6109cd565b61012f678ac7230489e8000081565b61012361022e366004611c63565b610d59565b610123610241366004611a13565b610dd2565b6004546101ca906001600160a01b031681565b610261610f53565b600555565b678ac7230489e800008510156102975760405162461bcd60e51b815260040161028e90611c85565b60405180910390fd5b600480546040516323b872dd60e01b81523392810192909252306024830152604482018790526001600160a01b0316906323b872dd906064016020604051808303816000875af11580156102ef573d6000803e3d6000fd5b505050506040513d601f19601f820116820180604052508101906103139190611cc7565b61035f5760405162461bcd60e51b815260206004820152601f60248201527f546f6b656e207472616e7366657220666f72207374616b65206661696c656400604482015260640161028e565b60008083116103715762093a8061037e565b61037e8362015180611cfa565b9050600061038c8242611d11565b600354600090815260026020526040902080546001600160a01b03191633178155909150600181016103bf878983611dc2565b506002810182905560038101805460ff199081169091556008820180549091169055831561042c5760048101889055336000818152600983016020908152604082208b9055600b8401805460018101825590835291200180546001600160a01b031916909117905561046d565b60058101889055336000818152600a83016020908152604082208b9055600c8401805460018101825590835291200180546001600160a01b03191690911790555b336001600160a01b03166003547fd4182c8a59ad80591d8a72ae9e840efb3036b6740a6a5a074995ccfdefa37039898986898e6040516104b1959493929190611e83565b60405180910390a3600380549060006104c983611ec8565b91905055505050505050505050565b60008281526002602090815260408083206001600160a01b0385168452600a81018352818420546009820190935290832054909161051591611d11565b9150505b92915050565b678ac7230489e800008210156105475760405162461bcd60e51b815260040161028e90611c85565b60008381526002602081905260409091209081015442106105aa5760405162461bcd60e51b815260206004820152601760248201527f4265742068617320616c72656164792065787069726564000000000000000000604482015260640161028e565b600381015460ff16156105ff5760405162461bcd60e51b815260206004820152601760248201527f42657420697320616c7265616479207265736f6c766564000000000000000000604482015260640161028e565b33600090815260098201602052604090205415801561062d5750336000908152600a82016020526040902054155b6106795760405162461bcd60e51b815260206004820152601a60248201527f5061727469636970616e7420616c7265616479206a6f696e6564000000000000604482015260640161028e565b600480546040516323b872dd60e01b81523392810192909252306024830152604482018590526001600160a01b0316906323b872dd906064016020604051808303816000875af11580156106d1573d6000803e3d6000fd5b505050506040513d601f19601f820116820180604052508101906106f59190611cc7565b6107415760405162461bcd60e51b815260206004820152601f60248201527f546f6b656e207472616e7366657220666f72207374616b65206661696c656400604482015260640161028e565b81156107a15733600081815260098301602090815260408220869055600b840180546001810182559083529082200180546001600160a01b031916909217909155600482018054859290610796908490611d11565b909155506107f69050565b336000818152600a8301602090815260408220869055600c840180546001810182559083529082200180546001600160a01b0319169092179091556005820180548592906107f0908490611d11565b90915550505b60408051831515815260208101859052339186917fbdea915dee87ac0c987ce0be8ee477a6fa7f1491bbe7f11cb0b18fb28a20f77a910160405180910390a350505050565b6000818152600260208190526040822080549181015460038201546004830154600584015460088501546001860180546060988a988998899889988998899894976001600160a01b0390961696939460ff9384169492939192818316926101009092049091169087906108ad90611d3a565b80601f01602080910402602001604051908101604052809291908181526020018280546108d990611d3a565b80156109265780601f106108fb57610100808354040283529160200191610926565b820191906000526020600020905b81548152906001019060200180831161090957829003601f168201915b505050505096509850985098509850985098509850985050919395975091939597565b610951610f53565b61095b6000610fad565b565b610965610f53565b61096d610ffd565b6000838152600260205260409020600881015460ff16156109a05760405162461bcd60e51b815260040161028e90611ee1565b81156109b4576109af84611056565b6109be565b6109be8484611334565b506109c860018055565b505050565b600082815260026020819052604090912090810154421015610a2a5760405162461bcd60e51b815260206004820152601660248201527510995d081a5cc81b9bdd08195e1c1a5c9959081e595d60521b604482015260640161028e565b620151808160020154610a3d9190611d11565b4210610a8b5760405162461bcd60e51b815260206004820152601960248201527f5265736f6c7574696f6e20706572696f64206973206f76657200000000000000604482015260640161028e565b600881015460ff1615610ab05760405162461bcd60e51b815260040161028e90611ee1565b6000610abc84336104d8565b11610b095760405162461bcd60e51b815260206004820152601b60248201527f53656e646572206973206e6f742061207061727469636970616e740000000000604482015260640161028e565b336000908152600d8201602052604090205460ff1615610b6b5760405162461bcd60e51b815260206004820152601960248201527f5061727469636970616e7420616c726561647920766f74656400000000000000604482015260640161028e565b33600090815260098201602052604090205415610c6057600182151514610bf05760405162461bcd60e51b815260206004820152603360248201527f4d75737420766f746520277472756527206265636175736520796f75206a6f696044820152726e65642074686520277472756527207369646560681b606482015260840161028e565b33600090815260098201602052604081205460068301805491928392610c17908490611d11565b9091555050604080516001815260208101839052339186917f01e12c6d241eb97f68e147b48bebefe30d0296d4d4c2f134704114c948df0cc8910160405180910390a350610d38565b8115610ccc5760405162461bcd60e51b815260206004820152603560248201527f4d75737420766f7465202766616c736527206265636175736520796f75206a6f604482015274696e656420746865202766616c736527207369646560581b606482015260840161028e565b336000908152600a8201602052604081205460078301805491928392610cf3908490611d11565b9091555050604080516000815260208101839052339186917f01e12c6d241eb97f68e147b48bebefe30d0296d4d4c2f134704114c948df0cc8910160405180910390a3505b336000908152600d90910160205260409020805460ff191660011790555050565b610d61610f53565b6001600160a01b038116610dc65760405162461bcd60e51b815260206004820152602660248201527f4f776e61626c653a206e6577206f776e657220697320746865207a65726f206160448201526564647265737360d01b606482015260840161028e565b610dcf81610fad565b50565b610dda610ffd565b600081815260026020819052604090912090810154610dfd906201518090611d11565b421015610e5a5760405162461bcd60e51b815260206004820152602560248201527f5265736f6c7574696f6e20706572696f64206973206e6f742066696e6973686560448201526419081e595d60da1b606482015260840161028e565b600881015460ff1615610e7f5760405162461bcd60e51b815260040161028e90611ee1565b600081600501548260040154610e959190611d11565b905060006064610ea6836050611cfa565b610eb09190611f26565b905080836006015410610ecd57610ec8846001611334565b610f47565b80836007015410610ee357610ec8846000611334565b60405162461bcd60e51b815260206004820152603360248201527f4e6f2073757065726d616a6f7269747920726561636865643b2061646d696e206044820152721c995cdbdb1d5d1a5bdb881c995c5d5a5c9959606a1b606482015260840161028e565b505050610dcf60018055565b6000546001600160a01b0316331461095b5760405162461bcd60e51b815260206004820181905260248201527f4f776e61626c653a2063616c6c6572206973206e6f7420746865206f776e6572604482015260640161028e565b600080546001600160a01b038381166001600160a01b0319831681178455604051919092169283917f8be0079c531659141344cd1fd0a4f28419497f9722a3daafe3b4186f6b6457e09190a35050565b60026001540361104f5760405162461bcd60e51b815260206004820152601f60248201527f5265656e7472616e637947756172643a207265656e7472616e742063616c6c00604482015260640161028e565b6002600155565b6000818152600260205260408120600881018054600160ff1991821681179092556003830180549091169091179055905b600b8201548110156111c357600082600b0182815481106110aa576110aa611f48565b60009182526020808320909101546001600160a01b03168083526009860190915260409091205490915080156111ae576004805460405163a9059cbb60e01b81526001600160a01b03858116938201939093526024810184905291169063a9059cbb906044016020604051808303816000875af115801561112f573d6000803e3d6000fd5b505050506040513d601f19601f820116820180604052508101906111539190611cc7565b6111ae5760405162461bcd60e51b815260206004820152602660248201527f526566756e6420746f20747275652d73696465207061727469636970616e742060448201526519985a5b195960d21b606482015260840161028e565b505080806111bb90611ec8565b915050611087565b5060005b600c82015481101561130457600082600c0182815481106111ea576111ea611f48565b60009182526020808320909101546001600160a01b0316808352600a860190915260409091205490915080156112ef576004805460405163a9059cbb60e01b81526001600160a01b03858116938201939093526024810184905291169063a9059cbb906044016020604051808303816000875af115801561126f573d6000803e3d6000fd5b505050506040513d601f19601f820116820180604052508101906112939190611cc7565b6112ef5760405162461bcd60e51b815260206004820152602760248201527f526566756e6420746f2066616c73652d73696465207061727469636970616e746044820152660819985a5b195960ca1b606482015260840161028e565b505080806112fc90611ec8565b9150506111c7565b5060405182907f7c60b52933fa6f2124886458b681ab0c0c4bb6dfed5a85af825b2e4991e1fccc90600090a25050565b6000828152600260205260408120600881018054600383018054600160ff19909116811790915561ffff199091166101008615150217179055600581015460048201549192916113849190611d11565b905060006064600554836113989190611cfa565b6113a29190611f26565b905083156116bf57600060646113b9836050611cfa565b6113c39190611f26565b905060006113d18284611f5e565b600486015490915060005b600b87015481101561153f57600087600b0182815481106113ff576113ff611f48565b60009182526020808320909101546001600160a01b031680835260098b01909152604090912054909150801561152a5760008461143c8884611cfa565b6114469190611f26565b905060006114548284611d11565b6004805460405163a9059cbb60e01b81526001600160a01b038881169382019390935260248101849052929350169063a9059cbb906044016020604051808303816000875af11580156114ab573d6000803e3d6000fd5b505050506040513d601f19601f820116820180604052508101906114cf9190611cc7565b6115275760405162461bcd60e51b815260206004820152602360248201527f5472616e7366657220746f20747275652d736964652077696e6e6572206661696044820152621b195960ea1b606482015260840161028e565b50505b5050808061153790611ec8565b9150506113dc565b506005860154156116b75760005b600c8701548110156116b557600087600c01828154811061157057611570611f48565b60009182526020808320909101546001600160a01b0316808352600a8b0190915260409091205490915080156116a05760058901546000906115b28784611cfa565b6115bc9190611f26565b905060006115ca8284611d11565b6004805460405163a9059cbb60e01b81526001600160a01b038881169382019390935260248101849052929350169063a9059cbb906044016020604051808303816000875af1158015611621573d6000803e3d6000fd5b505050506040513d601f19601f820116820180604052508101906116459190611cc7565b61169d5760405162461bcd60e51b815260206004820152602360248201527f5472616e7366657220746f2066616c73652d73696465206c6f736572206661696044820152621b195960ea1b606482015260840161028e565b50505b505080806116ad90611ec8565b91505061154d565b505b5050506119cf565b600060646116ce836050611cfa565b6116d89190611f26565b905060006116e68284611f5e565b600586015490915060005b600c87015481101561185457600087600c01828154811061171457611714611f48565b60009182526020808320909101546001600160a01b0316808352600a8b01909152604090912054909150801561183f576000846117518884611cfa565b61175b9190611f26565b905060006117698284611d11565b6004805460405163a9059cbb60e01b81526001600160a01b038881169382019390935260248101849052929350169063a9059cbb906044016020604051808303816000875af11580156117c0573d6000803e3d6000fd5b505050506040513d601f19601f820116820180604052508101906117e49190611cc7565b61183c5760405162461bcd60e51b8152602060048201526024808201527f5472616e7366657220746f2066616c73652d736964652077696e6e65722066616044820152631a5b195960e21b606482015260840161028e565b50505b5050808061184c90611ec8565b9150506116f1565b506004860154156119cb5760005b600b8701548110156119c957600087600b01828154811061188557611885611f48565b60009182526020808320909101546001600160a01b031680835260098b0190915260409091205490915080156119b45760048901546000906118c78784611cfa565b6118d19190611f26565b905060006118df8284611d11565b6004805460405163a9059cbb60e01b81526001600160a01b038881169382019390935260248101849052929350169063a9059cbb906044016020604051808303816000875af1158015611936573d6000803e3d6000fd5b505050506040513d601f19601f8201168201806040525081019061195a9190611cc7565b6119b15760405162461bcd60e51b815260206004820152602260248201527f5472616e7366657220746f20747275652d73696465206c6f736572206661696c604482015261195960f21b606482015260840161028e565b50505b505080806119c190611ec8565b915050611862565b505b5050505b6040805185151581526020810183905286917fe1b4cc7b572a56466df9203312ded49052ff26393efd614a3f8658c98ec0fc38910160405180910390a25050505050565b600060208284031215611a2557600080fd5b5035919050565b8015158114610dcf57600080fd5b600080600080600060808688031215611a5257600080fd5b85359450602086013567ffffffffffffffff80821115611a7157600080fd5b818801915088601f830112611a8557600080fd5b813581811115611a9457600080fd5b896020828501011115611aa657600080fd5b602083019650809550505050604086013591506060860135611ac781611a2c565b809150509295509295909350565b80356001600160a01b0381168114611aec57600080fd5b919050565b60008060408385031215611b0457600080fd5b82359150611b1460208401611ad5565b90509250929050565b600080600060608486031215611b3257600080fd5b83359250602084013591506040840135611b4b81611a2c565b809150509250925092565b6001600160a01b0389168152610100602080830182905289519183018290526000918291905b80831015611b9b578b8301820151858401610120015291810191611b7c565b6101209250600083828701015282601f19601f8301168601019350505050876040830152611bcd606083018815159052565b8560808301528460a0830152611be760c083018515159052565b82151560e08301529998505050505050505050565b600080600060608486031215611c1157600080fd5b833592506020840135611c2381611a2c565b91506040840135611b4b81611a2c565b60008060408385031215611c4657600080fd5b823591506020830135611c5881611a2c565b809150509250929050565b600060208284031215611c7557600080fd5b611c7e82611ad5565b9392505050565b60208082526022908201527f5374616b652069732062656c6f77206d696e696d756d20726571756972656d656040820152611b9d60f21b606082015260800190565b600060208284031215611cd957600080fd5b8151611c7e81611a2c565b634e487b7160e01b600052601160045260246000fd5b808202811582820484141761051957610519611ce4565b8082018082111561051957610519611ce4565b634e487b7160e01b600052604160045260246000fd5b600181811c90821680611d4e57607f821691505b602082108103611d6e57634e487b7160e01b600052602260045260246000fd5b50919050565b601f8211156109c857600081815260208120601f850160051c81016020861015611d9b5750805b601f850160051c820191505b81811015611dba57828155600101611da7565b505050505050565b67ffffffffffffffff831115611dda57611dda611d24565b611dee83611de88354611d3a565b83611d74565b6000601f841160018114611e225760008515611e0a5750838201355b600019600387901b1c1916600186901b178355611e7c565b600083815260209020601f19861690835b82811015611e535786850135825560209485019460019092019101611e33565b5086821015611e705760001960f88860031b161c19848701351681555b505060018560011b0183555b5050505050565b60808152846080820152848660a0830137600060a0868301810191909152602082019490945291151560408301526060820152601f909201601f191690910101919050565b600060018201611eda57611eda611ce4565b5060010190565b60208082526025908201527f5265736f6c7574696f6e2068617320616c7265616479206265656e2066696e616040820152641b1a5e995960da1b606082015260800190565b600082611f4357634e487b7160e01b600052601260045260246000fd5b500490565b634e487b7160e01b600052603260045260246000fd5b8181038181111561051957610519611ce456fea26469706673582212202ff1913f50f847ebd27003be7791ad362d8179b8bad90cb735e91448024431b864736f6c63430008130033a26469706673582212202af1a81fa1ea89b02e025ad1dddafbfa972684238d5dcf30008b018e6803de8764736f6c63430008130033","opcodes":"PUSH1 0x80 PUSH1 0x40 MSTORE CALLVALUE DUP1 ISZERO PUSH2 0x10 JUMPI PUSH1 0x0 DUP1 REVERT JUMPDEST POP PUSH2 0x1A CALLER PUSH2 0x1F JUMP JUMPDEST PUSH2 0x6F JUMP JUMPDEST PUSH1 0x0 DUP1 SLOAD PUSH1 0x1 PUSH1 0x1 PUSH1 0xA0 SHL SUB DUP4 DUP2 AND PUSH1 0x1 PUSH1 0x1 PUSH1 0xA0 SHL SUB NOT DUP4 AND DUP2 OR DUP5 SSTORE PUSH1 0x40 MLOAD SWAP2 SWAP1 SWAP3 AND SWAP3 DUP4 SWAP2 PUSH32 0x8BE0079C531659141344CD1FD0A4F28419497F9722A3DAAFE3B4186F6B6457E0 SWAP2 SWAP1 LOG3 POP POP JUMP JUMPDEST PUSH2 0x2553 DUP1 PUSH2 0x7E PUSH1 0x0 CODECOPY PUSH1 0x0 RETURN INVALID PUSH1 0x80 PUSH1 0x40 MSTORE CALLVALUE DUP1 ISZERO PUSH2 0x10 JUMPI PUSH1 0x0 DUP1 REVERT JUMPDEST POP PUSH1 0x4 CALLDATASIZE LT PUSH2 0x7D JUMPI PUSH1 0x0 CALLDATALOAD PUSH1 0xE0 SHR DUP1 PUSH4 0x8DA5CB5B GT PUSH2 0x5B JUMPI DUP1 PUSH4 0x8DA5CB5B EQ PUSH2 0xCD JUMPI DUP1 PUSH4 0xB7D139DA EQ PUSH2 0xDE JUMPI DUP1 PUSH4 0xD704624B EQ PUSH2 0xF1 JUMPI DUP1 PUSH4 0xF2FDE38B EQ PUSH2 0x104 JUMPI PUSH1 0x0 DUP1 REVERT JUMPDEST DUP1 PUSH4 0xB1983DE EQ PUSH2 0x82 JUMPI DUP1 PUSH4 0x32B47797 EQ PUSH2 0xB2 JUMPI DUP1 PUSH4 0x715018A6 EQ PUSH2 0xC3 JUMPI JUMPDEST PUSH1 0x0 DUP1 REVERT JUMPDEST PUSH2 0x95 PUSH2 0x90 CALLDATASIZE PUSH1 0x4 PUSH2 0x418 JUMP JUMPDEST PUSH2 0x117 JUMP JUMPDEST PUSH1 0x40 MLOAD PUSH1 0x1 PUSH1 0x1 PUSH1 0xA0 SHL SUB SWAP1 SWAP2 AND DUP2 MSTORE PUSH1 0x20 ADD JUMPDEST PUSH1 0x40 MLOAD DUP1 SWAP2 SUB SWAP1 RETURN JUMPDEST PUSH1 0x1 SLOAD PUSH1 0x40 MLOAD SWAP1 DUP2 MSTORE PUSH1 0x20 ADD PUSH2 0xA9 JUMP JUMPDEST PUSH2 0xCB PUSH2 0x141 JUMP JUMPDEST STOP JUMPDEST PUSH1 0x0 SLOAD PUSH1 0x1 PUSH1 0x1 PUSH1 0xA0 SHL SUB AND PUSH2 0x95 JUMP JUMPDEST PUSH2 0x95 PUSH2 0xEC CALLDATASIZE PUSH1 0x4 PUSH2 0x431 JUMP JUMPDEST PUSH2 0x155 JUMP JUMPDEST PUSH2 0x95 PUSH2 0xFF CALLDATASIZE PUSH1 0x4 PUSH2 0x418 JUMP JUMPDEST PUSH2 0x26B JUMP JUMPDEST PUSH2 0xCB PUSH2 0x112 CALLDATASIZE PUSH1 0x4 PUSH2 0x431 JUMP JUMPDEST PUSH2 0x2E8 JUMP JUMPDEST PUSH1 0x1 DUP2 DUP2 SLOAD DUP2 LT PUSH2 0x127 JUMPI PUSH1 0x0 DUP1 REVERT JUMPDEST PUSH1 0x0 SWAP2 DUP3 MSTORE PUSH1 0x20 SWAP1 SWAP2 KECCAK256 ADD SLOAD PUSH1 0x1 PUSH1 0x1 PUSH1 0xA0 SHL SUB AND SWAP1 POP DUP2 JUMP JUMPDEST PUSH2 0x149 PUSH2 0x361 JUMP JUMPDEST PUSH2 0x153 PUSH1 0x0 PUSH2 0x3BB JUMP JUMPDEST JUMP JUMPDEST PUSH1 0x0 DUP1 DUP3 PUSH1 0x40 MLOAD PUSH2 0x165 SWAP1 PUSH2 0x40B JUMP JUMPDEST PUSH1 0x1 PUSH1 0x1 PUSH1 0xA0 SHL SUB SWAP1 SWAP2 AND DUP2 MSTORE PUSH1 0x20 ADD PUSH1 0x40 MLOAD DUP1 SWAP2 SUB SWAP1 PUSH1 0x0 CREATE DUP1 ISZERO DUP1 ISZERO PUSH2 0x191 JUMPI RETURNDATASIZE PUSH1 0x0 DUP1 RETURNDATACOPY RETURNDATASIZE PUSH1 0x0 REVERT JUMPDEST POP PUSH1 0x40 MLOAD PUSH4 0xF2FDE38B PUSH1 0xE0 SHL DUP2 MSTORE CALLER PUSH1 0x4 DUP3 ADD MSTORE SWAP1 SWAP2 POP PUSH1 0x1 PUSH1 0x1 PUSH1 0xA0 SHL SUB DUP3 AND SWAP1 PUSH4 0xF2FDE38B SWAP1 PUSH1 0x24 ADD PUSH1 0x0 PUSH1 0x40 MLOAD DUP1 DUP4 SUB DUP2 PUSH1 0x0 DUP8 DUP1 EXTCODESIZE ISZERO DUP1 ISZERO PUSH2 0x1D6 JUMPI PUSH1 0x0 DUP1 REVERT JUMPDEST POP GAS CALL ISZERO DUP1 ISZERO PUSH2 0x1EA JUMPI RETURNDATASIZE PUSH1 0x0 DUP1 RETURNDATACOPY RETURNDATASIZE PUSH1 0x0 REVERT JUMPDEST POP POP PUSH1 0x1 DUP1 SLOAD DUP1 DUP3 ADD DUP3 SSTORE PUSH1 0x0 SWAP2 DUP3 MSTORE PUSH32 0xB10E2D527612073B26EECDFD717E6A320CF44B4AFAC2B0732D9FCBE2B7FA0CF6 ADD DUP1 SLOAD PUSH1 0x1 PUSH1 0x1 PUSH1 0xA0 SHL SUB NOT AND PUSH1 0x1 PUSH1 0x1 PUSH1 0xA0 SHL SUB DUP7 AND SWAP1 DUP2 OR SWAP1 SWAP2 SSTORE PUSH1 0x40 MLOAD CALLER SWAP5 POP SWAP1 SWAP3 POP PUSH32 0x48FE6B475437C69375486920959A02E2DD1BE3BB6FB26CA084A9D0378B96B275 SWAP2 SWAP1 LOG3 SWAP3 SWAP2 POP POP JUMP JUMPDEST PUSH1 0x1 SLOAD PUSH1 0x0 SWAP1 DUP3 LT PUSH2 0x2BA JUMPI PUSH1 0x40 MLOAD PUSH3 0x461BCD PUSH1 0xE5 SHL DUP2 MSTORE PUSH1 0x20 PUSH1 0x4 DUP3 ADD MSTORE PUSH1 0x13 PUSH1 0x24 DUP3 ADD MSTORE PUSH19 0x496E646578206F7574206F6620626F756E6473 PUSH1 0x68 SHL PUSH1 0x44 DUP3 ADD MSTORE PUSH1 0x64 ADD JUMPDEST PUSH1 0x40 MLOAD DUP1 SWAP2 SUB SWAP1 REVERT JUMPDEST PUSH1 0x1 DUP3 DUP2 SLOAD DUP2 LT PUSH2 0x2CD JUMPI PUSH2 0x2CD PUSH2 0x461 JUMP JUMPDEST PUSH1 0x0 SWAP2 DUP3 MSTORE PUSH1 0x20 SWAP1 SWAP2 KECCAK256 ADD SLOAD PUSH1 0x1 PUSH1 0x1 PUSH1 0xA0 SHL SUB AND SWAP3 SWAP2 POP POP JUMP JUMPDEST PUSH2 0x2F0 PUSH2 0x361 JUMP JUMPDEST PUSH1 0x1 PUSH1 0x1 PUSH1 0xA0 SHL SUB DUP2 AND PUSH2 0x355 JUMPI PUSH1 0x40 MLOAD PUSH3 0x461BCD PUSH1 0xE5 SHL DUP2 MSTORE PUSH1 0x20 PUSH1 0x4 DUP3 ADD MSTORE PUSH1 0x26 PUSH1 0x24 DUP3 ADD MSTORE PUSH32 0x4F776E61626C653A206E6577206F776E657220697320746865207A65726F2061 PUSH1 0x44 DUP3 ADD MSTORE PUSH6 0x646472657373 PUSH1 0xD0 SHL PUSH1 0x64 DUP3 ADD MSTORE PUSH1 0x84 ADD PUSH2 0x2B1 JUMP JUMPDEST PUSH2 0x35E DUP2 PUSH2 0x3BB JUMP JUMPDEST POP JUMP JUMPDEST PUSH1 0x0 SLOAD PUSH1 0x1 PUSH1 0x1 PUSH1 0xA0 SHL SUB AND CALLER EQ PUSH2 0x153 JUMPI PUSH1 0x40 MLOAD PUSH3 0x461BCD PUSH1 0xE5 SHL DUP2 MSTORE PUSH1 0x20 PUSH1 0x4 DUP3 ADD DUP2 SWAP1 MSTORE PUSH1 0x24 DUP3 ADD MSTORE PUSH32 0x4F776E61626C653A2063616C6C6572206973206E6F7420746865206F776E6572 PUSH1 0x44 DUP3 ADD MSTORE PUSH1 0x64 ADD PUSH2 0x2B1 JUMP JUMPDEST PUSH1 0x0 DUP1 SLOAD PUSH1 0x1 PUSH1 0x1 PUSH1 0xA0 SHL SUB DUP4 DUP2 AND PUSH1 0x1 PUSH1 0x1 PUSH1 0xA0 SHL SUB NOT DUP4 AND DUP2 OR DUP5 SSTORE PUSH1 0x40 MLOAD SWAP2 SWAP1 SWAP3 AND SWAP3 DUP4 SWAP2 PUSH32 0x8BE0079C531659141344CD1FD0A4F28419497F9722A3DAAFE3B4186F6B6457E0 SWAP2 SWAP1 LOG3 POP POP JUMP JUMPDEST PUSH2 0x20A6 DUP1 PUSH2 0x478 DUP4 CODECOPY ADD SWAP1 JUMP JUMPDEST PUSH1 0x0 PUSH1 0x20 DUP3 DUP5 SUB SLT ISZERO PUSH2 0x42A JUMPI PUSH1 0x0 DUP1 REVERT JUMPDEST POP CALLDATALOAD SWAP2 SWAP1 POP JUMP JUMPDEST PUSH1 0x0 PUSH1 0x20 DUP3 DUP5 SUB SLT ISZERO PUSH2 0x443 JUMPI PUSH1 0x0 DUP1 REVERT JUMPDEST DUP2 CALLDATALOAD PUSH1 0x1 PUSH1 0x1 PUSH1 0xA0 SHL SUB DUP2 AND DUP2 EQ PUSH2 0x45A JUMPI PUSH1 0x0 DUP1 REVERT JUMPDEST SWAP4 SWAP3 POP POP POP JUMP JUMPDEST PUSH4 0x4E487B71 PUSH1 0xE0 SHL PUSH1 0x0 MSTORE PUSH1 0x32 PUSH1 0x4 MSTORE PUSH1 0x24 PUSH1 0x0 REVERT INVALID PUSH1 0x80 PUSH1 0x40 MSTORE PUSH1 0x5 DUP1 SSTORE CALLVALUE DUP1 ISZERO PUSH3 0x15 JUMPI PUSH1 0x0 DUP1 REVERT JUMPDEST POP PUSH1 0x40 MLOAD PUSH3 0x20A6 CODESIZE SUB DUP1 PUSH3 0x20A6 DUP4 CODECOPY DUP2 ADD PUSH1 0x40 DUP2 SWAP1 MSTORE PUSH3 0x38 SWAP2 PUSH3 0xBD JUMP JUMPDEST PUSH3 0x43 CALLER PUSH3 0x6D JUMP JUMPDEST PUSH1 0x1 DUP1 SSTORE PUSH1 0x4 DUP1 SLOAD PUSH1 0x1 PUSH1 0x1 PUSH1 0xA0 SHL SUB NOT AND PUSH1 0x1 PUSH1 0x1 PUSH1 0xA0 SHL SUB SWAP3 SWAP1 SWAP3 AND SWAP2 SWAP1 SWAP2 OR SWAP1 SSTORE PUSH3 0xEF JUMP JUMPDEST PUSH1 0x0 DUP1 SLOAD PUSH1 0x1 PUSH1 0x1 PUSH1 0xA0 SHL SUB DUP4 DUP2 AND PUSH1 0x1 PUSH1 0x1 PUSH1 0xA0 SHL SUB NOT DUP4 AND DUP2 OR DUP5 SSTORE PUSH1 0x40 MLOAD SWAP2 SWAP1 SWAP3 AND SWAP3 DUP4 SWAP2 PUSH32 0x8BE0079C531659141344CD1FD0A4F28419497F9722A3DAAFE3B4186F6B6457E0 SWAP2 SWAP1 LOG3 POP POP JUMP JUMPDEST PUSH1 0x0 PUSH1 0x20 DUP3 DUP5 SUB SLT ISZERO PUSH3 0xD0 JUMPI PUSH1 0x0 DUP1 REVERT JUMPDEST DUP2 MLOAD PUSH1 0x1 PUSH1 0x1 PUSH1 0xA0 SHL SUB DUP2 AND DUP2 EQ PUSH3 0xE8 JUMPI PUSH1 0x0 DUP1 REVERT JUMPDEST SWAP4 SWAP3 POP POP POP JUMP JUMPDEST PUSH2 0x1FA7 DUP1 PUSH3 0xFF PUSH1 0x0 CODECOPY PUSH1 0x0 RETURN INVALID PUSH1 0x80 PUSH1 0x40 MSTORE CALLVALUE DUP1 ISZERO PUSH2 0x10 JUMPI PUSH1 0x0 DUP1 REVERT JUMPDEST POP PUSH1 0x4 CALLDATASIZE LT PUSH2 0x10B JUMPI PUSH1 0x0 CALLDATALOAD PUSH1 0xE0 SHR DUP1 PUSH4 0x715018A6 GT PUSH2 0xA2 JUMPI DUP1 PUSH4 0xC1F09061 GT PUSH2 0x71 JUMPI DUP1 PUSH4 0xC1F09061 EQ PUSH2 0x1FE JUMPI DUP1 PUSH4 0xCB1C2B5C EQ PUSH2 0x211 JUMPI DUP1 PUSH4 0xF2FDE38B EQ PUSH2 0x220 JUMPI DUP1 PUSH4 0xF5489B7E EQ PUSH2 0x233 JUMPI DUP1 PUSH4 0xFC0C546A EQ PUSH2 0x246 JUMPI PUSH1 0x0 DUP1 REVERT JUMPDEST DUP1 PUSH4 0x715018A6 EQ PUSH2 0x1B5 JUMPI DUP1 PUSH4 0x8DA5CB5B EQ PUSH2 0x1BD JUMPI DUP1 PUSH4 0xA416F5AB EQ PUSH2 0x1E2 JUMPI DUP1 PUSH4 0xB893CA1A EQ PUSH2 0x1EB JUMPI PUSH1 0x0 DUP1 REVERT JUMPDEST DUP1 PUSH4 0x31BFE3A9 GT PUSH2 0xDE JUMPI DUP1 PUSH4 0x31BFE3A9 EQ PUSH2 0x168 JUMPI DUP1 PUSH4 0x3DF2967E EQ PUSH2 0x17B JUMPI DUP1 PUSH4 0x50F90594 EQ PUSH2 0x1A2 JUMPI DUP1 PUSH4 0x6999AC93 EQ PUSH2 0x1AC JUMPI PUSH1 0x0 DUP1 REVERT JUMPDEST DUP1 PUSH4 0x1411DAB0 EQ PUSH2 0x110 JUMPI DUP1 PUSH4 0x16AE4828 EQ PUSH2 0x125 JUMPI DUP1 PUSH4 0x196B2567 EQ PUSH2 0x142 JUMPI DUP1 PUSH4 0x221B14D9 EQ PUSH2 0x155 JUMPI JUMPDEST PUSH1 0x0 DUP1 REVERT JUMPDEST PUSH2 0x123 PUSH2 0x11E CALLDATASIZE PUSH1 0x4 PUSH2 0x1A13 JUMP JUMPDEST PUSH2 0x259 JUMP JUMPDEST STOP JUMPDEST PUSH2 0x12F PUSH3 0x93A80 DUP2 JUMP JUMPDEST PUSH1 0x40 MLOAD SWAP1 DUP2 MSTORE PUSH1 0x20 ADD JUMPDEST PUSH1 0x40 MLOAD DUP1 SWAP2 SUB SWAP1 RETURN JUMPDEST PUSH2 0x123 PUSH2 0x150 CALLDATASIZE PUSH1 0x4 PUSH2 0x1A3A JUMP JUMPDEST PUSH2 0x266 JUMP JUMPDEST PUSH2 0x12F PUSH2 0x163 CALLDATASIZE PUSH1 0x4 PUSH2 0x1AF1 JUMP JUMPDEST PUSH2 0x4D8 JUMP JUMPDEST PUSH2 0x123 PUSH2 0x176 CALLDATASIZE PUSH1 0x4 PUSH2 0x1B1D JUMP JUMPDEST PUSH2 0x51F JUMP JUMPDEST PUSH2 0x18E PUSH2 0x189 CALLDATASIZE PUSH1 0x4 PUSH2 0x1A13 JUMP JUMPDEST PUSH2 0x83B JUMP JUMPDEST PUSH1 0x40 MLOAD PUSH2 0x139 SWAP9 SWAP8 SWAP7 SWAP6 SWAP5 SWAP4 SWAP3 SWAP2 SWAP1 PUSH2 0x1B56 JUMP JUMPDEST PUSH2 0x12F PUSH3 0x15180 DUP2 JUMP JUMPDEST PUSH2 0x12F PUSH1 0x5 SLOAD DUP2 JUMP JUMPDEST PUSH2 0x123 PUSH2 0x949 JUMP JUMPDEST PUSH1 0x0 SLOAD PUSH1 0x1 PUSH1 0x1 PUSH1 0xA0 SHL SUB AND JUMPDEST PUSH1 0x40 MLOAD PUSH1 0x1 PUSH1 0x1 PUSH1 0xA0 SHL SUB SWAP1 SWAP2 AND DUP2 MSTORE PUSH1 0x20 ADD PUSH2 0x139 JUMP JUMPDEST PUSH2 0x12F PUSH1 0x3 SLOAD DUP2 JUMP JUMPDEST PUSH2 0x123 PUSH2 0x1F9 CALLDATASIZE PUSH1 0x4 PUSH2 0x1BFC JUMP JUMPDEST PUSH2 0x95D JUMP JUMPDEST PUSH2 0x123 PUSH2 0x20C CALLDATASIZE PUSH1 0x4 PUSH2 0x1C33 JUMP JUMPDEST PUSH2 0x9CD JUMP JUMPDEST PUSH2 0x12F PUSH8 0x8AC7230489E80000 DUP2 JUMP JUMPDEST PUSH2 0x123 PUSH2 0x22E CALLDATASIZE PUSH1 0x4 PUSH2 0x1C63 JUMP JUMPDEST PUSH2 0xD59 JUMP JUMPDEST PUSH2 0x123 PUSH2 0x241 CALLDATASIZE PUSH1 0x4 PUSH2 0x1A13 JUMP JUMPDEST PUSH2 0xDD2 JUMP JUMPDEST PUSH1 0x4 SLOAD PUSH2 0x1CA SWAP1 PUSH1 0x1 PUSH1 0x1 PUSH1 0xA0 SHL SUB AND DUP2 JUMP JUMPDEST PUSH2 0x261 PUSH2 0xF53 JUMP JUMPDEST PUSH1 0x5 SSTORE JUMP JUMPDEST PUSH8 0x8AC7230489E80000 DUP6 LT ISZERO PUSH2 0x297 JUMPI PUSH1 0x40 MLOAD PUSH3 0x461BCD PUSH1 0xE5 SHL DUP2 MSTORE PUSH1 0x4 ADD PUSH2 0x28E SWAP1 PUSH2 0x1C85 JUMP JUMPDEST PUSH1 0x40 MLOAD DUP1 SWAP2 SUB SWAP1 REVERT JUMPDEST PUSH1 0x4 DUP1 SLOAD PUSH1 0x40 MLOAD PUSH4 0x23B872DD PUSH1 0xE0 SHL DUP2 MSTORE CALLER SWAP3 DUP2 ADD SWAP3 SWAP1 SWAP3 MSTORE ADDRESS PUSH1 0x24 DUP4 ADD MSTORE PUSH1 0x44 DUP3 ADD DUP8 SWAP1 MSTORE PUSH1 0x1 PUSH1 0x1 PUSH1 0xA0 SHL SUB AND SWAP1 PUSH4 0x23B872DD SWAP1 PUSH1 0x64 ADD PUSH1 0x20 PUSH1 0x40 MLOAD DUP1 DUP4 SUB DUP2 PUSH1 0x0 DUP8 GAS CALL ISZERO DUP1 ISZERO PUSH2 0x2EF JUMPI RETURNDATASIZE PUSH1 0x0 DUP1 RETURNDATACOPY RETURNDATASIZE PUSH1 0x0 REVERT JUMPDEST POP POP POP POP PUSH1 0x40 MLOAD RETURNDATASIZE PUSH1 0x1F NOT PUSH1 0x1F DUP3 ADD AND DUP3 ADD DUP1 PUSH1 0x40 MSTORE POP DUP2 ADD SWAP1 PUSH2 0x313 SWAP2 SWAP1 PUSH2 0x1CC7 JUMP JUMPDEST PUSH2 0x35F JUMPI PUSH1 0x40 MLOAD PUSH3 0x461BCD PUSH1 0xE5 SHL DUP2 MSTORE PUSH1 0x20 PUSH1 0x4 DUP3 ADD MSTORE PUSH1 0x1F PUSH1 0x24 DUP3 ADD MSTORE PUSH32 0x546F6B656E207472616E7366657220666F72207374616B65206661696C656400 PUSH1 0x44 DUP3 ADD MSTORE PUSH1 0x64 ADD PUSH2 0x28E JUMP JUMPDEST PUSH1 0x0 DUP1 DUP4 GT PUSH2 0x371 JUMPI PUSH3 0x93A80 PUSH2 0x37E JUMP JUMPDEST PUSH2 0x37E DUP4 PUSH3 0x15180 PUSH2 0x1CFA JUMP JUMPDEST SWAP1 POP PUSH1 0x0 PUSH2 0x38C DUP3 TIMESTAMP PUSH2 0x1D11 JUMP JUMPDEST PUSH1 0x3 SLOAD PUSH1 0x0 SWAP1 DUP2 MSTORE PUSH1 0x2 PUSH1 0x20 MSTORE PUSH1 0x40 SWAP1 KECCAK256 DUP1 SLOAD PUSH1 0x1 PUSH1 0x1 PUSH1 0xA0 SHL SUB NOT AND CALLER OR DUP2 SSTORE SWAP1 SWAP2 POP PUSH1 0x1 DUP2 ADD PUSH2 0x3BF DUP8 DUP10 DUP4 PUSH2 0x1DC2 JUMP JUMPDEST POP PUSH1 0x2 DUP2 ADD DUP3 SWAP1 SSTORE PUSH1 0x3 DUP2 ADD DUP1 SLOAD PUSH1 0xFF NOT SWAP1 DUP2 AND SWAP1 SWAP2 SSTORE PUSH1 0x8 DUP3 ADD DUP1 SLOAD SWAP1 SWAP2 AND SWAP1 SSTORE DUP4 ISZERO PUSH2 0x42C JUMPI PUSH1 0x4 DUP2 ADD DUP9 SWAP1 SSTORE CALLER PUSH1 0x0 DUP2 DUP2 MSTORE PUSH1 0x9 DUP4 ADD PUSH1 0x20 SWAP1 DUP2 MSTORE PUSH1 0x40 DUP3 KECCAK256 DUP12 SWAP1 SSTORE PUSH1 0xB DUP5 ADD DUP1 SLOAD PUSH1 0x1 DUP2 ADD DUP3 SSTORE SWAP1 DUP4 MSTORE SWAP2 KECCAK256 ADD DUP1 SLOAD PUSH1 0x1 PUSH1 0x1 PUSH1 0xA0 SHL SUB NOT AND SWAP1 SWAP2 OR SWAP1 SSTORE PUSH2 0x46D JUMP JUMPDEST PUSH1 0x5 DUP2 ADD DUP9 SWAP1 SSTORE CALLER PUSH1 0x0 DUP2 DUP2 MSTORE PUSH1 0xA DUP4 ADD PUSH1 0x20 SWAP1 DUP2 MSTORE PUSH1 0x40 DUP3 KECCAK256 DUP12 SWAP1 SSTORE PUSH1 0xC DUP5 ADD DUP1 SLOAD PUSH1 0x1 DUP2 ADD DUP3 SSTORE SWAP1 DUP4 MSTORE SWAP2 KECCAK256 ADD DUP1 SLOAD PUSH1 0x1 PUSH1 0x1 PUSH1 0xA0 SHL SUB NOT AND SWAP1 SWAP2 OR SWAP1 SSTORE JUMPDEST CALLER PUSH1 0x1 PUSH1 0x1 PUSH1 0xA0 SHL SUB AND PUSH1 0x3 SLOAD PUSH32 0xD4182C8A59AD80591D8A72AE9E840EFB3036B6740A6A5A074995CCFDEFA37039 DUP10 DUP10 DUP7 DUP10 DUP15 PUSH1 0x40 MLOAD PUSH2 0x4B1 SWAP6 SWAP5 SWAP4 SWAP3 SWAP2 SWAP1 PUSH2 0x1E83 JUMP JUMPDEST PUSH1 0x40 MLOAD DUP1 SWAP2 SUB SWAP1 LOG3 PUSH1 0x3 DUP1 SLOAD SWAP1 PUSH1 0x0 PUSH2 0x4C9 DUP4 PUSH2 0x1EC8 JUMP JUMPDEST SWAP2 SWAP1 POP SSTORE POP POP POP POP POP POP POP POP POP JUMP JUMPDEST PUSH1 0x0 DUP3 DUP2 MSTORE PUSH1 0x2 PUSH1 0x20 SWAP1 DUP2 MSTORE PUSH1 0x40 DUP1 DUP4 KECCAK256 PUSH1 0x1 PUSH1 0x1 PUSH1 0xA0 SHL SUB DUP6 AND DUP5 MSTORE PUSH1 0xA DUP2 ADD DUP4 MSTORE DUP2 DUP5 KECCAK256 SLOAD PUSH1 0x9 DUP3 ADD SWAP1 SWAP4 MSTORE SWAP1 DUP4 KECCAK256 SLOAD SWAP1 SWAP2 PUSH2 0x515 SWAP2 PUSH2 0x1D11 JUMP JUMPDEST SWAP2 POP POP JUMPDEST SWAP3 SWAP2 POP POP JUMP JUMPDEST PUSH8 0x8AC7230489E80000 DUP3 LT ISZERO PUSH2 0x547 JUMPI PUSH1 0x40 MLOAD PUSH3 0x461BCD PUSH1 0xE5 SHL DUP2 MSTORE PUSH1 0x4 ADD PUSH2 0x28E SWAP1 PUSH2 0x1C85 JUMP JUMPDEST PUSH1 0x0 DUP4 DUP2 MSTORE PUSH1 0x2 PUSH1 0x20 DUP2 SWAP1 MSTORE PUSH1 0x40 SWAP1 SWAP2 KECCAK256 SWAP1 DUP2 ADD SLOAD TIMESTAMP LT PUSH2 0x5AA JUMPI PUSH1 0x40 MLOAD PUSH3 0x461BCD PUSH1 0xE5 SHL DUP2 MSTORE PUSH1 0x20 PUSH1 0x4 DUP3 ADD MSTORE PUSH1 0x17 PUSH1 0x24 DUP3 ADD MSTORE PUSH32 0x4265742068617320616C72656164792065787069726564000000000000000000 PUSH1 0x44 DUP3 ADD MSTORE PUSH1 0x64 ADD PUSH2 0x28E JUMP JUMPDEST PUSH1 0x3 DUP2 ADD SLOAD PUSH1 0xFF AND ISZERO PUSH2 0x5FF JUMPI PUSH1 0x40 MLOAD PUSH3 0x461BCD PUSH1 0xE5 SHL DUP2 MSTORE PUSH1 0x20 PUSH1 0x4 DUP3 ADD MSTORE PUSH1 0x17 PUSH1 0x24 DUP3 ADD MSTORE PUSH32 0x42657420697320616C7265616479207265736F6C766564000000000000000000 PUSH1 0x44 DUP3 ADD MSTORE PUSH1 0x64 ADD PUSH2 0x28E JUMP JUMPDEST CALLER PUSH1 0x0 SWAP1 DUP2 MSTORE PUSH1 0x9 DUP3 ADD PUSH1 0x20 MSTORE PUSH1 0x40 SWAP1 KECCAK256 SLOAD ISZERO DUP1 ISZERO PUSH2 0x62D JUMPI POP CALLER PUSH1 0x0 SWAP1 DUP2 MSTORE PUSH1 0xA DUP3 ADD PUSH1 0x20 MSTORE PUSH1 0x40 SWAP1 KECCAK256 SLOAD ISZERO JUMPDEST PUSH2 0x679 JUMPI PUSH1 0x40 MLOAD PUSH3 0x461BCD PUSH1 0xE5 SHL DUP2 MSTORE PUSH1 0x20 PUSH1 0x4 DUP3 ADD MSTORE PUSH1 0x1A PUSH1 0x24 DUP3 ADD MSTORE PUSH32 0x5061727469636970616E7420616C7265616479206A6F696E6564000000000000 PUSH1 0x44 DUP3 ADD MSTORE PUSH1 0x64 ADD PUSH2 0x28E JUMP JUMPDEST PUSH1 0x4 DUP1 SLOAD PUSH1 0x40 MLOAD PUSH4 0x23B872DD PUSH1 0xE0 SHL DUP2 MSTORE CALLER SWAP3 DUP2 ADD SWAP3 SWAP1 SWAP3 MSTORE ADDRESS PUSH1 0x24 DUP4 ADD MSTORE PUSH1 0x44 DUP3 ADD DUP6 SWAP1 MSTORE PUSH1 0x1 PUSH1 0x1 PUSH1 0xA0 SHL SUB AND SWAP1 PUSH4 0x23B872DD SWAP1 PUSH1 0x64 ADD PUSH1 0x20 PUSH1 0x40 MLOAD DUP1 DUP4 SUB DUP2 PUSH1 0x0 DUP8 GAS CALL ISZERO DUP1 ISZERO PUSH2 0x6D1 JUMPI RETURNDATASIZE PUSH1 0x0 DUP1 RETURNDATACOPY RETURNDATASIZE PUSH1 0x0 REVERT JUMPDEST POP POP POP POP PUSH1 0x40 MLOAD RETURNDATASIZE PUSH1 0x1F NOT PUSH1 0x1F DUP3 ADD AND DUP3 ADD DUP1 PUSH1 0x40 MSTORE POP DUP2 ADD SWAP1 PUSH2 0x6F5 SWAP2 SWAP1 PUSH2 0x1CC7 JUMP JUMPDEST PUSH2 0x741 JUMPI PUSH1 0x40 MLOAD PUSH3 0x461BCD PUSH1 0xE5 SHL DUP2 MSTORE PUSH1 0x20 PUSH1 0x4 DUP3 ADD MSTORE PUSH1 0x1F PUSH1 0x24 DUP3 ADD MSTORE PUSH32 0x546F6B656E207472616E7366657220666F72207374616B65206661696C656400 PUSH1 0x44 DUP3 ADD MSTORE PUSH1 0x64 ADD PUSH2 0x28E JUMP JUMPDEST DUP2 ISZERO PUSH2 0x7A1 JUMPI CALLER PUSH1 0x0 DUP2 DUP2 MSTORE PUSH1 0x9 DUP4 ADD PUSH1 0x20 SWAP1 DUP2 MSTORE PUSH1 0x40 DUP3 KECCAK256 DUP7 SWAP1 SSTORE PUSH1 0xB DUP5 ADD DUP1 SLOAD PUSH1 0x1 DUP2 ADD DUP3 SSTORE SWAP1 DUP4 MSTORE SWAP1 DUP3 KECCAK256 ADD DUP1 SLOAD PUSH1 0x1 PUSH1 0x1 PUSH1 0xA0 SHL SUB NOT AND SWAP1 SWAP3 OR SWAP1 SWAP2 SSTORE PUSH1 0x4 DUP3 ADD DUP1 SLOAD DUP6 SWAP3 SWAP1 PUSH2 0x796 SWAP1 DUP5 SWAP1 PUSH2 0x1D11 JUMP JUMPDEST SWAP1 SWAP2 SSTORE POP PUSH2 0x7F6 SWAP1 POP JUMP JUMPDEST CALLER PUSH1 0x0 DUP2 DUP2 MSTORE PUSH1 0xA DUP4 ADD PUSH1 0x20 SWAP1 DUP2 MSTORE PUSH1 0x40 DUP3 KECCAK256 DUP7 SWAP1 SSTORE PUSH1 0xC DUP5 ADD DUP1 SLOAD PUSH1 0x1 DUP2 ADD DUP3 SSTORE SWAP1 DUP4 MSTORE SWAP1 DUP3 KECCAK256 ADD DUP1 SLOAD PUSH1 0x1 PUSH1 0x1 PUSH1 0xA0 SHL SUB NOT AND SWAP1 SWAP3 OR SWAP1 SWAP2 SSTORE PUSH1 0x5 DUP3 ADD DUP1 SLOAD DUP6 SWAP3 SWAP1 PUSH2 0x7F0 SWAP1 DUP5 SWAP1 PUSH2 0x1D11 JUMP JUMPDEST SWAP1 SWAP2 SSTORE POP POP JUMPDEST PUSH1 0x40 DUP1 MLOAD DUP4 ISZERO ISZERO DUP2 MSTORE PUSH1 0x20 DUP2 ADD DUP6 SWAP1 MSTORE CALLER SWAP2 DUP7 SWAP2 PUSH32 0xBDEA915DEE87AC0C987CE0BE8EE477A6FA7F1491BBE7F11CB0B18FB28A20F77A SWAP2 ADD PUSH1 0x40 MLOAD DUP1 SWAP2 SUB SWAP1 LOG3 POP POP POP POP JUMP JUMPDEST PUSH1 0x0 DUP2 DUP2 MSTORE PUSH1 0x2 PUSH1 0x20 DUP2 SWAP1 MSTORE PUSH1 0x40 DUP3 KECCAK256 DUP1 SLOAD SWAP2 DUP2 ADD SLOAD PUSH1 0x3 DUP3 ADD SLOAD PUSH1 0x4 DUP4 ADD SLOAD PUSH1 0x5 DUP5 ADD SLOAD PUSH1 0x8 DUP6 ADD SLOAD PUSH1 0x1 DUP7 ADD DUP1 SLOAD PUSH1 0x60 SWAP9 DUP11 SWAP9 DUP10 SWAP9 DUP10 SWAP9 DUP10 SWAP9 DUP10 SWAP9 DUP10 SWAP9 SWAP5 SWAP8 PUSH1 0x1 PUSH1 0x1 PUSH1 0xA0 SHL SUB SWAP1 SWAP7 AND SWAP7 SWAP4 SWAP5 PUSH1 0xFF SWAP4 DUP5 AND SWAP5 SWAP3 SWAP4 SWAP2 SWAP3 DUP2 DUP4 AND SWAP3 PUSH2 0x100 SWAP1 SWAP3 DIV SWAP1 SWAP2 AND SWAP1 DUP8 SWAP1 PUSH2 0x8AD SWAP1 PUSH2 0x1D3A JUMP JUMPDEST DUP1 PUSH1 0x1F ADD PUSH1 0x20 DUP1 SWAP2 DIV MUL PUSH1 0x20 ADD PUSH1 0x40 MLOAD SWAP1 DUP2 ADD PUSH1 0x40 MSTORE DUP1 SWAP3 SWAP2 SWAP1 DUP2 DUP2 MSTORE PUSH1 0x20 ADD DUP3 DUP1 SLOAD PUSH2 0x8D9 SWAP1 PUSH2 0x1D3A JUMP JUMPDEST DUP1 ISZERO PUSH2 0x926 JUMPI DUP1 PUSH1 0x1F LT PUSH2 0x8FB JUMPI PUSH2 0x100 DUP1 DUP4 SLOAD DIV MUL DUP4 MSTORE SWAP2 PUSH1 0x20 ADD SWAP2 PUSH2 0x926 JUMP JUMPDEST DUP3 ADD SWAP2 SWAP1 PUSH1 0x0 MSTORE PUSH1 0x20 PUSH1 0x0 KECCAK256 SWAP1 JUMPDEST DUP2 SLOAD DUP2 MSTORE SWAP1 PUSH1 0x1 ADD SWAP1 PUSH1 0x20 ADD DUP1 DUP4 GT PUSH2 0x909 JUMPI DUP3 SWAP1 SUB PUSH1 0x1F AND DUP3 ADD SWAP2 JUMPDEST POP POP POP POP POP SWAP7 POP SWAP9 POP SWAP9 POP SWAP9 POP SWAP9 POP SWAP9 POP SWAP9 POP SWAP9 POP SWAP9 POP POP SWAP2 SWAP4 SWAP6 SWAP8 POP SWAP2 SWAP4 SWAP6 SWAP8 JUMP JUMPDEST PUSH2 0x951 PUSH2 0xF53 JUMP JUMPDEST PUSH2 0x95B PUSH1 0x0 PUSH2 0xFAD JUMP JUMPDEST JUMP JUMPDEST PUSH2 0x965 PUSH2 0xF53 JUMP JUMPDEST PUSH2 0x96D PUSH2 0xFFD JUMP JUMPDEST PUSH1 0x0 DUP4 DUP2 MSTORE PUSH1 0x2 PUSH1 0x20 MSTORE PUSH1 0x40 SWAP1 KECCAK256 PUSH1 0x8 DUP2 ADD SLOAD PUSH1 0xFF AND ISZERO PUSH2 0x9A0 JUMPI PUSH1 0x40 MLOAD PUSH3 0x461BCD PUSH1 0xE5 SHL DUP2 MSTORE PUSH1 0x4 ADD PUSH2 0x28E SWAP1 PUSH2 0x1EE1 JUMP JUMPDEST DUP2 ISZERO PUSH2 0x9B4 JUMPI PUSH2 0x9AF DUP5 PUSH2 0x1056 JUMP JUMPDEST PUSH2 0x9BE JUMP JUMPDEST PUSH2 0x9BE DUP5 DUP5 PUSH2 0x1334 JUMP JUMPDEST POP PUSH2 0x9C8 PUSH1 0x1 DUP1 SSTORE JUMP JUMPDEST POP POP POP JUMP JUMPDEST PUSH1 0x0 DUP3 DUP2 MSTORE PUSH1 0x2 PUSH1 0x20 DUP2 SWAP1 MSTORE PUSH1 0x40 SWAP1 SWAP2 KECCAK256 SWAP1 DUP2 ADD SLOAD TIMESTAMP LT ISZERO PUSH2 0xA2A JUMPI PUSH1 0x40 MLOAD PUSH3 0x461BCD PUSH1 0xE5 SHL DUP2 MSTORE PUSH1 0x20 PUSH1 0x4 DUP3 ADD MSTORE PUSH1 0x16 PUSH1 0x24 DUP3 ADD MSTORE PUSH22 0x10995D081A5CC81B9BDD08195E1C1A5C9959081E595D PUSH1 0x52 SHL PUSH1 0x44 DUP3 ADD MSTORE PUSH1 0x64 ADD PUSH2 0x28E JUMP JUMPDEST PUSH3 0x15180 DUP2 PUSH1 0x2 ADD SLOAD PUSH2 0xA3D SWAP2 SWAP1 PUSH2 0x1D11 JUMP JUMPDEST TIMESTAMP LT PUSH2 0xA8B JUMPI PUSH1 0x40 MLOAD PUSH3 0x461BCD PUSH1 0xE5 SHL DUP2 MSTORE PUSH1 0x20 PUSH1 0x4 DUP3 ADD MSTORE PUSH1 0x19 PUSH1 0x24 DUP3 ADD MSTORE PUSH32 0x5265736F6C7574696F6E20706572696F64206973206F76657200000000000000 PUSH1 0x44 DUP3 ADD MSTORE PUSH1 0x64 ADD PUSH2 0x28E JUMP JUMPDEST PUSH1 0x8 DUP2 ADD SLOAD PUSH1 0xFF AND ISZERO PUSH2 0xAB0 JUMPI PUSH1 0x40 MLOAD PUSH3 0x461BCD PUSH1 0xE5 SHL DUP2 MSTORE PUSH1 0x4 ADD PUSH2 0x28E SWAP1 PUSH2 0x1EE1 JUMP JUMPDEST PUSH1 0x0 PUSH2 0xABC DUP5 CALLER PUSH2 0x4D8 JUMP JUMPDEST GT PUSH2 0xB09 JUMPI PUSH1 0x40 MLOAD PUSH3 0x461BCD PUSH1 0xE5 SHL DUP2 MSTORE PUSH1 0x20 PUSH1 0x4 DUP3 ADD MSTORE PUSH1 0x1B PUSH1 0x24 DUP3 ADD MSTORE PUSH32 0x53656E646572206973206E6F742061207061727469636970616E740000000000 PUSH1 0x44 DUP3 ADD MSTORE PUSH1 0x64 ADD PUSH2 0x28E JUMP JUMPDEST CALLER PUSH1 0x0 SWAP1 DUP2 MSTORE PUSH1 0xD DUP3 ADD PUSH1 0x20 MSTORE PUSH1 0x40 SWAP1 KECCAK256 SLOAD PUSH1 0xFF AND ISZERO PUSH2 0xB6B JUMPI PUSH1 0x40 MLOAD PUSH3 0x461BCD PUSH1 0xE5 SHL DUP2 MSTORE PUSH1 0x20 PUSH1 0x4 DUP3 ADD MSTORE PUSH1 0x19 PUSH1 0x24 DUP3 ADD MSTORE PUSH32 0x5061727469636970616E7420616C726561647920766F74656400000000000000 PUSH1 0x44 DUP3 ADD MSTORE PUSH1 0x64 ADD PUSH2 0x28E JUMP JUMPDEST CALLER PUSH1 0x0 SWAP1 DUP2 MSTORE PUSH1 0x9 DUP3 ADD PUSH1 0x20 MSTORE PUSH1 0x40 SWAP1 KECCAK256 SLOAD ISZERO PUSH2 0xC60 JUMPI PUSH1 0x1 DUP3 ISZERO ISZERO EQ PUSH2 0xBF0 JUMPI PUSH1 0x40 MLOAD PUSH3 0x461BCD PUSH1 0xE5 SHL DUP2 MSTORE PUSH1 0x20 PUSH1 0x4 DUP3 ADD MSTORE PUSH1 0x33 PUSH1 0x24 DUP3 ADD MSTORE PUSH32 0x4D75737420766F746520277472756527206265636175736520796F75206A6F69 PUSH1 0x44 DUP3 ADD MSTORE PUSH19 0x6E656420746865202774727565272073696465 PUSH1 0x68 SHL PUSH1 0x64 DUP3 ADD MSTORE PUSH1 0x84 ADD PUSH2 0x28E JUMP JUMPDEST CALLER PUSH1 0x0 SWAP1 DUP2 MSTORE PUSH1 0x9 DUP3 ADD PUSH1 0x20 MSTORE PUSH1 0x40 DUP2 KECCAK256 SLOAD PUSH1 0x6 DUP4 ADD DUP1 SLOAD SWAP2 SWAP3 DUP4 SWAP3 PUSH2 0xC17 SWAP1 DUP5 SWAP1 PUSH2 0x1D11 JUMP JUMPDEST SWAP1 SWAP2 SSTORE POP POP PUSH1 0x40 DUP1 MLOAD PUSH1 0x1 DUP2 MSTORE PUSH1 0x20 DUP2 ADD DUP4 SWAP1 MSTORE CALLER SWAP2 DUP7 SWAP2 PUSH32 0x1E12C6D241EB97F68E147B48BEBEFE30D0296D4D4C2F134704114C948DF0CC8 SWAP2 ADD PUSH1 0x40 MLOAD DUP1 SWAP2 SUB SWAP1 LOG3 POP PUSH2 0xD38 JUMP JUMPDEST DUP2 ISZERO PUSH2 0xCCC JUMPI PUSH1 0x40 MLOAD PUSH3 0x461BCD PUSH1 0xE5 SHL DUP2 MSTORE PUSH1 0x20 PUSH1 0x4 DUP3 ADD MSTORE PUSH1 0x35 PUSH1 0x24 DUP3 ADD MSTORE PUSH32 0x4D75737420766F7465202766616C736527206265636175736520796F75206A6F PUSH1 0x44 DUP3 ADD MSTORE PUSH21 0x696E656420746865202766616C7365272073696465 PUSH1 0x58 SHL PUSH1 0x64 DUP3 ADD MSTORE PUSH1 0x84 ADD PUSH2 0x28E JUMP JUMPDEST CALLER PUSH1 0x0 SWAP1 DUP2 MSTORE PUSH1 0xA DUP3 ADD PUSH1 0x20 MSTORE PUSH1 0x40 DUP2 KECCAK256 SLOAD PUSH1 0x7 DUP4 ADD DUP1 SLOAD SWAP2 SWAP3 DUP4 SWAP3 PUSH2 0xCF3 SWAP1 DUP5 SWAP1 PUSH2 0x1D11 JUMP JUMPDEST SWAP1 SWAP2 SSTORE POP POP PUSH1 0x40 DUP1 MLOAD PUSH1 0x0 DUP2 MSTORE PUSH1 0x20 DUP2 ADD DUP4 SWAP1 MSTORE CALLER SWAP2 DUP7 SWAP2 PUSH32 0x1E12C6D241EB97F68E147B48BEBEFE30D0296D4D4C2F134704114C948DF0CC8 SWAP2 ADD PUSH1 0x40 MLOAD DUP1 SWAP2 SUB SWAP1 LOG3 POP JUMPDEST CALLER PUSH1 0x0 SWAP1 DUP2 MSTORE PUSH1 0xD SWAP1 SWAP2 ADD PUSH1 0x20 MSTORE PUSH1 0x40 SWAP1 KECCAK256 DUP1 SLOAD PUSH1 0xFF NOT AND PUSH1 0x1 OR SWAP1 SSTORE POP POP JUMP JUMPDEST PUSH2 0xD61 PUSH2 0xF53 JUMP JUMPDEST PUSH1 0x1 PUSH1 0x1 PUSH1 0xA0 SHL SUB DUP2 AND PUSH2 0xDC6 JUMPI PUSH1 0x40 MLOAD PUSH3 0x461BCD PUSH1 0xE5 SHL DUP2 MSTORE PUSH1 0x20 PUSH1 0x4 DUP3 ADD MSTORE PUSH1 0x26 PUSH1 0x24 DUP3 ADD MSTORE PUSH32 0x4F776E61626C653A206E6577206F776E657220697320746865207A65726F2061 PUSH1 0x44 DUP3 ADD MSTORE PUSH6 0x646472657373 PUSH1 0xD0 SHL PUSH1 0x64 DUP3 ADD MSTORE PUSH1 0x84 ADD PUSH2 0x28E JUMP JUMPDEST PUSH2 0xDCF DUP2 PUSH2 0xFAD JUMP JUMPDEST POP JUMP JUMPDEST PUSH2 0xDDA PUSH2 0xFFD JUMP JUMPDEST PUSH1 0x0 DUP2 DUP2 MSTORE PUSH1 0x2 PUSH1 0x20 DUP2 SWAP1 MSTORE PUSH1 0x40 SWAP1 SWAP2 KECCAK256 SWAP1 DUP2 ADD SLOAD PUSH2 0xDFD SWAP1 PUSH3 0x15180 SWAP1 PUSH2 0x1D11 JUMP JUMPDEST TIMESTAMP LT ISZERO PUSH2 0xE5A JUMPI PUSH1 0x40 MLOAD PUSH3 0x461BCD PUSH1 0xE5 SHL DUP2 MSTORE PUSH1 0x20 PUSH1 0x4 DUP3 ADD MSTORE PUSH1 0x25 PUSH1 0x24 DUP3 ADD MSTORE PUSH32 0x5265736F6C7574696F6E20706572696F64206973206E6F742066696E69736865 PUSH1 0x44 DUP3 ADD MSTORE PUSH5 0x19081E595D PUSH1 0xDA SHL PUSH1 0x64 DUP3 ADD MSTORE PUSH1 0x84 ADD PUSH2 0x28E JUMP JUMPDEST PUSH1 0x8 DUP2 ADD SLOAD PUSH1 0xFF AND ISZERO PUSH2 0xE7F JUMPI PUSH1 0x40 MLOAD PUSH3 0x461BCD PUSH1 0xE5 SHL DUP2 MSTORE PUSH1 0x4 ADD PUSH2 0x28E SWAP1 PUSH2 0x1EE1 JUMP JUMPDEST PUSH1 0x0 DUP2 PUSH1 0x5 ADD SLOAD DUP3 PUSH1 0x4 ADD SLOAD PUSH2 0xE95 SWAP2 SWAP1 PUSH2 0x1D11 JUMP JUMPDEST SWAP1 POP PUSH1 0x0 PUSH1 0x64 PUSH2 0xEA6 DUP4 PUSH1 0x50 PUSH2 0x1CFA JUMP JUMPDEST PUSH2 0xEB0 SWAP2 SWAP1 PUSH2 0x1F26 JUMP JUMPDEST SWAP1 POP DUP1 DUP4 PUSH1 0x6 ADD SLOAD LT PUSH2 0xECD JUMPI PUSH2 0xEC8 DUP5 PUSH1 0x1 PUSH2 0x1334 JUMP JUMPDEST PUSH2 0xF47 JUMP JUMPDEST DUP1 DUP4 PUSH1 0x7 ADD SLOAD LT PUSH2 0xEE3 JUMPI PUSH2 0xEC8 DUP5 PUSH1 0x0 PUSH2 0x1334 JUMP JUMPDEST PUSH1 0x40 MLOAD PUSH3 0x461BCD PUSH1 0xE5 SHL DUP2 MSTORE PUSH1 0x20 PUSH1 0x4 DUP3 ADD MSTORE PUSH1 0x33 PUSH1 0x24 DUP3 ADD MSTORE PUSH32 0x4E6F2073757065726D616A6F7269747920726561636865643B2061646D696E20 PUSH1 0x44 DUP3 ADD MSTORE PUSH19 0x1C995CDBDB1D5D1A5BDB881C995C5D5A5C9959 PUSH1 0x6A SHL PUSH1 0x64 DUP3 ADD MSTORE PUSH1 0x84 ADD PUSH2 0x28E JUMP JUMPDEST POP POP POP PUSH2 0xDCF PUSH1 0x1 DUP1 SSTORE JUMP JUMPDEST PUSH1 0x0 SLOAD PUSH1 0x1 PUSH1 0x1 PUSH1 0xA0 SHL SUB AND CALLER EQ PUSH2 0x95B JUMPI PUSH1 0x40 MLOAD PUSH3 0x461BCD PUSH1 0xE5 SHL DUP2 MSTORE PUSH1 0x20 PUSH1 0x4 DUP3 ADD DUP2 SWAP1 MSTORE PUSH1 0x24 DUP3 ADD MSTORE PUSH32 0x4F776E61626C653A2063616C6C6572206973206E6F7420746865206F776E6572 PUSH1 0x44 DUP3 ADD MSTORE PUSH1 0x64 ADD PUSH2 0x28E JUMP JUMPDEST PUSH1 0x0 DUP1 SLOAD PUSH1 0x1 PUSH1 0x1 PUSH1 0xA0 SHL SUB DUP4 DUP2 AND PUSH1 0x1 PUSH1 0x1 PUSH1 0xA0 SHL SUB NOT DUP4 AND DUP2 OR DUP5 SSTORE PUSH1 0x40 MLOAD SWAP2 SWAP1 SWAP3 AND SWAP3 DUP4 SWAP2 PUSH32 0x8BE0079C531659141344CD1FD0A4F28419497F9722A3DAAFE3B4186F6B6457E0 SWAP2 SWAP1 LOG3 POP POP JUMP JUMPDEST PUSH1 0x2 PUSH1 0x1 SLOAD SUB PUSH2 0x104F JUMPI PUSH1 0x40 MLOAD PUSH3 0x461BCD PUSH1 0xE5 SHL DUP2 MSTORE PUSH1 0x20 PUSH1 0x4 DUP3 ADD MSTORE PUSH1 0x1F PUSH1 0x24 DUP3 ADD MSTORE PUSH32 0x5265656E7472616E637947756172643A207265656E7472616E742063616C6C00 PUSH1 0x44 DUP3 ADD MSTORE PUSH1 0x64 ADD PUSH2 0x28E JUMP JUMPDEST PUSH1 0x2 PUSH1 0x1 SSTORE JUMP JUMPDEST PUSH1 0x0 DUP2 DUP2 MSTORE PUSH1 0x2 PUSH1 0x20 MSTORE PUSH1 0x40 DUP2 KECCAK256 PUSH1 0x8 DUP2 ADD DUP1 SLOAD PUSH1 0x1 PUSH1 0xFF NOT SWAP2 DUP3 AND DUP2 OR SWAP1 SWAP3 SSTORE PUSH1 0x3 DUP4 ADD DUP1 SLOAD SWAP1 SWAP2 AND SWAP1 SWAP2 OR SWAP1 SSTORE SWAP1 JUMPDEST PUSH1 0xB DUP3 ADD SLOAD DUP2 LT ISZERO PUSH2 0x11C3 JUMPI PUSH1 0x0 DUP3 PUSH1 0xB ADD DUP3 DUP2 SLOAD DUP2 LT PUSH2 0x10AA JUMPI PUSH2 0x10AA PUSH2 0x1F48 JUMP JUMPDEST PUSH1 0x0 SWAP2 DUP3 MSTORE PUSH1 0x20 DUP1 DUP4 KECCAK256 SWAP1 SWAP2 ADD SLOAD PUSH1 0x1 PUSH1 0x1 PUSH1 0xA0 SHL SUB AND DUP1 DUP4 MSTORE PUSH1 0x9 DUP7 ADD SWAP1 SWAP2 MSTORE PUSH1 0x40 SWAP1 SWAP2 KECCAK256 SLOAD SWAP1 SWAP2 POP DUP1 ISZERO PUSH2 0x11AE JUMPI PUSH1 0x4 DUP1 SLOAD PUSH1 0x40 MLOAD PUSH4 0xA9059CBB PUSH1 0xE0 SHL DUP2 MSTORE PUSH1 0x1 PUSH1 0x1 PUSH1 0xA0 SHL SUB DUP6 DUP2 AND SWAP4 DUP3 ADD SWAP4 SWAP1 SWAP4 MSTORE PUSH1 0x24 DUP2 ADD DUP5 SWAP1 MSTORE SWAP2 AND SWAP1 PUSH4 0xA9059CBB SWAP1 PUSH1 0x44 ADD PUSH1 0x20 PUSH1 0x40 MLOAD DUP1 DUP4 SUB DUP2 PUSH1 0x0 DUP8 GAS CALL ISZERO DUP1 ISZERO PUSH2 0x112F JUMPI RETURNDATASIZE PUSH1 0x0 DUP1 RETURNDATACOPY RETURNDATASIZE PUSH1 0x0 REVERT JUMPDEST POP POP POP POP PUSH1 0x40 MLOAD RETURNDATASIZE PUSH1 0x1F NOT PUSH1 0x1F DUP3 ADD AND DUP3 ADD DUP1 PUSH1 0x40 MSTORE POP DUP2 ADD SWAP1 PUSH2 0x1153 SWAP2 SWAP1 PUSH2 0x1CC7 JUMP JUMPDEST PUSH2 0x11AE JUMPI PUSH1 0x40 MLOAD PUSH3 0x461BCD PUSH1 0xE5 SHL DUP2 MSTORE PUSH1 0x20 PUSH1 0x4 DUP3 ADD MSTORE PUSH1 0x26 PUSH1 0x24 DUP3 ADD MSTORE PUSH32 0x526566756E6420746F20747275652D73696465207061727469636970616E7420 PUSH1 0x44 DUP3 ADD MSTORE PUSH6 0x19985A5B1959 PUSH1 0xD2 SHL PUSH1 0x64 DUP3 ADD MSTORE PUSH1 0x84 ADD PUSH2 0x28E JUMP JUMPDEST POP POP DUP1 DUP1 PUSH2 0x11BB SWAP1 PUSH2 0x1EC8 JUMP JUMPDEST SWAP2 POP POP PUSH2 0x1087 JUMP JUMPDEST POP PUSH1 0x0 JUMPDEST PUSH1 0xC DUP3 ADD SLOAD DUP2 LT ISZERO PUSH2 0x1304 JUMPI PUSH1 0x0 DUP3 PUSH1 0xC ADD DUP3 DUP2 SLOAD DUP2 LT PUSH2 0x11EA JUMPI PUSH2 0x11EA PUSH2 0x1F48 JUMP JUMPDEST PUSH1 0x0 SWAP2 DUP3 MSTORE PUSH1 0x20 DUP1 DUP4 KECCAK256 SWAP1 SWAP2 ADD SLOAD PUSH1 0x1 PUSH1 0x1 PUSH1 0xA0 SHL SUB AND DUP1 DUP4 MSTORE PUSH1 0xA DUP7 ADD SWAP1 SWAP2 MSTORE PUSH1 0x40 SWAP1 SWAP2 KECCAK256 SLOAD SWAP1 SWAP2 POP DUP1 ISZERO PUSH2 0x12EF JUMPI PUSH1 0x4 DUP1 SLOAD PUSH1 0x40 MLOAD PUSH4 0xA9059CBB PUSH1 0xE0 SHL DUP2 MSTORE PUSH1 0x1 PUSH1 0x1 PUSH1 0xA0 SHL SUB DUP6 DUP2 AND SWAP4 DUP3 ADD SWAP4 SWAP1 SWAP4 MSTORE PUSH1 0x24 DUP2 ADD DUP5 SWAP1 MSTORE SWAP2 AND SWAP1 PUSH4 0xA9059CBB SWAP1 PUSH1 0x44 ADD PUSH1 0x20 PUSH1 0x40 MLOAD DUP1 DUP4 SUB DUP2 PUSH1 0x0 DUP8 GAS CALL ISZERO DUP1 ISZERO PUSH2 0x126F JUMPI RETURNDATASIZE PUSH1 0x0 DUP1 RETURNDATACOPY RETURNDATASIZE PUSH1 0x0 REVERT JUMPDEST POP POP POP POP PUSH1 0x40 MLOAD RETURNDATASIZE PUSH1 0x1F NOT PUSH1 0x1F DUP3 ADD AND DUP3 ADD DUP1 PUSH1 0x40 MSTORE POP DUP2 ADD SWAP1 PUSH2 0x1293 SWAP2 SWAP1 PUSH2 0x1CC7 JUMP JUMPDEST PUSH2 0x12EF JUMPI PUSH1 0x40 MLOAD PUSH3 0x461BCD PUSH1 0xE5 SHL DUP2 MSTORE PUSH1 0x20 PUSH1 0x4 DUP3 ADD MSTORE PUSH1 0x27 PUSH1 0x24 DUP3 ADD MSTORE PUSH32 0x526566756E6420746F2066616C73652D73696465207061727469636970616E74 PUSH1 0x44 DUP3 ADD MSTORE PUSH7 0x819985A5B1959 PUSH1 0xCA SHL PUSH1 0x64 DUP3 ADD MSTORE PUSH1 0x84 ADD PUSH2 0x28E JUMP JUMPDEST POP POP DUP1 DUP1 PUSH2 0x12FC SWAP1 PUSH2 0x1EC8 JUMP JUMPDEST SWAP2 POP POP PUSH2 0x11C7 JUMP JUMPDEST POP PUSH1 0x40 MLOAD DUP3 SWAP1 PUSH32 0x7C60B52933FA6F2124886458B681AB0C0C4BB6DFED5A85AF825B2E4991E1FCCC SWAP1 PUSH1 0x0 SWAP1 LOG2 POP POP JUMP JUMPDEST PUSH1 0x0 DUP3 DUP2 MSTORE PUSH1 0x2 PUSH1 0x20 MSTORE PUSH1 0x40 DUP2 KECCAK256 PUSH1 0x8 DUP2 ADD DUP1 SLOAD PUSH1 0x3 DUP4 ADD DUP1 SLOAD PUSH1 0x1 PUSH1 0xFF NOT SWAP1 SWAP2 AND DUP2 OR SWAP1 SWAP2 SSTORE PUSH2 0xFFFF NOT SWAP1 SWAP2 AND PUSH2 0x100 DUP7 ISZERO ISZERO MUL OR OR SWAP1 SSTORE PUSH1 0x5 DUP2 ADD SLOAD PUSH1 0x4 DUP3 ADD SLOAD SWAP2 SWAP3 SWAP2 PUSH2 0x1384 SWAP2 SWAP1 PUSH2 0x1D11 JUMP JUMPDEST SWAP1 POP PUSH1 0x0 PUSH1 0x64 PUSH1 0x5 SLOAD DUP4 PUSH2 0x1398 SWAP2 SWAP1 PUSH2 0x1CFA JUMP JUMPDEST PUSH2 0x13A2 SWAP2 SWAP1 PUSH2 0x1F26 JUMP JUMPDEST SWAP1 POP DUP4 ISZERO PUSH2 0x16BF JUMPI PUSH1 0x0 PUSH1 0x64 PUSH2 0x13B9 DUP4 PUSH1 0x50 PUSH2 0x1CFA JUMP JUMPDEST PUSH2 0x13C3 SWAP2 SWAP1 PUSH2 0x1F26 JUMP JUMPDEST SWAP1 POP PUSH1 0x0 PUSH2 0x13D1 DUP3 DUP5 PUSH2 0x1F5E JUMP JUMPDEST PUSH1 0x4 DUP7 ADD SLOAD SWAP1 SWAP2 POP PUSH1 0x0 JUMPDEST PUSH1 0xB DUP8 ADD SLOAD DUP2 LT ISZERO PUSH2 0x153F JUMPI PUSH1 0x0 DUP8 PUSH1 0xB ADD DUP3 DUP2 SLOAD DUP2 LT PUSH2 0x13FF JUMPI PUSH2 0x13FF PUSH2 0x1F48 JUMP JUMPDEST PUSH1 0x0 SWAP2 DUP3 MSTORE PUSH1 0x20 DUP1 DUP4 KECCAK256 SWAP1 SWAP2 ADD SLOAD PUSH1 0x1 PUSH1 0x1 PUSH1 0xA0 SHL SUB AND DUP1 DUP4 MSTORE PUSH1 0x9 DUP12 ADD SWAP1 SWAP2 MSTORE PUSH1 0x40 SWAP1 SWAP2 KECCAK256 SLOAD SWAP1 SWAP2 POP DUP1 ISZERO PUSH2 0x152A JUMPI PUSH1 0x0 DUP5 PUSH2 0x143C DUP9 DUP5 PUSH2 0x1CFA JUMP JUMPDEST PUSH2 0x1446 SWAP2 SWAP1 PUSH2 0x1F26 JUMP JUMPDEST SWAP1 POP PUSH1 0x0 PUSH2 0x1454 DUP3 DUP5 PUSH2 0x1D11 JUMP JUMPDEST PUSH1 0x4 DUP1 SLOAD PUSH1 0x40 MLOAD PUSH4 0xA9059CBB PUSH1 0xE0 SHL DUP2 MSTORE PUSH1 0x1 PUSH1 0x1 PUSH1 0xA0 SHL SUB DUP9 DUP2 AND SWAP4 DUP3 ADD SWAP4 SWAP1 SWAP4 MSTORE PUSH1 0x24 DUP2 ADD DUP5 SWAP1 MSTORE SWAP3 SWAP4 POP AND SWAP1 PUSH4 0xA9059CBB SWAP1 PUSH1 0x44 ADD PUSH1 0x20 PUSH1 0x40 MLOAD DUP1 DUP4 SUB DUP2 PUSH1 0x0 DUP8 GAS CALL ISZERO DUP1 ISZERO PUSH2 0x14AB JUMPI RETURNDATASIZE PUSH1 0x0 DUP1 RETURNDATACOPY RETURNDATASIZE PUSH1 0x0 REVERT JUMPDEST POP POP POP POP PUSH1 0x40 MLOAD RETURNDATASIZE PUSH1 0x1F NOT PUSH1 0x1F DUP3 ADD AND DUP3 ADD DUP1 PUSH1 0x40 MSTORE POP DUP2 ADD SWAP1 PUSH2 0x14CF SWAP2 SWAP1 PUSH2 0x1CC7 JUMP JUMPDEST PUSH2 0x1527 JUMPI PUSH1 0x40 MLOAD PUSH3 0x461BCD PUSH1 0xE5 SHL DUP2 MSTORE PUSH1 0x20 PUSH1 0x4 DUP3 ADD MSTORE PUSH1 0x23 PUSH1 0x24 DUP3 ADD MSTORE PUSH32 0x5472616E7366657220746F20747275652D736964652077696E6E657220666169 PUSH1 0x44 DUP3 ADD MSTORE PUSH3 0x1B1959 PUSH1 0xEA SHL PUSH1 0x64 DUP3 ADD MSTORE PUSH1 0x84 ADD PUSH2 0x28E JUMP JUMPDEST POP POP JUMPDEST POP POP DUP1 DUP1 PUSH2 0x1537 SWAP1 PUSH2 0x1EC8 JUMP JUMPDEST SWAP2 POP POP PUSH2 0x13DC JUMP JUMPDEST POP PUSH1 0x5 DUP7 ADD SLOAD ISZERO PUSH2 0x16B7 JUMPI PUSH1 0x0 JUMPDEST PUSH1 0xC DUP8 ADD SLOAD DUP2 LT ISZERO PUSH2 0x16B5 JUMPI PUSH1 0x0 DUP8 PUSH1 0xC ADD DUP3 DUP2 SLOAD DUP2 LT PUSH2 0x1570 JUMPI PUSH2 0x1570 PUSH2 0x1F48 JUMP JUMPDEST PUSH1 0x0 SWAP2 DUP3 MSTORE PUSH1 0x20 DUP1 DUP4 KECCAK256 SWAP1 SWAP2 ADD SLOAD PUSH1 0x1 PUSH1 0x1 PUSH1 0xA0 SHL SUB AND DUP1 DUP4 MSTORE PUSH1 0xA DUP12 ADD SWAP1 SWAP2 MSTORE PUSH1 0x40 SWAP1 SWAP2 KECCAK256 SLOAD SWAP1 SWAP2 POP DUP1 ISZERO PUSH2 0x16A0 JUMPI PUSH1 0x5 DUP10 ADD SLOAD PUSH1 0x0 SWAP1 PUSH2 0x15B2 DUP8 DUP5 PUSH2 0x1CFA JUMP JUMPDEST PUSH2 0x15BC SWAP2 SWAP1 PUSH2 0x1F26 JUMP JUMPDEST SWAP1 POP PUSH1 0x0 PUSH2 0x15CA DUP3 DUP5 PUSH2 0x1D11 JUMP JUMPDEST PUSH1 0x4 DUP1 SLOAD PUSH1 0x40 MLOAD PUSH4 0xA9059CBB PUSH1 0xE0 SHL DUP2 MSTORE PUSH1 0x1 PUSH1 0x1 PUSH1 0xA0 SHL SUB DUP9 DUP2 AND SWAP4 DUP3 ADD SWAP4 SWAP1 SWAP4 MSTORE PUSH1 0x24 DUP2 ADD DUP5 SWAP1 MSTORE SWAP3 SWAP4 POP AND SWAP1 PUSH4 0xA9059CBB SWAP1 PUSH1 0x44 ADD PUSH1 0x20 PUSH1 0x40 MLOAD DUP1 DUP4 SUB DUP2 PUSH1 0x0 DUP8 GAS CALL ISZERO DUP1 ISZERO PUSH2 0x1621 JUMPI RETURNDATASIZE PUSH1 0x0 DUP1 RETURNDATACOPY RETURNDATASIZE PUSH1 0x0 REVERT JUMPDEST POP POP POP POP PUSH1 0x40 MLOAD RETURNDATASIZE PUSH1 0x1F NOT PUSH1 0x1F DUP3 ADD AND DUP3 ADD DUP1 PUSH1 0x40 MSTORE POP DUP2 ADD SWAP1 PUSH2 0x1645 SWAP2 SWAP1 PUSH2 0x1CC7 JUMP JUMPDEST PUSH2 0x169D JUMPI PUSH1 0x40 MLOAD PUSH3 0x461BCD PUSH1 0xE5 SHL DUP2 MSTORE PUSH1 0x20 PUSH1 0x4 DUP3 ADD MSTORE PUSH1 0x23 PUSH1 0x24 DUP3 ADD MSTORE PUSH32 0x5472616E7366657220746F2066616C73652D73696465206C6F73657220666169 PUSH1 0x44 DUP3 ADD MSTORE PUSH3 0x1B1959 PUSH1 0xEA SHL PUSH1 0x64 DUP3 ADD MSTORE PUSH1 0x84 ADD PUSH2 0x28E JUMP JUMPDEST POP POP JUMPDEST POP POP DUP1 DUP1 PUSH2 0x16AD SWAP1 PUSH2 0x1EC8 JUMP JUMPDEST SWAP2 POP POP PUSH2 0x154D JUMP JUMPDEST POP JUMPDEST POP POP POP PUSH2 0x19CF JUMP JUMPDEST PUSH1 0x0 PUSH1 0x64 PUSH2 0x16CE DUP4 PUSH1 0x50 PUSH2 0x1CFA JUMP JUMPDEST PUSH2 0x16D8 SWAP2 SWAP1 PUSH2 0x1F26 JUMP JUMPDEST SWAP1 POP PUSH1 0x0 PUSH2 0x16E6 DUP3 DUP5 PUSH2 0x1F5E JUMP JUMPDEST PUSH1 0x5 DUP7 ADD SLOAD SWAP1 SWAP2 POP PUSH1 0x0 JUMPDEST PUSH1 0xC DUP8 ADD SLOAD DUP2 LT ISZERO PUSH2 0x1854 JUMPI PUSH1 0x0 DUP8 PUSH1 0xC ADD DUP3 DUP2 SLOAD DUP2 LT PUSH2 0x1714 JUMPI PUSH2 0x1714 PUSH2 0x1F48 JUMP JUMPDEST PUSH1 0x0 SWAP2 DUP3 MSTORE PUSH1 0x20 DUP1 DUP4 KECCAK256 SWAP1 SWAP2 ADD SLOAD PUSH1 0x1 PUSH1 0x1 PUSH1 0xA0 SHL SUB AND DUP1 DUP4 MSTORE PUSH1 0xA DUP12 ADD SWAP1 SWAP2 MSTORE PUSH1 0x40 SWAP1 SWAP2 KECCAK256 SLOAD SWAP1 SWAP2 POP DUP1 ISZERO PUSH2 0x183F JUMPI PUSH1 0x0 DUP5 PUSH2 0x1751 DUP9 DUP5 PUSH2 0x1CFA JUMP JUMPDEST PUSH2 0x175B SWAP2 SWAP1 PUSH2 0x1F26 JUMP JUMPDEST SWAP1 POP PUSH1 0x0 PUSH2 0x1769 DUP3 DUP5 PUSH2 0x1D11 JUMP JUMPDEST PUSH1 0x4 DUP1 SLOAD PUSH1 0x40 MLOAD PUSH4 0xA9059CBB PUSH1 0xE0 SHL DUP2 MSTORE PUSH1 0x1 PUSH1 0x1 PUSH1 0xA0 SHL SUB DUP9 DUP2 AND SWAP4 DUP3 ADD SWAP4 SWAP1 SWAP4 MSTORE PUSH1 0x24 DUP2 ADD DUP5 SWAP1 MSTORE SWAP3 SWAP4 POP AND SWAP1 PUSH4 0xA9059CBB SWAP1 PUSH1 0x44 ADD PUSH1 0x20 PUSH1 0x40 MLOAD DUP1 DUP4 SUB DUP2 PUSH1 0x0 DUP8 GAS CALL ISZERO DUP1 ISZERO PUSH2 0x17C0 JUMPI RETURNDATASIZE PUSH1 0x0 DUP1 RETURNDATACOPY RETURNDATASIZE PUSH1 0x0 REVERT JUMPDEST POP POP POP POP PUSH1 0x40 MLOAD RETURNDATASIZE PUSH1 0x1F NOT PUSH1 0x1F DUP3 ADD AND DUP3 ADD DUP1 PUSH1 0x40 MSTORE POP DUP2 ADD SWAP1 PUSH2 0x17E4 SWAP2 SWAP1 PUSH2 0x1CC7 JUMP JUMPDEST PUSH2 0x183C JUMPI PUSH1 0x40 MLOAD PUSH3 0x461BCD PUSH1 0xE5 SHL DUP2 MSTORE PUSH1 0x20 PUSH1 0x4 DUP3 ADD MSTORE PUSH1 0x24 DUP1 DUP3 ADD MSTORE PUSH32 0x5472616E7366657220746F2066616C73652D736964652077696E6E6572206661 PUSH1 0x44 DUP3 ADD MSTORE PUSH4 0x1A5B1959 PUSH1 0xE2 SHL PUSH1 0x64 DUP3 ADD MSTORE PUSH1 0x84 ADD PUSH2 0x28E JUMP JUMPDEST POP POP JUMPDEST POP POP DUP1 DUP1 PUSH2 0x184C SWAP1 PUSH2 0x1EC8 JUMP JUMPDEST SWAP2 POP POP PUSH2 0x16F1 JUMP JUMPDEST POP PUSH1 0x4 DUP7 ADD SLOAD ISZERO PUSH2 0x19CB JUMPI PUSH1 0x0 JUMPDEST PUSH1 0xB DUP8 ADD SLOAD DUP2 LT ISZERO PUSH2 0x19C9 JUMPI PUSH1 0x0 DUP8 PUSH1 0xB ADD DUP3 DUP2 SLOAD DUP2 LT PUSH2 0x1885 JUMPI PUSH2 0x1885 PUSH2 0x1F48 JUMP JUMPDEST PUSH1 0x0 SWAP2 DUP3 MSTORE PUSH1 0x20 DUP1 DUP4 KECCAK256 SWAP1 SWAP2 ADD SLOAD PUSH1 0x1 PUSH1 0x1 PUSH1 0xA0 SHL SUB AND DUP1 DUP4 MSTORE PUSH1 0x9 DUP12 ADD SWAP1 SWAP2 MSTORE PUSH1 0x40 SWAP1 SWAP2 KECCAK256 SLOAD SWAP1 SWAP2 POP DUP1 ISZERO PUSH2 0x19B4 JUMPI PUSH1 0x4 DUP10 ADD SLOAD PUSH1 0x0 SWAP1 PUSH2 0x18C7 DUP8 DUP5 PUSH2 0x1CFA JUMP JUMPDEST PUSH2 0x18D1 SWAP2 SWAP1 PUSH2 0x1F26 JUMP JUMPDEST SWAP1 POP PUSH1 0x0 PUSH2 0x18DF DUP3 DUP5 PUSH2 0x1D11 JUMP JUMPDEST PUSH1 0x4 DUP1 SLOAD PUSH1 0x40 MLOAD PUSH4 0xA9059CBB PUSH1 0xE0 SHL DUP2 MSTORE PUSH1 0x1 PUSH1 0x1 PUSH1 0xA0 SHL SUB DUP9 DUP2 AND SWAP4 DUP3 ADD SWAP4 SWAP1 SWAP4 MSTORE PUSH1 0x24 DUP2 ADD DUP5 SWAP1 MSTORE SWAP3 SWAP4 POP AND SWAP1 PUSH4 0xA9059CBB SWAP1 PUSH1 0x44 ADD PUSH1 0x20 PUSH1 0x40 MLOAD DUP1 DUP4 SUB DUP2 PUSH1 0x0 DUP8 GAS CALL ISZERO DUP1 ISZERO PUSH2 0x1936 JUMPI RETURNDATASIZE PUSH1 0x0 DUP1 RETURNDATACOPY RETURNDATASIZE PUSH1 0x0 REVERT JUMPDEST POP POP POP POP PUSH1 0x40 MLOAD RETURNDATASIZE PUSH1 0x1F NOT PUSH1 0x1F DUP3 ADD AND DUP3 ADD DUP1 PUSH1 0x40 MSTORE POP DUP2 ADD SWAP1 PUSH2 0x195A SWAP2 SWAP1 PUSH2 0x1CC7 JUMP JUMPDEST PUSH2 0x19B1 JUMPI PUSH1 0x40 MLOAD PUSH3 0x461BCD PUSH1 0xE5 SHL DUP2 MSTORE PUSH1 0x20 PUSH1 0x4 DUP3 ADD MSTORE PUSH1 0x22 PUSH1 0x24 DUP3 ADD MSTORE PUSH32 0x5472616E7366657220746F20747275652D73696465206C6F736572206661696C PUSH1 0x44 DUP3 ADD MSTORE PUSH2 0x1959 PUSH1 0xF2 SHL PUSH1 0x64 DUP3 ADD MSTORE PUSH1 0x84 ADD PUSH2 0x28E JUMP JUMPDEST POP POP JUMPDEST POP POP DUP1 DUP1 PUSH2 0x19C1 SWAP1 PUSH2 0x1EC8 JUMP JUMPDEST SWAP2 POP POP PUSH2 0x1862 JUMP JUMPDEST POP JUMPDEST POP POP POP JUMPDEST PUSH1 0x40 DUP1 MLOAD DUP6 ISZERO ISZERO DUP2 MSTORE PUSH1 0x20 DUP2 ADD DUP4 SWAP1 MSTORE DUP7 SWAP2 PUSH32 0xE1B4CC7B572A56466DF9203312DED49052FF26393EFD614A3F8658C98EC0FC38 SWAP2 ADD PUSH1 0x40 MLOAD DUP1 SWAP2 SUB SWAP1 LOG2 POP POP POP POP POP JUMP JUMPDEST PUSH1 0x0 PUSH1 0x20 DUP3 DUP5 SUB SLT ISZERO PUSH2 0x1A25 JUMPI PUSH1 0x0 DUP1 REVERT JUMPDEST POP CALLDATALOAD SWAP2 SWAP1 POP JUMP JUMPDEST DUP1 ISZERO ISZERO DUP2 EQ PUSH2 0xDCF JUMPI PUSH1 0x0 DUP1 REVERT JUMPDEST PUSH1 0x0 DUP1 PUSH1 0x0 DUP1 PUSH1 0x0 PUSH1 0x80 DUP7 DUP9 SUB SLT ISZERO PUSH2 0x1A52 JUMPI PUSH1 0x0 DUP1 REVERT JUMPDEST DUP6 CALLDATALOAD SWAP5 POP PUSH1 0x20 DUP7 ADD CALLDATALOAD PUSH8 0xFFFFFFFFFFFFFFFF DUP1 DUP3 GT ISZERO PUSH2 0x1A71 JUMPI PUSH1 0x0 DUP1 REVERT JUMPDEST DUP2 DUP9 ADD SWAP2 POP DUP9 PUSH1 0x1F DUP4 ADD SLT PUSH2 0x1A85 JUMPI PUSH1 0x0 DUP1 REVERT JUMPDEST DUP2 CALLDATALOAD DUP2 DUP2 GT ISZERO PUSH2 0x1A94 JUMPI PUSH1 0x0 DUP1 REVERT JUMPDEST DUP10 PUSH1 0x20 DUP3 DUP6 ADD ADD GT ISZERO PUSH2 0x1AA6 JUMPI PUSH1 0x0 DUP1 REVERT JUMPDEST PUSH1 0x20 DUP4 ADD SWAP7 POP DUP1 SWAP6 POP POP POP POP PUSH1 0x40 DUP7 ADD CALLDATALOAD SWAP2 POP PUSH1 0x60 DUP7 ADD CALLDATALOAD PUSH2 0x1AC7 DUP2 PUSH2 0x1A2C JUMP JUMPDEST DUP1 SWAP2 POP POP SWAP3 SWAP6 POP SWAP3 SWAP6 SWAP1 SWAP4 POP JUMP JUMPDEST DUP1 CALLDATALOAD PUSH1 0x1 PUSH1 0x1 PUSH1 0xA0 SHL SUB DUP2 AND DUP2 EQ PUSH2 0x1AEC JUMPI PUSH1 0x0 DUP1 REVERT JUMPDEST SWAP2 SWAP1 POP JUMP JUMPDEST PUSH1 0x0 DUP1 PUSH1 0x40 DUP4 DUP6 SUB SLT ISZERO PUSH2 0x1B04 JUMPI PUSH1 0x0 DUP1 REVERT JUMPDEST DUP3 CALLDATALOAD SWAP2 POP PUSH2 0x1B14 PUSH1 0x20 DUP5 ADD PUSH2 0x1AD5 JUMP JUMPDEST SWAP1 POP SWAP3 POP SWAP3 SWAP1 POP JUMP JUMPDEST PUSH1 0x0 DUP1 PUSH1 0x0 PUSH1 0x60 DUP5 DUP7 SUB SLT ISZERO PUSH2 0x1B32 JUMPI PUSH1 0x0 DUP1 REVERT JUMPDEST DUP4 CALLDATALOAD SWAP3 POP PUSH1 0x20 DUP5 ADD CALLDATALOAD SWAP2 POP PUSH1 0x40 DUP5 ADD CALLDATALOAD PUSH2 0x1B4B DUP2 PUSH2 0x1A2C JUMP JUMPDEST DUP1 SWAP2 POP POP SWAP3 POP SWAP3 POP SWAP3 JUMP JUMPDEST PUSH1 0x1 PUSH1 0x1 PUSH1 0xA0 SHL SUB DUP10 AND DUP2 MSTORE PUSH2 0x100 PUSH1 0x20 DUP1 DUP4 ADD DUP3 SWAP1 MSTORE DUP10 MLOAD SWAP2 DUP4 ADD DUP3 SWAP1 MSTORE PUSH1 0x0 SWAP2 DUP3 SWAP2 SWAP1 JUMPDEST DUP1 DUP4 LT ISZERO PUSH2 0x1B9B JUMPI DUP12 DUP4 ADD DUP3 ADD MLOAD DUP6 DUP5 ADD PUSH2 0x120 ADD MSTORE SWAP2 DUP2 ADD SWAP2 PUSH2 0x1B7C JUMP JUMPDEST PUSH2 0x120 SWAP3 POP PUSH1 0x0 DUP4 DUP3 DUP8 ADD ADD MSTORE DUP3 PUSH1 0x1F NOT PUSH1 0x1F DUP4 ADD AND DUP7 ADD ADD SWAP4 POP POP POP POP DUP8 PUSH1 0x40 DUP4 ADD MSTORE PUSH2 0x1BCD PUSH1 0x60 DUP4 ADD DUP9 ISZERO ISZERO SWAP1 MSTORE JUMP JUMPDEST DUP6 PUSH1 0x80 DUP4 ADD MSTORE DUP5 PUSH1 0xA0 DUP4 ADD MSTORE PUSH2 0x1BE7 PUSH1 0xC0 DUP4 ADD DUP6 ISZERO ISZERO SWAP1 MSTORE JUMP JUMPDEST DUP3 ISZERO ISZERO PUSH1 0xE0 DUP4 ADD MSTORE SWAP10 SWAP9 POP POP POP POP POP POP POP POP POP JUMP JUMPDEST PUSH1 0x0 DUP1 PUSH1 0x0 PUSH1 0x60 DUP5 DUP7 SUB SLT ISZERO PUSH2 0x1C11 JUMPI PUSH1 0x0 DUP1 REVERT JUMPDEST DUP4 CALLDATALOAD SWAP3 POP PUSH1 0x20 DUP5 ADD CALLDATALOAD PUSH2 0x1C23 DUP2 PUSH2 0x1A2C JUMP JUMPDEST SWAP2 POP PUSH1 0x40 DUP5 ADD CALLDATALOAD PUSH2 0x1B4B DUP2 PUSH2 0x1A2C JUMP JUMPDEST PUSH1 0x0 DUP1 PUSH1 0x40 DUP4 DUP6 SUB SLT ISZERO PUSH2 0x1C46 JUMPI PUSH1 0x0 DUP1 REVERT JUMPDEST DUP3 CALLDATALOAD SWAP2 POP PUSH1 0x20 DUP4 ADD CALLDATALOAD PUSH2 0x1C58 DUP2 PUSH2 0x1A2C JUMP JUMPDEST DUP1 SWAP2 POP POP SWAP3 POP SWAP3 SWAP1 POP JUMP JUMPDEST PUSH1 0x0 PUSH1 0x20 DUP3 DUP5 SUB SLT ISZERO PUSH2 0x1C75 JUMPI PUSH1 0x0 DUP1 REVERT JUMPDEST PUSH2 0x1C7E DUP3 PUSH2 0x1AD5 JUMP JUMPDEST SWAP4 SWAP3 POP POP POP JUMP JUMPDEST PUSH1 0x20 DUP1 DUP3 MSTORE PUSH1 0x22 SWAP1 DUP3 ADD MSTORE PUSH32 0x5374616B652069732062656C6F77206D696E696D756D20726571756972656D65 PUSH1 0x40 DUP3 ADD MSTORE PUSH2 0x1B9D PUSH1 0xF2 SHL PUSH1 0x60 DUP3 ADD MSTORE PUSH1 0x80 ADD SWAP1 JUMP JUMPDEST PUSH1 0x0 PUSH1 0x20 DUP3 DUP5 SUB SLT ISZERO PUSH2 0x1CD9 JUMPI PUSH1 0x0 DUP1 REVERT JUMPDEST DUP2 MLOAD PUSH2 0x1C7E DUP2 PUSH2 0x1A2C JUMP JUMPDEST PUSH4 0x4E487B71 PUSH1 0xE0 SHL PUSH1 0x0 MSTORE PUSH1 0x11 PUSH1 0x4 MSTORE PUSH1 0x24 PUSH1 0x0 REVERT JUMPDEST DUP1 DUP3 MUL DUP2 ISZERO DUP3 DUP3 DIV DUP5 EQ OR PUSH2 0x519 JUMPI PUSH2 0x519 PUSH2 0x1CE4 JUMP JUMPDEST DUP1 DUP3 ADD DUP1 DUP3 GT ISZERO PUSH2 0x519 JUMPI PUSH2 0x519 PUSH2 0x1CE4 JUMP JUMPDEST PUSH4 0x4E487B71 PUSH1 0xE0 SHL PUSH1 0x0 MSTORE PUSH1 0x41 PUSH1 0x4 MSTORE PUSH1 0x24 PUSH1 0x0 REVERT JUMPDEST PUSH1 0x1 DUP2 DUP2 SHR SWAP1 DUP3 AND DUP1 PUSH2 0x1D4E JUMPI PUSH1 0x7F DUP3 AND SWAP2 POP JUMPDEST PUSH1 0x20 DUP3 LT DUP2 SUB PUSH2 0x1D6E JUMPI PUSH4 0x4E487B71 PUSH1 0xE0 SHL PUSH1 0x0 MSTORE PUSH1 0x22 PUSH1 0x4 MSTORE PUSH1 0x24 PUSH1 0x0 REVERT JUMPDEST POP SWAP2 SWAP1 POP JUMP JUMPDEST PUSH1 0x1F DUP3 GT ISZERO PUSH2 0x9C8 JUMPI PUSH1 0x0 DUP2 DUP2 MSTORE PUSH1 0x20 DUP2 KECCAK256 PUSH1 0x1F DUP6 ADD PUSH1 0x5 SHR DUP2 ADD PUSH1 0x20 DUP7 LT ISZERO PUSH2 0x1D9B JUMPI POP DUP1 JUMPDEST PUSH1 0x1F DUP6 ADD PUSH1 0x5 SHR DUP3 ADD SWAP2 POP JUMPDEST DUP2 DUP2 LT ISZERO PUSH2 0x1DBA JUMPI DUP3 DUP2 SSTORE PUSH1 0x1 ADD PUSH2 0x1DA7 JUMP JUMPDEST POP POP POP POP POP POP JUMP JUMPDEST PUSH8 0xFFFFFFFFFFFFFFFF DUP4 GT ISZERO PUSH2 0x1DDA JUMPI PUSH2 0x1DDA PUSH2 0x1D24 JUMP JUMPDEST PUSH2 0x1DEE DUP4 PUSH2 0x1DE8 DUP4 SLOAD PUSH2 0x1D3A JUMP JUMPDEST DUP4 PUSH2 0x1D74 JUMP JUMPDEST PUSH1 0x0 PUSH1 0x1F DUP5 GT PUSH1 0x1 DUP2 EQ PUSH2 0x1E22 JUMPI PUSH1 0x0 DUP6 ISZERO PUSH2 0x1E0A JUMPI POP DUP4 DUP3 ADD CALLDATALOAD JUMPDEST PUSH1 0x0 NOT PUSH1 0x3 DUP8 SWAP1 SHL SHR NOT AND PUSH1 0x1 DUP7 SWAP1 SHL OR DUP4 SSTORE PUSH2 0x1E7C JUMP JUMPDEST PUSH1 0x0 DUP4 DUP2 MSTORE PUSH1 0x20 SWAP1 KECCAK256 PUSH1 0x1F NOT DUP7 AND SWAP1 DUP4 JUMPDEST DUP3 DUP2 LT ISZERO PUSH2 0x1E53 JUMPI DUP7 DUP6 ADD CALLDATALOAD DUP3 SSTORE PUSH1 0x20 SWAP5 DUP6 ADD SWAP5 PUSH1 0x1 SWAP1 SWAP3 ADD SWAP2 ADD PUSH2 0x1E33 JUMP JUMPDEST POP DUP7 DUP3 LT ISZERO PUSH2 0x1E70 JUMPI PUSH1 0x0 NOT PUSH1 0xF8 DUP9 PUSH1 0x3 SHL AND SHR NOT DUP5 DUP8 ADD CALLDATALOAD AND DUP2 SSTORE JUMPDEST POP POP PUSH1 0x1 DUP6 PUSH1 0x1 SHL ADD DUP4 SSTORE JUMPDEST POP POP POP POP POP JUMP JUMPDEST PUSH1 0x80 DUP2 MSTORE DUP5 PUSH1 0x80 DUP3 ADD MSTORE DUP5 DUP7 PUSH1 0xA0 DUP4 ADD CALLDATACOPY PUSH1 0x0 PUSH1 0xA0 DUP7 DUP4 ADD DUP2 ADD SWAP2 SWAP1 SWAP2 MSTORE PUSH1 0x20 DUP3 ADD SWAP5 SWAP1 SWAP5 MSTORE SWAP2 ISZERO ISZERO PUSH1 0x40 DUP4 ADD MSTORE PUSH1 0x60 DUP3 ADD MSTORE PUSH1 0x1F SWAP1 SWAP3 ADD PUSH1 0x1F NOT AND SWAP1 SWAP2 ADD ADD SWAP2 SWAP1 POP JUMP JUMPDEST PUSH1 0x0 PUSH1 0x1 DUP3 ADD PUSH2 0x1EDA JUMPI PUSH2 0x1EDA PUSH2 0x1CE4 JUMP JUMPDEST POP PUSH1 0x1 ADD SWAP1 JUMP JUMPDEST PUSH1 0x20 DUP1 DUP3 MSTORE PUSH1 0x25 SWAP1 DUP3 ADD MSTORE PUSH32 0x5265736F6C7574696F6E2068617320616C7265616479206265656E2066696E61 PUSH1 0x40 DUP3 ADD MSTORE PUSH5 0x1B1A5E9959 PUSH1 0xDA SHL PUSH1 0x60 DUP3 ADD MSTORE PUSH1 0x80 ADD SWAP1 JUMP JUMPDEST PUSH1 0x0 DUP3 PUSH2 0x1F43 JUMPI PUSH4 0x4E487B71 PUSH1 0xE0 SHL PUSH1 0x0 MSTORE PUSH1 0x12 PUSH1 0x4 MSTORE PUSH1 0x24 PUSH1 0x0 REVERT JUMPDEST POP DIV SWAP1 JUMP JUMPDEST PUSH4 0x4E487B71 PUSH1 0xE0 SHL PUSH1 0x0 MSTORE PUSH1 0x32 PUSH1 0x4 MSTORE PUSH1 0x24 PUSH1 0x0 REVERT JUMPDEST DUP2 DUP2 SUB DUP2 DUP2 GT ISZERO PUSH2 0x519 JUMPI PUSH2 0x519 PUSH2 0x1CE4 JUMP INVALID LOG2 PUSH5 0x6970667358 0x22 SLT KECCAK256 0x2F CALL SWAP2 EXTCODEHASH POP 0xF8 SELFBALANCE 0xEB 0xD2 PUSH17 0x3BE7791AD362D8179B8BAD90CB735E914 BASEFEE MUL PREVRANDAO BALANCE 0xB8 PUSH5 0x736F6C6343 STOP ADDMOD SGT STOP CALLER LOG2 PUSH5 0x6970667358 0x22 SLT KECCAK256 0x2A CALL 0xA8 0x1F LOG1 0xEA DUP10 0xB0 0x2E MUL GAS 0xD1 0xDD 0xDA 0xFB STATICCALL SWAP8 0x26 DUP5 0x23 DUP14 0x5D 0xCF ADDRESS STOP DUP12 ADD DUP15 PUSH9 0x3DE8764736F6C6343 STOP ADDMOD SGT STOP CALLER "},"methodIdentifiers":{"bettingContracts(uint256)":"0b1983de","createBettingContract(address)":"b7d139da","getBettingContract(uint256)":"d704624b","getBettingContractsCount()":"32b47797","owner()":"8da5cb5b","renounceOwnership()":"715018a6","transferOwnership(address)":"f2fde38b"}}}}}