{"packages/hardhat/contracts/NoLossBet.sol":{"NoLossBet":{"abi":[{"inputs":[{"internalType":"address","name":"_celoToken","type":"address"},{"internalType":"address","name":"_stableToken","type":"address"},{"internalType":"address","name":"_betM3Token","type":"address"},{"internalType":"address","name":"_lpToken","type":"address"},{"internalType":"address","name":"_uniswapRouter","type":"address"}],"stateMutability":"nonpayable","type":"constructor"},{"anonymous":false,"inputs":[{"indexed":true,"internalType":"address","name":"owner","type":"address"},{"indexed":true,"internalType":"address","name":"approved","type":"address"},{"indexed":true,"internalType":"uint256","name":"tokenId","type":"uint256"}],"name":"Approval","type":"event"},{"anonymous":false,"inputs":[{"indexed":true,"internalType":"address","name":"owner","type":"address"},{"indexed":true,"internalType":"address","name":"operator","type":"address"},{"indexed":false,"internalType":"bool","name":"approved","type":"bool"}],"name":"ApprovalForAll","type":"event"},{"anonymous":false,"inputs":[{"indexed":false,"internalType":"uint256","name":"betId","type":"uint256"},{"indexed":false,"internalType":"address","name":"opponent","type":"address"}],"name":"BetAccepted","type":"event"},{"anonymous":false,"inputs":[{"indexed":false,"internalType":"uint256","name":"betId","type":"uint256"},{"indexed":false,"internalType":"address","name":"creator","type":"address"},{"indexed":false,"internalType":"string","name":"condition","type":"string"},{"indexed":false,"internalType":"uint256","name":"expiration","type":"uint256"}],"name":"BetCreated","type":"event"},{"anonymous":false,"inputs":[{"indexed":false,"internalType":"uint256","name":"betId","type":"uint256"},{"indexed":false,"internalType":"uint256","name":"totalYield","type":"uint256"}],"name":"BetResolved","type":"event"},{"anonymous":false,"inputs":[{"indexed":false,"internalType":"uint256","name":"betId","type":"uint256"},{"indexed":false,"internalType":"address","name":"winner","type":"address"}],"name":"DisputeResolved","type":"event"},{"anonymous":false,"inputs":[{"indexed":false,"internalType":"uint256","name":"betId","type":"uint256"},{"indexed":false,"internalType":"bool","name":"success","type":"bool"}],"name":"OutcomeSubmitted","type":"event"},{"anonymous":false,"inputs":[{"indexed":true,"internalType":"address","name":"previousOwner","type":"address"},{"indexed":true,"internalType":"address","name":"newOwner","type":"address"}],"name":"OwnershipTransferred","type":"event"},{"anonymous":false,"inputs":[{"indexed":true,"internalType":"address","name":"from","type":"address"},{"indexed":true,"internalType":"address","name":"to","type":"address"},{"indexed":true,"internalType":"uint256","name":"tokenId","type":"uint256"}],"name":"Transfer","type":"event"},{"inputs":[],"name":"BET_DURATION","outputs":[{"internalType":"uint256","name":"","type":"uint256"}],"stateMutability":"view","type":"function"},{"inputs":[{"internalType":"uint256","name":"_betId","type":"uint256"}],"name":"acceptBet","outputs":[],"stateMutability":"nonpayable","type":"function"},{"inputs":[{"internalType":"address","name":"to","type":"address"},{"internalType":"uint256","name":"tokenId","type":"uint256"}],"name":"approve","outputs":[],"stateMutability":"nonpayable","type":"function"},{"inputs":[{"internalType":"address","name":"owner","type":"address"}],"name":"balanceOf","outputs":[{"internalType":"uint256","name":"","type":"uint256"}],"stateMutability":"view","type":"function"},{"inputs":[],"name":"betCounter","outputs":[{"internalType":"uint256","name":"","type":"uint256"}],"stateMutability":"view","type":"function"},{"inputs":[{"internalType":"uint256","name":"","type":"uint256"}],"name":"betLiquidity","outputs":[{"internalType":"uint256","name":"","type":"uint256"}],"stateMutability":"view","type":"function"},{"inputs":[],"name":"betM3Token","outputs":[{"internalType":"contract IERC20","name":"","type":"address"}],"stateMutability":"view","type":"function"},{"inputs":[{"internalType":"uint256","name":"","type":"uint256"}],"name":"bets","outputs":[{"internalType":"address","name":"creator","type":"address"},{"internalType":"address","name":"opponent","type":"address"},{"internalType":"uint256","name":"creatorStake","type":"uint256"},{"internalType":"uint256","name":"opponentStake","type":"uint256"},{"internalType":"string","name":"condition","type":"string"},{"internalType":"bool","name":"creatorOutcome","type":"bool"},{"internalType":"bool","name":"opponentOutcome","type":"bool"},{"internalType":"bool","name":"resolved","type":"bool"},{"internalType":"uint256","name":"expiration","type":"uint256"}],"stateMutability":"view","type":"function"},{"inputs":[],"name":"celoToken","outputs":[{"internalType":"contract IERC20","name":"","type":"address"}],"stateMutability":"view","type":"function"},{"inputs":[{"internalType":"uint256","name":"_opponentStake","type":"uint256"},{"internalType":"string","name":"_condition","type":"string"},{"internalType":"string","name":"_tokenURI","type":"string"}],"name":"createBet","outputs":[],"stateMutability":"nonpayable","type":"function"},{"inputs":[{"internalType":"uint256","name":"amount","type":"uint256"}],"name":"fundCommunityPool","outputs":[],"stateMutability":"nonpayable","type":"function"},{"inputs":[{"internalType":"uint256","name":"amount","type":"uint256"}],"name":"fundStableTokenPool","outputs":[],"stateMutability":"nonpayable","type":"function"},{"inputs":[{"internalType":"uint256","name":"tokenId","type":"uint256"}],"name":"getApproved","outputs":[{"internalType":"address","name":"","type":"address"}],"stateMutability":"view","type":"function"},{"inputs":[{"internalType":"address","name":"owner","type":"address"},{"internalType":"address","name":"operator","type":"address"}],"name":"isApprovedForAll","outputs":[{"internalType":"bool","name":"","type":"bool"}],"stateMutability":"view","type":"function"},{"inputs":[],"name":"lpToken","outputs":[{"internalType":"contract IERC20","name":"","type":"address"}],"stateMutability":"view","type":"function"},{"inputs":[],"name":"name","outputs":[{"internalType":"string","name":"","type":"string"}],"stateMutability":"view","type":"function"},{"inputs":[],"name":"owner","outputs":[{"internalType":"address","name":"","type":"address"}],"stateMutability":"view","type":"function"},{"inputs":[{"internalType":"uint256","name":"tokenId","type":"uint256"}],"name":"ownerOf","outputs":[{"internalType":"address","name":"","type":"address"}],"stateMutability":"view","type":"function"},{"inputs":[],"name":"renounceOwnership","outputs":[],"stateMutability":"nonpayable","type":"function"},{"inputs":[{"internalType":"uint256","name":"_betId","type":"uint256"}],"name":"resolveBet","outputs":[],"stateMutability":"nonpayable","type":"function"},{"inputs":[{"internalType":"uint256","name":"_betId","type":"uint256"},{"internalType":"bool","name":"_creatorWins","type":"bool"}],"name":"resolveDispute","outputs":[],"stateMutability":"nonpayable","type":"function"},{"inputs":[{"internalType":"address","name":"from","type":"address"},{"internalType":"address","name":"to","type":"address"},{"internalType":"uint256","name":"tokenId","type":"uint256"}],"name":"safeTransferFrom","outputs":[],"stateMutability":"nonpayable","type":"function"},{"inputs":[{"internalType":"address","name":"from","type":"address"},{"internalType":"address","name":"to","type":"address"},{"internalType":"uint256","name":"tokenId","type":"uint256"},{"internalType":"bytes","name":"data","type":"bytes"}],"name":"safeTransferFrom","outputs":[],"stateMutability":"nonpayable","type":"function"},{"inputs":[{"internalType":"address","name":"operator","type":"address"},{"internalType":"bool","name":"approved","type":"bool"}],"name":"setApprovalForAll","outputs":[],"stateMutability":"nonpayable","type":"function"},{"inputs":[],"name":"stableToken","outputs":[{"internalType":"contract IERC20","name":"","type":"address"}],"stateMutability":"view","type":"function"},{"inputs":[{"internalType":"uint256","name":"_betId","type":"uint256"},{"internalType":"bool","name":"_success","type":"bool"}],"name":"submitOutcome","outputs":[],"stateMutability":"nonpayable","type":"function"},{"inputs":[{"internalType":"bytes4","name":"interfaceId","type":"bytes4"}],"name":"supportsInterface","outputs":[{"internalType":"bool","name":"","type":"bool"}],"stateMutability":"view","type":"function"},{"inputs":[],"name":"symbol","outputs":[{"internalType":"string","name":"","type":"string"}],"stateMutability":"view","type":"function"},{"inputs":[{"internalType":"uint256","name":"tokenId","type":"uint256"}],"name":"tokenURI","outputs":[{"internalType":"string","name":"","type":"string"}],"stateMutability":"view","type":"function"},{"inputs":[{"internalType":"uint256","name":"","type":"uint256"}],"name":"tokenURIs","outputs":[{"internalType":"string","name":"","type":"string"}],"stateMutability":"view","type":"function"},{"inputs":[{"internalType":"address","name":"from","type":"address"},{"internalType":"address","name":"to","type":"address"},{"internalType":"uint256","name":"tokenId","type":"uint256"}],"name":"transferFrom","outputs":[],"stateMutability":"nonpayable","type":"function"},{"inputs":[{"internalType":"address","name":"newOwner","type":"address"}],"name":"transferOwnership","outputs":[],"stateMutability":"nonpayable","type":"function"},{"inputs":[],"name":"uniswapRouter","outputs":[{"internalType":"contract IUniswapV2Router","name":"","type":"address"}],"stateMutability":"view","type":"function"}],"evm":{"bytecode":{"linkReferences":{},"object":"60806040523480156200001157600080fd5b506040516200426938038062004269833981016040819052620000349162000190565b60405180604001604052806009815260200168139bd31bdcdcd0995d60ba1b8152506040518060400160405280600381526020016227262160e91b8152508160009081620000839190620002a5565b506001620000928282620002a5565b505050620000af620000a96200011d60201b60201c565b62000121565b620000ba3362000121565b600a80546001600160a01b03199081166001600160a01b0397881617909155600b8054821695871695909517909455600c8054851693861693909317909255600d80548416918516919091179055600e8054909216921691909117905562000371565b3390565b600680546001600160a01b038381166001600160a01b0319831681179093556040519116919082907f8be0079c531659141344cd1fd0a4f28419497f9722a3daafe3b4186f6b6457e090600090a35050565b80516001600160a01b03811681146200018b57600080fd5b919050565b600080600080600060a08688031215620001a957600080fd5b620001b48662000173565b9450620001c46020870162000173565b9350620001d46040870162000173565b9250620001e46060870162000173565b9150620001f46080870162000173565b90509295509295909350565b634e487b7160e01b600052604160045260246000fd5b600181811c908216806200022b57607f821691505b6020821081036200024c57634e487b7160e01b600052602260045260246000fd5b50919050565b601f821115620002a057600081815260208120601f850160051c810160208610156200027b5750805b601f850160051c820191505b818110156200029c5782815560010162000287565b5050505b505050565b81516001600160401b03811115620002c157620002c162000200565b620002d981620002d2845462000216565b8462000252565b602080601f831160018114620003115760008415620002f85750858301515b600019600386901b1c1916600185901b1785556200029c565b600085815260208120601f198616915b82811015620003425788860151825594840194600190910190840162000321565b5085821015620003615787850151600019600388901b60f8161c191681555b5050505050600190811b01905550565b613ee880620003816000396000f3fe608060405234801561001057600080fd5b50600436106101fb5760003560e01c80636c8b703f1161011a578063a9d75b2b116100ad578063dee686231161007c578063dee6862314610453578063e22d551a14610466578063e53d4c2d14610479578063e985e9c514610483578063f2fde38b1461049657600080fd5b8063a9d75b2b146103fa578063ad0de5bc1461040d578063b88d4fde1461042d578063c87b56dd1461044057600080fd5b80638da5cb5b116100e95780638da5cb5b146103c557806395d89b41146103d6578063a22cb465146103de578063a416f5ab146103f157600080fd5b80636c8b703f1461037657806370a0823114610389578063715018a6146103aa578063735de9f7146103b257600080fd5b806334b25ee21161019257806354e16c651161016157806354e16c651461032a5780635fcbd2851461033d5780636352211e146103505780636c0c27e11461036357600080fd5b806334b25ee2146102de57806341b80300146102f157806342842e0e146103045780634c36c36e1461031757600080fd5b806322af00fa116101ce57806322af00fa1461027d57806323b872dd146102a557806324697399146102b8578063292e9556146102cb57600080fd5b806301ffc9a71461020057806306fdde0314610228578063081812fc1461023d578063095ea7b314610268575b600080fd5b61021361020e366004613541565b6104a9565b60405190151581526020015b60405180910390f35b6102306104fb565b60405161021f91906135ab565b61025061024b3660046135be565b61058d565b6040516001600160a01b03909116815260200161021f565b61027b6102763660046135f3565b6105b4565b005b61029061028b3660046135be565b6106ce565b60405161021f9998979695949392919061361d565b61027b6102b3366004613682565b6107b6565b600c54610250906001600160a01b031681565b61027b6102d9366004613707565b6107e7565b61027b6102ec36600461378f565b610a88565b61027b6102ff36600461378f565b6110b2565b61027b610312366004613682565b6111f4565b61027b6103253660046135be565b61120f565b61027b6103383660046135be565b611aaa565b600d54610250906001600160a01b031681565b61025061035e3660046135be565b611b6a565b61027b6103713660046135be565b611bca565b6102306103843660046135be565b6120fc565b61039c6103973660046137bf565b612196565b60405190815260200161021f565b61027b61221c565b600e54610250906001600160a01b031681565b6006546001600160a01b0316610250565b610230612230565b61027b6103ec3660046137da565b61223f565b61039c600f5481565b600b54610250906001600160a01b031681565b61039c61041b3660046135be565b60096020526000908152604090205481565b61027b61043b36600461381c565b61224a565b61023061044e3660046135be565b612282565b61027b6104613660046135be565b612324565b600a54610250906001600160a01b031681565b61039c6212750081565b6102136104913660046138f8565b612360565b61027b6104a43660046137bf565b61238e565b60006001600160e01b031982166380ac58cd60e01b14806104da57506001600160e01b03198216635b5e139f60e01b145b806104f557506301ffc9a760e01b6001600160e01b03198316145b92915050565b60606000805461050a9061392b565b80601f01602080910402602001604051908101604052809291908181526020018280546105369061392b565b80156105835780601f1061055857610100808354040283529160200191610583565b820191906000526020600020905b81548152906001019060200180831161056657829003601f168201915b5050505050905090565b600061059882612404565b506000908152600460205260409020546001600160a01b031690565b60006105bf82611b6a565b9050806001600160a01b0316836001600160a01b0316036106315760405162461bcd60e51b815260206004820152602160248201527f4552433732313a20617070726f76616c20746f2063757272656e74206f776e656044820152603960f91b60648201526084015b60405180910390fd5b336001600160a01b038216148061064d575061064d8133612360565b6106bf5760405162461bcd60e51b815260206004820152603d60248201527f4552433732313a20617070726f76652063616c6c6572206973206e6f7420746f60448201527f6b656e206f776e6572206f7220617070726f76656420666f7220616c6c0000006064820152608401610628565b6106c98383612463565b505050565b600760205260009081526040902080546001820154600283015460038401546004850180546001600160a01b03958616969490951694929391926107119061392b565b80601f016020809104026020016040519081016040528092919081815260200182805461073d9061392b565b801561078a5780601f1061075f5761010080835404028352916020019161078a565b820191906000526020600020905b81548152906001019060200180831161076d57829003601f168201915b5050506005840154600690940154929360ff808216946101008304821694506201000090920416915089565b6107c033826124d1565b6107dc5760405162461bcd60e51b815260040161062890613965565b6106c9838383612530565b600a546040516323b872dd60e01b81526001600160a01b03909116906323b872dd90610824903390309068056bc75e2d63100000906004016139b2565b6020604051808303816000875af1158015610843573d6000803e3d6000fd5b505050506040513d601f19601f8201168201806040525081019061086791906139d6565b6108ab5760405162461bcd60e51b815260206004820152601560248201527414dd185ad9481d1c985b9cd9995c8819985a5b1959605a1b6044820152606401610628565b600f8054600091826108bc83613a09565b9190505590506108cc3382612694565b60008181526008602052604090206108e5838583613a70565b5060006108f56212750042613b31565b9050604051806101200160405280336001600160a01b0316815260200160006001600160a01b0316815260200168056bc75e2d63100000815260200188815260200187878080601f016020809104026020016040519081016040528093929190818152602001838380828437600092018290525093855250505060208083018290526040808401839052606080850184905260809485018790528784526007835292819020855181546001600160a01b03199081166001600160a01b039283161783559387015160018301805490951691161790925584015160028201559083015160038201559082015160048201906109ef9082613b44565b5060a082015160058201805460c085015160e086015161ffff1990921693151561ff0019169390931761010093151584021762ff000019166201000091151591909102179055909101516006909101556040517fe8e535ef9804960dfde2925cd2b47ef7ada0c70faf4f250196fd7f6132b8dabd90610a7790849033908a908a908790613c04565b60405180910390a150505050505050565b610a9061281f565b6000828152600760205260409020600581015462010000900460ff1615610ac95760405162461bcd60e51b815260040161062890613c55565b60018101546001600160a01b0316610af35760405162461bcd60e51b815260040161062890613c83565b600581015460ff6101008204811615159116151503610b415760405162461bcd60e51b815260206004820152600a6024820152694e6f206469737075746560b01b6044820152606401610628565b60058101805462ff000019166201000017905560008381526009602052604081205460038301546002840154919291610b7a9190613b31565b600d54600e5460405163095ea7b360e01b81529293506001600160a01b039182169263095ea7b392610bb29216908690600401613cb1565b6020604051808303816000875af1158015610bd1573d6000803e3d6000fd5b505050506040513d601f19601f82011682018060405250810190610bf591906139d6565b50600e54600a54600b5460009283926001600160a01b039182169263baa2abde92918216911687858030610c2b42610384613b31565b6040518863ffffffff1660e01b8152600401610c4d9796959493929190613cca565b60408051808303816000875af1158015610c6b573d6000803e3d6000fd5b505050506040513d601f19601f82011682018060405250810190610c8f9190613d0a565b90925090506000610ca08284613b31565b90506000848211610cb2576000610cbc565b610cbc8583613d2e565b90508715610dd257600a54875460028901546001600160a01b039283169263a9059cbb921690610ced908590613b31565b6040518363ffffffff1660e01b8152600401610d0a929190613cb1565b6020604051808303816000875af1158015610d29573d6000803e3d6000fd5b505050506040513d601f19601f82011682018060405250810190610d4d91906139d6565b50600a546001880154600389015460405163a9059cbb60e01b81526001600160a01b039384169363a9059cbb93610d8993911691600401613cb1565b6020604051808303816000875af1158015610da8573d6000803e3d6000fd5b505050506040513d601f19601f82011682018060405250810190610dcc91906139d6565b50610edc565b600a548754600289015460405163a9059cbb60e01b81526001600160a01b039384169363a9059cbb93610e0a93911691600401613cb1565b6020604051808303816000875af1158015610e29573d6000803e3d6000fd5b505050506040513d601f19601f82011682018060405250810190610e4d91906139d6565b50600a54600188015460038901546001600160a01b039283169263a9059cbb921690610e7a908590613b31565b6040518363ffffffff1660e01b8152600401610e97929190613cb1565b6020604051808303816000875af1158015610eb6573d6000803e3d6000fd5b505050506040513d601f19601f82011682018060405250810190610eda91906139d6565b505b600b546040516370a0823160e01b81523060048201526000916001600160a01b0316906370a0823190602401602060405180830381865afa158015610f25573d6000803e3d6000fd5b505050506040513d601f19601f82011682018060405250810190610f499190613d41565b111561104057600b546001600160a01b031663a9059cbb610f726006546001600160a01b031690565b600b546040516370a0823160e01b81523060048201526001600160a01b03909116906370a0823190602401602060405180830381865afa158015610fba573d6000803e3d6000fd5b505050506040513d601f19601f82011682018060405250810190610fde9190613d41565b6040518363ffffffff1660e01b8152600401610ffb929190613cb1565b6020604051808303816000875af115801561101a573d6000803e3d6000fd5b505050506040513d601f19601f8201168201806040525081019061103e91906139d6565b505b7ff77ceb5e091d2da041bc760667f9d5fe7a756949eaf29250ad0e60ca6f4c27d9898961107a5760018901546001600160a01b0316611086565b88546001600160a01b03165b604080519283526001600160a01b039091166020830152015b60405180910390a1505050505050505050565b600082815260076020526040902080546001600160a01b03163314806110e4575060018101546001600160a01b031633145b6111245760405162461bcd60e51b8152602060048201526011602482015270139bdd0818481c185c9d1a58da5c185b9d607a1b6044820152606401610628565b600581015462010000900460ff161561114f5760405162461bcd60e51b815260040161062890613c55565b60018101546001600160a01b03166111795760405162461bcd60e51b815260040161062890613c83565b80546001600160a01b0316330361119f5760058101805460ff19168315151790556111b5565b60058101805461ff001916610100841515021790555b6040805184815283151560208201527f4d0f19e37ce2918eb3ea8d2f64d9489a5d5e7bb6b7fb871e9595152a261a2ec2910160405180910390a1505050565b6106c98383836040518060200160405280600081525061224a565b6000818152600760205260409020600581015462010000900460ff16156112485760405162461bcd60e51b815260040161062890613c55565b60018101546001600160a01b03166112725760405162461bcd60e51b815260040161062890613c83565b8060060154421061128a5761128682612879565b5050565b600581015460ff8082161515610100909204161515146112e45760405162461bcd60e51b815260206004820152601560248201527409eeae8c6dedacae640c8de40dcdee840dac2e8c6d605b1b6044820152606401610628565b60058101805462ff00001916620100001790556000828152600960205260408120546003830154600284015491929161131d9190613b31565b9050600061132c600283613d5a565b600d54600e5460405163095ea7b360e01b81529293506001600160a01b039182169263095ea7b3926113649216908790600401613cb1565b6020604051808303816000875af1158015611383573d6000803e3d6000fd5b505050506040513d601f19601f820116820180604052508101906113a791906139d6565b50600e54600a54600b5460009283926001600160a01b039182169263baa2abde929182169116888580306113dd42610384613b31565b6040518863ffffffff1660e01b81526004016113ff9796959493929190613cca565b60408051808303816000875af115801561141d573d6000803e3d6000fd5b505050506040513d601f19601f820116820180604052508101906114419190613d0a565b909250905060006114528284613b31565b9050600085821161146457600061146e565b61146e8683613d2e565b600589015490915060ff16156116c957600a5488546001600160a01b039182169163a9059cbb911660646114a3856050613d7c565b6114ad9190613d5a565b8b600201546114bc9190613b31565b6040518363ffffffff1660e01b81526004016114d9929190613cb1565b6020604051808303816000875af11580156114f8573d6000803e3d6000fd5b505050506040513d601f19601f8201168201806040525081019061151c91906139d6565b50600a5460018901546001600160a01b039182169163a9059cbb91166064611545856014613d7c565b61154f9190613d5a565b8b6003015461155e9190613b31565b6040518363ffffffff1660e01b815260040161157b929190613cb1565b6020604051808303816000875af115801561159a573d6000803e3d6000fd5b505050506040513d601f19601f820116820180604052508101906115be91906139d6565b50600c54885460405163a9059cbb60e01b81526001600160a01b039283169263a9059cbb926115fc92911690678ac7230489e8000090600401613cb1565b6020604051808303816000875af115801561161b573d6000803e3d6000fd5b505050506040513d601f19601f8201168201806040525081019061163f91906139d6565b50600c54600189015460405163a9059cbb60e01b81526001600160a01b039283169263a9059cbb9261168092911690674563918244f4000090600401613cb1565b6020604051808303816000875af115801561169f573d6000803e3d6000fd5b505050506040513d601f19601f820116820180604052508101906116c391906139d6565b50611910565b600a5488546001600160a01b039182169163a9059cbb911660646116ee856014613d7c565b6116f89190613d5a565b8b600201546117079190613b31565b6040518363ffffffff1660e01b8152600401611724929190613cb1565b6020604051808303816000875af1158015611743573d6000803e3d6000fd5b505050506040513d601f19601f8201168201806040525081019061176791906139d6565b50600a5460018901546001600160a01b039182169163a9059cbb91166064611790856050613d7c565b61179a9190613d5a565b8b600301546117a99190613b31565b6040518363ffffffff1660e01b81526004016117c6929190613cb1565b6020604051808303816000875af11580156117e5573d6000803e3d6000fd5b505050506040513d601f19601f8201168201806040525081019061180991906139d6565b50600c54885460405163a9059cbb60e01b81526001600160a01b039283169263a9059cbb9261184792911690674563918244f4000090600401613cb1565b6020604051808303816000875af1158015611866573d6000803e3d6000fd5b505050506040513d601f19601f8201168201806040525081019061188a91906139d6565b50600c54600189015460405163a9059cbb60e01b81526001600160a01b039283169263a9059cbb926118cb92911690678ac7230489e8000090600401613cb1565b6020604051808303816000875af11580156118ea573d6000803e3d6000fd5b505050506040513d601f19601f8201168201806040525081019061190e91906139d6565b505b600b546040516370a0823160e01b81523060048201526000916001600160a01b0316906370a0823190602401602060405180830381865afa158015611959573d6000803e3d6000fd5b505050506040513d601f19601f8201168201806040525081019061197d9190613d41565b1115611a7457600b546001600160a01b031663a9059cbb6119a66006546001600160a01b031690565b600b546040516370a0823160e01b81523060048201526001600160a01b03909116906370a0823190602401602060405180830381865afa1580156119ee573d6000803e3d6000fd5b505050506040513d601f19601f82011682018060405250810190611a129190613d41565b6040518363ffffffff1660e01b8152600401611a2f929190613cb1565b6020604051808303816000875af1158015611a4e573d6000803e3d6000fd5b505050506040513d601f19601f82011682018060405250810190611a7291906139d6565b505b604080518a8152602081018390527f6f014aa1fc0c12b56c099fa8727bbf780907046b16c01199f4092f5c721187ab910161109f565b611ab261281f565b600b546040516323b872dd60e01b81526001600160a01b03909116906323b872dd90611ae6903390309086906004016139b2565b6020604051808303816000875af1158015611b05573d6000803e3d6000fd5b505050506040513d601f19601f82011682018060405250810190611b2991906139d6565b611b675760405162461bcd60e51b815260206004820152600f60248201526e151c985b9cd9995c8819985a5b1959608a1b6044820152606401610628565b50565b6000818152600260205260408120546001600160a01b0316806104f55760405162461bcd60e51b8152602060048201526018602482015277115490cdcc8c4e881a5b9d985b1a59081d1bdad95b88125160421b6044820152606401610628565b600081815260076020526040902060018101546001600160a01b031615611c2a5760405162461bcd60e51b815260206004820152601460248201527310995d08185b1c9958591e481858d8d95c1d195960621b6044820152606401610628565b80546001600160a01b03163303611c835760405162461bcd60e51b815260206004820152601d60248201527f43726561746f722063616e6e6f7420616363657074206f776e206265740000006044820152606401610628565b80600601544210611cc85760405162461bcd60e51b815260206004820152600f60248201526e10995d081a185cc8195e1c1a5c9959608a1b6044820152606401610628565b600a5460038201546040516323b872dd60e01b81526001600160a01b03909216916323b872dd91611cff91339130916004016139b2565b6020604051808303816000875af1158015611d1e573d6000803e3d6000fd5b505050506040513d601f19601f82011682018060405250810190611d4291906139d6565b611d865760405162461bcd60e51b815260206004820152601560248201527414dd185ad9481d1c985b9cd9995c8819985a5b1959605a1b6044820152606401610628565b6001810180546001600160a01b031916339081179091558154611db6916001600160a01b03919091169084612530565b600081600301548260020154611dcc9190613b31565b90506000611ddb600283613d5a565b600b549091506001600160a01b03166323b872dd611e016006546001600160a01b031690565b30846040518463ffffffff1660e01b8152600401611e21939291906139b2565b6020604051808303816000875af1158015611e40573d6000803e3d6000fd5b505050506040513d601f19601f82011682018060405250810190611e6491906139d6565b611eb05760405162461bcd60e51b815260206004820152601b60248201527f537461626c65546f6b656e207472616e73666572206661696c656400000000006044820152606401610628565b600a54600e5460405163095ea7b360e01b81526001600160a01b039283169263095ea7b392611ee6929116908590600401613cb1565b6020604051808303816000875af1158015611f05573d6000803e3d6000fd5b505050506040513d601f19601f82011682018060405250810190611f2991906139d6565b50600b54600e5460405163095ea7b360e01b81526001600160a01b039283169263095ea7b392611f60929116908590600401613cb1565b6020604051808303816000875af1158015611f7f573d6000803e3d6000fd5b505050506040513d601f19601f82011682018060405250810190611fa391906139d6565b50600e54600a54600b546000926001600160a01b039081169263e8e3370092908216911685806064611fd682605f613d7c565b611fe09190613d5a565b6064611fed8a605f613d7c565b611ff79190613d5a565b3061200442610384613b31565b60405160e08a901b6001600160e01b03191681526001600160a01b039889166004820152968816602488015260448701959095526064860193909352608485019190915260a484015290921660c482015260e4810191909152610104016060604051808303816000875af1158015612080573d6000803e3d6000fd5b505050506040513d601f19601f820116820180604052508101906120a49190613d93565b60008881526009602090815260409182902083905581518a8152339181019190915281519295507fb727a22534e43d337addefe6245e691859b29f7bf356bc7e6d77ff92070fe1249450829003019150a15050505050565b600860205260009081526040902080546121159061392b565b80601f01602080910402602001604051908101604052809291908181526020018280546121419061392b565b801561218e5780601f106121635761010080835404028352916020019161218e565b820191906000526020600020905b81548152906001019060200180831161217157829003601f168201915b505050505081565b60006001600160a01b0382166122005760405162461bcd60e51b815260206004820152602960248201527f4552433732313a2061646472657373207a65726f206973206e6f7420612076616044820152683634b21037bbb732b960b91b6064820152608401610628565b506001600160a01b031660009081526003602052604090205490565b61222461281f565b61222e60006132d7565b565b60606001805461050a9061392b565b611286338383613329565b61225433836124d1565b6122705760405162461bcd60e51b815260040161062890613965565b61227c848484846133f7565b50505050565b600081815260086020526040902080546060919061229f9061392b565b80601f01602080910402602001604051908101604052809291908181526020018280546122cb9061392b565b80156123185780601f106122ed57610100808354040283529160200191612318565b820191906000526020600020905b8154815290600101906020018083116122fb57829003601f168201915b50505050509050919050565b61232c61281f565b600c546040516323b872dd60e01b81526001600160a01b03909116906323b872dd90611ae6903390309086906004016139b2565b6001600160a01b03918216600090815260056020908152604080832093909416825291909152205460ff1690565b61239661281f565b6001600160a01b0381166123fb5760405162461bcd60e51b815260206004820152602660248201527f4f776e61626c653a206e6577206f776e657220697320746865207a65726f206160448201526564647265737360d01b6064820152608401610628565b611b67816132d7565b6000818152600260205260409020546001600160a01b0316611b675760405162461bcd60e51b8152602060048201526018602482015277115490cdcc8c4e881a5b9d985b1a59081d1bdad95b88125160421b6044820152606401610628565b600081815260046020526040902080546001600160a01b0319166001600160a01b038416908117909155819061249882611b6a565b6001600160a01b03167f8c5be1e5ebec7d5bd14f71427d1e84f3dd0314c0f7b2291e5b200ac8c7c3b92560405160405180910390a45050565b6000806124dd83611b6a565b9050806001600160a01b0316846001600160a01b0316148061250457506125048185612360565b806125285750836001600160a01b031661251d8461058d565b6001600160a01b0316145b949350505050565b826001600160a01b031661254382611b6a565b6001600160a01b0316146125695760405162461bcd60e51b815260040161062890613dc1565b6001600160a01b0382166125cb5760405162461bcd60e51b8152602060048201526024808201527f4552433732313a207472616e7366657220746f20746865207a65726f206164646044820152637265737360e01b6064820152608401610628565b826001600160a01b03166125de82611b6a565b6001600160a01b0316146126045760405162461bcd60e51b815260040161062890613dc1565b600081815260046020908152604080832080546001600160a01b03199081169091556001600160a01b0387811680865260038552838620805460001901905590871680865283862080546001019055868652600290945282852080549092168417909155905184937fddf252ad1be2c89b69c2b068fc378daa952ba7f163c4a11628f55a4df523b3ef91a4505050565b6001600160a01b0382166126ea5760405162461bcd60e51b815260206004820181905260248201527f4552433732313a206d696e7420746f20746865207a65726f20616464726573736044820152606401610628565b6000818152600260205260409020546001600160a01b03161561274f5760405162461bcd60e51b815260206004820152601c60248201527f4552433732313a20746f6b656e20616c7265616479206d696e746564000000006044820152606401610628565b6000818152600260205260409020546001600160a01b0316156127b45760405162461bcd60e51b815260206004820152601c60248201527f4552433732313a20746f6b656e20616c7265616479206d696e746564000000006044820152606401610628565b6001600160a01b038216600081815260036020908152604080832080546001019055848352600290915280822080546001600160a01b0319168417905551839291907fddf252ad1be2c89b69c2b068fc378daa952ba7f163c4a11628f55a4df523b3ef908290a45050565b6006546001600160a01b0316331461222e5760405162461bcd60e51b815260206004820181905260248201527f4f776e61626c653a2063616c6c6572206973206e6f7420746865206f776e65726044820152606401610628565b600081815260076020526040902060068101544210156128d15760405162461bcd60e51b815260206004820152601360248201527210995d081b9bdd081e595d08195e1c1a5c9959606a1b6044820152606401610628565b600581015462010000900460ff16156128fc5760405162461bcd60e51b815260040161062890613c55565b60058101805462ff0000191662010000179055600082815260096020526040812054600383015460028401549192916129359190613b31565b600d54600e5460405163095ea7b360e01b81529293506001600160a01b039182169263095ea7b39261296d9216908690600401613cb1565b6020604051808303816000875af115801561298c573d6000803e3d6000fd5b505050506040513d601f19601f820116820180604052508101906129b091906139d6565b50600e54600a54600b5460009283926001600160a01b039182169263baa2abde929182169116878580306129e642610384613b31565b6040518863ffffffff1660e01b8152600401612a089796959493929190613cca565b60408051808303816000875af1158015612a26573d6000803e3d6000fd5b505050506040513d601f19601f82011682018060405250810190612a4a9190613d0a565b90925090506000612a5b8284613b31565b90506000848211612a6d576000612a77565b612a778583613d2e565b600588015490915060ff8082161515610100909204161515148015612aa25750600587015460ff1615155b15612f0157600587015460ff1615612cff57600a5487546001600160a01b039182169163a9059cbb91166064612ad9856050613d7c565b612ae39190613d5a565b8a60020154612af29190613b31565b6040518363ffffffff1660e01b8152600401612b0f929190613cb1565b6020604051808303816000875af1158015612b2e573d6000803e3d6000fd5b505050506040513d601f19601f82011682018060405250810190612b5291906139d6565b50600a5460018801546001600160a01b039182169163a9059cbb91166064612b7b856014613d7c565b612b859190613d5a565b8a60030154612b949190613b31565b6040518363ffffffff1660e01b8152600401612bb1929190613cb1565b6020604051808303816000875af1158015612bd0573d6000803e3d6000fd5b505050506040513d601f19601f82011682018060405250810190612bf491906139d6565b50600c54875460405163a9059cbb60e01b81526001600160a01b039283169263a9059cbb92612c3292911690678ac7230489e8000090600401613cb1565b6020604051808303816000875af1158015612c51573d6000803e3d6000fd5b505050506040513d601f19601f82011682018060405250810190612c7591906139d6565b50600c54600188015460405163a9059cbb60e01b81526001600160a01b039283169263a9059cbb92612cb692911690674563918244f4000090600401613cb1565b6020604051808303816000875af1158015612cd5573d6000803e3d6000fd5b505050506040513d601f19601f82011682018060405250810190612cf991906139d6565b50613130565b600a5487546001600160a01b039182169163a9059cbb91166064612d24856014613d7c565b612d2e9190613d5a565b8a60020154612d3d9190613b31565b6040518363ffffffff1660e01b8152600401612d5a929190613cb1565b6020604051808303816000875af1158015612d79573d6000803e3d6000fd5b505050506040513d601f19601f82011682018060405250810190612d9d91906139d6565b50600a5460018801546001600160a01b039182169163a9059cbb91166064612dc6856050613d7c565b612dd09190613d5a565b8a60030154612ddf9190613b31565b6040518363ffffffff1660e01b8152600401612dfc929190613cb1565b6020604051808303816000875af1158015612e1b573d6000803e3d6000fd5b505050506040513d601f19601f82011682018060405250810190612e3f91906139d6565b50600c54875460405163a9059cbb60e01b81526001600160a01b039283169263a9059cbb92612e7d92911690674563918244f4000090600401613cb1565b6020604051808303816000875af1158015612e9c573d6000803e3d6000fd5b505050506040513d601f19601f82011682018060405250810190612ec091906139d6565b50600c54600188015460405163a9059cbb60e01b81526001600160a01b039283169263a9059cbb92612cb692911690678ac7230489e8000090600401613cb1565b600a5487546001600160a01b039182169163a9059cbb9116612f24600285613d5a565b8a60020154612f339190613b31565b6040518363ffffffff1660e01b8152600401612f50929190613cb1565b6020604051808303816000875af1158015612f6f573d6000803e3d6000fd5b505050506040513d601f19601f82011682018060405250810190612f9391906139d6565b50600a5460018801546001600160a01b039182169163a9059cbb9116612fba600285613d5a565b8a60030154612fc99190613b31565b6040518363ffffffff1660e01b8152600401612fe6929190613cb1565b6020604051808303816000875af1158015613005573d6000803e3d6000fd5b505050506040513d601f19601f8201168201806040525081019061302991906139d6565b50600c54875460405163a9059cbb60e01b81526001600160a01b039283169263a9059cbb9261306792911690671bc16d674ec8000090600401613cb1565b6020604051808303816000875af1158015613086573d6000803e3d6000fd5b505050506040513d601f19601f820116820180604052508101906130aa91906139d6565b50600c54600188015460405163a9059cbb60e01b81526001600160a01b039283169263a9059cbb926130eb92911690671bc16d674ec8000090600401613cb1565b6020604051808303816000875af115801561310a573d6000803e3d6000fd5b505050506040513d601f19601f8201168201806040525081019061312e91906139d6565b505b600b546040516370a0823160e01b81523060048201526000916001600160a01b0316906370a0823190602401602060405180830381865afa158015613179573d6000803e3d6000fd5b505050506040513d601f19601f8201168201806040525081019061319d9190613d41565b111561329457600b546001600160a01b031663a9059cbb6131c66006546001600160a01b031690565b600b546040516370a0823160e01b81523060048201526001600160a01b03909116906370a0823190602401602060405180830381865afa15801561320e573d6000803e3d6000fd5b505050506040513d601f19601f820116820180604052508101906132329190613d41565b6040518363ffffffff1660e01b815260040161324f929190613cb1565b6020604051808303816000875af115801561326e573d6000803e3d6000fd5b505050506040513d601f19601f8201168201806040525081019061329291906139d6565b505b60408051898152602081018390527f6f014aa1fc0c12b56c099fa8727bbf780907046b16c01199f4092f5c721187ab910160405180910390a15050505050505050565b600680546001600160a01b038381166001600160a01b0319831681179093556040519116919082907f8be0079c531659141344cd1fd0a4f28419497f9722a3daafe3b4186f6b6457e090600090a35050565b816001600160a01b0316836001600160a01b03160361338a5760405162461bcd60e51b815260206004820152601960248201527f4552433732313a20617070726f766520746f2063616c6c6572000000000000006044820152606401610628565b6001600160a01b03838116600081815260056020908152604080832094871680845294825291829020805460ff191686151590811790915591519182527f17307eab39ab6107e8899845ad3d59bd9653f200f220920489ca2b5937696c31910160405180910390a3505050565b613402848484612530565b61340e8484848461342a565b61227c5760405162461bcd60e51b815260040161062890613e06565b60006001600160a01b0384163b1561352057604051630a85bd0160e11b81526001600160a01b0385169063150b7a029061346e903390899088908890600401613e58565b6020604051808303816000875af19250505080156134a9575060408051601f3d908101601f191682019092526134a691810190613e95565b60015b613506573d8080156134d7576040519150601f19603f3d011682016040523d82523d6000602084013e6134dc565b606091505b5080516000036134fe5760405162461bcd60e51b815260040161062890613e06565b805181602001fd5b6001600160e01b031916630a85bd0160e11b149050612528565b506001949350505050565b6001600160e01b031981168114611b6757600080fd5b60006020828403121561355357600080fd5b813561355e8161352b565b9392505050565b6000815180845260005b8181101561358b5760208185018101518683018201520161356f565b506000602082860101526020601f19601f83011685010191505092915050565b60208152600061355e6020830184613565565b6000602082840312156135d057600080fd5b5035919050565b80356001600160a01b03811681146135ee57600080fd5b919050565b6000806040838503121561360657600080fd5b61360f836135d7565b946020939093013593505050565b6001600160a01b038a811682528916602082015260408101889052606081018790526101206080820181905260009061365883820189613565565b96151560a0840152505092151560c084015290151560e08301526101009091015295945050505050565b60008060006060848603121561369757600080fd5b6136a0846135d7565b92506136ae602085016135d7565b9150604084013590509250925092565b60008083601f8401126136d057600080fd5b50813567ffffffffffffffff8111156136e857600080fd5b60208301915083602082850101111561370057600080fd5b9250929050565b60008060008060006060868803121561371f57600080fd5b85359450602086013567ffffffffffffffff8082111561373e57600080fd5b61374a89838a016136be565b9096509450604088013591508082111561376357600080fd5b50613770888289016136be565b969995985093965092949392505050565b8015158114611b6757600080fd5b600080604083850312156137a257600080fd5b8235915060208301356137b481613781565b809150509250929050565b6000602082840312156137d157600080fd5b61355e826135d7565b600080604083850312156137ed57600080fd5b6137f6836135d7565b915060208301356137b481613781565b634e487b7160e01b600052604160045260246000fd5b6000806000806080858703121561383257600080fd5b61383b856135d7565b9350613849602086016135d7565b925060408501359150606085013567ffffffffffffffff8082111561386d57600080fd5b818701915087601f83011261388157600080fd5b81358181111561389357613893613806565b604051601f8201601f19908116603f011681019083821181831017156138bb576138bb613806565b816040528281528a60208487010111156138d457600080fd5b82602086016020830137600060208483010152809550505050505092959194509250565b6000806040838503121561390b57600080fd5b613914836135d7565b9150613922602084016135d7565b90509250929050565b600181811c9082168061393f57607f821691505b60208210810361395f57634e487b7160e01b600052602260045260246000fd5b50919050565b6020808252602d908201527f4552433732313a2063616c6c6572206973206e6f7420746f6b656e206f776e6560408201526c1c881bdc88185c1c1c9bdd9959609a1b606082015260800190565b6001600160a01b039384168152919092166020820152604081019190915260600190565b6000602082840312156139e857600080fd5b815161355e81613781565b634e487b7160e01b600052601160045260246000fd5b600060018201613a1b57613a1b6139f3565b5060010190565b601f8211156106c957600081815260208120601f850160051c81016020861015613a495750805b601f850160051c820191505b81811015613a6857828155600101613a55565b505050505050565b67ffffffffffffffff831115613a8857613a88613806565b613a9c83613a96835461392b565b83613a22565b6000601f841160018114613ad05760008515613ab85750838201355b600019600387901b1c1916600186901b178355613b2a565b600083815260209020601f19861690835b82811015613b015786850135825560209485019460019092019101613ae1565b5086821015613b1e5760001960f88860031b161c19848701351681555b505060018560011b0183555b5050505050565b808201808211156104f5576104f56139f3565b815167ffffffffffffffff811115613b5e57613b5e613806565b613b7281613b6c845461392b565b84613a22565b602080601f831160018114613ba75760008415613b8f5750858301515b600019600386901b1c1916600185901b178555613a68565b600085815260208120601f198616915b82811015613bd657888601518255948401946001909101908401613bb7565b5085821015613bf45787850151600019600388901b60f8161c191681555b5050505050600190811b01905550565b8581526001600160a01b03851660208201526080604082018190528101839052828460a0830137600060a08483010152600060a0601f19601f86011683010190508260608301529695505050505050565b60208082526014908201527310995d08185b1c9958591e481c995cdbdb1d995960621b604082015260600190565b60208082526014908201527310995d081b9bdd081858d8d95c1d1959081e595d60621b604082015260600190565b6001600160a01b03929092168252602082015260400190565b6001600160a01b039788168152958716602087015260408601949094526060850192909252608084015290921660a082015260c081019190915260e00190565b60008060408385031215613d1d57600080fd5b505080516020909101519092909150565b818103818111156104f5576104f56139f3565b600060208284031215613d5357600080fd5b5051919050565b600082613d7757634e487b7160e01b600052601260045260246000fd5b500490565b80820281158282048414176104f5576104f56139f3565b600080600060608486031215613da857600080fd5b8351925060208401519150604084015190509250925092565b60208082526025908201527f4552433732313a207472616e736665722066726f6d20696e636f72726563742060408201526437bbb732b960d91b606082015260800190565b60208082526032908201527f4552433732313a207472616e7366657220746f206e6f6e20455243373231526560408201527131b2b4bb32b91034b6b83632b6b2b73a32b960711b606082015260800190565b6001600160a01b0385811682528416602082015260408101839052608060608201819052600090613e8b90830184613565565b9695505050505050565b600060208284031215613ea757600080fd5b815161355e8161352b56fea264697066735822122005388bdd547eebeeeebf8b2b5989c30a78a7cf50443b4ed0fbad6cd6e38f41c664736f6c63430008130033","opcodes":"PUSH1 0x80 PUSH1 0x40 MSTORE CALLVALUE DUP1 ISZERO PUSH3 0x11 JUMPI PUSH1 0x0 DUP1 REVERT JUMPDEST POP PUSH1 0x40 MLOAD PUSH3 0x4269 CODESIZE SUB DUP1 PUSH3 0x4269 DUP4 CODECOPY DUP2 ADD PUSH1 0x40 DUP2 SWAP1 MSTORE PUSH3 0x34 SWAP2 PUSH3 0x190 JUMP JUMPDEST PUSH1 0x40 MLOAD DUP1 PUSH1 0x40 ADD PUSH1 0x40 MSTORE DUP1 PUSH1 0x9 DUP2 MSTORE PUSH1 0x20 ADD PUSH9 0x139BD31BDCDCD0995D PUSH1 0xBA SHL DUP2 MSTORE POP PUSH1 0x40 MLOAD DUP1 PUSH1 0x40 ADD PUSH1 0x40 MSTORE DUP1 PUSH1 0x3 DUP2 MSTORE PUSH1 0x20 ADD PUSH3 0x272621 PUSH1 0xE9 SHL DUP2 MSTORE POP DUP2 PUSH1 0x0 SWAP1 DUP2 PUSH3 0x83 SWAP2 SWAP1 PUSH3 0x2A5 JUMP JUMPDEST POP PUSH1 0x1 PUSH3 0x92 DUP3 DUP3 PUSH3 0x2A5 JUMP JUMPDEST POP POP POP PUSH3 0xAF PUSH3 0xA9 PUSH3 0x11D PUSH1 0x20 SHL PUSH1 0x20 SHR JUMP JUMPDEST PUSH3 0x121 JUMP JUMPDEST PUSH3 0xBA CALLER PUSH3 0x121 JUMP JUMPDEST PUSH1 0xA DUP1 SLOAD PUSH1 0x1 PUSH1 0x1 PUSH1 0xA0 SHL SUB NOT SWAP1 DUP2 AND PUSH1 0x1 PUSH1 0x1 PUSH1 0xA0 SHL SUB SWAP8 DUP9 AND OR SWAP1 SWAP2 SSTORE PUSH1 0xB DUP1 SLOAD DUP3 AND SWAP6 DUP8 AND SWAP6 SWAP1 SWAP6 OR SWAP1 SWAP5 SSTORE PUSH1 0xC DUP1 SLOAD DUP6 AND SWAP4 DUP7 AND SWAP4 SWAP1 SWAP4 OR SWAP1 SWAP3 SSTORE PUSH1 0xD DUP1 SLOAD DUP5 AND SWAP2 DUP6 AND SWAP2 SWAP1 SWAP2 OR SWAP1 SSTORE PUSH1 0xE DUP1 SLOAD SWAP1 SWAP3 AND SWAP3 AND SWAP2 SWAP1 SWAP2 OR SWAP1 SSTORE PUSH3 0x371 JUMP JUMPDEST CALLER SWAP1 JUMP JUMPDEST PUSH1 0x6 DUP1 SLOAD PUSH1 0x1 PUSH1 0x1 PUSH1 0xA0 SHL SUB DUP4 DUP2 AND PUSH1 0x1 PUSH1 0x1 PUSH1 0xA0 SHL SUB NOT DUP4 AND DUP2 OR SWAP1 SWAP4 SSTORE PUSH1 0x40 MLOAD SWAP2 AND SWAP2 SWAP1 DUP3 SWAP1 PUSH32 0x8BE0079C531659141344CD1FD0A4F28419497F9722A3DAAFE3B4186F6B6457E0 SWAP1 PUSH1 0x0 SWAP1 LOG3 POP POP JUMP JUMPDEST DUP1 MLOAD PUSH1 0x1 PUSH1 0x1 PUSH1 0xA0 SHL SUB DUP2 AND DUP2 EQ PUSH3 0x18B JUMPI PUSH1 0x0 DUP1 REVERT JUMPDEST SWAP2 SWAP1 POP JUMP JUMPDEST PUSH1 0x0 DUP1 PUSH1 0x0 DUP1 PUSH1 0x0 PUSH1 0xA0 DUP7 DUP9 SUB SLT ISZERO PUSH3 0x1A9 JUMPI PUSH1 0x0 DUP1 REVERT JUMPDEST PUSH3 0x1B4 DUP7 PUSH3 0x173 JUMP JUMPDEST SWAP5 POP PUSH3 0x1C4 PUSH1 0x20 DUP8 ADD PUSH3 0x173 JUMP JUMPDEST SWAP4 POP PUSH3 0x1D4 PUSH1 0x40 DUP8 ADD PUSH3 0x173 JUMP JUMPDEST SWAP3 POP PUSH3 0x1E4 PUSH1 0x60 DUP8 ADD PUSH3 0x173 JUMP JUMPDEST SWAP2 POP PUSH3 0x1F4 PUSH1 0x80 DUP8 ADD PUSH3 0x173 JUMP JUMPDEST SWAP1 POP SWAP3 SWAP6 POP SWAP3 SWAP6 SWAP1 SWAP4 POP JUMP JUMPDEST PUSH4 0x4E487B71 PUSH1 0xE0 SHL PUSH1 0x0 MSTORE PUSH1 0x41 PUSH1 0x4 MSTORE PUSH1 0x24 PUSH1 0x0 REVERT JUMPDEST PUSH1 0x1 DUP2 DUP2 SHR SWAP1 DUP3 AND DUP1 PUSH3 0x22B JUMPI PUSH1 0x7F DUP3 AND SWAP2 POP JUMPDEST PUSH1 0x20 DUP3 LT DUP2 SUB PUSH3 0x24C JUMPI PUSH4 0x4E487B71 PUSH1 0xE0 SHL PUSH1 0x0 MSTORE PUSH1 0x22 PUSH1 0x4 MSTORE PUSH1 0x24 PUSH1 0x0 REVERT JUMPDEST POP SWAP2 SWAP1 POP JUMP JUMPDEST PUSH1 0x1F DUP3 GT ISZERO PUSH3 0x2A0 JUMPI PUSH1 0x0 DUP2 DUP2 MSTORE PUSH1 0x20 DUP2 KECCAK256 PUSH1 0x1F DUP6 ADD PUSH1 0x5 SHR DUP2 ADD PUSH1 0x20 DUP7 LT ISZERO PUSH3 0x27B JUMPI POP DUP1 JUMPDEST PUSH1 0x1F DUP6 ADD PUSH1 0x5 SHR DUP3 ADD SWAP2 POP JUMPDEST DUP2 DUP2 LT ISZERO PUSH3 0x29C JUMPI DUP3 DUP2 SSTORE PUSH1 0x1 ADD PUSH3 0x287 JUMP JUMPDEST POP POP POP JUMPDEST POP POP POP JUMP JUMPDEST DUP2 MLOAD PUSH1 0x1 PUSH1 0x1 PUSH1 0x40 SHL SUB DUP2 GT ISZERO PUSH3 0x2C1 JUMPI PUSH3 0x2C1 PUSH3 0x200 JUMP JUMPDEST PUSH3 0x2D9 DUP2 PUSH3 0x2D2 DUP5 SLOAD PUSH3 0x216 JUMP JUMPDEST DUP5 PUSH3 0x252 JUMP JUMPDEST PUSH1 0x20 DUP1 PUSH1 0x1F DUP4 GT PUSH1 0x1 DUP2 EQ PUSH3 0x311 JUMPI PUSH1 0x0 DUP5 ISZERO PUSH3 0x2F8 JUMPI POP DUP6 DUP4 ADD MLOAD JUMPDEST PUSH1 0x0 NOT PUSH1 0x3 DUP7 SWAP1 SHL SHR NOT AND PUSH1 0x1 DUP6 SWAP1 SHL OR DUP6 SSTORE PUSH3 0x29C JUMP JUMPDEST PUSH1 0x0 DUP6 DUP2 MSTORE PUSH1 0x20 DUP2 KECCAK256 PUSH1 0x1F NOT DUP7 AND SWAP2 JUMPDEST DUP3 DUP2 LT ISZERO PUSH3 0x342 JUMPI DUP9 DUP7 ADD MLOAD DUP3 SSTORE SWAP5 DUP5 ADD SWAP5 PUSH1 0x1 SWAP1 SWAP2 ADD SWAP1 DUP5 ADD PUSH3 0x321 JUMP JUMPDEST POP DUP6 DUP3 LT ISZERO PUSH3 0x361 JUMPI DUP8 DUP6 ADD MLOAD PUSH1 0x0 NOT PUSH1 0x3 DUP9 SWAP1 SHL PUSH1 0xF8 AND SHR NOT AND DUP2 SSTORE JUMPDEST POP POP POP POP POP PUSH1 0x1 SWAP1 DUP2 SHL ADD SWAP1 SSTORE POP JUMP JUMPDEST PUSH2 0x3EE8 DUP1 PUSH3 0x381 PUSH1 0x0 CODECOPY PUSH1 0x0 RETURN INVALID PUSH1 0x80 PUSH1 0x40 MSTORE CALLVALUE DUP1 ISZERO PUSH2 0x10 JUMPI PUSH1 0x0 DUP1 REVERT JUMPDEST POP PUSH1 0x4 CALLDATASIZE LT PUSH2 0x1FB JUMPI PUSH1 0x0 CALLDATALOAD PUSH1 0xE0 SHR DUP1 PUSH4 0x6C8B703F GT PUSH2 0x11A JUMPI DUP1 PUSH4 0xA9D75B2B GT PUSH2 0xAD JUMPI DUP1 PUSH4 0xDEE68623 GT PUSH2 0x7C JUMPI DUP1 PUSH4 0xDEE68623 EQ PUSH2 0x453 JUMPI DUP1 PUSH4 0xE22D551A EQ PUSH2 0x466 JUMPI DUP1 PUSH4 0xE53D4C2D EQ PUSH2 0x479 JUMPI DUP1 PUSH4 0xE985E9C5 EQ PUSH2 0x483 JUMPI DUP1 PUSH4 0xF2FDE38B EQ PUSH2 0x496 JUMPI PUSH1 0x0 DUP1 REVERT JUMPDEST DUP1 PUSH4 0xA9D75B2B EQ PUSH2 0x3FA JUMPI DUP1 PUSH4 0xAD0DE5BC EQ PUSH2 0x40D JUMPI DUP1 PUSH4 0xB88D4FDE EQ PUSH2 0x42D JUMPI DUP1 PUSH4 0xC87B56DD EQ PUSH2 0x440 JUMPI PUSH1 0x0 DUP1 REVERT JUMPDEST DUP1 PUSH4 0x8DA5CB5B GT PUSH2 0xE9 JUMPI DUP1 PUSH4 0x8DA5CB5B EQ PUSH2 0x3C5 JUMPI DUP1 PUSH4 0x95D89B41 EQ PUSH2 0x3D6 JUMPI DUP1 PUSH4 0xA22CB465 EQ PUSH2 0x3DE JUMPI DUP1 PUSH4 0xA416F5AB EQ PUSH2 0x3F1 JUMPI PUSH1 0x0 DUP1 REVERT JUMPDEST DUP1 PUSH4 0x6C8B703F EQ PUSH2 0x376 JUMPI DUP1 PUSH4 0x70A08231 EQ PUSH2 0x389 JUMPI DUP1 PUSH4 0x715018A6 EQ PUSH2 0x3AA JUMPI DUP1 PUSH4 0x735DE9F7 EQ PUSH2 0x3B2 JUMPI PUSH1 0x0 DUP1 REVERT JUMPDEST DUP1 PUSH4 0x34B25EE2 GT PUSH2 0x192 JUMPI DUP1 PUSH4 0x54E16C65 GT PUSH2 0x161 JUMPI DUP1 PUSH4 0x54E16C65 EQ PUSH2 0x32A JUMPI DUP1 PUSH4 0x5FCBD285 EQ PUSH2 0x33D JUMPI DUP1 PUSH4 0x6352211E EQ PUSH2 0x350 JUMPI DUP1 PUSH4 0x6C0C27E1 EQ PUSH2 0x363 JUMPI PUSH1 0x0 DUP1 REVERT JUMPDEST DUP1 PUSH4 0x34B25EE2 EQ PUSH2 0x2DE JUMPI DUP1 PUSH4 0x41B80300 EQ PUSH2 0x2F1 JUMPI DUP1 PUSH4 0x42842E0E EQ PUSH2 0x304 JUMPI DUP1 PUSH4 0x4C36C36E EQ PUSH2 0x317 JUMPI PUSH1 0x0 DUP1 REVERT JUMPDEST DUP1 PUSH4 0x22AF00FA GT PUSH2 0x1CE JUMPI DUP1 PUSH4 0x22AF00FA EQ PUSH2 0x27D JUMPI DUP1 PUSH4 0x23B872DD EQ PUSH2 0x2A5 JUMPI DUP1 PUSH4 0x24697399 EQ PUSH2 0x2B8 JUMPI DUP1 PUSH4 0x292E9556 EQ PUSH2 0x2CB JUMPI PUSH1 0x0 DUP1 REVERT JUMPDEST DUP1 PUSH4 0x1FFC9A7 EQ PUSH2 0x200 JUMPI DUP1 PUSH4 0x6FDDE03 EQ PUSH2 0x228 JUMPI DUP1 PUSH4 0x81812FC EQ PUSH2 0x23D JUMPI DUP1 PUSH4 0x95EA7B3 EQ PUSH2 0x268 JUMPI JUMPDEST PUSH1 0x0 DUP1 REVERT JUMPDEST PUSH2 0x213 PUSH2 0x20E CALLDATASIZE PUSH1 0x4 PUSH2 0x3541 JUMP JUMPDEST PUSH2 0x4A9 JUMP JUMPDEST PUSH1 0x40 MLOAD SWAP1 ISZERO ISZERO DUP2 MSTORE PUSH1 0x20 ADD JUMPDEST PUSH1 0x40 MLOAD DUP1 SWAP2 SUB SWAP1 RETURN JUMPDEST PUSH2 0x230 PUSH2 0x4FB JUMP JUMPDEST PUSH1 0x40 MLOAD PUSH2 0x21F SWAP2 SWAP1 PUSH2 0x35AB JUMP JUMPDEST PUSH2 0x250 PUSH2 0x24B CALLDATASIZE PUSH1 0x4 PUSH2 0x35BE JUMP JUMPDEST PUSH2 0x58D JUMP JUMPDEST PUSH1 0x40 MLOAD PUSH1 0x1 PUSH1 0x1 PUSH1 0xA0 SHL SUB SWAP1 SWAP2 AND DUP2 MSTORE PUSH1 0x20 ADD PUSH2 0x21F JUMP JUMPDEST PUSH2 0x27B PUSH2 0x276 CALLDATASIZE PUSH1 0x4 PUSH2 0x35F3 JUMP JUMPDEST PUSH2 0x5B4 JUMP JUMPDEST STOP JUMPDEST PUSH2 0x290 PUSH2 0x28B CALLDATASIZE PUSH1 0x4 PUSH2 0x35BE JUMP JUMPDEST PUSH2 0x6CE JUMP JUMPDEST PUSH1 0x40 MLOAD PUSH2 0x21F SWAP10 SWAP9 SWAP8 SWAP7 SWAP6 SWAP5 SWAP4 SWAP3 SWAP2 SWAP1 PUSH2 0x361D JUMP JUMPDEST PUSH2 0x27B PUSH2 0x2B3 CALLDATASIZE PUSH1 0x4 PUSH2 0x3682 JUMP JUMPDEST PUSH2 0x7B6 JUMP JUMPDEST PUSH1 0xC SLOAD PUSH2 0x250 SWAP1 PUSH1 0x1 PUSH1 0x1 PUSH1 0xA0 SHL SUB AND DUP2 JUMP JUMPDEST PUSH2 0x27B PUSH2 0x2D9 CALLDATASIZE PUSH1 0x4 PUSH2 0x3707 JUMP JUMPDEST PUSH2 0x7E7 JUMP JUMPDEST PUSH2 0x27B PUSH2 0x2EC CALLDATASIZE PUSH1 0x4 PUSH2 0x378F JUMP JUMPDEST PUSH2 0xA88 JUMP JUMPDEST PUSH2 0x27B PUSH2 0x2FF CALLDATASIZE PUSH1 0x4 PUSH2 0x378F JUMP JUMPDEST PUSH2 0x10B2 JUMP JUMPDEST PUSH2 0x27B PUSH2 0x312 CALLDATASIZE PUSH1 0x4 PUSH2 0x3682 JUMP JUMPDEST PUSH2 0x11F4 JUMP JUMPDEST PUSH2 0x27B PUSH2 0x325 CALLDATASIZE PUSH1 0x4 PUSH2 0x35BE JUMP JUMPDEST PUSH2 0x120F JUMP JUMPDEST PUSH2 0x27B PUSH2 0x338 CALLDATASIZE PUSH1 0x4 PUSH2 0x35BE JUMP JUMPDEST PUSH2 0x1AAA JUMP JUMPDEST PUSH1 0xD SLOAD PUSH2 0x250 SWAP1 PUSH1 0x1 PUSH1 0x1 PUSH1 0xA0 SHL SUB AND DUP2 JUMP JUMPDEST PUSH2 0x250 PUSH2 0x35E CALLDATASIZE PUSH1 0x4 PUSH2 0x35BE JUMP JUMPDEST PUSH2 0x1B6A JUMP JUMPDEST PUSH2 0x27B PUSH2 0x371 CALLDATASIZE PUSH1 0x4 PUSH2 0x35BE JUMP JUMPDEST PUSH2 0x1BCA JUMP JUMPDEST PUSH2 0x230 PUSH2 0x384 CALLDATASIZE PUSH1 0x4 PUSH2 0x35BE JUMP JUMPDEST PUSH2 0x20FC JUMP JUMPDEST PUSH2 0x39C PUSH2 0x397 CALLDATASIZE PUSH1 0x4 PUSH2 0x37BF JUMP JUMPDEST PUSH2 0x2196 JUMP JUMPDEST PUSH1 0x40 MLOAD SWAP1 DUP2 MSTORE PUSH1 0x20 ADD PUSH2 0x21F JUMP JUMPDEST PUSH2 0x27B PUSH2 0x221C JUMP JUMPDEST PUSH1 0xE SLOAD PUSH2 0x250 SWAP1 PUSH1 0x1 PUSH1 0x1 PUSH1 0xA0 SHL SUB AND DUP2 JUMP JUMPDEST PUSH1 0x6 SLOAD PUSH1 0x1 PUSH1 0x1 PUSH1 0xA0 SHL SUB AND PUSH2 0x250 JUMP JUMPDEST PUSH2 0x230 PUSH2 0x2230 JUMP JUMPDEST PUSH2 0x27B PUSH2 0x3EC CALLDATASIZE PUSH1 0x4 PUSH2 0x37DA JUMP JUMPDEST PUSH2 0x223F JUMP JUMPDEST PUSH2 0x39C PUSH1 0xF SLOAD DUP2 JUMP JUMPDEST PUSH1 0xB SLOAD PUSH2 0x250 SWAP1 PUSH1 0x1 PUSH1 0x1 PUSH1 0xA0 SHL SUB AND DUP2 JUMP JUMPDEST PUSH2 0x39C PUSH2 0x41B CALLDATASIZE PUSH1 0x4 PUSH2 0x35BE JUMP JUMPDEST PUSH1 0x9 PUSH1 0x20 MSTORE PUSH1 0x0 SWAP1 DUP2 MSTORE PUSH1 0x40 SWAP1 KECCAK256 SLOAD DUP2 JUMP JUMPDEST PUSH2 0x27B PUSH2 0x43B CALLDATASIZE PUSH1 0x4 PUSH2 0x381C JUMP JUMPDEST PUSH2 0x224A JUMP JUMPDEST PUSH2 0x230 PUSH2 0x44E CALLDATASIZE PUSH1 0x4 PUSH2 0x35BE JUMP JUMPDEST PUSH2 0x2282 JUMP JUMPDEST PUSH2 0x27B PUSH2 0x461 CALLDATASIZE PUSH1 0x4 PUSH2 0x35BE JUMP JUMPDEST PUSH2 0x2324 JUMP JUMPDEST PUSH1 0xA SLOAD PUSH2 0x250 SWAP1 PUSH1 0x1 PUSH1 0x1 PUSH1 0xA0 SHL SUB AND DUP2 JUMP JUMPDEST PUSH2 0x39C PUSH3 0x127500 DUP2 JUMP JUMPDEST PUSH2 0x213 PUSH2 0x491 CALLDATASIZE PUSH1 0x4 PUSH2 0x38F8 JUMP JUMPDEST PUSH2 0x2360 JUMP JUMPDEST PUSH2 0x27B PUSH2 0x4A4 CALLDATASIZE PUSH1 0x4 PUSH2 0x37BF JUMP JUMPDEST PUSH2 0x238E JUMP JUMPDEST PUSH1 0x0 PUSH1 0x1 PUSH1 0x1 PUSH1 0xE0 SHL SUB NOT DUP3 AND PUSH4 0x80AC58CD PUSH1 0xE0 SHL EQ DUP1 PUSH2 0x4DA JUMPI POP PUSH1 0x1 PUSH1 0x1 PUSH1 0xE0 SHL SUB NOT DUP3 AND PUSH4 0x5B5E139F PUSH1 0xE0 SHL EQ JUMPDEST DUP1 PUSH2 0x4F5 JUMPI POP PUSH4 0x1FFC9A7 PUSH1 0xE0 SHL PUSH1 0x1 PUSH1 0x1 PUSH1 0xE0 SHL SUB NOT DUP4 AND EQ JUMPDEST SWAP3 SWAP2 POP POP JUMP JUMPDEST PUSH1 0x60 PUSH1 0x0 DUP1 SLOAD PUSH2 0x50A SWAP1 PUSH2 0x392B JUMP JUMPDEST DUP1 PUSH1 0x1F ADD PUSH1 0x20 DUP1 SWAP2 DIV MUL PUSH1 0x20 ADD PUSH1 0x40 MLOAD SWAP1 DUP2 ADD PUSH1 0x40 MSTORE DUP1 SWAP3 SWAP2 SWAP1 DUP2 DUP2 MSTORE PUSH1 0x20 ADD DUP3 DUP1 SLOAD PUSH2 0x536 SWAP1 PUSH2 0x392B JUMP JUMPDEST DUP1 ISZERO PUSH2 0x583 JUMPI DUP1 PUSH1 0x1F LT PUSH2 0x558 JUMPI PUSH2 0x100 DUP1 DUP4 SLOAD DIV MUL DUP4 MSTORE SWAP2 PUSH1 0x20 ADD SWAP2 PUSH2 0x583 JUMP JUMPDEST DUP3 ADD SWAP2 SWAP1 PUSH1 0x0 MSTORE PUSH1 0x20 PUSH1 0x0 KECCAK256 SWAP1 JUMPDEST DUP2 SLOAD DUP2 MSTORE SWAP1 PUSH1 0x1 ADD SWAP1 PUSH1 0x20 ADD DUP1 DUP4 GT PUSH2 0x566 JUMPI DUP3 SWAP1 SUB PUSH1 0x1F AND DUP3 ADD SWAP2 JUMPDEST POP POP POP POP POP SWAP1 POP SWAP1 JUMP JUMPDEST PUSH1 0x0 PUSH2 0x598 DUP3 PUSH2 0x2404 JUMP JUMPDEST POP PUSH1 0x0 SWAP1 DUP2 MSTORE PUSH1 0x4 PUSH1 0x20 MSTORE PUSH1 0x40 SWAP1 KECCAK256 SLOAD PUSH1 0x1 PUSH1 0x1 PUSH1 0xA0 SHL SUB AND SWAP1 JUMP JUMPDEST PUSH1 0x0 PUSH2 0x5BF DUP3 PUSH2 0x1B6A JUMP JUMPDEST SWAP1 POP DUP1 PUSH1 0x1 PUSH1 0x1 PUSH1 0xA0 SHL SUB AND DUP4 PUSH1 0x1 PUSH1 0x1 PUSH1 0xA0 SHL SUB AND SUB PUSH2 0x631 JUMPI PUSH1 0x40 MLOAD PUSH3 0x461BCD PUSH1 0xE5 SHL DUP2 MSTORE PUSH1 0x20 PUSH1 0x4 DUP3 ADD MSTORE PUSH1 0x21 PUSH1 0x24 DUP3 ADD MSTORE PUSH32 0x4552433732313A20617070726F76616C20746F2063757272656E74206F776E65 PUSH1 0x44 DUP3 ADD MSTORE PUSH1 0x39 PUSH1 0xF9 SHL PUSH1 0x64 DUP3 ADD MSTORE PUSH1 0x84 ADD JUMPDEST PUSH1 0x40 MLOAD DUP1 SWAP2 SUB SWAP1 REVERT JUMPDEST CALLER PUSH1 0x1 PUSH1 0x1 PUSH1 0xA0 SHL SUB DUP3 AND EQ DUP1 PUSH2 0x64D JUMPI POP PUSH2 0x64D DUP2 CALLER PUSH2 0x2360 JUMP JUMPDEST PUSH2 0x6BF JUMPI PUSH1 0x40 MLOAD PUSH3 0x461BCD PUSH1 0xE5 SHL DUP2 MSTORE PUSH1 0x20 PUSH1 0x4 DUP3 ADD MSTORE PUSH1 0x3D PUSH1 0x24 DUP3 ADD MSTORE PUSH32 0x4552433732313A20617070726F76652063616C6C6572206973206E6F7420746F PUSH1 0x44 DUP3 ADD MSTORE PUSH32 0x6B656E206F776E6572206F7220617070726F76656420666F7220616C6C000000 PUSH1 0x64 DUP3 ADD MSTORE PUSH1 0x84 ADD PUSH2 0x628 JUMP JUMPDEST PUSH2 0x6C9 DUP4 DUP4 PUSH2 0x2463 JUMP JUMPDEST POP POP POP JUMP JUMPDEST PUSH1 0x7 PUSH1 0x20 MSTORE PUSH1 0x0 SWAP1 DUP2 MSTORE PUSH1 0x40 SWAP1 KECCAK256 DUP1 SLOAD PUSH1 0x1 DUP3 ADD SLOAD PUSH1 0x2 DUP4 ADD SLOAD PUSH1 0x3 DUP5 ADD SLOAD PUSH1 0x4 DUP6 ADD DUP1 SLOAD PUSH1 0x1 PUSH1 0x1 PUSH1 0xA0 SHL SUB SWAP6 DUP7 AND SWAP7 SWAP5 SWAP1 SWAP6 AND SWAP5 SWAP3 SWAP4 SWAP2 SWAP3 PUSH2 0x711 SWAP1 PUSH2 0x392B JUMP JUMPDEST DUP1 PUSH1 0x1F ADD PUSH1 0x20 DUP1 SWAP2 DIV MUL PUSH1 0x20 ADD PUSH1 0x40 MLOAD SWAP1 DUP2 ADD PUSH1 0x40 MSTORE DUP1 SWAP3 SWAP2 SWAP1 DUP2 DUP2 MSTORE PUSH1 0x20 ADD DUP3 DUP1 SLOAD PUSH2 0x73D SWAP1 PUSH2 0x392B JUMP JUMPDEST DUP1 ISZERO PUSH2 0x78A JUMPI DUP1 PUSH1 0x1F LT PUSH2 0x75F JUMPI PUSH2 0x100 DUP1 DUP4 SLOAD DIV MUL DUP4 MSTORE SWAP2 PUSH1 0x20 ADD SWAP2 PUSH2 0x78A JUMP JUMPDEST DUP3 ADD SWAP2 SWAP1 PUSH1 0x0 MSTORE PUSH1 0x20 PUSH1 0x0 KECCAK256 SWAP1 JUMPDEST DUP2 SLOAD DUP2 MSTORE SWAP1 PUSH1 0x1 ADD SWAP1 PUSH1 0x20 ADD DUP1 DUP4 GT PUSH2 0x76D JUMPI DUP3 SWAP1 SUB PUSH1 0x1F AND DUP3 ADD SWAP2 JUMPDEST POP POP POP PUSH1 0x5 DUP5 ADD SLOAD PUSH1 0x6 SWAP1 SWAP5 ADD SLOAD SWAP3 SWAP4 PUSH1 0xFF DUP1 DUP3 AND SWAP5 PUSH2 0x100 DUP4 DIV DUP3 AND SWAP5 POP PUSH3 0x10000 SWAP1 SWAP3 DIV AND SWAP2 POP DUP10 JUMP JUMPDEST PUSH2 0x7C0 CALLER DUP3 PUSH2 0x24D1 JUMP JUMPDEST PUSH2 0x7DC JUMPI PUSH1 0x40 MLOAD PUSH3 0x461BCD PUSH1 0xE5 SHL DUP2 MSTORE PUSH1 0x4 ADD PUSH2 0x628 SWAP1 PUSH2 0x3965 JUMP JUMPDEST PUSH2 0x6C9 DUP4 DUP4 DUP4 PUSH2 0x2530 JUMP JUMPDEST PUSH1 0xA SLOAD PUSH1 0x40 MLOAD PUSH4 0x23B872DD PUSH1 0xE0 SHL DUP2 MSTORE PUSH1 0x1 PUSH1 0x1 PUSH1 0xA0 SHL SUB SWAP1 SWAP2 AND SWAP1 PUSH4 0x23B872DD SWAP1 PUSH2 0x824 SWAP1 CALLER SWAP1 ADDRESS SWAP1 PUSH9 0x56BC75E2D63100000 SWAP1 PUSH1 0x4 ADD PUSH2 0x39B2 JUMP JUMPDEST PUSH1 0x20 PUSH1 0x40 MLOAD DUP1 DUP4 SUB DUP2 PUSH1 0x0 DUP8 GAS CALL ISZERO DUP1 ISZERO PUSH2 0x843 JUMPI RETURNDATASIZE PUSH1 0x0 DUP1 RETURNDATACOPY RETURNDATASIZE PUSH1 0x0 REVERT JUMPDEST POP POP POP POP PUSH1 0x40 MLOAD RETURNDATASIZE PUSH1 0x1F NOT PUSH1 0x1F DUP3 ADD AND DUP3 ADD DUP1 PUSH1 0x40 MSTORE POP DUP2 ADD SWAP1 PUSH2 0x867 SWAP2 SWAP1 PUSH2 0x39D6 JUMP JUMPDEST PUSH2 0x8AB JUMPI PUSH1 0x40 MLOAD PUSH3 0x461BCD PUSH1 0xE5 SHL DUP2 MSTORE PUSH1 0x20 PUSH1 0x4 DUP3 ADD MSTORE PUSH1 0x15 PUSH1 0x24 DUP3 ADD MSTORE PUSH21 0x14DD185AD9481D1C985B9CD9995C8819985A5B1959 PUSH1 0x5A SHL PUSH1 0x44 DUP3 ADD MSTORE PUSH1 0x64 ADD PUSH2 0x628 JUMP JUMPDEST PUSH1 0xF DUP1 SLOAD PUSH1 0x0 SWAP2 DUP3 PUSH2 0x8BC DUP4 PUSH2 0x3A09 JUMP JUMPDEST SWAP2 SWAP1 POP SSTORE SWAP1 POP PUSH2 0x8CC CALLER DUP3 PUSH2 0x2694 JUMP JUMPDEST PUSH1 0x0 DUP2 DUP2 MSTORE PUSH1 0x8 PUSH1 0x20 MSTORE PUSH1 0x40 SWAP1 KECCAK256 PUSH2 0x8E5 DUP4 DUP6 DUP4 PUSH2 0x3A70 JUMP JUMPDEST POP PUSH1 0x0 PUSH2 0x8F5 PUSH3 0x127500 TIMESTAMP PUSH2 0x3B31 JUMP JUMPDEST SWAP1 POP PUSH1 0x40 MLOAD DUP1 PUSH2 0x120 ADD PUSH1 0x40 MSTORE DUP1 CALLER PUSH1 0x1 PUSH1 0x1 PUSH1 0xA0 SHL SUB AND DUP2 MSTORE PUSH1 0x20 ADD PUSH1 0x0 PUSH1 0x1 PUSH1 0x1 PUSH1 0xA0 SHL SUB AND DUP2 MSTORE PUSH1 0x20 ADD PUSH9 0x56BC75E2D63100000 DUP2 MSTORE PUSH1 0x20 ADD DUP9 DUP2 MSTORE PUSH1 0x20 ADD DUP8 DUP8 DUP1 DUP1 PUSH1 0x1F ADD PUSH1 0x20 DUP1 SWAP2 DIV MUL PUSH1 0x20 ADD PUSH1 0x40 MLOAD SWAP1 DUP2 ADD PUSH1 0x40 MSTORE DUP1 SWAP4 SWAP3 SWAP2 SWAP1 DUP2 DUP2 MSTORE PUSH1 0x20 ADD DUP4 DUP4 DUP1 DUP3 DUP5 CALLDATACOPY PUSH1 0x0 SWAP3 ADD DUP3 SWAP1 MSTORE POP SWAP4 DUP6 MSTORE POP POP POP PUSH1 0x20 DUP1 DUP4 ADD DUP3 SWAP1 MSTORE PUSH1 0x40 DUP1 DUP5 ADD DUP4 SWAP1 MSTORE PUSH1 0x60 DUP1 DUP6 ADD DUP5 SWAP1 MSTORE PUSH1 0x80 SWAP5 DUP6 ADD DUP8 SWAP1 MSTORE DUP8 DUP5 MSTORE PUSH1 0x7 DUP4 MSTORE SWAP3 DUP2 SWAP1 KECCAK256 DUP6 MLOAD DUP2 SLOAD PUSH1 0x1 PUSH1 0x1 PUSH1 0xA0 SHL SUB NOT SWAP1 DUP2 AND PUSH1 0x1 PUSH1 0x1 PUSH1 0xA0 SHL SUB SWAP3 DUP4 AND OR DUP4 SSTORE SWAP4 DUP8 ADD MLOAD PUSH1 0x1 DUP4 ADD DUP1 SLOAD SWAP1 SWAP6 AND SWAP2 AND OR SWAP1 SWAP3 SSTORE DUP5 ADD MLOAD PUSH1 0x2 DUP3 ADD SSTORE SWAP1 DUP4 ADD MLOAD PUSH1 0x3 DUP3 ADD SSTORE SWAP1 DUP3 ADD MLOAD PUSH1 0x4 DUP3 ADD SWAP1 PUSH2 0x9EF SWAP1 DUP3 PUSH2 0x3B44 JUMP JUMPDEST POP PUSH1 0xA0 DUP3 ADD MLOAD PUSH1 0x5 DUP3 ADD DUP1 SLOAD PUSH1 0xC0 DUP6 ADD MLOAD PUSH1 0xE0 DUP7 ADD MLOAD PUSH2 0xFFFF NOT SWAP1 SWAP3 AND SWAP4 ISZERO ISZERO PUSH2 0xFF00 NOT AND SWAP4 SWAP1 SWAP4 OR PUSH2 0x100 SWAP4 ISZERO ISZERO DUP5 MUL OR PUSH3 0xFF0000 NOT AND PUSH3 0x10000 SWAP2 ISZERO ISZERO SWAP2 SWAP1 SWAP2 MUL OR SWAP1 SSTORE SWAP1 SWAP2 ADD MLOAD PUSH1 0x6 SWAP1 SWAP2 ADD SSTORE PUSH1 0x40 MLOAD PUSH32 0xE8E535EF9804960DFDE2925CD2B47EF7ADA0C70FAF4F250196FD7F6132B8DABD SWAP1 PUSH2 0xA77 SWAP1 DUP5 SWAP1 CALLER SWAP1 DUP11 SWAP1 DUP11 SWAP1 DUP8 SWAP1 PUSH2 0x3C04 JUMP JUMPDEST PUSH1 0x40 MLOAD DUP1 SWAP2 SUB SWAP1 LOG1 POP POP POP POP POP POP POP JUMP JUMPDEST PUSH2 0xA90 PUSH2 0x281F JUMP JUMPDEST PUSH1 0x0 DUP3 DUP2 MSTORE PUSH1 0x7 PUSH1 0x20 MSTORE PUSH1 0x40 SWAP1 KECCAK256 PUSH1 0x5 DUP2 ADD SLOAD PUSH3 0x10000 SWAP1 DIV PUSH1 0xFF AND ISZERO PUSH2 0xAC9 JUMPI PUSH1 0x40 MLOAD PUSH3 0x461BCD PUSH1 0xE5 SHL DUP2 MSTORE PUSH1 0x4 ADD PUSH2 0x628 SWAP1 PUSH2 0x3C55 JUMP JUMPDEST PUSH1 0x1 DUP2 ADD SLOAD PUSH1 0x1 PUSH1 0x1 PUSH1 0xA0 SHL SUB AND PUSH2 0xAF3 JUMPI PUSH1 0x40 MLOAD PUSH3 0x461BCD PUSH1 0xE5 SHL DUP2 MSTORE PUSH1 0x4 ADD PUSH2 0x628 SWAP1 PUSH2 0x3C83 JUMP JUMPDEST PUSH1 0x5 DUP2 ADD SLOAD PUSH1 0xFF PUSH2 0x100 DUP3 DIV DUP2 AND ISZERO ISZERO SWAP2 AND ISZERO ISZERO SUB PUSH2 0xB41 JUMPI PUSH1 0x40 MLOAD PUSH3 0x461BCD PUSH1 0xE5 SHL DUP2 MSTORE PUSH1 0x20 PUSH1 0x4 DUP3 ADD MSTORE PUSH1 0xA PUSH1 0x24 DUP3 ADD MSTORE PUSH10 0x4E6F2064697370757465 PUSH1 0xB0 SHL PUSH1 0x44 DUP3 ADD MSTORE PUSH1 0x64 ADD PUSH2 0x628 JUMP JUMPDEST PUSH1 0x5 DUP2 ADD DUP1 SLOAD PUSH3 0xFF0000 NOT AND PUSH3 0x10000 OR SWAP1 SSTORE PUSH1 0x0 DUP4 DUP2 MSTORE PUSH1 0x9 PUSH1 0x20 MSTORE PUSH1 0x40 DUP2 KECCAK256 SLOAD PUSH1 0x3 DUP4 ADD SLOAD PUSH1 0x2 DUP5 ADD SLOAD SWAP2 SWAP3 SWAP2 PUSH2 0xB7A SWAP2 SWAP1 PUSH2 0x3B31 JUMP JUMPDEST PUSH1 0xD SLOAD PUSH1 0xE SLOAD PUSH1 0x40 MLOAD PUSH4 0x95EA7B3 PUSH1 0xE0 SHL DUP2 MSTORE SWAP3 SWAP4 POP PUSH1 0x1 PUSH1 0x1 PUSH1 0xA0 SHL SUB SWAP2 DUP3 AND SWAP3 PUSH4 0x95EA7B3 SWAP3 PUSH2 0xBB2 SWAP3 AND SWAP1 DUP7 SWAP1 PUSH1 0x4 ADD PUSH2 0x3CB1 JUMP JUMPDEST PUSH1 0x20 PUSH1 0x40 MLOAD DUP1 DUP4 SUB DUP2 PUSH1 0x0 DUP8 GAS CALL ISZERO DUP1 ISZERO PUSH2 0xBD1 JUMPI RETURNDATASIZE PUSH1 0x0 DUP1 RETURNDATACOPY RETURNDATASIZE PUSH1 0x0 REVERT JUMPDEST POP POP POP POP PUSH1 0x40 MLOAD RETURNDATASIZE PUSH1 0x1F NOT PUSH1 0x1F DUP3 ADD AND DUP3 ADD DUP1 PUSH1 0x40 MSTORE POP DUP2 ADD SWAP1 PUSH2 0xBF5 SWAP2 SWAP1 PUSH2 0x39D6 JUMP JUMPDEST POP PUSH1 0xE SLOAD PUSH1 0xA SLOAD PUSH1 0xB SLOAD PUSH1 0x0 SWAP3 DUP4 SWAP3 PUSH1 0x1 PUSH1 0x1 PUSH1 0xA0 SHL SUB SWAP2 DUP3 AND SWAP3 PUSH4 0xBAA2ABDE SWAP3 SWAP2 DUP3 AND SWAP2 AND DUP8 DUP6 DUP1 ADDRESS PUSH2 0xC2B TIMESTAMP PUSH2 0x384 PUSH2 0x3B31 JUMP JUMPDEST PUSH1 0x40 MLOAD DUP9 PUSH4 0xFFFFFFFF AND PUSH1 0xE0 SHL DUP2 MSTORE PUSH1 0x4 ADD PUSH2 0xC4D SWAP8 SWAP7 SWAP6 SWAP5 SWAP4 SWAP3 SWAP2 SWAP1 PUSH2 0x3CCA JUMP JUMPDEST PUSH1 0x40 DUP1 MLOAD DUP1 DUP4 SUB DUP2 PUSH1 0x0 DUP8 GAS CALL ISZERO DUP1 ISZERO PUSH2 0xC6B JUMPI RETURNDATASIZE PUSH1 0x0 DUP1 RETURNDATACOPY RETURNDATASIZE PUSH1 0x0 REVERT JUMPDEST POP POP POP POP PUSH1 0x40 MLOAD RETURNDATASIZE PUSH1 0x1F NOT PUSH1 0x1F DUP3 ADD AND DUP3 ADD DUP1 PUSH1 0x40 MSTORE POP DUP2 ADD SWAP1 PUSH2 0xC8F SWAP2 SWAP1 PUSH2 0x3D0A JUMP JUMPDEST SWAP1 SWAP3 POP SWAP1 POP PUSH1 0x0 PUSH2 0xCA0 DUP3 DUP5 PUSH2 0x3B31 JUMP JUMPDEST SWAP1 POP PUSH1 0x0 DUP5 DUP3 GT PUSH2 0xCB2 JUMPI PUSH1 0x0 PUSH2 0xCBC JUMP JUMPDEST PUSH2 0xCBC DUP6 DUP4 PUSH2 0x3D2E JUMP JUMPDEST SWAP1 POP DUP8 ISZERO PUSH2 0xDD2 JUMPI PUSH1 0xA SLOAD DUP8 SLOAD PUSH1 0x2 DUP10 ADD SLOAD PUSH1 0x1 PUSH1 0x1 PUSH1 0xA0 SHL SUB SWAP3 DUP4 AND SWAP3 PUSH4 0xA9059CBB SWAP3 AND SWAP1 PUSH2 0xCED SWAP1 DUP6 SWAP1 PUSH2 0x3B31 JUMP JUMPDEST PUSH1 0x40 MLOAD DUP4 PUSH4 0xFFFFFFFF AND PUSH1 0xE0 SHL DUP2 MSTORE PUSH1 0x4 ADD PUSH2 0xD0A SWAP3 SWAP2 SWAP1 PUSH2 0x3CB1 JUMP JUMPDEST PUSH1 0x20 PUSH1 0x40 MLOAD DUP1 DUP4 SUB DUP2 PUSH1 0x0 DUP8 GAS CALL ISZERO DUP1 ISZERO PUSH2 0xD29 JUMPI RETURNDATASIZE PUSH1 0x0 DUP1 RETURNDATACOPY RETURNDATASIZE PUSH1 0x0 REVERT JUMPDEST POP POP POP POP PUSH1 0x40 MLOAD RETURNDATASIZE PUSH1 0x1F NOT PUSH1 0x1F DUP3 ADD AND DUP3 ADD DUP1 PUSH1 0x40 MSTORE POP DUP2 ADD SWAP1 PUSH2 0xD4D SWAP2 SWAP1 PUSH2 0x39D6 JUMP JUMPDEST POP PUSH1 0xA SLOAD PUSH1 0x1 DUP9 ADD SLOAD PUSH1 0x3 DUP10 ADD SLOAD PUSH1 0x40 MLOAD PUSH4 0xA9059CBB PUSH1 0xE0 SHL DUP2 MSTORE PUSH1 0x1 PUSH1 0x1 PUSH1 0xA0 SHL SUB SWAP4 DUP5 AND SWAP4 PUSH4 0xA9059CBB SWAP4 PUSH2 0xD89 SWAP4 SWAP2 AND SWAP2 PUSH1 0x4 ADD PUSH2 0x3CB1 JUMP JUMPDEST PUSH1 0x20 PUSH1 0x40 MLOAD DUP1 DUP4 SUB DUP2 PUSH1 0x0 DUP8 GAS CALL ISZERO DUP1 ISZERO PUSH2 0xDA8 JUMPI RETURNDATASIZE PUSH1 0x0 DUP1 RETURNDATACOPY RETURNDATASIZE PUSH1 0x0 REVERT JUMPDEST POP POP POP POP PUSH1 0x40 MLOAD RETURNDATASIZE PUSH1 0x1F NOT PUSH1 0x1F DUP3 ADD AND DUP3 ADD DUP1 PUSH1 0x40 MSTORE POP DUP2 ADD SWAP1 PUSH2 0xDCC SWAP2 SWAP1 PUSH2 0x39D6 JUMP JUMPDEST POP PUSH2 0xEDC JUMP JUMPDEST PUSH1 0xA SLOAD DUP8 SLOAD PUSH1 0x2 DUP10 ADD SLOAD PUSH1 0x40 MLOAD PUSH4 0xA9059CBB PUSH1 0xE0 SHL DUP2 MSTORE PUSH1 0x1 PUSH1 0x1 PUSH1 0xA0 SHL SUB SWAP4 DUP5 AND SWAP4 PUSH4 0xA9059CBB SWAP4 PUSH2 0xE0A SWAP4 SWAP2 AND SWAP2 PUSH1 0x4 ADD PUSH2 0x3CB1 JUMP JUMPDEST PUSH1 0x20 PUSH1 0x40 MLOAD DUP1 DUP4 SUB DUP2 PUSH1 0x0 DUP8 GAS CALL ISZERO DUP1 ISZERO PUSH2 0xE29 JUMPI RETURNDATASIZE PUSH1 0x0 DUP1 RETURNDATACOPY RETURNDATASIZE PUSH1 0x0 REVERT JUMPDEST POP POP POP POP PUSH1 0x40 MLOAD RETURNDATASIZE PUSH1 0x1F NOT PUSH1 0x1F DUP3 ADD AND DUP3 ADD DUP1 PUSH1 0x40 MSTORE POP DUP2 ADD SWAP1 PUSH2 0xE4D SWAP2 SWAP1 PUSH2 0x39D6 JUMP JUMPDEST POP PUSH1 0xA SLOAD PUSH1 0x1 DUP9 ADD SLOAD PUSH1 0x3 DUP10 ADD SLOAD PUSH1 0x1 PUSH1 0x1 PUSH1 0xA0 SHL SUB SWAP3 DUP4 AND SWAP3 PUSH4 0xA9059CBB SWAP3 AND SWAP1 PUSH2 0xE7A SWAP1 DUP6 SWAP1 PUSH2 0x3B31 JUMP JUMPDEST PUSH1 0x40 MLOAD DUP4 PUSH4 0xFFFFFFFF AND PUSH1 0xE0 SHL DUP2 MSTORE PUSH1 0x4 ADD PUSH2 0xE97 SWAP3 SWAP2 SWAP1 PUSH2 0x3CB1 JUMP JUMPDEST PUSH1 0x20 PUSH1 0x40 MLOAD DUP1 DUP4 SUB DUP2 PUSH1 0x0 DUP8 GAS CALL ISZERO DUP1 ISZERO PUSH2 0xEB6 JUMPI RETURNDATASIZE PUSH1 0x0 DUP1 RETURNDATACOPY RETURNDATASIZE PUSH1 0x0 REVERT JUMPDEST POP POP POP POP PUSH1 0x40 MLOAD RETURNDATASIZE PUSH1 0x1F NOT PUSH1 0x1F DUP3 ADD AND DUP3 ADD DUP1 PUSH1 0x40 MSTORE POP DUP2 ADD SWAP1 PUSH2 0xEDA SWAP2 SWAP1 PUSH2 0x39D6 JUMP JUMPDEST POP JUMPDEST PUSH1 0xB SLOAD PUSH1 0x40 MLOAD PUSH4 0x70A08231 PUSH1 0xE0 SHL DUP2 MSTORE ADDRESS PUSH1 0x4 DUP3 ADD MSTORE PUSH1 0x0 SWAP2 PUSH1 0x1 PUSH1 0x1 PUSH1 0xA0 SHL SUB AND SWAP1 PUSH4 0x70A08231 SWAP1 PUSH1 0x24 ADD PUSH1 0x20 PUSH1 0x40 MLOAD DUP1 DUP4 SUB DUP2 DUP7 GAS STATICCALL ISZERO DUP1 ISZERO PUSH2 0xF25 JUMPI RETURNDATASIZE PUSH1 0x0 DUP1 RETURNDATACOPY RETURNDATASIZE PUSH1 0x0 REVERT JUMPDEST POP POP POP POP PUSH1 0x40 MLOAD RETURNDATASIZE PUSH1 0x1F NOT PUSH1 0x1F DUP3 ADD AND DUP3 ADD DUP1 PUSH1 0x40 MSTORE POP DUP2 ADD SWAP1 PUSH2 0xF49 SWAP2 SWAP1 PUSH2 0x3D41 JUMP JUMPDEST GT ISZERO PUSH2 0x1040 JUMPI PUSH1 0xB SLOAD PUSH1 0x1 PUSH1 0x1 PUSH1 0xA0 SHL SUB AND PUSH4 0xA9059CBB PUSH2 0xF72 PUSH1 0x6 SLOAD PUSH1 0x1 PUSH1 0x1 PUSH1 0xA0 SHL SUB AND SWAP1 JUMP JUMPDEST PUSH1 0xB SLOAD PUSH1 0x40 MLOAD PUSH4 0x70A08231 PUSH1 0xE0 SHL DUP2 MSTORE ADDRESS PUSH1 0x4 DUP3 ADD MSTORE PUSH1 0x1 PUSH1 0x1 PUSH1 0xA0 SHL SUB SWAP1 SWAP2 AND SWAP1 PUSH4 0x70A08231 SWAP1 PUSH1 0x24 ADD PUSH1 0x20 PUSH1 0x40 MLOAD DUP1 DUP4 SUB DUP2 DUP7 GAS STATICCALL ISZERO DUP1 ISZERO PUSH2 0xFBA JUMPI RETURNDATASIZE PUSH1 0x0 DUP1 RETURNDATACOPY RETURNDATASIZE PUSH1 0x0 REVERT JUMPDEST POP POP POP POP PUSH1 0x40 MLOAD RETURNDATASIZE PUSH1 0x1F NOT PUSH1 0x1F DUP3 ADD AND DUP3 ADD DUP1 PUSH1 0x40 MSTORE POP DUP2 ADD SWAP1 PUSH2 0xFDE SWAP2 SWAP1 PUSH2 0x3D41 JUMP JUMPDEST PUSH1 0x40 MLOAD DUP4 PUSH4 0xFFFFFFFF AND PUSH1 0xE0 SHL DUP2 MSTORE PUSH1 0x4 ADD PUSH2 0xFFB SWAP3 SWAP2 SWAP1 PUSH2 0x3CB1 JUMP JUMPDEST PUSH1 0x20 PUSH1 0x40 MLOAD DUP1 DUP4 SUB DUP2 PUSH1 0x0 DUP8 GAS CALL ISZERO DUP1 ISZERO PUSH2 0x101A JUMPI RETURNDATASIZE PUSH1 0x0 DUP1 RETURNDATACOPY RETURNDATASIZE PUSH1 0x0 REVERT JUMPDEST POP POP POP POP PUSH1 0x40 MLOAD RETURNDATASIZE PUSH1 0x1F NOT PUSH1 0x1F DUP3 ADD AND DUP3 ADD DUP1 PUSH1 0x40 MSTORE POP DUP2 ADD SWAP1 PUSH2 0x103E SWAP2 SWAP1 PUSH2 0x39D6 JUMP JUMPDEST POP JUMPDEST PUSH32 0xF77CEB5E091D2DA041BC760667F9D5FE7A756949EAF29250AD0E60CA6F4C27D9 DUP10 DUP10 PUSH2 0x107A JUMPI PUSH1 0x1 DUP10 ADD SLOAD PUSH1 0x1 PUSH1 0x1 PUSH1 0xA0 SHL SUB AND PUSH2 0x1086 JUMP JUMPDEST DUP9 SLOAD PUSH1 0x1 PUSH1 0x1 PUSH1 0xA0 SHL SUB AND JUMPDEST PUSH1 0x40 DUP1 MLOAD SWAP3 DUP4 MSTORE PUSH1 0x1 PUSH1 0x1 PUSH1 0xA0 SHL SUB SWAP1 SWAP2 AND PUSH1 0x20 DUP4 ADD MSTORE ADD JUMPDEST PUSH1 0x40 MLOAD DUP1 SWAP2 SUB SWAP1 LOG1 POP POP POP POP POP POP POP POP POP JUMP JUMPDEST PUSH1 0x0 DUP3 DUP2 MSTORE PUSH1 0x7 PUSH1 0x20 MSTORE PUSH1 0x40 SWAP1 KECCAK256 DUP1 SLOAD PUSH1 0x1 PUSH1 0x1 PUSH1 0xA0 SHL SUB AND CALLER EQ DUP1 PUSH2 0x10E4 JUMPI POP PUSH1 0x1 DUP2 ADD SLOAD PUSH1 0x1 PUSH1 0x1 PUSH1 0xA0 SHL SUB AND CALLER EQ JUMPDEST PUSH2 0x1124 JUMPI PUSH1 0x40 MLOAD PUSH3 0x461BCD PUSH1 0xE5 SHL DUP2 MSTORE PUSH1 0x20 PUSH1 0x4 DUP3 ADD MSTORE PUSH1 0x11 PUSH1 0x24 DUP3 ADD MSTORE PUSH17 0x139BDD0818481C185C9D1A58DA5C185B9D PUSH1 0x7A SHL PUSH1 0x44 DUP3 ADD MSTORE PUSH1 0x64 ADD PUSH2 0x628 JUMP JUMPDEST PUSH1 0x5 DUP2 ADD SLOAD PUSH3 0x10000 SWAP1 DIV PUSH1 0xFF AND ISZERO PUSH2 0x114F JUMPI PUSH1 0x40 MLOAD PUSH3 0x461BCD PUSH1 0xE5 SHL DUP2 MSTORE PUSH1 0x4 ADD PUSH2 0x628 SWAP1 PUSH2 0x3C55 JUMP JUMPDEST PUSH1 0x1 DUP2 ADD SLOAD PUSH1 0x1 PUSH1 0x1 PUSH1 0xA0 SHL SUB AND PUSH2 0x1179 JUMPI PUSH1 0x40 MLOAD PUSH3 0x461BCD PUSH1 0xE5 SHL DUP2 MSTORE PUSH1 0x4 ADD PUSH2 0x628 SWAP1 PUSH2 0x3C83 JUMP JUMPDEST DUP1 SLOAD PUSH1 0x1 PUSH1 0x1 PUSH1 0xA0 SHL SUB AND CALLER SUB PUSH2 0x119F JUMPI PUSH1 0x5 DUP2 ADD DUP1 SLOAD PUSH1 0xFF NOT AND DUP4 ISZERO ISZERO OR SWAP1 SSTORE PUSH2 0x11B5 JUMP JUMPDEST PUSH1 0x5 DUP2 ADD DUP1 SLOAD PUSH2 0xFF00 NOT AND PUSH2 0x100 DUP5 ISZERO ISZERO MUL OR SWAP1 SSTORE JUMPDEST PUSH1 0x40 DUP1 MLOAD DUP5 DUP2 MSTORE DUP4 ISZERO ISZERO PUSH1 0x20 DUP3 ADD MSTORE PUSH32 0x4D0F19E37CE2918EB3EA8D2F64D9489A5D5E7BB6B7FB871E9595152A261A2EC2 SWAP2 ADD PUSH1 0x40 MLOAD DUP1 SWAP2 SUB SWAP1 LOG1 POP POP POP JUMP JUMPDEST PUSH2 0x6C9 DUP4 DUP4 DUP4 PUSH1 0x40 MLOAD DUP1 PUSH1 0x20 ADD PUSH1 0x40 MSTORE DUP1 PUSH1 0x0 DUP2 MSTORE POP PUSH2 0x224A JUMP JUMPDEST PUSH1 0x0 DUP2 DUP2 MSTORE PUSH1 0x7 PUSH1 0x20 MSTORE PUSH1 0x40 SWAP1 KECCAK256 PUSH1 0x5 DUP2 ADD SLOAD PUSH3 0x10000 SWAP1 DIV PUSH1 0xFF AND ISZERO PUSH2 0x1248 JUMPI PUSH1 0x40 MLOAD PUSH3 0x461BCD PUSH1 0xE5 SHL DUP2 MSTORE PUSH1 0x4 ADD PUSH2 0x628 SWAP1 PUSH2 0x3C55 JUMP JUMPDEST PUSH1 0x1 DUP2 ADD SLOAD PUSH1 0x1 PUSH1 0x1 PUSH1 0xA0 SHL SUB AND PUSH2 0x1272 JUMPI PUSH1 0x40 MLOAD PUSH3 0x461BCD PUSH1 0xE5 SHL DUP2 MSTORE PUSH1 0x4 ADD PUSH2 0x628 SWAP1 PUSH2 0x3C83 JUMP JUMPDEST DUP1 PUSH1 0x6 ADD SLOAD TIMESTAMP LT PUSH2 0x128A JUMPI PUSH2 0x1286 DUP3 PUSH2 0x2879 JUMP JUMPDEST POP POP JUMP JUMPDEST PUSH1 0x5 DUP2 ADD SLOAD PUSH1 0xFF DUP1 DUP3 AND ISZERO ISZERO PUSH2 0x100 SWAP1 SWAP3 DIV AND ISZERO ISZERO EQ PUSH2 0x12E4 JUMPI PUSH1 0x40 MLOAD PUSH3 0x461BCD PUSH1 0xE5 SHL DUP2 MSTORE PUSH1 0x20 PUSH1 0x4 DUP3 ADD MSTORE PUSH1 0x15 PUSH1 0x24 DUP3 ADD MSTORE PUSH21 0x9EEAE8C6DEDACAE640C8DE40DCDEE840DAC2E8C6D PUSH1 0x5B SHL PUSH1 0x44 DUP3 ADD MSTORE PUSH1 0x64 ADD PUSH2 0x628 JUMP JUMPDEST PUSH1 0x5 DUP2 ADD DUP1 SLOAD PUSH3 0xFF0000 NOT AND PUSH3 0x10000 OR SWAP1 SSTORE PUSH1 0x0 DUP3 DUP2 MSTORE PUSH1 0x9 PUSH1 0x20 MSTORE PUSH1 0x40 DUP2 KECCAK256 SLOAD PUSH1 0x3 DUP4 ADD SLOAD PUSH1 0x2 DUP5 ADD SLOAD SWAP2 SWAP3 SWAP2 PUSH2 0x131D SWAP2 SWAP1 PUSH2 0x3B31 JUMP JUMPDEST SWAP1 POP PUSH1 0x0 PUSH2 0x132C PUSH1 0x2 DUP4 PUSH2 0x3D5A JUMP JUMPDEST PUSH1 0xD SLOAD PUSH1 0xE SLOAD PUSH1 0x40 MLOAD PUSH4 0x95EA7B3 PUSH1 0xE0 SHL DUP2 MSTORE SWAP3 SWAP4 POP PUSH1 0x1 PUSH1 0x1 PUSH1 0xA0 SHL SUB SWAP2 DUP3 AND SWAP3 PUSH4 0x95EA7B3 SWAP3 PUSH2 0x1364 SWAP3 AND SWAP1 DUP8 SWAP1 PUSH1 0x4 ADD PUSH2 0x3CB1 JUMP JUMPDEST PUSH1 0x20 PUSH1 0x40 MLOAD DUP1 DUP4 SUB DUP2 PUSH1 0x0 DUP8 GAS CALL ISZERO DUP1 ISZERO PUSH2 0x1383 JUMPI RETURNDATASIZE PUSH1 0x0 DUP1 RETURNDATACOPY RETURNDATASIZE PUSH1 0x0 REVERT JUMPDEST POP POP POP POP PUSH1 0x40 MLOAD RETURNDATASIZE PUSH1 0x1F NOT PUSH1 0x1F DUP3 ADD AND DUP3 ADD DUP1 PUSH1 0x40 MSTORE POP DUP2 ADD SWAP1 PUSH2 0x13A7 SWAP2 SWAP1 PUSH2 0x39D6 JUMP JUMPDEST POP PUSH1 0xE SLOAD PUSH1 0xA SLOAD PUSH1 0xB SLOAD PUSH1 0x0 SWAP3 DUP4 SWAP3 PUSH1 0x1 PUSH1 0x1 PUSH1 0xA0 SHL SUB SWAP2 DUP3 AND SWAP3 PUSH4 0xBAA2ABDE SWAP3 SWAP2 DUP3 AND SWAP2 AND DUP9 DUP6 DUP1 ADDRESS PUSH2 0x13DD TIMESTAMP PUSH2 0x384 PUSH2 0x3B31 JUMP JUMPDEST PUSH1 0x40 MLOAD DUP9 PUSH4 0xFFFFFFFF AND PUSH1 0xE0 SHL DUP2 MSTORE PUSH1 0x4 ADD PUSH2 0x13FF SWAP8 SWAP7 SWAP6 SWAP5 SWAP4 SWAP3 SWAP2 SWAP1 PUSH2 0x3CCA JUMP JUMPDEST PUSH1 0x40 DUP1 MLOAD DUP1 DUP4 SUB DUP2 PUSH1 0x0 DUP8 GAS CALL ISZERO DUP1 ISZERO PUSH2 0x141D JUMPI RETURNDATASIZE PUSH1 0x0 DUP1 RETURNDATACOPY RETURNDATASIZE PUSH1 0x0 REVERT JUMPDEST POP POP POP POP PUSH1 0x40 MLOAD RETURNDATASIZE PUSH1 0x1F NOT PUSH1 0x1F DUP3 ADD AND DUP3 ADD DUP1 PUSH1 0x40 MSTORE POP DUP2 ADD SWAP1 PUSH2 0x1441 SWAP2 SWAP1 PUSH2 0x3D0A JUMP JUMPDEST SWAP1 SWAP3 POP SWAP1 POP PUSH1 0x0 PUSH2 0x1452 DUP3 DUP5 PUSH2 0x3B31 JUMP JUMPDEST SWAP1 POP PUSH1 0x0 DUP6 DUP3 GT PUSH2 0x1464 JUMPI PUSH1 0x0 PUSH2 0x146E JUMP JUMPDEST PUSH2 0x146E DUP7 DUP4 PUSH2 0x3D2E JUMP JUMPDEST PUSH1 0x5 DUP10 ADD SLOAD SWAP1 SWAP2 POP PUSH1 0xFF AND ISZERO PUSH2 0x16C9 JUMPI PUSH1 0xA SLOAD DUP9 SLOAD PUSH1 0x1 PUSH1 0x1 PUSH1 0xA0 SHL SUB SWAP2 DUP3 AND SWAP2 PUSH4 0xA9059CBB SWAP2 AND PUSH1 0x64 PUSH2 0x14A3 DUP6 PUSH1 0x50 PUSH2 0x3D7C JUMP JUMPDEST PUSH2 0x14AD SWAP2 SWAP1 PUSH2 0x3D5A JUMP JUMPDEST DUP12 PUSH1 0x2 ADD SLOAD PUSH2 0x14BC SWAP2 SWAP1 PUSH2 0x3B31 JUMP JUMPDEST PUSH1 0x40 MLOAD DUP4 PUSH4 0xFFFFFFFF AND PUSH1 0xE0 SHL DUP2 MSTORE PUSH1 0x4 ADD PUSH2 0x14D9 SWAP3 SWAP2 SWAP1 PUSH2 0x3CB1 JUMP JUMPDEST PUSH1 0x20 PUSH1 0x40 MLOAD DUP1 DUP4 SUB DUP2 PUSH1 0x0 DUP8 GAS CALL ISZERO DUP1 ISZERO PUSH2 0x14F8 JUMPI RETURNDATASIZE PUSH1 0x0 DUP1 RETURNDATACOPY RETURNDATASIZE PUSH1 0x0 REVERT JUMPDEST POP POP POP POP PUSH1 0x40 MLOAD RETURNDATASIZE PUSH1 0x1F NOT PUSH1 0x1F DUP3 ADD AND DUP3 ADD DUP1 PUSH1 0x40 MSTORE POP DUP2 ADD SWAP1 PUSH2 0x151C SWAP2 SWAP1 PUSH2 0x39D6 JUMP JUMPDEST POP PUSH1 0xA SLOAD PUSH1 0x1 DUP10 ADD SLOAD PUSH1 0x1 PUSH1 0x1 PUSH1 0xA0 SHL SUB SWAP2 DUP3 AND SWAP2 PUSH4 0xA9059CBB SWAP2 AND PUSH1 0x64 PUSH2 0x1545 DUP6 PUSH1 0x14 PUSH2 0x3D7C JUMP JUMPDEST PUSH2 0x154F SWAP2 SWAP1 PUSH2 0x3D5A JUMP JUMPDEST DUP12 PUSH1 0x3 ADD SLOAD PUSH2 0x155E SWAP2 SWAP1 PUSH2 0x3B31 JUMP JUMPDEST PUSH1 0x40 MLOAD DUP4 PUSH4 0xFFFFFFFF AND PUSH1 0xE0 SHL DUP2 MSTORE PUSH1 0x4 ADD PUSH2 0x157B SWAP3 SWAP2 SWAP1 PUSH2 0x3CB1 JUMP JUMPDEST PUSH1 0x20 PUSH1 0x40 MLOAD DUP1 DUP4 SUB DUP2 PUSH1 0x0 DUP8 GAS CALL ISZERO DUP1 ISZERO PUSH2 0x159A JUMPI RETURNDATASIZE PUSH1 0x0 DUP1 RETURNDATACOPY RETURNDATASIZE PUSH1 0x0 REVERT JUMPDEST POP POP POP POP PUSH1 0x40 MLOAD RETURNDATASIZE PUSH1 0x1F NOT PUSH1 0x1F DUP3 ADD AND DUP3 ADD DUP1 PUSH1 0x40 MSTORE POP DUP2 ADD SWAP1 PUSH2 0x15BE SWAP2 SWAP1 PUSH2 0x39D6 JUMP JUMPDEST POP PUSH1 0xC SLOAD DUP9 SLOAD PUSH1 0x40 MLOAD PUSH4 0xA9059CBB PUSH1 0xE0 SHL DUP2 MSTORE PUSH1 0x1 PUSH1 0x1 PUSH1 0xA0 SHL SUB SWAP3 DUP4 AND SWAP3 PUSH4 0xA9059CBB SWAP3 PUSH2 0x15FC SWAP3 SWAP2 AND SWAP1 PUSH8 0x8AC7230489E80000 SWAP1 PUSH1 0x4 ADD PUSH2 0x3CB1 JUMP JUMPDEST PUSH1 0x20 PUSH1 0x40 MLOAD DUP1 DUP4 SUB DUP2 PUSH1 0x0 DUP8 GAS CALL ISZERO DUP1 ISZERO PUSH2 0x161B JUMPI RETURNDATASIZE PUSH1 0x0 DUP1 RETURNDATACOPY RETURNDATASIZE PUSH1 0x0 REVERT JUMPDEST POP POP POP POP PUSH1 0x40 MLOAD RETURNDATASIZE PUSH1 0x1F NOT PUSH1 0x1F DUP3 ADD AND DUP3 ADD DUP1 PUSH1 0x40 MSTORE POP DUP2 ADD SWAP1 PUSH2 0x163F SWAP2 SWAP1 PUSH2 0x39D6 JUMP JUMPDEST POP PUSH1 0xC SLOAD PUSH1 0x1 DUP10 ADD SLOAD PUSH1 0x40 MLOAD PUSH4 0xA9059CBB PUSH1 0xE0 SHL DUP2 MSTORE PUSH1 0x1 PUSH1 0x1 PUSH1 0xA0 SHL SUB SWAP3 DUP4 AND SWAP3 PUSH4 0xA9059CBB SWAP3 PUSH2 0x1680 SWAP3 SWAP2 AND SWAP1 PUSH8 0x4563918244F40000 SWAP1 PUSH1 0x4 ADD PUSH2 0x3CB1 JUMP JUMPDEST PUSH1 0x20 PUSH1 0x40 MLOAD DUP1 DUP4 SUB DUP2 PUSH1 0x0 DUP8 GAS CALL ISZERO DUP1 ISZERO PUSH2 0x169F JUMPI RETURNDATASIZE PUSH1 0x0 DUP1 RETURNDATACOPY RETURNDATASIZE PUSH1 0x0 REVERT JUMPDEST POP POP POP POP PUSH1 0x40 MLOAD RETURNDATASIZE PUSH1 0x1F NOT PUSH1 0x1F DUP3 ADD AND DUP3 ADD DUP1 PUSH1 0x40 MSTORE POP DUP2 ADD SWAP1 PUSH2 0x16C3 SWAP2 SWAP1 PUSH2 0x39D6 JUMP JUMPDEST POP PUSH2 0x1910 JUMP JUMPDEST PUSH1 0xA SLOAD DUP9 SLOAD PUSH1 0x1 PUSH1 0x1 PUSH1 0xA0 SHL SUB SWAP2 DUP3 AND SWAP2 PUSH4 0xA9059CBB SWAP2 AND PUSH1 0x64 PUSH2 0x16EE DUP6 PUSH1 0x14 PUSH2 0x3D7C JUMP JUMPDEST PUSH2 0x16F8 SWAP2 SWAP1 PUSH2 0x3D5A JUMP JUMPDEST DUP12 PUSH1 0x2 ADD SLOAD PUSH2 0x1707 SWAP2 SWAP1 PUSH2 0x3B31 JUMP JUMPDEST PUSH1 0x40 MLOAD DUP4 PUSH4 0xFFFFFFFF AND PUSH1 0xE0 SHL DUP2 MSTORE PUSH1 0x4 ADD PUSH2 0x1724 SWAP3 SWAP2 SWAP1 PUSH2 0x3CB1 JUMP JUMPDEST PUSH1 0x20 PUSH1 0x40 MLOAD DUP1 DUP4 SUB DUP2 PUSH1 0x0 DUP8 GAS CALL ISZERO DUP1 ISZERO PUSH2 0x1743 JUMPI RETURNDATASIZE PUSH1 0x0 DUP1 RETURNDATACOPY RETURNDATASIZE PUSH1 0x0 REVERT JUMPDEST POP POP POP POP PUSH1 0x40 MLOAD RETURNDATASIZE PUSH1 0x1F NOT PUSH1 0x1F DUP3 ADD AND DUP3 ADD DUP1 PUSH1 0x40 MSTORE POP DUP2 ADD SWAP1 PUSH2 0x1767 SWAP2 SWAP1 PUSH2 0x39D6 JUMP JUMPDEST POP PUSH1 0xA SLOAD PUSH1 0x1 DUP10 ADD SLOAD PUSH1 0x1 PUSH1 0x1 PUSH1 0xA0 SHL SUB SWAP2 DUP3 AND SWAP2 PUSH4 0xA9059CBB SWAP2 AND PUSH1 0x64 PUSH2 0x1790 DUP6 PUSH1 0x50 PUSH2 0x3D7C JUMP JUMPDEST PUSH2 0x179A SWAP2 SWAP1 PUSH2 0x3D5A JUMP JUMPDEST DUP12 PUSH1 0x3 ADD SLOAD PUSH2 0x17A9 SWAP2 SWAP1 PUSH2 0x3B31 JUMP JUMPDEST PUSH1 0x40 MLOAD DUP4 PUSH4 0xFFFFFFFF AND PUSH1 0xE0 SHL DUP2 MSTORE PUSH1 0x4 ADD PUSH2 0x17C6 SWAP3 SWAP2 SWAP1 PUSH2 0x3CB1 JUMP JUMPDEST PUSH1 0x20 PUSH1 0x40 MLOAD DUP1 DUP4 SUB DUP2 PUSH1 0x0 DUP8 GAS CALL ISZERO DUP1 ISZERO PUSH2 0x17E5 JUMPI RETURNDATASIZE PUSH1 0x0 DUP1 RETURNDATACOPY RETURNDATASIZE PUSH1 0x0 REVERT JUMPDEST POP POP POP POP PUSH1 0x40 MLOAD RETURNDATASIZE PUSH1 0x1F NOT PUSH1 0x1F DUP3 ADD AND DUP3 ADD DUP1 PUSH1 0x40 MSTORE POP DUP2 ADD SWAP1 PUSH2 0x1809 SWAP2 SWAP1 PUSH2 0x39D6 JUMP JUMPDEST POP PUSH1 0xC SLOAD DUP9 SLOAD PUSH1 0x40 MLOAD PUSH4 0xA9059CBB PUSH1 0xE0 SHL DUP2 MSTORE PUSH1 0x1 PUSH1 0x1 PUSH1 0xA0 SHL SUB SWAP3 DUP4 AND SWAP3 PUSH4 0xA9059CBB SWAP3 PUSH2 0x1847 SWAP3 SWAP2 AND SWAP1 PUSH8 0x4563918244F40000 SWAP1 PUSH1 0x4 ADD PUSH2 0x3CB1 JUMP JUMPDEST PUSH1 0x20 PUSH1 0x40 MLOAD DUP1 DUP4 SUB DUP2 PUSH1 0x0 DUP8 GAS CALL ISZERO DUP1 ISZERO PUSH2 0x1866 JUMPI RETURNDATASIZE PUSH1 0x0 DUP1 RETURNDATACOPY RETURNDATASIZE PUSH1 0x0 REVERT JUMPDEST POP POP POP POP PUSH1 0x40 MLOAD RETURNDATASIZE PUSH1 0x1F NOT PUSH1 0x1F DUP3 ADD AND DUP3 ADD DUP1 PUSH1 0x40 MSTORE POP DUP2 ADD SWAP1 PUSH2 0x188A SWAP2 SWAP1 PUSH2 0x39D6 JUMP JUMPDEST POP PUSH1 0xC SLOAD PUSH1 0x1 DUP10 ADD SLOAD PUSH1 0x40 MLOAD PUSH4 0xA9059CBB PUSH1 0xE0 SHL DUP2 MSTORE PUSH1 0x1 PUSH1 0x1 PUSH1 0xA0 SHL SUB SWAP3 DUP4 AND SWAP3 PUSH4 0xA9059CBB SWAP3 PUSH2 0x18CB SWAP3 SWAP2 AND SWAP1 PUSH8 0x8AC7230489E80000 SWAP1 PUSH1 0x4 ADD PUSH2 0x3CB1 JUMP JUMPDEST PUSH1 0x20 PUSH1 0x40 MLOAD DUP1 DUP4 SUB DUP2 PUSH1 0x0 DUP8 GAS CALL ISZERO DUP1 ISZERO PUSH2 0x18EA JUMPI RETURNDATASIZE PUSH1 0x0 DUP1 RETURNDATACOPY RETURNDATASIZE PUSH1 0x0 REVERT JUMPDEST POP POP POP POP PUSH1 0x40 MLOAD RETURNDATASIZE PUSH1 0x1F NOT PUSH1 0x1F DUP3 ADD AND DUP3 ADD DUP1 PUSH1 0x40 MSTORE POP DUP2 ADD SWAP1 PUSH2 0x190E SWAP2 SWAP1 PUSH2 0x39D6 JUMP JUMPDEST POP JUMPDEST PUSH1 0xB SLOAD PUSH1 0x40 MLOAD PUSH4 0x70A08231 PUSH1 0xE0 SHL DUP2 MSTORE ADDRESS PUSH1 0x4 DUP3 ADD MSTORE PUSH1 0x0 SWAP2 PUSH1 0x1 PUSH1 0x1 PUSH1 0xA0 SHL SUB AND SWAP1 PUSH4 0x70A08231 SWAP1 PUSH1 0x24 ADD PUSH1 0x20 PUSH1 0x40 MLOAD DUP1 DUP4 SUB DUP2 DUP7 GAS STATICCALL ISZERO DUP1 ISZERO PUSH2 0x1959 JUMPI RETURNDATASIZE PUSH1 0x0 DUP1 RETURNDATACOPY RETURNDATASIZE PUSH1 0x0 REVERT JUMPDEST POP POP POP POP PUSH1 0x40 MLOAD RETURNDATASIZE PUSH1 0x1F NOT PUSH1 0x1F DUP3 ADD AND DUP3 ADD DUP1 PUSH1 0x40 MSTORE POP DUP2 ADD SWAP1 PUSH2 0x197D SWAP2 SWAP1 PUSH2 0x3D41 JUMP JUMPDEST GT ISZERO PUSH2 0x1A74 JUMPI PUSH1 0xB SLOAD PUSH1 0x1 PUSH1 0x1 PUSH1 0xA0 SHL SUB AND PUSH4 0xA9059CBB PUSH2 0x19A6 PUSH1 0x6 SLOAD PUSH1 0x1 PUSH1 0x1 PUSH1 0xA0 SHL SUB AND SWAP1 JUMP JUMPDEST PUSH1 0xB SLOAD PUSH1 0x40 MLOAD PUSH4 0x70A08231 PUSH1 0xE0 SHL DUP2 MSTORE ADDRESS PUSH1 0x4 DUP3 ADD MSTORE PUSH1 0x1 PUSH1 0x1 PUSH1 0xA0 SHL SUB SWAP1 SWAP2 AND SWAP1 PUSH4 0x70A08231 SWAP1 PUSH1 0x24 ADD PUSH1 0x20 PUSH1 0x40 MLOAD DUP1 DUP4 SUB DUP2 DUP7 GAS STATICCALL ISZERO DUP1 ISZERO PUSH2 0x19EE JUMPI RETURNDATASIZE PUSH1 0x0 DUP1 RETURNDATACOPY RETURNDATASIZE PUSH1 0x0 REVERT JUMPDEST POP POP POP POP PUSH1 0x40 MLOAD RETURNDATASIZE PUSH1 0x1F NOT PUSH1 0x1F DUP3 ADD AND DUP3 ADD DUP1 PUSH1 0x40 MSTORE POP DUP2 ADD SWAP1 PUSH2 0x1A12 SWAP2 SWAP1 PUSH2 0x3D41 JUMP JUMPDEST PUSH1 0x40 MLOAD DUP4 PUSH4 0xFFFFFFFF AND PUSH1 0xE0 SHL DUP2 MSTORE PUSH1 0x4 ADD PUSH2 0x1A2F SWAP3 SWAP2 SWAP1 PUSH2 0x3CB1 JUMP JUMPDEST PUSH1 0x20 PUSH1 0x40 MLOAD DUP1 DUP4 SUB DUP2 PUSH1 0x0 DUP8 GAS CALL ISZERO DUP1 ISZERO PUSH2 0x1A4E JUMPI RETURNDATASIZE PUSH1 0x0 DUP1 RETURNDATACOPY RETURNDATASIZE PUSH1 0x0 REVERT JUMPDEST POP POP POP POP PUSH1 0x40 MLOAD RETURNDATASIZE PUSH1 0x1F NOT PUSH1 0x1F DUP3 ADD AND DUP3 ADD DUP1 PUSH1 0x40 MSTORE POP DUP2 ADD SWAP1 PUSH2 0x1A72 SWAP2 SWAP1 PUSH2 0x39D6 JUMP JUMPDEST POP JUMPDEST PUSH1 0x40 DUP1 MLOAD DUP11 DUP2 MSTORE PUSH1 0x20 DUP2 ADD DUP4 SWAP1 MSTORE PUSH32 0x6F014AA1FC0C12B56C099FA8727BBF780907046B16C01199F4092F5C721187AB SWAP2 ADD PUSH2 0x109F JUMP JUMPDEST PUSH2 0x1AB2 PUSH2 0x281F JUMP JUMPDEST PUSH1 0xB SLOAD PUSH1 0x40 MLOAD PUSH4 0x23B872DD PUSH1 0xE0 SHL DUP2 MSTORE PUSH1 0x1 PUSH1 0x1 PUSH1 0xA0 SHL SUB SWAP1 SWAP2 AND SWAP1 PUSH4 0x23B872DD SWAP1 PUSH2 0x1AE6 SWAP1 CALLER SWAP1 ADDRESS SWAP1 DUP7 SWAP1 PUSH1 0x4 ADD PUSH2 0x39B2 JUMP JUMPDEST PUSH1 0x20 PUSH1 0x40 MLOAD DUP1 DUP4 SUB DUP2 PUSH1 0x0 DUP8 GAS CALL ISZERO DUP1 ISZERO PUSH2 0x1B05 JUMPI RETURNDATASIZE PUSH1 0x0 DUP1 RETURNDATACOPY RETURNDATASIZE PUSH1 0x0 REVERT JUMPDEST POP POP POP POP PUSH1 0x40 MLOAD RETURNDATASIZE PUSH1 0x1F NOT PUSH1 0x1F DUP3 ADD AND DUP3 ADD DUP1 PUSH1 0x40 MSTORE POP DUP2 ADD SWAP1 PUSH2 0x1B29 SWAP2 SWAP1 PUSH2 0x39D6 JUMP JUMPDEST PUSH2 0x1B67 JUMPI PUSH1 0x40 MLOAD PUSH3 0x461BCD PUSH1 0xE5 SHL DUP2 MSTORE PUSH1 0x20 PUSH1 0x4 DUP3 ADD MSTORE PUSH1 0xF PUSH1 0x24 DUP3 ADD MSTORE PUSH15 0x151C985B9CD9995C8819985A5B1959 PUSH1 0x8A SHL PUSH1 0x44 DUP3 ADD MSTORE PUSH1 0x64 ADD PUSH2 0x628 JUMP JUMPDEST POP JUMP JUMPDEST PUSH1 0x0 DUP2 DUP2 MSTORE PUSH1 0x2 PUSH1 0x20 MSTORE PUSH1 0x40 DUP2 KECCAK256 SLOAD PUSH1 0x1 PUSH1 0x1 PUSH1 0xA0 SHL SUB AND DUP1 PUSH2 0x4F5 JUMPI PUSH1 0x40 MLOAD PUSH3 0x461BCD PUSH1 0xE5 SHL DUP2 MSTORE PUSH1 0x20 PUSH1 0x4 DUP3 ADD MSTORE PUSH1 0x18 PUSH1 0x24 DUP3 ADD MSTORE PUSH24 0x115490CDCC8C4E881A5B9D985B1A59081D1BDAD95B881251 PUSH1 0x42 SHL PUSH1 0x44 DUP3 ADD MSTORE PUSH1 0x64 ADD PUSH2 0x628 JUMP JUMPDEST PUSH1 0x0 DUP2 DUP2 MSTORE PUSH1 0x7 PUSH1 0x20 MSTORE PUSH1 0x40 SWAP1 KECCAK256 PUSH1 0x1 DUP2 ADD SLOAD PUSH1 0x1 PUSH1 0x1 PUSH1 0xA0 SHL SUB AND ISZERO PUSH2 0x1C2A JUMPI PUSH1 0x40 MLOAD PUSH3 0x461BCD PUSH1 0xE5 SHL DUP2 MSTORE PUSH1 0x20 PUSH1 0x4 DUP3 ADD MSTORE PUSH1 0x14 PUSH1 0x24 DUP3 ADD MSTORE PUSH20 0x10995D08185B1C9958591E481858D8D95C1D1959 PUSH1 0x62 SHL PUSH1 0x44 DUP3 ADD MSTORE PUSH1 0x64 ADD PUSH2 0x628 JUMP JUMPDEST DUP1 SLOAD PUSH1 0x1 PUSH1 0x1 PUSH1 0xA0 SHL SUB AND CALLER SUB PUSH2 0x1C83 JUMPI PUSH1 0x40 MLOAD PUSH3 0x461BCD PUSH1 0xE5 SHL DUP2 MSTORE PUSH1 0x20 PUSH1 0x4 DUP3 ADD MSTORE PUSH1 0x1D PUSH1 0x24 DUP3 ADD MSTORE PUSH32 0x43726561746F722063616E6E6F7420616363657074206F776E20626574000000 PUSH1 0x44 DUP3 ADD MSTORE PUSH1 0x64 ADD PUSH2 0x628 JUMP JUMPDEST DUP1 PUSH1 0x6 ADD SLOAD TIMESTAMP LT PUSH2 0x1CC8 JUMPI PUSH1 0x40 MLOAD PUSH3 0x461BCD PUSH1 0xE5 SHL DUP2 MSTORE PUSH1 0x20 PUSH1 0x4 DUP3 ADD MSTORE PUSH1 0xF PUSH1 0x24 DUP3 ADD MSTORE PUSH15 0x10995D081A185CC8195E1C1A5C9959 PUSH1 0x8A SHL PUSH1 0x44 DUP3 ADD MSTORE PUSH1 0x64 ADD PUSH2 0x628 JUMP JUMPDEST PUSH1 0xA SLOAD PUSH1 0x3 DUP3 ADD SLOAD PUSH1 0x40 MLOAD PUSH4 0x23B872DD PUSH1 0xE0 SHL DUP2 MSTORE PUSH1 0x1 PUSH1 0x1 PUSH1 0xA0 SHL SUB SWAP1 SWAP3 AND SWAP2 PUSH4 0x23B872DD SWAP2 PUSH2 0x1CFF SWAP2 CALLER SWAP2 ADDRESS SWAP2 PUSH1 0x4 ADD PUSH2 0x39B2 JUMP JUMPDEST PUSH1 0x20 PUSH1 0x40 MLOAD DUP1 DUP4 SUB DUP2 PUSH1 0x0 DUP8 GAS CALL ISZERO DUP1 ISZERO PUSH2 0x1D1E JUMPI RETURNDATASIZE PUSH1 0x0 DUP1 RETURNDATACOPY RETURNDATASIZE PUSH1 0x0 REVERT JUMPDEST POP POP POP POP PUSH1 0x40 MLOAD RETURNDATASIZE PUSH1 0x1F NOT PUSH1 0x1F DUP3 ADD AND DUP3 ADD DUP1 PUSH1 0x40 MSTORE POP DUP2 ADD SWAP1 PUSH2 0x1D42 SWAP2 SWAP1 PUSH2 0x39D6 JUMP JUMPDEST PUSH2 0x1D86 JUMPI PUSH1 0x40 MLOAD PUSH3 0x461BCD PUSH1 0xE5 SHL DUP2 MSTORE PUSH1 0x20 PUSH1 0x4 DUP3 ADD MSTORE PUSH1 0x15 PUSH1 0x24 DUP3 ADD MSTORE PUSH21 0x14DD185AD9481D1C985B9CD9995C8819985A5B1959 PUSH1 0x5A SHL PUSH1 0x44 DUP3 ADD MSTORE PUSH1 0x64 ADD PUSH2 0x628 JUMP JUMPDEST PUSH1 0x1 DUP2 ADD DUP1 SLOAD PUSH1 0x1 PUSH1 0x1 PUSH1 0xA0 SHL SUB NOT AND CALLER SWAP1 DUP2 OR SWAP1 SWAP2 SSTORE DUP2 SLOAD PUSH2 0x1DB6 SWAP2 PUSH1 0x1 PUSH1 0x1 PUSH1 0xA0 SHL SUB SWAP2 SWAP1 SWAP2 AND SWAP1 DUP5 PUSH2 0x2530 JUMP JUMPDEST PUSH1 0x0 DUP2 PUSH1 0x3 ADD SLOAD DUP3 PUSH1 0x2 ADD SLOAD PUSH2 0x1DCC SWAP2 SWAP1 PUSH2 0x3B31 JUMP JUMPDEST SWAP1 POP PUSH1 0x0 PUSH2 0x1DDB PUSH1 0x2 DUP4 PUSH2 0x3D5A JUMP JUMPDEST PUSH1 0xB SLOAD SWAP1 SWAP2 POP PUSH1 0x1 PUSH1 0x1 PUSH1 0xA0 SHL SUB AND PUSH4 0x23B872DD PUSH2 0x1E01 PUSH1 0x6 SLOAD PUSH1 0x1 PUSH1 0x1 PUSH1 0xA0 SHL SUB AND SWAP1 JUMP JUMPDEST ADDRESS DUP5 PUSH1 0x40 MLOAD DUP5 PUSH4 0xFFFFFFFF AND PUSH1 0xE0 SHL DUP2 MSTORE PUSH1 0x4 ADD PUSH2 0x1E21 SWAP4 SWAP3 SWAP2 SWAP1 PUSH2 0x39B2 JUMP JUMPDEST PUSH1 0x20 PUSH1 0x40 MLOAD DUP1 DUP4 SUB DUP2 PUSH1 0x0 DUP8 GAS CALL ISZERO DUP1 ISZERO PUSH2 0x1E40 JUMPI RETURNDATASIZE PUSH1 0x0 DUP1 RETURNDATACOPY RETURNDATASIZE PUSH1 0x0 REVERT JUMPDEST POP POP POP POP PUSH1 0x40 MLOAD RETURNDATASIZE PUSH1 0x1F NOT PUSH1 0x1F DUP3 ADD AND DUP3 ADD DUP1 PUSH1 0x40 MSTORE POP DUP2 ADD SWAP1 PUSH2 0x1E64 SWAP2 SWAP1 PUSH2 0x39D6 JUMP JUMPDEST PUSH2 0x1EB0 JUMPI PUSH1 0x40 MLOAD PUSH3 0x461BCD PUSH1 0xE5 SHL DUP2 MSTORE PUSH1 0x20 PUSH1 0x4 DUP3 ADD MSTORE PUSH1 0x1B PUSH1 0x24 DUP3 ADD MSTORE PUSH32 0x537461626C65546F6B656E207472616E73666572206661696C65640000000000 PUSH1 0x44 DUP3 ADD MSTORE PUSH1 0x64 ADD PUSH2 0x628 JUMP JUMPDEST PUSH1 0xA SLOAD PUSH1 0xE SLOAD PUSH1 0x40 MLOAD PUSH4 0x95EA7B3 PUSH1 0xE0 SHL DUP2 MSTORE PUSH1 0x1 PUSH1 0x1 PUSH1 0xA0 SHL SUB SWAP3 DUP4 AND SWAP3 PUSH4 0x95EA7B3 SWAP3 PUSH2 0x1EE6 SWAP3 SWAP2 AND SWAP1 DUP6 SWAP1 PUSH1 0x4 ADD PUSH2 0x3CB1 JUMP JUMPDEST PUSH1 0x20 PUSH1 0x40 MLOAD DUP1 DUP4 SUB DUP2 PUSH1 0x0 DUP8 GAS CALL ISZERO DUP1 ISZERO PUSH2 0x1F05 JUMPI RETURNDATASIZE PUSH1 0x0 DUP1 RETURNDATACOPY RETURNDATASIZE PUSH1 0x0 REVERT JUMPDEST POP POP POP POP PUSH1 0x40 MLOAD RETURNDATASIZE PUSH1 0x1F NOT PUSH1 0x1F DUP3 ADD AND DUP3 ADD DUP1 PUSH1 0x40 MSTORE POP DUP2 ADD SWAP1 PUSH2 0x1F29 SWAP2 SWAP1 PUSH2 0x39D6 JUMP JUMPDEST POP PUSH1 0xB SLOAD PUSH1 0xE SLOAD PUSH1 0x40 MLOAD PUSH4 0x95EA7B3 PUSH1 0xE0 SHL DUP2 MSTORE PUSH1 0x1 PUSH1 0x1 PUSH1 0xA0 SHL SUB SWAP3 DUP4 AND SWAP3 PUSH4 0x95EA7B3 SWAP3 PUSH2 0x1F60 SWAP3 SWAP2 AND SWAP1 DUP6 SWAP1 PUSH1 0x4 ADD PUSH2 0x3CB1 JUMP JUMPDEST PUSH1 0x20 PUSH1 0x40 MLOAD DUP1 DUP4 SUB DUP2 PUSH1 0x0 DUP8 GAS CALL ISZERO DUP1 ISZERO PUSH2 0x1F7F JUMPI RETURNDATASIZE PUSH1 0x0 DUP1 RETURNDATACOPY RETURNDATASIZE PUSH1 0x0 REVERT JUMPDEST POP POP POP POP PUSH1 0x40 MLOAD RETURNDATASIZE PUSH1 0x1F NOT PUSH1 0x1F DUP3 ADD AND DUP3 ADD DUP1 PUSH1 0x40 MSTORE POP DUP2 ADD SWAP1 PUSH2 0x1FA3 SWAP2 SWAP1 PUSH2 0x39D6 JUMP JUMPDEST POP PUSH1 0xE SLOAD PUSH1 0xA SLOAD PUSH1 0xB SLOAD PUSH1 0x0 SWAP3 PUSH1 0x1 PUSH1 0x1 PUSH1 0xA0 SHL SUB SWAP1 DUP2 AND SWAP3 PUSH4 0xE8E33700 SWAP3 SWAP1 DUP3 AND SWAP2 AND DUP6 DUP1 PUSH1 0x64 PUSH2 0x1FD6 DUP3 PUSH1 0x5F PUSH2 0x3D7C JUMP JUMPDEST PUSH2 0x1FE0 SWAP2 SWAP1 PUSH2 0x3D5A JUMP JUMPDEST PUSH1 0x64 PUSH2 0x1FED DUP11 PUSH1 0x5F PUSH2 0x3D7C JUMP JUMPDEST PUSH2 0x1FF7 SWAP2 SWAP1 PUSH2 0x3D5A JUMP JUMPDEST ADDRESS PUSH2 0x2004 TIMESTAMP PUSH2 0x384 PUSH2 0x3B31 JUMP JUMPDEST PUSH1 0x40 MLOAD PUSH1 0xE0 DUP11 SWAP1 SHL PUSH1 0x1 PUSH1 0x1 PUSH1 0xE0 SHL SUB NOT AND DUP2 MSTORE PUSH1 0x1 PUSH1 0x1 PUSH1 0xA0 SHL SUB SWAP9 DUP10 AND PUSH1 0x4 DUP3 ADD MSTORE SWAP7 DUP9 AND PUSH1 0x24 DUP9 ADD MSTORE PUSH1 0x44 DUP8 ADD SWAP6 SWAP1 SWAP6 MSTORE PUSH1 0x64 DUP7 ADD SWAP4 SWAP1 SWAP4 MSTORE PUSH1 0x84 DUP6 ADD SWAP2 SWAP1 SWAP2 MSTORE PUSH1 0xA4 DUP5 ADD MSTORE SWAP1 SWAP3 AND PUSH1 0xC4 DUP3 ADD MSTORE PUSH1 0xE4 DUP2 ADD SWAP2 SWAP1 SWAP2 MSTORE PUSH2 0x104 ADD PUSH1 0x60 PUSH1 0x40 MLOAD DUP1 DUP4 SUB DUP2 PUSH1 0x0 DUP8 GAS CALL ISZERO DUP1 ISZERO PUSH2 0x2080 JUMPI RETURNDATASIZE PUSH1 0x0 DUP1 RETURNDATACOPY RETURNDATASIZE PUSH1 0x0 REVERT JUMPDEST POP POP POP POP PUSH1 0x40 MLOAD RETURNDATASIZE PUSH1 0x1F NOT PUSH1 0x1F DUP3 ADD AND DUP3 ADD DUP1 PUSH1 0x40 MSTORE POP DUP2 ADD SWAP1 PUSH2 0x20A4 SWAP2 SWAP1 PUSH2 0x3D93 JUMP JUMPDEST PUSH1 0x0 DUP9 DUP2 MSTORE PUSH1 0x9 PUSH1 0x20 SWAP1 DUP2 MSTORE PUSH1 0x40 SWAP2 DUP3 SWAP1 KECCAK256 DUP4 SWAP1 SSTORE DUP2 MLOAD DUP11 DUP2 MSTORE CALLER SWAP2 DUP2 ADD SWAP2 SWAP1 SWAP2 MSTORE DUP2 MLOAD SWAP3 SWAP6 POP PUSH32 0xB727A22534E43D337ADDEFE6245E691859B29F7BF356BC7E6D77FF92070FE124 SWAP5 POP DUP3 SWAP1 SUB ADD SWAP2 POP LOG1 POP POP POP POP POP JUMP JUMPDEST PUSH1 0x8 PUSH1 0x20 MSTORE PUSH1 0x0 SWAP1 DUP2 MSTORE PUSH1 0x40 SWAP1 KECCAK256 DUP1 SLOAD PUSH2 0x2115 SWAP1 PUSH2 0x392B JUMP JUMPDEST DUP1 PUSH1 0x1F ADD PUSH1 0x20 DUP1 SWAP2 DIV MUL PUSH1 0x20 ADD PUSH1 0x40 MLOAD SWAP1 DUP2 ADD PUSH1 0x40 MSTORE DUP1 SWAP3 SWAP2 SWAP1 DUP2 DUP2 MSTORE PUSH1 0x20 ADD DUP3 DUP1 SLOAD PUSH2 0x2141 SWAP1 PUSH2 0x392B JUMP JUMPDEST DUP1 ISZERO PUSH2 0x218E JUMPI DUP1 PUSH1 0x1F LT PUSH2 0x2163 JUMPI PUSH2 0x100 DUP1 DUP4 SLOAD DIV MUL DUP4 MSTORE SWAP2 PUSH1 0x20 ADD SWAP2 PUSH2 0x218E JUMP JUMPDEST DUP3 ADD SWAP2 SWAP1 PUSH1 0x0 MSTORE PUSH1 0x20 PUSH1 0x0 KECCAK256 SWAP1 JUMPDEST DUP2 SLOAD DUP2 MSTORE SWAP1 PUSH1 0x1 ADD SWAP1 PUSH1 0x20 ADD DUP1 DUP4 GT PUSH2 0x2171 JUMPI DUP3 SWAP1 SUB PUSH1 0x1F AND DUP3 ADD SWAP2 JUMPDEST POP POP POP POP POP DUP2 JUMP JUMPDEST PUSH1 0x0 PUSH1 0x1 PUSH1 0x1 PUSH1 0xA0 SHL SUB DUP3 AND PUSH2 0x2200 JUMPI PUSH1 0x40 MLOAD PUSH3 0x461BCD PUSH1 0xE5 SHL DUP2 MSTORE PUSH1 0x20 PUSH1 0x4 DUP3 ADD MSTORE PUSH1 0x29 PUSH1 0x24 DUP3 ADD MSTORE PUSH32 0x4552433732313A2061646472657373207A65726F206973206E6F742061207661 PUSH1 0x44 DUP3 ADD MSTORE PUSH9 0x3634B21037BBB732B9 PUSH1 0xB9 SHL PUSH1 0x64 DUP3 ADD MSTORE PUSH1 0x84 ADD PUSH2 0x628 JUMP JUMPDEST POP PUSH1 0x1 PUSH1 0x1 PUSH1 0xA0 SHL SUB AND PUSH1 0x0 SWAP1 DUP2 MSTORE PUSH1 0x3 PUSH1 0x20 MSTORE PUSH1 0x40 SWAP1 KECCAK256 SLOAD SWAP1 JUMP JUMPDEST PUSH2 0x2224 PUSH2 0x281F JUMP JUMPDEST PUSH2 0x222E PUSH1 0x0 PUSH2 0x32D7 JUMP JUMPDEST JUMP JUMPDEST PUSH1 0x60 PUSH1 0x1 DUP1 SLOAD PUSH2 0x50A SWAP1 PUSH2 0x392B JUMP JUMPDEST PUSH2 0x1286 CALLER DUP4 DUP4 PUSH2 0x3329 JUMP JUMPDEST PUSH2 0x2254 CALLER DUP4 PUSH2 0x24D1 JUMP JUMPDEST PUSH2 0x2270 JUMPI PUSH1 0x40 MLOAD PUSH3 0x461BCD PUSH1 0xE5 SHL DUP2 MSTORE PUSH1 0x4 ADD PUSH2 0x628 SWAP1 PUSH2 0x3965 JUMP JUMPDEST PUSH2 0x227C DUP5 DUP5 DUP5 DUP5 PUSH2 0x33F7 JUMP JUMPDEST POP POP POP POP JUMP JUMPDEST PUSH1 0x0 DUP2 DUP2 MSTORE PUSH1 0x8 PUSH1 0x20 MSTORE PUSH1 0x40 SWAP1 KECCAK256 DUP1 SLOAD PUSH1 0x60 SWAP2 SWAP1 PUSH2 0x229F SWAP1 PUSH2 0x392B JUMP JUMPDEST DUP1 PUSH1 0x1F ADD PUSH1 0x20 DUP1 SWAP2 DIV MUL PUSH1 0x20 ADD PUSH1 0x40 MLOAD SWAP1 DUP2 ADD PUSH1 0x40 MSTORE DUP1 SWAP3 SWAP2 SWAP1 DUP2 DUP2 MSTORE PUSH1 0x20 ADD DUP3 DUP1 SLOAD PUSH2 0x22CB SWAP1 PUSH2 0x392B JUMP JUMPDEST DUP1 ISZERO PUSH2 0x2318 JUMPI DUP1 PUSH1 0x1F LT PUSH2 0x22ED JUMPI PUSH2 0x100 DUP1 DUP4 SLOAD DIV MUL DUP4 MSTORE SWAP2 PUSH1 0x20 ADD SWAP2 PUSH2 0x2318 JUMP JUMPDEST DUP3 ADD SWAP2 SWAP1 PUSH1 0x0 MSTORE PUSH1 0x20 PUSH1 0x0 KECCAK256 SWAP1 JUMPDEST DUP2 SLOAD DUP2 MSTORE SWAP1 PUSH1 0x1 ADD SWAP1 PUSH1 0x20 ADD DUP1 DUP4 GT PUSH2 0x22FB JUMPI DUP3 SWAP1 SUB PUSH1 0x1F AND DUP3 ADD SWAP2 JUMPDEST POP POP POP POP POP SWAP1 POP SWAP2 SWAP1 POP JUMP JUMPDEST PUSH2 0x232C PUSH2 0x281F JUMP JUMPDEST PUSH1 0xC SLOAD PUSH1 0x40 MLOAD PUSH4 0x23B872DD PUSH1 0xE0 SHL DUP2 MSTORE PUSH1 0x1 PUSH1 0x1 PUSH1 0xA0 SHL SUB SWAP1 SWAP2 AND SWAP1 PUSH4 0x23B872DD SWAP1 PUSH2 0x1AE6 SWAP1 CALLER SWAP1 ADDRESS SWAP1 DUP7 SWAP1 PUSH1 0x4 ADD PUSH2 0x39B2 JUMP JUMPDEST PUSH1 0x1 PUSH1 0x1 PUSH1 0xA0 SHL SUB SWAP2 DUP3 AND PUSH1 0x0 SWAP1 DUP2 MSTORE PUSH1 0x5 PUSH1 0x20 SWAP1 DUP2 MSTORE PUSH1 0x40 DUP1 DUP4 KECCAK256 SWAP4 SWAP1 SWAP5 AND DUP3 MSTORE SWAP2 SWAP1 SWAP2 MSTORE KECCAK256 SLOAD PUSH1 0xFF AND SWAP1 JUMP JUMPDEST PUSH2 0x2396 PUSH2 0x281F JUMP JUMPDEST PUSH1 0x1 PUSH1 0x1 PUSH1 0xA0 SHL SUB DUP2 AND PUSH2 0x23FB JUMPI PUSH1 0x40 MLOAD PUSH3 0x461BCD PUSH1 0xE5 SHL DUP2 MSTORE PUSH1 0x20 PUSH1 0x4 DUP3 ADD MSTORE PUSH1 0x26 PUSH1 0x24 DUP3 ADD MSTORE PUSH32 0x4F776E61626C653A206E6577206F776E657220697320746865207A65726F2061 PUSH1 0x44 DUP3 ADD MSTORE PUSH6 0x646472657373 PUSH1 0xD0 SHL PUSH1 0x64 DUP3 ADD MSTORE PUSH1 0x84 ADD PUSH2 0x628 JUMP JUMPDEST PUSH2 0x1B67 DUP2 PUSH2 0x32D7 JUMP JUMPDEST PUSH1 0x0 DUP2 DUP2 MSTORE PUSH1 0x2 PUSH1 0x20 MSTORE PUSH1 0x40 SWAP1 KECCAK256 SLOAD PUSH1 0x1 PUSH1 0x1 PUSH1 0xA0 SHL SUB AND PUSH2 0x1B67 JUMPI PUSH1 0x40 MLOAD PUSH3 0x461BCD PUSH1 0xE5 SHL DUP2 MSTORE PUSH1 0x20 PUSH1 0x4 DUP3 ADD MSTORE PUSH1 0x18 PUSH1 0x24 DUP3 ADD MSTORE PUSH24 0x115490CDCC8C4E881A5B9D985B1A59081D1BDAD95B881251 PUSH1 0x42 SHL PUSH1 0x44 DUP3 ADD MSTORE PUSH1 0x64 ADD PUSH2 0x628 JUMP JUMPDEST PUSH1 0x0 DUP2 DUP2 MSTORE PUSH1 0x4 PUSH1 0x20 MSTORE PUSH1 0x40 SWAP1 KECCAK256 DUP1 SLOAD PUSH1 0x1 PUSH1 0x1 PUSH1 0xA0 SHL SUB NOT AND PUSH1 0x1 PUSH1 0x1 PUSH1 0xA0 SHL SUB DUP5 AND SWAP1 DUP2 OR SWAP1 SWAP2 SSTORE DUP2 SWAP1 PUSH2 0x2498 DUP3 PUSH2 0x1B6A JUMP JUMPDEST PUSH1 0x1 PUSH1 0x1 PUSH1 0xA0 SHL SUB AND PUSH32 0x8C5BE1E5EBEC7D5BD14F71427D1E84F3DD0314C0F7B2291E5B200AC8C7C3B925 PUSH1 0x40 MLOAD PUSH1 0x40 MLOAD DUP1 SWAP2 SUB SWAP1 LOG4 POP POP JUMP JUMPDEST PUSH1 0x0 DUP1 PUSH2 0x24DD DUP4 PUSH2 0x1B6A JUMP JUMPDEST SWAP1 POP DUP1 PUSH1 0x1 PUSH1 0x1 PUSH1 0xA0 SHL SUB AND DUP5 PUSH1 0x1 PUSH1 0x1 PUSH1 0xA0 SHL SUB AND EQ DUP1 PUSH2 0x2504 JUMPI POP PUSH2 0x2504 DUP2 DUP6 PUSH2 0x2360 JUMP JUMPDEST DUP1 PUSH2 0x2528 JUMPI POP DUP4 PUSH1 0x1 PUSH1 0x1 PUSH1 0xA0 SHL SUB AND PUSH2 0x251D DUP5 PUSH2 0x58D JUMP JUMPDEST PUSH1 0x1 PUSH1 0x1 PUSH1 0xA0 SHL SUB AND EQ JUMPDEST SWAP5 SWAP4 POP POP POP POP JUMP JUMPDEST DUP3 PUSH1 0x1 PUSH1 0x1 PUSH1 0xA0 SHL SUB AND PUSH2 0x2543 DUP3 PUSH2 0x1B6A JUMP JUMPDEST PUSH1 0x1 PUSH1 0x1 PUSH1 0xA0 SHL SUB AND EQ PUSH2 0x2569 JUMPI PUSH1 0x40 MLOAD PUSH3 0x461BCD PUSH1 0xE5 SHL DUP2 MSTORE PUSH1 0x4 ADD PUSH2 0x628 SWAP1 PUSH2 0x3DC1 JUMP JUMPDEST PUSH1 0x1 PUSH1 0x1 PUSH1 0xA0 SHL SUB DUP3 AND PUSH2 0x25CB JUMPI PUSH1 0x40 MLOAD PUSH3 0x461BCD PUSH1 0xE5 SHL DUP2 MSTORE PUSH1 0x20 PUSH1 0x4 DUP3 ADD MSTORE PUSH1 0x24 DUP1 DUP3 ADD MSTORE PUSH32 0x4552433732313A207472616E7366657220746F20746865207A65726F20616464 PUSH1 0x44 DUP3 ADD MSTORE PUSH4 0x72657373 PUSH1 0xE0 SHL PUSH1 0x64 DUP3 ADD MSTORE PUSH1 0x84 ADD PUSH2 0x628 JUMP JUMPDEST DUP3 PUSH1 0x1 PUSH1 0x1 PUSH1 0xA0 SHL SUB AND PUSH2 0x25DE DUP3 PUSH2 0x1B6A JUMP JUMPDEST PUSH1 0x1 PUSH1 0x1 PUSH1 0xA0 SHL SUB AND EQ PUSH2 0x2604 JUMPI PUSH1 0x40 MLOAD PUSH3 0x461BCD PUSH1 0xE5 SHL DUP2 MSTORE PUSH1 0x4 ADD PUSH2 0x628 SWAP1 PUSH2 0x3DC1 JUMP JUMPDEST PUSH1 0x0 DUP2 DUP2 MSTORE PUSH1 0x4 PUSH1 0x20 SWAP1 DUP2 MSTORE PUSH1 0x40 DUP1 DUP4 KECCAK256 DUP1 SLOAD PUSH1 0x1 PUSH1 0x1 PUSH1 0xA0 SHL SUB NOT SWAP1 DUP2 AND SWAP1 SWAP2 SSTORE PUSH1 0x1 PUSH1 0x1 PUSH1 0xA0 SHL SUB DUP8 DUP2 AND DUP1 DUP7 MSTORE PUSH1 0x3 DUP6 MSTORE DUP4 DUP7 KECCAK256 DUP1 SLOAD PUSH1 0x0 NOT ADD SWAP1 SSTORE SWAP1 DUP8 AND DUP1 DUP7 MSTORE DUP4 DUP7 KECCAK256 DUP1 SLOAD PUSH1 0x1 ADD SWAP1 SSTORE DUP7 DUP7 MSTORE PUSH1 0x2 SWAP1 SWAP5 MSTORE DUP3 DUP6 KECCAK256 DUP1 SLOAD SWAP1 SWAP3 AND DUP5 OR SWAP1 SWAP2 SSTORE SWAP1 MLOAD DUP5 SWAP4 PUSH32 0xDDF252AD1BE2C89B69C2B068FC378DAA952BA7F163C4A11628F55A4DF523B3EF SWAP2 LOG4 POP POP POP JUMP JUMPDEST PUSH1 0x1 PUSH1 0x1 PUSH1 0xA0 SHL SUB DUP3 AND PUSH2 0x26EA JUMPI PUSH1 0x40 MLOAD PUSH3 0x461BCD PUSH1 0xE5 SHL DUP2 MSTORE PUSH1 0x20 PUSH1 0x4 DUP3 ADD DUP2 SWAP1 MSTORE PUSH1 0x24 DUP3 ADD MSTORE PUSH32 0x4552433732313A206D696E7420746F20746865207A65726F2061646472657373 PUSH1 0x44 DUP3 ADD MSTORE PUSH1 0x64 ADD PUSH2 0x628 JUMP JUMPDEST PUSH1 0x0 DUP2 DUP2 MSTORE PUSH1 0x2 PUSH1 0x20 MSTORE PUSH1 0x40 SWAP1 KECCAK256 SLOAD PUSH1 0x1 PUSH1 0x1 PUSH1 0xA0 SHL SUB AND ISZERO PUSH2 0x274F JUMPI PUSH1 0x40 MLOAD PUSH3 0x461BCD PUSH1 0xE5 SHL DUP2 MSTORE PUSH1 0x20 PUSH1 0x4 DUP3 ADD MSTORE PUSH1 0x1C PUSH1 0x24 DUP3 ADD MSTORE PUSH32 0x4552433732313A20746F6B656E20616C7265616479206D696E74656400000000 PUSH1 0x44 DUP3 ADD MSTORE PUSH1 0x64 ADD PUSH2 0x628 JUMP JUMPDEST PUSH1 0x0 DUP2 DUP2 MSTORE PUSH1 0x2 PUSH1 0x20 MSTORE PUSH1 0x40 SWAP1 KECCAK256 SLOAD PUSH1 0x1 PUSH1 0x1 PUSH1 0xA0 SHL SUB AND ISZERO PUSH2 0x27B4 JUMPI PUSH1 0x40 MLOAD PUSH3 0x461BCD PUSH1 0xE5 SHL DUP2 MSTORE PUSH1 0x20 PUSH1 0x4 DUP3 ADD MSTORE PUSH1 0x1C PUSH1 0x24 DUP3 ADD MSTORE PUSH32 0x4552433732313A20746F6B656E20616C7265616479206D696E74656400000000 PUSH1 0x44 DUP3 ADD MSTORE PUSH1 0x64 ADD PUSH2 0x628 JUMP JUMPDEST PUSH1 0x1 PUSH1 0x1 PUSH1 0xA0 SHL SUB DUP3 AND PUSH1 0x0 DUP2 DUP2 MSTORE PUSH1 0x3 PUSH1 0x20 SWAP1 DUP2 MSTORE PUSH1 0x40 DUP1 DUP4 KECCAK256 DUP1 SLOAD PUSH1 0x1 ADD SWAP1 SSTORE DUP5 DUP4 MSTORE PUSH1 0x2 SWAP1 SWAP2 MSTORE DUP1 DUP3 KECCAK256 DUP1 SLOAD PUSH1 0x1 PUSH1 0x1 PUSH1 0xA0 SHL SUB NOT AND DUP5 OR SWAP1 SSTORE MLOAD DUP4 SWAP3 SWAP2 SWAP1 PUSH32 0xDDF252AD1BE2C89B69C2B068FC378DAA952BA7F163C4A11628F55A4DF523B3EF SWAP1 DUP3 SWAP1 LOG4 POP POP JUMP JUMPDEST PUSH1 0x6 SLOAD PUSH1 0x1 PUSH1 0x1 PUSH1 0xA0 SHL SUB AND CALLER EQ PUSH2 0x222E JUMPI PUSH1 0x40 MLOAD PUSH3 0x461BCD PUSH1 0xE5 SHL DUP2 MSTORE PUSH1 0x20 PUSH1 0x4 DUP3 ADD DUP2 SWAP1 MSTORE PUSH1 0x24 DUP3 ADD MSTORE PUSH32 0x4F776E61626C653A2063616C6C6572206973206E6F7420746865206F776E6572 PUSH1 0x44 DUP3 ADD MSTORE PUSH1 0x64 ADD PUSH2 0x628 JUMP JUMPDEST PUSH1 0x0 DUP2 DUP2 MSTORE PUSH1 0x7 PUSH1 0x20 MSTORE PUSH1 0x40 SWAP1 KECCAK256 PUSH1 0x6 DUP2 ADD SLOAD TIMESTAMP LT ISZERO PUSH2 0x28D1 JUMPI PUSH1 0x40 MLOAD PUSH3 0x461BCD PUSH1 0xE5 SHL DUP2 MSTORE PUSH1 0x20 PUSH1 0x4 DUP3 ADD MSTORE PUSH1 0x13 PUSH1 0x24 DUP3 ADD MSTORE PUSH19 0x10995D081B9BDD081E595D08195E1C1A5C9959 PUSH1 0x6A SHL PUSH1 0x44 DUP3 ADD MSTORE PUSH1 0x64 ADD PUSH2 0x628 JUMP JUMPDEST PUSH1 0x5 DUP2 ADD SLOAD PUSH3 0x10000 SWAP1 DIV PUSH1 0xFF AND ISZERO PUSH2 0x28FC JUMPI PUSH1 0x40 MLOAD PUSH3 0x461BCD PUSH1 0xE5 SHL DUP2 MSTORE PUSH1 0x4 ADD PUSH2 0x628 SWAP1 PUSH2 0x3C55 JUMP JUMPDEST PUSH1 0x5 DUP2 ADD DUP1 SLOAD PUSH3 0xFF0000 NOT AND PUSH3 0x10000 OR SWAP1 SSTORE PUSH1 0x0 DUP3 DUP2 MSTORE PUSH1 0x9 PUSH1 0x20 MSTORE PUSH1 0x40 DUP2 KECCAK256 SLOAD PUSH1 0x3 DUP4 ADD SLOAD PUSH1 0x2 DUP5 ADD SLOAD SWAP2 SWAP3 SWAP2 PUSH2 0x2935 SWAP2 SWAP1 PUSH2 0x3B31 JUMP JUMPDEST PUSH1 0xD SLOAD PUSH1 0xE SLOAD PUSH1 0x40 MLOAD PUSH4 0x95EA7B3 PUSH1 0xE0 SHL DUP2 MSTORE SWAP3 SWAP4 POP PUSH1 0x1 PUSH1 0x1 PUSH1 0xA0 SHL SUB SWAP2 DUP3 AND SWAP3 PUSH4 0x95EA7B3 SWAP3 PUSH2 0x296D SWAP3 AND SWAP1 DUP7 SWAP1 PUSH1 0x4 ADD PUSH2 0x3CB1 JUMP JUMPDEST PUSH1 0x20 PUSH1 0x40 MLOAD DUP1 DUP4 SUB DUP2 PUSH1 0x0 DUP8 GAS CALL ISZERO DUP1 ISZERO PUSH2 0x298C JUMPI RETURNDATASIZE PUSH1 0x0 DUP1 RETURNDATACOPY RETURNDATASIZE PUSH1 0x0 REVERT JUMPDEST POP POP POP POP PUSH1 0x40 MLOAD RETURNDATASIZE PUSH1 0x1F NOT PUSH1 0x1F DUP3 ADD AND DUP3 ADD DUP1 PUSH1 0x40 MSTORE POP DUP2 ADD SWAP1 PUSH2 0x29B0 SWAP2 SWAP1 PUSH2 0x39D6 JUMP JUMPDEST POP PUSH1 0xE SLOAD PUSH1 0xA SLOAD PUSH1 0xB SLOAD PUSH1 0x0 SWAP3 DUP4 SWAP3 PUSH1 0x1 PUSH1 0x1 PUSH1 0xA0 SHL SUB SWAP2 DUP3 AND SWAP3 PUSH4 0xBAA2ABDE SWAP3 SWAP2 DUP3 AND SWAP2 AND DUP8 DUP6 DUP1 ADDRESS PUSH2 0x29E6 TIMESTAMP PUSH2 0x384 PUSH2 0x3B31 JUMP JUMPDEST PUSH1 0x40 MLOAD DUP9 PUSH4 0xFFFFFFFF AND PUSH1 0xE0 SHL DUP2 MSTORE PUSH1 0x4 ADD PUSH2 0x2A08 SWAP8 SWAP7 SWAP6 SWAP5 SWAP4 SWAP3 SWAP2 SWAP1 PUSH2 0x3CCA JUMP JUMPDEST PUSH1 0x40 DUP1 MLOAD DUP1 DUP4 SUB DUP2 PUSH1 0x0 DUP8 GAS CALL ISZERO DUP1 ISZERO PUSH2 0x2A26 JUMPI RETURNDATASIZE PUSH1 0x0 DUP1 RETURNDATACOPY RETURNDATASIZE PUSH1 0x0 REVERT JUMPDEST POP POP POP POP PUSH1 0x40 MLOAD RETURNDATASIZE PUSH1 0x1F NOT PUSH1 0x1F DUP3 ADD AND DUP3 ADD DUP1 PUSH1 0x40 MSTORE POP DUP2 ADD SWAP1 PUSH2 0x2A4A SWAP2 SWAP1 PUSH2 0x3D0A JUMP JUMPDEST SWAP1 SWAP3 POP SWAP1 POP PUSH1 0x0 PUSH2 0x2A5B DUP3 DUP5 PUSH2 0x3B31 JUMP JUMPDEST SWAP1 POP PUSH1 0x0 DUP5 DUP3 GT PUSH2 0x2A6D JUMPI PUSH1 0x0 PUSH2 0x2A77 JUMP JUMPDEST PUSH2 0x2A77 DUP6 DUP4 PUSH2 0x3D2E JUMP JUMPDEST PUSH1 0x5 DUP9 ADD SLOAD SWAP1 SWAP2 POP PUSH1 0xFF DUP1 DUP3 AND ISZERO ISZERO PUSH2 0x100 SWAP1 SWAP3 DIV AND ISZERO ISZERO EQ DUP1 ISZERO PUSH2 0x2AA2 JUMPI POP PUSH1 0x5 DUP8 ADD SLOAD PUSH1 0xFF AND ISZERO ISZERO JUMPDEST ISZERO PUSH2 0x2F01 JUMPI PUSH1 0x5 DUP8 ADD SLOAD PUSH1 0xFF AND ISZERO PUSH2 0x2CFF JUMPI PUSH1 0xA SLOAD DUP8 SLOAD PUSH1 0x1 PUSH1 0x1 PUSH1 0xA0 SHL SUB SWAP2 DUP3 AND SWAP2 PUSH4 0xA9059CBB SWAP2 AND PUSH1 0x64 PUSH2 0x2AD9 DUP6 PUSH1 0x50 PUSH2 0x3D7C JUMP JUMPDEST PUSH2 0x2AE3 SWAP2 SWAP1 PUSH2 0x3D5A JUMP JUMPDEST DUP11 PUSH1 0x2 ADD SLOAD PUSH2 0x2AF2 SWAP2 SWAP1 PUSH2 0x3B31 JUMP JUMPDEST PUSH1 0x40 MLOAD DUP4 PUSH4 0xFFFFFFFF AND PUSH1 0xE0 SHL DUP2 MSTORE PUSH1 0x4 ADD PUSH2 0x2B0F SWAP3 SWAP2 SWAP1 PUSH2 0x3CB1 JUMP JUMPDEST PUSH1 0x20 PUSH1 0x40 MLOAD DUP1 DUP4 SUB DUP2 PUSH1 0x0 DUP8 GAS CALL ISZERO DUP1 ISZERO PUSH2 0x2B2E JUMPI RETURNDATASIZE PUSH1 0x0 DUP1 RETURNDATACOPY RETURNDATASIZE PUSH1 0x0 REVERT JUMPDEST POP POP POP POP PUSH1 0x40 MLOAD RETURNDATASIZE PUSH1 0x1F NOT PUSH1 0x1F DUP3 ADD AND DUP3 ADD DUP1 PUSH1 0x40 MSTORE POP DUP2 ADD SWAP1 PUSH2 0x2B52 SWAP2 SWAP1 PUSH2 0x39D6 JUMP JUMPDEST POP PUSH1 0xA SLOAD PUSH1 0x1 DUP9 ADD SLOAD PUSH1 0x1 PUSH1 0x1 PUSH1 0xA0 SHL SUB SWAP2 DUP3 AND SWAP2 PUSH4 0xA9059CBB SWAP2 AND PUSH1 0x64 PUSH2 0x2B7B DUP6 PUSH1 0x14 PUSH2 0x3D7C JUMP JUMPDEST PUSH2 0x2B85 SWAP2 SWAP1 PUSH2 0x3D5A JUMP JUMPDEST DUP11 PUSH1 0x3 ADD SLOAD PUSH2 0x2B94 SWAP2 SWAP1 PUSH2 0x3B31 JUMP JUMPDEST PUSH1 0x40 MLOAD DUP4 PUSH4 0xFFFFFFFF AND PUSH1 0xE0 SHL DUP2 MSTORE PUSH1 0x4 ADD PUSH2 0x2BB1 SWAP3 SWAP2 SWAP1 PUSH2 0x3CB1 JUMP JUMPDEST PUSH1 0x20 PUSH1 0x40 MLOAD DUP1 DUP4 SUB DUP2 PUSH1 0x0 DUP8 GAS CALL ISZERO DUP1 ISZERO PUSH2 0x2BD0 JUMPI RETURNDATASIZE PUSH1 0x0 DUP1 RETURNDATACOPY RETURNDATASIZE PUSH1 0x0 REVERT JUMPDEST POP POP POP POP PUSH1 0x40 MLOAD RETURNDATASIZE PUSH1 0x1F NOT PUSH1 0x1F DUP3 ADD AND DUP3 ADD DUP1 PUSH1 0x40 MSTORE POP DUP2 ADD SWAP1 PUSH2 0x2BF4 SWAP2 SWAP1 PUSH2 0x39D6 JUMP JUMPDEST POP PUSH1 0xC SLOAD DUP8 SLOAD PUSH1 0x40 MLOAD PUSH4 0xA9059CBB PUSH1 0xE0 SHL DUP2 MSTORE PUSH1 0x1 PUSH1 0x1 PUSH1 0xA0 SHL SUB SWAP3 DUP4 AND SWAP3 PUSH4 0xA9059CBB SWAP3 PUSH2 0x2C32 SWAP3 SWAP2 AND SWAP1 PUSH8 0x8AC7230489E80000 SWAP1 PUSH1 0x4 ADD PUSH2 0x3CB1 JUMP JUMPDEST PUSH1 0x20 PUSH1 0x40 MLOAD DUP1 DUP4 SUB DUP2 PUSH1 0x0 DUP8 GAS CALL ISZERO DUP1 ISZERO PUSH2 0x2C51 JUMPI RETURNDATASIZE PUSH1 0x0 DUP1 RETURNDATACOPY RETURNDATASIZE PUSH1 0x0 REVERT JUMPDEST POP POP POP POP PUSH1 0x40 MLOAD RETURNDATASIZE PUSH1 0x1F NOT PUSH1 0x1F DUP3 ADD AND DUP3 ADD DUP1 PUSH1 0x40 MSTORE POP DUP2 ADD SWAP1 PUSH2 0x2C75 SWAP2 SWAP1 PUSH2 0x39D6 JUMP JUMPDEST POP PUSH1 0xC SLOAD PUSH1 0x1 DUP9 ADD SLOAD PUSH1 0x40 MLOAD PUSH4 0xA9059CBB PUSH1 0xE0 SHL DUP2 MSTORE PUSH1 0x1 PUSH1 0x1 PUSH1 0xA0 SHL SUB SWAP3 DUP4 AND SWAP3 PUSH4 0xA9059CBB SWAP3 PUSH2 0x2CB6 SWAP3 SWAP2 AND SWAP1 PUSH8 0x4563918244F40000 SWAP1 PUSH1 0x4 ADD PUSH2 0x3CB1 JUMP JUMPDEST PUSH1 0x20 PUSH1 0x40 MLOAD DUP1 DUP4 SUB DUP2 PUSH1 0x0 DUP8 GAS CALL ISZERO DUP1 ISZERO PUSH2 0x2CD5 JUMPI RETURNDATASIZE PUSH1 0x0 DUP1 RETURNDATACOPY RETURNDATASIZE PUSH1 0x0 REVERT JUMPDEST POP POP POP POP PUSH1 0x40 MLOAD RETURNDATASIZE PUSH1 0x1F NOT PUSH1 0x1F DUP3 ADD AND DUP3 ADD DUP1 PUSH1 0x40 MSTORE POP DUP2 ADD SWAP1 PUSH2 0x2CF9 SWAP2 SWAP1 PUSH2 0x39D6 JUMP JUMPDEST POP PUSH2 0x3130 JUMP JUMPDEST PUSH1 0xA SLOAD DUP8 SLOAD PUSH1 0x1 PUSH1 0x1 PUSH1 0xA0 SHL SUB SWAP2 DUP3 AND SWAP2 PUSH4 0xA9059CBB SWAP2 AND PUSH1 0x64 PUSH2 0x2D24 DUP6 PUSH1 0x14 PUSH2 0x3D7C JUMP JUMPDEST PUSH2 0x2D2E SWAP2 SWAP1 PUSH2 0x3D5A JUMP JUMPDEST DUP11 PUSH1 0x2 ADD SLOAD PUSH2 0x2D3D SWAP2 SWAP1 PUSH2 0x3B31 JUMP JUMPDEST PUSH1 0x40 MLOAD DUP4 PUSH4 0xFFFFFFFF AND PUSH1 0xE0 SHL DUP2 MSTORE PUSH1 0x4 ADD PUSH2 0x2D5A SWAP3 SWAP2 SWAP1 PUSH2 0x3CB1 JUMP JUMPDEST PUSH1 0x20 PUSH1 0x40 MLOAD DUP1 DUP4 SUB DUP2 PUSH1 0x0 DUP8 GAS CALL ISZERO DUP1 ISZERO PUSH2 0x2D79 JUMPI RETURNDATASIZE PUSH1 0x0 DUP1 RETURNDATACOPY RETURNDATASIZE PUSH1 0x0 REVERT JUMPDEST POP POP POP POP PUSH1 0x40 MLOAD RETURNDATASIZE PUSH1 0x1F NOT PUSH1 0x1F DUP3 ADD AND DUP3 ADD DUP1 PUSH1 0x40 MSTORE POP DUP2 ADD SWAP1 PUSH2 0x2D9D SWAP2 SWAP1 PUSH2 0x39D6 JUMP JUMPDEST POP PUSH1 0xA SLOAD PUSH1 0x1 DUP9 ADD SLOAD PUSH1 0x1 PUSH1 0x1 PUSH1 0xA0 SHL SUB SWAP2 DUP3 AND SWAP2 PUSH4 0xA9059CBB SWAP2 AND PUSH1 0x64 PUSH2 0x2DC6 DUP6 PUSH1 0x50 PUSH2 0x3D7C JUMP JUMPDEST PUSH2 0x2DD0 SWAP2 SWAP1 PUSH2 0x3D5A JUMP JUMPDEST DUP11 PUSH1 0x3 ADD SLOAD PUSH2 0x2DDF SWAP2 SWAP1 PUSH2 0x3B31 JUMP JUMPDEST PUSH1 0x40 MLOAD DUP4 PUSH4 0xFFFFFFFF AND PUSH1 0xE0 SHL DUP2 MSTORE PUSH1 0x4 ADD PUSH2 0x2DFC SWAP3 SWAP2 SWAP1 PUSH2 0x3CB1 JUMP JUMPDEST PUSH1 0x20 PUSH1 0x40 MLOAD DUP1 DUP4 SUB DUP2 PUSH1 0x0 DUP8 GAS CALL ISZERO DUP1 ISZERO PUSH2 0x2E1B JUMPI RETURNDATASIZE PUSH1 0x0 DUP1 RETURNDATACOPY RETURNDATASIZE PUSH1 0x0 REVERT JUMPDEST POP POP POP POP PUSH1 0x40 MLOAD RETURNDATASIZE PUSH1 0x1F NOT PUSH1 0x1F DUP3 ADD AND DUP3 ADD DUP1 PUSH1 0x40 MSTORE POP DUP2 ADD SWAP1 PUSH2 0x2E3F SWAP2 SWAP1 PUSH2 0x39D6 JUMP JUMPDEST POP PUSH1 0xC SLOAD DUP8 SLOAD PUSH1 0x40 MLOAD PUSH4 0xA9059CBB PUSH1 0xE0 SHL DUP2 MSTORE PUSH1 0x1 PUSH1 0x1 PUSH1 0xA0 SHL SUB SWAP3 DUP4 AND SWAP3 PUSH4 0xA9059CBB SWAP3 PUSH2 0x2E7D SWAP3 SWAP2 AND SWAP1 PUSH8 0x4563918244F40000 SWAP1 PUSH1 0x4 ADD PUSH2 0x3CB1 JUMP JUMPDEST PUSH1 0x20 PUSH1 0x40 MLOAD DUP1 DUP4 SUB DUP2 PUSH1 0x0 DUP8 GAS CALL ISZERO DUP1 ISZERO PUSH2 0x2E9C JUMPI RETURNDATASIZE PUSH1 0x0 DUP1 RETURNDATACOPY RETURNDATASIZE PUSH1 0x0 REVERT JUMPDEST POP POP POP POP PUSH1 0x40 MLOAD RETURNDATASIZE PUSH1 0x1F NOT PUSH1 0x1F DUP3 ADD AND DUP3 ADD DUP1 PUSH1 0x40 MSTORE POP DUP2 ADD SWAP1 PUSH2 0x2EC0 SWAP2 SWAP1 PUSH2 0x39D6 JUMP JUMPDEST POP PUSH1 0xC SLOAD PUSH1 0x1 DUP9 ADD SLOAD PUSH1 0x40 MLOAD PUSH4 0xA9059CBB PUSH1 0xE0 SHL DUP2 MSTORE PUSH1 0x1 PUSH1 0x1 PUSH1 0xA0 SHL SUB SWAP3 DUP4 AND SWAP3 PUSH4 0xA9059CBB SWAP3 PUSH2 0x2CB6 SWAP3 SWAP2 AND SWAP1 PUSH8 0x8AC7230489E80000 SWAP1 PUSH1 0x4 ADD PUSH2 0x3CB1 JUMP JUMPDEST PUSH1 0xA SLOAD DUP8 SLOAD PUSH1 0x1 PUSH1 0x1 PUSH1 0xA0 SHL SUB SWAP2 DUP3 AND SWAP2 PUSH4 0xA9059CBB SWAP2 AND PUSH2 0x2F24 PUSH1 0x2 DUP6 PUSH2 0x3D5A JUMP JUMPDEST DUP11 PUSH1 0x2 ADD SLOAD PUSH2 0x2F33 SWAP2 SWAP1 PUSH2 0x3B31 JUMP JUMPDEST PUSH1 0x40 MLOAD DUP4 PUSH4 0xFFFFFFFF AND PUSH1 0xE0 SHL DUP2 MSTORE PUSH1 0x4 ADD PUSH2 0x2F50 SWAP3 SWAP2 SWAP1 PUSH2 0x3CB1 JUMP JUMPDEST PUSH1 0x20 PUSH1 0x40 MLOAD DUP1 DUP4 SUB DUP2 PUSH1 0x0 DUP8 GAS CALL ISZERO DUP1 ISZERO PUSH2 0x2F6F JUMPI RETURNDATASIZE PUSH1 0x0 DUP1 RETURNDATACOPY RETURNDATASIZE PUSH1 0x0 REVERT JUMPDEST POP POP POP POP PUSH1 0x40 MLOAD RETURNDATASIZE PUSH1 0x1F NOT PUSH1 0x1F DUP3 ADD AND DUP3 ADD DUP1 PUSH1 0x40 MSTORE POP DUP2 ADD SWAP1 PUSH2 0x2F93 SWAP2 SWAP1 PUSH2 0x39D6 JUMP JUMPDEST POP PUSH1 0xA SLOAD PUSH1 0x1 DUP9 ADD SLOAD PUSH1 0x1 PUSH1 0x1 PUSH1 0xA0 SHL SUB SWAP2 DUP3 AND SWAP2 PUSH4 0xA9059CBB SWAP2 AND PUSH2 0x2FBA PUSH1 0x2 DUP6 PUSH2 0x3D5A JUMP JUMPDEST DUP11 PUSH1 0x3 ADD SLOAD PUSH2 0x2FC9 SWAP2 SWAP1 PUSH2 0x3B31 JUMP JUMPDEST PUSH1 0x40 MLOAD DUP4 PUSH4 0xFFFFFFFF AND PUSH1 0xE0 SHL DUP2 MSTORE PUSH1 0x4 ADD PUSH2 0x2FE6 SWAP3 SWAP2 SWAP1 PUSH2 0x3CB1 JUMP JUMPDEST PUSH1 0x20 PUSH1 0x40 MLOAD DUP1 DUP4 SUB DUP2 PUSH1 0x0 DUP8 GAS CALL ISZERO DUP1 ISZERO PUSH2 0x3005 JUMPI RETURNDATASIZE PUSH1 0x0 DUP1 RETURNDATACOPY RETURNDATASIZE PUSH1 0x0 REVERT JUMPDEST POP POP POP POP PUSH1 0x40 MLOAD RETURNDATASIZE PUSH1 0x1F NOT PUSH1 0x1F DUP3 ADD AND DUP3 ADD DUP1 PUSH1 0x40 MSTORE POP DUP2 ADD SWAP1 PUSH2 0x3029 SWAP2 SWAP1 PUSH2 0x39D6 JUMP JUMPDEST POP PUSH1 0xC SLOAD DUP8 SLOAD PUSH1 0x40 MLOAD PUSH4 0xA9059CBB PUSH1 0xE0 SHL DUP2 MSTORE PUSH1 0x1 PUSH1 0x1 PUSH1 0xA0 SHL SUB SWAP3 DUP4 AND SWAP3 PUSH4 0xA9059CBB SWAP3 PUSH2 0x3067 SWAP3 SWAP2 AND SWAP1 PUSH8 0x1BC16D674EC80000 SWAP1 PUSH1 0x4 ADD PUSH2 0x3CB1 JUMP JUMPDEST PUSH1 0x20 PUSH1 0x40 MLOAD DUP1 DUP4 SUB DUP2 PUSH1 0x0 DUP8 GAS CALL ISZERO DUP1 ISZERO PUSH2 0x3086 JUMPI RETURNDATASIZE PUSH1 0x0 DUP1 RETURNDATACOPY RETURNDATASIZE PUSH1 0x0 REVERT JUMPDEST POP POP POP POP PUSH1 0x40 MLOAD RETURNDATASIZE PUSH1 0x1F NOT PUSH1 0x1F DUP3 ADD AND DUP3 ADD DUP1 PUSH1 0x40 MSTORE POP DUP2 ADD SWAP1 PUSH2 0x30AA SWAP2 SWAP1 PUSH2 0x39D6 JUMP JUMPDEST POP PUSH1 0xC SLOAD PUSH1 0x1 DUP9 ADD SLOAD PUSH1 0x40 MLOAD PUSH4 0xA9059CBB PUSH1 0xE0 SHL DUP2 MSTORE PUSH1 0x1 PUSH1 0x1 PUSH1 0xA0 SHL SUB SWAP3 DUP4 AND SWAP3 PUSH4 0xA9059CBB SWAP3 PUSH2 0x30EB SWAP3 SWAP2 AND SWAP1 PUSH8 0x1BC16D674EC80000 SWAP1 PUSH1 0x4 ADD PUSH2 0x3CB1 JUMP JUMPDEST PUSH1 0x20 PUSH1 0x40 MLOAD DUP1 DUP4 SUB DUP2 PUSH1 0x0 DUP8 GAS CALL ISZERO DUP1 ISZERO PUSH2 0x310A JUMPI RETURNDATASIZE PUSH1 0x0 DUP1 RETURNDATACOPY RETURNDATASIZE PUSH1 0x0 REVERT JUMPDEST POP POP POP POP PUSH1 0x40 MLOAD RETURNDATASIZE PUSH1 0x1F NOT PUSH1 0x1F DUP3 ADD AND DUP3 ADD DUP1 PUSH1 0x40 MSTORE POP DUP2 ADD SWAP1 PUSH2 0x312E SWAP2 SWAP1 PUSH2 0x39D6 JUMP JUMPDEST POP JUMPDEST PUSH1 0xB SLOAD PUSH1 0x40 MLOAD PUSH4 0x70A08231 PUSH1 0xE0 SHL DUP2 MSTORE ADDRESS PUSH1 0x4 DUP3 ADD MSTORE PUSH1 0x0 SWAP2 PUSH1 0x1 PUSH1 0x1 PUSH1 0xA0 SHL SUB AND SWAP1 PUSH4 0x70A08231 SWAP1 PUSH1 0x24 ADD PUSH1 0x20 PUSH1 0x40 MLOAD DUP1 DUP4 SUB DUP2 DUP7 GAS STATICCALL ISZERO DUP1 ISZERO PUSH2 0x3179 JUMPI RETURNDATASIZE PUSH1 0x0 DUP1 RETURNDATACOPY RETURNDATASIZE PUSH1 0x0 REVERT JUMPDEST POP POP POP POP PUSH1 0x40 MLOAD RETURNDATASIZE PUSH1 0x1F NOT PUSH1 0x1F DUP3 ADD AND DUP3 ADD DUP1 PUSH1 0x40 MSTORE POP DUP2 ADD SWAP1 PUSH2 0x319D SWAP2 SWAP1 PUSH2 0x3D41 JUMP JUMPDEST GT ISZERO PUSH2 0x3294 JUMPI PUSH1 0xB SLOAD PUSH1 0x1 PUSH1 0x1 PUSH1 0xA0 SHL SUB AND PUSH4 0xA9059CBB PUSH2 0x31C6 PUSH1 0x6 SLOAD PUSH1 0x1 PUSH1 0x1 PUSH1 0xA0 SHL SUB AND SWAP1 JUMP JUMPDEST PUSH1 0xB SLOAD PUSH1 0x40 MLOAD PUSH4 0x70A08231 PUSH1 0xE0 SHL DUP2 MSTORE ADDRESS PUSH1 0x4 DUP3 ADD MSTORE PUSH1 0x1 PUSH1 0x1 PUSH1 0xA0 SHL SUB SWAP1 SWAP2 AND SWAP1 PUSH4 0x70A08231 SWAP1 PUSH1 0x24 ADD PUSH1 0x20 PUSH1 0x40 MLOAD DUP1 DUP4 SUB DUP2 DUP7 GAS STATICCALL ISZERO DUP1 ISZERO PUSH2 0x320E JUMPI RETURNDATASIZE PUSH1 0x0 DUP1 RETURNDATACOPY RETURNDATASIZE PUSH1 0x0 REVERT JUMPDEST POP POP POP POP PUSH1 0x40 MLOAD RETURNDATASIZE PUSH1 0x1F NOT PUSH1 0x1F DUP3 ADD AND DUP3 ADD DUP1 PUSH1 0x40 MSTORE POP DUP2 ADD SWAP1 PUSH2 0x3232 SWAP2 SWAP1 PUSH2 0x3D41 JUMP JUMPDEST PUSH1 0x40 MLOAD DUP4 PUSH4 0xFFFFFFFF AND PUSH1 0xE0 SHL DUP2 MSTORE PUSH1 0x4 ADD PUSH2 0x324F SWAP3 SWAP2 SWAP1 PUSH2 0x3CB1 JUMP JUMPDEST PUSH1 0x20 PUSH1 0x40 MLOAD DUP1 DUP4 SUB DUP2 PUSH1 0x0 DUP8 GAS CALL ISZERO DUP1 ISZERO PUSH2 0x326E JUMPI RETURNDATASIZE PUSH1 0x0 DUP1 RETURNDATACOPY RETURNDATASIZE PUSH1 0x0 REVERT JUMPDEST POP POP POP POP PUSH1 0x40 MLOAD RETURNDATASIZE PUSH1 0x1F NOT PUSH1 0x1F DUP3 ADD AND DUP3 ADD DUP1 PUSH1 0x40 MSTORE POP DUP2 ADD SWAP1 PUSH2 0x3292 SWAP2 SWAP1 PUSH2 0x39D6 JUMP JUMPDEST POP JUMPDEST PUSH1 0x40 DUP1 MLOAD DUP10 DUP2 MSTORE PUSH1 0x20 DUP2 ADD DUP4 SWAP1 MSTORE PUSH32 0x6F014AA1FC0C12B56C099FA8727BBF780907046B16C01199F4092F5C721187AB SWAP2 ADD PUSH1 0x40 MLOAD DUP1 SWAP2 SUB SWAP1 LOG1 POP POP POP POP POP POP POP POP JUMP JUMPDEST PUSH1 0x6 DUP1 SLOAD PUSH1 0x1 PUSH1 0x1 PUSH1 0xA0 SHL SUB DUP4 DUP2 AND PUSH1 0x1 PUSH1 0x1 PUSH1 0xA0 SHL SUB NOT DUP4 AND DUP2 OR SWAP1 SWAP4 SSTORE PUSH1 0x40 MLOAD SWAP2 AND SWAP2 SWAP1 DUP3 SWAP1 PUSH32 0x8BE0079C531659141344CD1FD0A4F28419497F9722A3DAAFE3B4186F6B6457E0 SWAP1 PUSH1 0x0 SWAP1 LOG3 POP POP JUMP JUMPDEST DUP2 PUSH1 0x1 PUSH1 0x1 PUSH1 0xA0 SHL SUB AND DUP4 PUSH1 0x1 PUSH1 0x1 PUSH1 0xA0 SHL SUB AND SUB PUSH2 0x338A JUMPI PUSH1 0x40 MLOAD PUSH3 0x461BCD PUSH1 0xE5 SHL DUP2 MSTORE PUSH1 0x20 PUSH1 0x4 DUP3 ADD MSTORE PUSH1 0x19 PUSH1 0x24 DUP3 ADD MSTORE PUSH32 0x4552433732313A20617070726F766520746F2063616C6C657200000000000000 PUSH1 0x44 DUP3 ADD MSTORE PUSH1 0x64 ADD PUSH2 0x628 JUMP JUMPDEST PUSH1 0x1 PUSH1 0x1 PUSH1 0xA0 SHL SUB DUP4 DUP2 AND PUSH1 0x0 DUP2 DUP2 MSTORE PUSH1 0x5 PUSH1 0x20 SWAP1 DUP2 MSTORE PUSH1 0x40 DUP1 DUP4 KECCAK256 SWAP5 DUP8 AND DUP1 DUP5 MSTORE SWAP5 DUP3 MSTORE SWAP2 DUP3 SWAP1 KECCAK256 DUP1 SLOAD PUSH1 0xFF NOT AND DUP7 ISZERO ISZERO SWAP1 DUP2 OR SWAP1 SWAP2 SSTORE SWAP2 MLOAD SWAP2 DUP3 MSTORE PUSH32 0x17307EAB39AB6107E8899845AD3D59BD9653F200F220920489CA2B5937696C31 SWAP2 ADD PUSH1 0x40 MLOAD DUP1 SWAP2 SUB SWAP1 LOG3 POP POP POP JUMP JUMPDEST PUSH2 0x3402 DUP5 DUP5 DUP5 PUSH2 0x2530 JUMP JUMPDEST PUSH2 0x340E DUP5 DUP5 DUP5 DUP5 PUSH2 0x342A JUMP JUMPDEST PUSH2 0x227C JUMPI PUSH1 0x40 MLOAD PUSH3 0x461BCD PUSH1 0xE5 SHL DUP2 MSTORE PUSH1 0x4 ADD PUSH2 0x628 SWAP1 PUSH2 0x3E06 JUMP JUMPDEST PUSH1 0x0 PUSH1 0x1 PUSH1 0x1 PUSH1 0xA0 SHL SUB DUP5 AND EXTCODESIZE ISZERO PUSH2 0x3520 JUMPI PUSH1 0x40 MLOAD PUSH4 0xA85BD01 PUSH1 0xE1 SHL DUP2 MSTORE PUSH1 0x1 PUSH1 0x1 PUSH1 0xA0 SHL SUB DUP6 AND SWAP1 PUSH4 0x150B7A02 SWAP1 PUSH2 0x346E SWAP1 CALLER SWAP1 DUP10 SWAP1 DUP9 SWAP1 DUP9 SWAP1 PUSH1 0x4 ADD PUSH2 0x3E58 JUMP JUMPDEST PUSH1 0x20 PUSH1 0x40 MLOAD DUP1 DUP4 SUB DUP2 PUSH1 0x0 DUP8 GAS CALL SWAP3 POP POP POP DUP1 ISZERO PUSH2 0x34A9 JUMPI POP PUSH1 0x40 DUP1 MLOAD PUSH1 0x1F RETURNDATASIZE SWAP1 DUP2 ADD PUSH1 0x1F NOT AND DUP3 ADD SWAP1 SWAP3 MSTORE PUSH2 0x34A6 SWAP2 DUP2 ADD SWAP1 PUSH2 0x3E95 JUMP JUMPDEST PUSH1 0x1 JUMPDEST PUSH2 0x3506 JUMPI RETURNDATASIZE DUP1 DUP1 ISZERO PUSH2 0x34D7 JUMPI PUSH1 0x40 MLOAD SWAP2 POP PUSH1 0x1F NOT PUSH1 0x3F RETURNDATASIZE ADD AND DUP3 ADD PUSH1 0x40 MSTORE RETURNDATASIZE DUP3 MSTORE RETURNDATASIZE PUSH1 0x0 PUSH1 0x20 DUP5 ADD RETURNDATACOPY PUSH2 0x34DC JUMP JUMPDEST PUSH1 0x60 SWAP2 POP JUMPDEST POP DUP1 MLOAD PUSH1 0x0 SUB PUSH2 0x34FE JUMPI PUSH1 0x40 MLOAD PUSH3 0x461BCD PUSH1 0xE5 SHL DUP2 MSTORE PUSH1 0x4 ADD PUSH2 0x628 SWAP1 PUSH2 0x3E06 JUMP JUMPDEST DUP1 MLOAD DUP2 PUSH1 0x20 ADD REVERT JUMPDEST PUSH1 0x1 PUSH1 0x1 PUSH1 0xE0 SHL SUB NOT AND PUSH4 0xA85BD01 PUSH1 0xE1 SHL EQ SWAP1 POP PUSH2 0x2528 JUMP JUMPDEST POP PUSH1 0x1 SWAP5 SWAP4 POP POP POP POP JUMP JUMPDEST PUSH1 0x1 PUSH1 0x1 PUSH1 0xE0 SHL SUB NOT DUP2 AND DUP2 EQ PUSH2 0x1B67 JUMPI PUSH1 0x0 DUP1 REVERT JUMPDEST PUSH1 0x0 PUSH1 0x20 DUP3 DUP5 SUB SLT ISZERO PUSH2 0x3553 JUMPI PUSH1 0x0 DUP1 REVERT JUMPDEST DUP2 CALLDATALOAD PUSH2 0x355E DUP2 PUSH2 0x352B JUMP JUMPDEST SWAP4 SWAP3 POP POP POP JUMP JUMPDEST PUSH1 0x0 DUP2 MLOAD DUP1 DUP5 MSTORE PUSH1 0x0 JUMPDEST DUP2 DUP2 LT ISZERO PUSH2 0x358B JUMPI PUSH1 0x20 DUP2 DUP6 ADD DUP2 ADD MLOAD DUP7 DUP4 ADD DUP3 ADD MSTORE ADD PUSH2 0x356F JUMP JUMPDEST POP PUSH1 0x0 PUSH1 0x20 DUP3 DUP7 ADD ADD MSTORE PUSH1 0x20 PUSH1 0x1F NOT PUSH1 0x1F DUP4 ADD AND DUP6 ADD ADD SWAP2 POP POP SWAP3 SWAP2 POP POP JUMP JUMPDEST PUSH1 0x20 DUP2 MSTORE PUSH1 0x0 PUSH2 0x355E PUSH1 0x20 DUP4 ADD DUP5 PUSH2 0x3565 JUMP JUMPDEST PUSH1 0x0 PUSH1 0x20 DUP3 DUP5 SUB SLT ISZERO PUSH2 0x35D0 JUMPI PUSH1 0x0 DUP1 REVERT JUMPDEST POP CALLDATALOAD SWAP2 SWAP1 POP JUMP JUMPDEST DUP1 CALLDATALOAD PUSH1 0x1 PUSH1 0x1 PUSH1 0xA0 SHL SUB DUP2 AND DUP2 EQ PUSH2 0x35EE JUMPI PUSH1 0x0 DUP1 REVERT JUMPDEST SWAP2 SWAP1 POP JUMP JUMPDEST PUSH1 0x0 DUP1 PUSH1 0x40 DUP4 DUP6 SUB SLT ISZERO PUSH2 0x3606 JUMPI PUSH1 0x0 DUP1 REVERT JUMPDEST PUSH2 0x360F DUP4 PUSH2 0x35D7 JUMP JUMPDEST SWAP5 PUSH1 0x20 SWAP4 SWAP1 SWAP4 ADD CALLDATALOAD SWAP4 POP POP POP JUMP JUMPDEST PUSH1 0x1 PUSH1 0x1 PUSH1 0xA0 SHL SUB DUP11 DUP2 AND DUP3 MSTORE DUP10 AND PUSH1 0x20 DUP3 ADD MSTORE PUSH1 0x40 DUP2 ADD DUP9 SWAP1 MSTORE PUSH1 0x60 DUP2 ADD DUP8 SWAP1 MSTORE PUSH2 0x120 PUSH1 0x80 DUP3 ADD DUP2 SWAP1 MSTORE PUSH1 0x0 SWAP1 PUSH2 0x3658 DUP4 DUP3 ADD DUP10 PUSH2 0x3565 JUMP JUMPDEST SWAP7 ISZERO ISZERO PUSH1 0xA0 DUP5 ADD MSTORE POP POP SWAP3 ISZERO ISZERO PUSH1 0xC0 DUP5 ADD MSTORE SWAP1 ISZERO ISZERO PUSH1 0xE0 DUP4 ADD MSTORE PUSH2 0x100 SWAP1 SWAP2 ADD MSTORE SWAP6 SWAP5 POP POP POP POP POP JUMP JUMPDEST PUSH1 0x0 DUP1 PUSH1 0x0 PUSH1 0x60 DUP5 DUP7 SUB SLT ISZERO PUSH2 0x3697 JUMPI PUSH1 0x0 DUP1 REVERT JUMPDEST PUSH2 0x36A0 DUP5 PUSH2 0x35D7 JUMP JUMPDEST SWAP3 POP PUSH2 0x36AE PUSH1 0x20 DUP6 ADD PUSH2 0x35D7 JUMP JUMPDEST SWAP2 POP PUSH1 0x40 DUP5 ADD CALLDATALOAD SWAP1 POP SWAP3 POP SWAP3 POP SWAP3 JUMP JUMPDEST PUSH1 0x0 DUP1 DUP4 PUSH1 0x1F DUP5 ADD SLT PUSH2 0x36D0 JUMPI PUSH1 0x0 DUP1 REVERT JUMPDEST POP DUP2 CALLDATALOAD PUSH8 0xFFFFFFFFFFFFFFFF DUP2 GT ISZERO PUSH2 0x36E8 JUMPI PUSH1 0x0 DUP1 REVERT JUMPDEST PUSH1 0x20 DUP4 ADD SWAP2 POP DUP4 PUSH1 0x20 DUP3 DUP6 ADD ADD GT ISZERO PUSH2 0x3700 JUMPI PUSH1 0x0 DUP1 REVERT JUMPDEST SWAP3 POP SWAP3 SWAP1 POP JUMP JUMPDEST PUSH1 0x0 DUP1 PUSH1 0x0 DUP1 PUSH1 0x0 PUSH1 0x60 DUP7 DUP9 SUB SLT ISZERO PUSH2 0x371F JUMPI PUSH1 0x0 DUP1 REVERT JUMPDEST DUP6 CALLDATALOAD SWAP5 POP PUSH1 0x20 DUP7 ADD CALLDATALOAD PUSH8 0xFFFFFFFFFFFFFFFF DUP1 DUP3 GT ISZERO PUSH2 0x373E JUMPI PUSH1 0x0 DUP1 REVERT JUMPDEST PUSH2 0x374A DUP10 DUP4 DUP11 ADD PUSH2 0x36BE JUMP JUMPDEST SWAP1 SWAP7 POP SWAP5 POP PUSH1 0x40 DUP9 ADD CALLDATALOAD SWAP2 POP DUP1 DUP3 GT ISZERO PUSH2 0x3763 JUMPI PUSH1 0x0 DUP1 REVERT JUMPDEST POP PUSH2 0x3770 DUP9 DUP3 DUP10 ADD PUSH2 0x36BE JUMP JUMPDEST SWAP7 SWAP10 SWAP6 SWAP9 POP SWAP4 SWAP7 POP SWAP3 SWAP5 SWAP4 SWAP3 POP POP POP JUMP JUMPDEST DUP1 ISZERO ISZERO DUP2 EQ PUSH2 0x1B67 JUMPI PUSH1 0x0 DUP1 REVERT JUMPDEST PUSH1 0x0 DUP1 PUSH1 0x40 DUP4 DUP6 SUB SLT ISZERO PUSH2 0x37A2 JUMPI PUSH1 0x0 DUP1 REVERT JUMPDEST DUP3 CALLDATALOAD SWAP2 POP PUSH1 0x20 DUP4 ADD CALLDATALOAD PUSH2 0x37B4 DUP2 PUSH2 0x3781 JUMP JUMPDEST DUP1 SWAP2 POP POP SWAP3 POP SWAP3 SWAP1 POP JUMP JUMPDEST PUSH1 0x0 PUSH1 0x20 DUP3 DUP5 SUB SLT ISZERO PUSH2 0x37D1 JUMPI PUSH1 0x0 DUP1 REVERT JUMPDEST PUSH2 0x355E DUP3 PUSH2 0x35D7 JUMP JUMPDEST PUSH1 0x0 DUP1 PUSH1 0x40 DUP4 DUP6 SUB SLT ISZERO PUSH2 0x37ED JUMPI PUSH1 0x0 DUP1 REVERT JUMPDEST PUSH2 0x37F6 DUP4 PUSH2 0x35D7 JUMP JUMPDEST SWAP2 POP PUSH1 0x20 DUP4 ADD CALLDATALOAD PUSH2 0x37B4 DUP2 PUSH2 0x3781 JUMP JUMPDEST PUSH4 0x4E487B71 PUSH1 0xE0 SHL PUSH1 0x0 MSTORE PUSH1 0x41 PUSH1 0x4 MSTORE PUSH1 0x24 PUSH1 0x0 REVERT JUMPDEST PUSH1 0x0 DUP1 PUSH1 0x0 DUP1 PUSH1 0x80 DUP6 DUP8 SUB SLT ISZERO PUSH2 0x3832 JUMPI PUSH1 0x0 DUP1 REVERT JUMPDEST PUSH2 0x383B DUP6 PUSH2 0x35D7 JUMP JUMPDEST SWAP4 POP PUSH2 0x3849 PUSH1 0x20 DUP7 ADD PUSH2 0x35D7 JUMP JUMPDEST SWAP3 POP PUSH1 0x40 DUP6 ADD CALLDATALOAD SWAP2 POP PUSH1 0x60 DUP6 ADD CALLDATALOAD PUSH8 0xFFFFFFFFFFFFFFFF DUP1 DUP3 GT ISZERO PUSH2 0x386D JUMPI PUSH1 0x0 DUP1 REVERT JUMPDEST DUP2 DUP8 ADD SWAP2 POP DUP8 PUSH1 0x1F DUP4 ADD SLT PUSH2 0x3881 JUMPI PUSH1 0x0 DUP1 REVERT JUMPDEST DUP2 CALLDATALOAD DUP2 DUP2 GT ISZERO PUSH2 0x3893 JUMPI PUSH2 0x3893 PUSH2 0x3806 JUMP JUMPDEST PUSH1 0x40 MLOAD PUSH1 0x1F DUP3 ADD PUSH1 0x1F NOT SWAP1 DUP2 AND PUSH1 0x3F ADD AND DUP2 ADD SWAP1 DUP4 DUP3 GT DUP2 DUP4 LT OR ISZERO PUSH2 0x38BB JUMPI PUSH2 0x38BB PUSH2 0x3806 JUMP JUMPDEST DUP2 PUSH1 0x40 MSTORE DUP3 DUP2 MSTORE DUP11 PUSH1 0x20 DUP5 DUP8 ADD ADD GT ISZERO PUSH2 0x38D4 JUMPI PUSH1 0x0 DUP1 REVERT JUMPDEST DUP3 PUSH1 0x20 DUP7 ADD PUSH1 0x20 DUP4 ADD CALLDATACOPY PUSH1 0x0 PUSH1 0x20 DUP5 DUP4 ADD ADD MSTORE DUP1 SWAP6 POP POP POP POP POP POP SWAP3 SWAP6 SWAP2 SWAP5 POP SWAP3 POP JUMP JUMPDEST PUSH1 0x0 DUP1 PUSH1 0x40 DUP4 DUP6 SUB SLT ISZERO PUSH2 0x390B JUMPI PUSH1 0x0 DUP1 REVERT JUMPDEST PUSH2 0x3914 DUP4 PUSH2 0x35D7 JUMP JUMPDEST SWAP2 POP PUSH2 0x3922 PUSH1 0x20 DUP5 ADD PUSH2 0x35D7 JUMP JUMPDEST SWAP1 POP SWAP3 POP SWAP3 SWAP1 POP JUMP JUMPDEST PUSH1 0x1 DUP2 DUP2 SHR SWAP1 DUP3 AND DUP1 PUSH2 0x393F JUMPI PUSH1 0x7F DUP3 AND SWAP2 POP JUMPDEST PUSH1 0x20 DUP3 LT DUP2 SUB PUSH2 0x395F JUMPI PUSH4 0x4E487B71 PUSH1 0xE0 SHL PUSH1 0x0 MSTORE PUSH1 0x22 PUSH1 0x4 MSTORE PUSH1 0x24 PUSH1 0x0 REVERT JUMPDEST POP SWAP2 SWAP1 POP JUMP JUMPDEST PUSH1 0x20 DUP1 DUP3 MSTORE PUSH1 0x2D SWAP1 DUP3 ADD MSTORE PUSH32 0x4552433732313A2063616C6C6572206973206E6F7420746F6B656E206F776E65 PUSH1 0x40 DUP3 ADD MSTORE PUSH13 0x1C881BDC88185C1C1C9BDD9959 PUSH1 0x9A SHL PUSH1 0x60 DUP3 ADD MSTORE PUSH1 0x80 ADD SWAP1 JUMP JUMPDEST PUSH1 0x1 PUSH1 0x1 PUSH1 0xA0 SHL SUB SWAP4 DUP5 AND DUP2 MSTORE SWAP2 SWAP1 SWAP3 AND PUSH1 0x20 DUP3 ADD MSTORE PUSH1 0x40 DUP2 ADD SWAP2 SWAP1 SWAP2 MSTORE PUSH1 0x60 ADD SWAP1 JUMP JUMPDEST PUSH1 0x0 PUSH1 0x20 DUP3 DUP5 SUB SLT ISZERO PUSH2 0x39E8 JUMPI PUSH1 0x0 DUP1 REVERT JUMPDEST DUP2 MLOAD PUSH2 0x355E DUP2 PUSH2 0x3781 JUMP JUMPDEST PUSH4 0x4E487B71 PUSH1 0xE0 SHL PUSH1 0x0 MSTORE PUSH1 0x11 PUSH1 0x4 MSTORE PUSH1 0x24 PUSH1 0x0 REVERT JUMPDEST PUSH1 0x0 PUSH1 0x1 DUP3 ADD PUSH2 0x3A1B JUMPI PUSH2 0x3A1B PUSH2 0x39F3 JUMP JUMPDEST POP PUSH1 0x1 ADD SWAP1 JUMP JUMPDEST PUSH1 0x1F DUP3 GT ISZERO PUSH2 0x6C9 JUMPI PUSH1 0x0 DUP2 DUP2 MSTORE PUSH1 0x20 DUP2 KECCAK256 PUSH1 0x1F DUP6 ADD PUSH1 0x5 SHR DUP2 ADD PUSH1 0x20 DUP7 LT ISZERO PUSH2 0x3A49 JUMPI POP DUP1 JUMPDEST PUSH1 0x1F DUP6 ADD PUSH1 0x5 SHR DUP3 ADD SWAP2 POP JUMPDEST DUP2 DUP2 LT ISZERO PUSH2 0x3A68 JUMPI DUP3 DUP2 SSTORE PUSH1 0x1 ADD PUSH2 0x3A55 JUMP JUMPDEST POP POP POP POP POP POP JUMP JUMPDEST PUSH8 0xFFFFFFFFFFFFFFFF DUP4 GT ISZERO PUSH2 0x3A88 JUMPI PUSH2 0x3A88 PUSH2 0x3806 JUMP JUMPDEST PUSH2 0x3A9C DUP4 PUSH2 0x3A96 DUP4 SLOAD PUSH2 0x392B JUMP JUMPDEST DUP4 PUSH2 0x3A22 JUMP JUMPDEST PUSH1 0x0 PUSH1 0x1F DUP5 GT PUSH1 0x1 DUP2 EQ PUSH2 0x3AD0 JUMPI PUSH1 0x0 DUP6 ISZERO PUSH2 0x3AB8 JUMPI POP DUP4 DUP3 ADD CALLDATALOAD JUMPDEST PUSH1 0x0 NOT PUSH1 0x3 DUP8 SWAP1 SHL SHR NOT AND PUSH1 0x1 DUP7 SWAP1 SHL OR DUP4 SSTORE PUSH2 0x3B2A JUMP JUMPDEST PUSH1 0x0 DUP4 DUP2 MSTORE PUSH1 0x20 SWAP1 KECCAK256 PUSH1 0x1F NOT DUP7 AND SWAP1 DUP4 JUMPDEST DUP3 DUP2 LT ISZERO PUSH2 0x3B01 JUMPI DUP7 DUP6 ADD CALLDATALOAD DUP3 SSTORE PUSH1 0x20 SWAP5 DUP6 ADD SWAP5 PUSH1 0x1 SWAP1 SWAP3 ADD SWAP2 ADD PUSH2 0x3AE1 JUMP JUMPDEST POP DUP7 DUP3 LT ISZERO PUSH2 0x3B1E JUMPI PUSH1 0x0 NOT PUSH1 0xF8 DUP9 PUSH1 0x3 SHL AND SHR NOT DUP5 DUP8 ADD CALLDATALOAD AND DUP2 SSTORE JUMPDEST POP POP PUSH1 0x1 DUP6 PUSH1 0x1 SHL ADD DUP4 SSTORE JUMPDEST POP POP POP POP POP JUMP JUMPDEST DUP1 DUP3 ADD DUP1 DUP3 GT ISZERO PUSH2 0x4F5 JUMPI PUSH2 0x4F5 PUSH2 0x39F3 JUMP JUMPDEST DUP2 MLOAD PUSH8 0xFFFFFFFFFFFFFFFF DUP2 GT ISZERO PUSH2 0x3B5E JUMPI PUSH2 0x3B5E PUSH2 0x3806 JUMP JUMPDEST PUSH2 0x3B72 DUP2 PUSH2 0x3B6C DUP5 SLOAD PUSH2 0x392B JUMP JUMPDEST DUP5 PUSH2 0x3A22 JUMP JUMPDEST PUSH1 0x20 DUP1 PUSH1 0x1F DUP4 GT PUSH1 0x1 DUP2 EQ PUSH2 0x3BA7 JUMPI PUSH1 0x0 DUP5 ISZERO PUSH2 0x3B8F JUMPI POP DUP6 DUP4 ADD MLOAD JUMPDEST PUSH1 0x0 NOT PUSH1 0x3 DUP7 SWAP1 SHL SHR NOT AND PUSH1 0x1 DUP6 SWAP1 SHL OR DUP6 SSTORE PUSH2 0x3A68 JUMP JUMPDEST PUSH1 0x0 DUP6 DUP2 MSTORE PUSH1 0x20 DUP2 KECCAK256 PUSH1 0x1F NOT DUP7 AND SWAP2 JUMPDEST DUP3 DUP2 LT ISZERO PUSH2 0x3BD6 JUMPI DUP9 DUP7 ADD MLOAD DUP3 SSTORE SWAP5 DUP5 ADD SWAP5 PUSH1 0x1 SWAP1 SWAP2 ADD SWAP1 DUP5 ADD PUSH2 0x3BB7 JUMP JUMPDEST POP DUP6 DUP3 LT ISZERO PUSH2 0x3BF4 JUMPI DUP8 DUP6 ADD MLOAD PUSH1 0x0 NOT PUSH1 0x3 DUP9 SWAP1 SHL PUSH1 0xF8 AND SHR NOT AND DUP2 SSTORE JUMPDEST POP POP POP POP POP PUSH1 0x1 SWAP1 DUP2 SHL ADD SWAP1 SSTORE POP JUMP JUMPDEST DUP6 DUP2 MSTORE PUSH1 0x1 PUSH1 0x1 PUSH1 0xA0 SHL SUB DUP6 AND PUSH1 0x20 DUP3 ADD MSTORE PUSH1 0x80 PUSH1 0x40 DUP3 ADD DUP2 SWAP1 MSTORE DUP2 ADD DUP4 SWAP1 MSTORE DUP3 DUP5 PUSH1 0xA0 DUP4 ADD CALLDATACOPY PUSH1 0x0 PUSH1 0xA0 DUP5 DUP4 ADD ADD MSTORE PUSH1 0x0 PUSH1 0xA0 PUSH1 0x1F NOT PUSH1 0x1F DUP7 ADD AND DUP4 ADD ADD SWAP1 POP DUP3 PUSH1 0x60 DUP4 ADD MSTORE SWAP7 SWAP6 POP POP POP POP POP POP JUMP JUMPDEST PUSH1 0x20 DUP1 DUP3 MSTORE PUSH1 0x14 SWAP1 DUP3 ADD MSTORE PUSH20 0x10995D08185B1C9958591E481C995CDBDB1D9959 PUSH1 0x62 SHL PUSH1 0x40 DUP3 ADD MSTORE PUSH1 0x60 ADD SWAP1 JUMP JUMPDEST PUSH1 0x20 DUP1 DUP3 MSTORE PUSH1 0x14 SWAP1 DUP3 ADD MSTORE PUSH20 0x10995D081B9BDD081858D8D95C1D1959081E595D PUSH1 0x62 SHL PUSH1 0x40 DUP3 ADD MSTORE PUSH1 0x60 ADD SWAP1 JUMP JUMPDEST PUSH1 0x1 PUSH1 0x1 PUSH1 0xA0 SHL SUB SWAP3 SWAP1 SWAP3 AND DUP3 MSTORE PUSH1 0x20 DUP3 ADD MSTORE PUSH1 0x40 ADD SWAP1 JUMP JUMPDEST PUSH1 0x1 PUSH1 0x1 PUSH1 0xA0 SHL SUB SWAP8 DUP9 AND DUP2 MSTORE SWAP6 DUP8 AND PUSH1 0x20 DUP8 ADD MSTORE PUSH1 0x40 DUP7 ADD SWAP5 SWAP1 SWAP5 MSTORE PUSH1 0x60 DUP6 ADD SWAP3 SWAP1 SWAP3 MSTORE PUSH1 0x80 DUP5 ADD MSTORE SWAP1 SWAP3 AND PUSH1 0xA0 DUP3 ADD MSTORE PUSH1 0xC0 DUP2 ADD SWAP2 SWAP1 SWAP2 MSTORE PUSH1 0xE0 ADD SWAP1 JUMP JUMPDEST PUSH1 0x0 DUP1 PUSH1 0x40 DUP4 DUP6 SUB SLT ISZERO PUSH2 0x3D1D JUMPI PUSH1 0x0 DUP1 REVERT JUMPDEST POP POP DUP1 MLOAD PUSH1 0x20 SWAP1 SWAP2 ADD MLOAD SWAP1 SWAP3 SWAP1 SWAP2 POP JUMP JUMPDEST DUP2 DUP2 SUB DUP2 DUP2 GT ISZERO PUSH2 0x4F5 JUMPI PUSH2 0x4F5 PUSH2 0x39F3 JUMP JUMPDEST PUSH1 0x0 PUSH1 0x20 DUP3 DUP5 SUB SLT ISZERO PUSH2 0x3D53 JUMPI PUSH1 0x0 DUP1 REVERT JUMPDEST POP MLOAD SWAP2 SWAP1 POP JUMP JUMPDEST PUSH1 0x0 DUP3 PUSH2 0x3D77 JUMPI PUSH4 0x4E487B71 PUSH1 0xE0 SHL PUSH1 0x0 MSTORE PUSH1 0x12 PUSH1 0x4 MSTORE PUSH1 0x24 PUSH1 0x0 REVERT JUMPDEST POP DIV SWAP1 JUMP JUMPDEST DUP1 DUP3 MUL DUP2 ISZERO DUP3 DUP3 DIV DUP5 EQ OR PUSH2 0x4F5 JUMPI PUSH2 0x4F5 PUSH2 0x39F3 JUMP JUMPDEST PUSH1 0x0 DUP1 PUSH1 0x0 PUSH1 0x60 DUP5 DUP7 SUB SLT ISZERO PUSH2 0x3DA8 JUMPI PUSH1 0x0 DUP1 REVERT JUMPDEST DUP4 MLOAD SWAP3 POP PUSH1 0x20 DUP5 ADD MLOAD SWAP2 POP PUSH1 0x40 DUP5 ADD MLOAD SWAP1 POP SWAP3 POP SWAP3 POP SWAP3 JUMP JUMPDEST PUSH1 0x20 DUP1 DUP3 MSTORE PUSH1 0x25 SWAP1 DUP3 ADD MSTORE PUSH32 0x4552433732313A207472616E736665722066726F6D20696E636F727265637420 PUSH1 0x40 DUP3 ADD MSTORE PUSH5 0x37BBB732B9 PUSH1 0xD9 SHL PUSH1 0x60 DUP3 ADD MSTORE PUSH1 0x80 ADD SWAP1 JUMP JUMPDEST PUSH1 0x20 DUP1 DUP3 MSTORE PUSH1 0x32 SWAP1 DUP3 ADD MSTORE PUSH32 0x4552433732313A207472616E7366657220746F206E6F6E204552433732315265 PUSH1 0x40 DUP3 ADD MSTORE PUSH18 0x31B2B4BB32B91034B6B83632B6B2B73A32B9 PUSH1 0x71 SHL PUSH1 0x60 DUP3 ADD MSTORE PUSH1 0x80 ADD SWAP1 JUMP JUMPDEST PUSH1 0x1 PUSH1 0x1 PUSH1 0xA0 SHL SUB DUP6 DUP2 AND DUP3 MSTORE DUP5 AND PUSH1 0x20 DUP3 ADD MSTORE PUSH1 0x40 DUP2 ADD DUP4 SWAP1 MSTORE PUSH1 0x80 PUSH1 0x60 DUP3 ADD DUP2 SWAP1 MSTORE PUSH1 0x0 SWAP1 PUSH2 0x3E8B SWAP1 DUP4 ADD DUP5 PUSH2 0x3565 JUMP JUMPDEST SWAP7 SWAP6 POP POP POP POP POP POP JUMP JUMPDEST PUSH1 0x0 PUSH1 0x20 DUP3 DUP5 SUB SLT ISZERO PUSH2 0x3EA7 JUMPI PUSH1 0x0 DUP1 REVERT JUMPDEST DUP2 MLOAD PUSH2 0x355E DUP2 PUSH2 0x352B JUMP INVALID LOG2 PUSH5 0x6970667358 0x22 SLT KECCAK256 SDIV CODESIZE DUP12 0xDD SLOAD PUSH31 0xEBEEEEBF8B2B5989C30A78A7CF50443B4ED0FBAD6CD6E38F41C664736F6C63 NUMBER STOP ADDMOD SGT STOP CALLER "},"methodIdentifiers":{"BET_DURATION()":"e53d4c2d","acceptBet(uint256)":"6c0c27e1","approve(address,uint256)":"095ea7b3","balanceOf(address)":"70a08231","betCounter()":"a416f5ab","betLiquidity(uint256)":"ad0de5bc","betM3Token()":"24697399","bets(uint256)":"22af00fa","celoToken()":"e22d551a","createBet(uint256,string,string)":"292e9556","fundCommunityPool(uint256)":"dee68623","fundStableTokenPool(uint256)":"54e16c65","getApproved(uint256)":"081812fc","isApprovedForAll(address,address)":"e985e9c5","lpToken()":"5fcbd285","name()":"06fdde03","owner()":"8da5cb5b","ownerOf(uint256)":"6352211e","renounceOwnership()":"715018a6","resolveBet(uint256)":"4c36c36e","resolveDispute(uint256,bool)":"34b25ee2","safeTransferFrom(address,address,uint256)":"42842e0e","safeTransferFrom(address,address,uint256,bytes)":"b88d4fde","setApprovalForAll(address,bool)":"a22cb465","stableToken()":"a9d75b2b","submitOutcome(uint256,bool)":"41b80300","supportsInterface(bytes4)":"01ffc9a7","symbol()":"95d89b41","tokenURI(uint256)":"c87b56dd","tokenURIs(uint256)":"6c8b703f","transferFrom(address,address,uint256)":"23b872dd","transferOwnership(address)":"f2fde38b","uniswapRouter()":"735de9f7"}}}}}