{
  "_format": "hh-sol-artifact-1",
  "contractName": "AavePoolMock",
  "sourceName": "packages/hardhat/contracts/AavePoolMock.sol",
  "abi": [
    {
      "inputs": [
        {
          "internalType": "address",
          "name": "_token",
          "type": "address"
        }
      ],
      "stateMutability": "nonpayable",
      "type": "constructor"
    },
    {
      "inputs": [
        {
          "internalType": "address",
          "name": "",
          "type": "address"
        }
      ],
      "name": "balances",
      "outputs": [
        {
          "internalType": "uint256",
          "name": "",
          "type": "uint256"
        }
      ],
      "stateMutability": "view",
      "type": "function"
    },
    {
      "inputs": [
        {
          "internalType": "uint256",
          "name": "_yieldRate",
          "type": "uint256"
        }
      ],
      "name": "setYieldRate",
      "outputs": [],
      "stateMutability": "nonpayable",
      "type": "function"
    },
    {
      "inputs": [
        {
          "internalType": "address",
          "name": "asset",
          "type": "address"
        },
        {
          "internalType": "uint256",
          "name": "amount",
          "type": "uint256"
        },
        {
          "internalType": "address",
          "name": "onBehalfOf",
          "type": "address"
        },
        {
          "internalType": "uint16",
          "name": "referralCode",
          "type": "uint16"
        }
      ],
      "name": "supply",
      "outputs": [],
      "stateMutability": "nonpayable",
      "type": "function"
    },
    {
      "inputs": [],
      "name": "token",
      "outputs": [
        {
          "internalType": "contract IERC20",
          "name": "",
          "type": "address"
        }
      ],
      "stateMutability": "view",
      "type": "function"
    },
    {
      "inputs": [
        {
          "internalType": "address",
          "name": "asset",
          "type": "address"
        },
        {
          "internalType": "uint256",
          "name": "amount",
          "type": "uint256"
        },
        {
          "internalType": "address",
          "name": "to",
          "type": "address"
        }
      ],
      "name": "withdraw",
      "outputs": [
        {
          "internalType": "uint256",
          "name": "",
          "type": "uint256"
        }
      ],
      "stateMutability": "nonpayable",
      "type": "function"
    },
    {
      "inputs": [],
      "name": "yieldRate",
      "outputs": [
        {
          "internalType": "uint256",
          "name": "",
          "type": "uint256"
        }
      ],
      "stateMutability": "view",
      "type": "function"
    }
  ],
  "bytecode": "0x6080604052600a60025534801561001557600080fd5b50604051610c58380380610c58833981810160405281019061003791906100e0565b806000806101000a81548173ffffffffffffffffffffffffffffffffffffffff021916908373ffffffffffffffffffffffffffffffffffffffff1602179055505061010d565b600080fd5b600073ffffffffffffffffffffffffffffffffffffffff82169050919050565b60006100ad82610082565b9050919050565b6100bd816100a2565b81146100c857600080fd5b50565b6000815190506100da816100b4565b92915050565b6000602082840312156100f6576100f561007d565b5b6000610104848285016100cb565b91505092915050565b610b3c8061011c6000396000f3fe608060405234801561001057600080fd5b50600436106100625760003560e01c80631411dab01461006757806327e235e314610083578063617ba037146100b357806369328dec146100cf5780636999ac93146100ff578063fc0c546a1461011d575b600080fd5b610081600480360381019061007c91906105c0565b61013b565b005b61009d6004803603810190610098919061064b565b610145565b6040516100aa9190610687565b60405180910390f35b6100cd60048036038101906100c891906106dc565b61015d565b005b6100e960048036038101906100e49190610743565b6102e8565b6040516100f69190610687565b60405180910390f35b61010761055b565b6040516101149190610687565b60405180910390f35b610125610561565b60405161013291906107f5565b60405180910390f35b8060028190555050565b60016020528060005260406000206000915090505481565b60008054906101000a900473ffffffffffffffffffffffffffffffffffffffff1673ffffffffffffffffffffffffffffffffffffffff168473ffffffffffffffffffffffffffffffffffffffff16146101eb576040517f08c379a00000000000000000000000000000000000000000000000000000000081526004016101e29061086d565b60405180910390fd5b60008054906101000a900473ffffffffffffffffffffffffffffffffffffffff1673ffffffffffffffffffffffffffffffffffffffff166323b872dd3330866040518463ffffffff1660e01b81526004016102489392919061089c565b6020604051808303816000875af1158015610267573d6000803e3d6000fd5b505050506040513d601f19601f8201168201806040525081019061028b919061090b565b5082600160008473ffffffffffffffffffffffffffffffffffffffff1673ffffffffffffffffffffffffffffffffffffffff16815260200190815260200160002060008282546102db9190610967565b9250508190555050505050565b60008060009054906101000a900473ffffffffffffffffffffffffffffffffffffffff1673ffffffffffffffffffffffffffffffffffffffff168473ffffffffffffffffffffffffffffffffffffffff1614610379576040517f08c379a00000000000000000000000000000000000000000000000000000000081526004016103709061086d565b60405180910390fd5b6000600160003373ffffffffffffffffffffffffffffffffffffffff1673ffffffffffffffffffffffffffffffffffffffff1681526020019081526020016000205490507fffffffffffffffffffffffffffffffffffffffffffffffffffffffffffffffff84036103e8578093505b8084111561042b576040517f08c379a0000000000000000000000000000000000000000000000000000000008152600401610422906109e7565b60405180910390fd5b600060646002548661043d9190610a07565b6104479190610a78565b9050600081866104579190610967565b905085600160003373ffffffffffffffffffffffffffffffffffffffff1673ffffffffffffffffffffffffffffffffffffffff16815260200190815260200160002060008282546104a89190610aa9565b9250508190555060008054906101000a900473ffffffffffffffffffffffffffffffffffffffff1673ffffffffffffffffffffffffffffffffffffffff1663a9059cbb86836040518363ffffffff1660e01b815260040161050a929190610add565b6020604051808303816000875af1158015610529573d6000803e3d6000fd5b505050506040513d601f19601f8201168201806040525081019061054d919061090b565b508093505050509392505050565b60025481565b60008054906101000a900473ffffffffffffffffffffffffffffffffffffffff1681565b600080fd5b6000819050919050565b61059d8161058a565b81146105a857600080fd5b50565b6000813590506105ba81610594565b92915050565b6000602082840312156105d6576105d5610585565b5b60006105e4848285016105ab565b91505092915050565b600073ffffffffffffffffffffffffffffffffffffffff82169050919050565b6000610618826105ed565b9050919050565b6106288161060d565b811461063357600080fd5b50565b6000813590506106458161061f565b92915050565b60006020828403121561066157610660610585565b5b600061066f84828501610636565b91505092915050565b6106818161058a565b82525050565b600060208201905061069c6000830184610678565b92915050565b600061ffff82169050919050565b6106b9816106a2565b81146106c457600080fd5b50565b6000813590506106d6816106b0565b92915050565b600080600080608085870312156106f6576106f5610585565b5b600061070487828801610636565b9450506020610715878288016105ab565b935050604061072687828801610636565b9250506060610737878288016106c7565b91505092959194509250565b60008060006060848603121561075c5761075b610585565b5b600061076a86828701610636565b935050602061077b868287016105ab565b925050604061078c86828701610636565b9150509250925092565b6000819050919050565b60006107bb6107b66107b1846105ed565b610796565b6105ed565b9050919050565b60006107cd826107a0565b9050919050565b60006107df826107c2565b9050919050565b6107ef816107d4565b82525050565b600060208201905061080a60008301846107e6565b92915050565b600082825260208201905092915050565b7f496e76616c696420746f6b656e00000000000000000000000000000000000000600082015250565b6000610857600d83610810565b915061086282610821565b602082019050919050565b600060208201905081810360008301526108868161084a565b9050919050565b6108968161060d565b82525050565b60006060820190506108b1600083018661088d565b6108be602083018561088d565b6108cb6040830184610678565b949350505050565b60008115159050919050565b6108e8816108d3565b81146108f357600080fd5b50565b600081519050610905816108df565b92915050565b60006020828403121561092157610920610585565b5b600061092f848285016108f6565b91505092915050565b7f4e487b7100000000000000000000000000000000000000000000000000000000600052601160045260246000fd5b60006109728261058a565b915061097d8361058a565b925082820190508082111561099557610994610938565b5b92915050565b7f496e73756666696369656e742062616c616e6365000000000000000000000000600082015250565b60006109d1601483610810565b91506109dc8261099b565b602082019050919050565b60006020820190508181036000830152610a00816109c4565b9050919050565b6000610a128261058a565b9150610a1d8361058a565b9250828202610a2b8161058a565b91508282048414831517610a4257610a41610938565b5b5092915050565b7f4e487b7100000000000000000000000000000000000000000000000000000000600052601260045260246000fd5b6000610a838261058a565b9150610a8e8361058a565b925082610a9e57610a9d610a49565b5b828204905092915050565b6000610ab48261058a565b9150610abf8361058a565b9250828203905081811115610ad757610ad6610938565b5b92915050565b6000604082019050610af2600083018561088d565b610aff6020830184610678565b939250505056fea264697066735822122098b9e3d1f5de1cccc9e06e54eb11770fdcea2fc3c6c47c7a85cc190f854a484e64736f6c63430008130033",
  "linkReferences": {},
  "deployedLinkReferences": {}
}