{
  "_format": "hh-sol-artifact-1",
  "contractName": "AavePoolMock",
  "sourceName": "packages/hardhat/contracts/AavePoolMock.sol",
  "abi": [
    {
      "inputs": [
        {
          "internalType": "address",
          "name": "_token",
          "type": "address"
        }
      ],
      "stateMutability": "nonpayable",
      "type": "constructor"
    },
    {
      "inputs": [
        {
          "internalType": "address",
          "name": "",
          "type": "address"
        }
      ],
      "name": "balances",
      "outputs": [
        {
          "internalType": "uint256",
          "name": "",
          "type": "uint256"
        }
      ],
      "stateMutability": "view",
      "type": "function"
    },
    {
      "inputs": [
        {
          "internalType": "int256",
          "name": "_yieldRate",
          "type": "int256"
        }
      ],
      "name": "setYieldRate",
      "outputs": [],
      "stateMutability": "nonpayable",
      "type": "function"
    },
    {
      "inputs": [
        {
          "internalType": "uint256",
          "name": "lossPercentage",
          "type": "uint256"
        }
      ],
      "name": "simulateMarketLoss",
      "outputs": [],
      "stateMutability": "nonpayable",
      "type": "function"
    },
    {
      "inputs": [
        {
          "internalType": "address",
          "name": "asset",
          "type": "address"
        },
        {
          "internalType": "uint256",
          "name": "amount",
          "type": "uint256"
        },
        {
          "internalType": "address",
          "name": "onBehalfOf",
          "type": "address"
        },
        {
          "internalType": "uint16",
          "name": "referralCode",
          "type": "uint16"
        }
      ],
      "name": "supply",
      "outputs": [],
      "stateMutability": "nonpayable",
      "type": "function"
    },
    {
      "inputs": [],
      "name": "token",
      "outputs": [
        {
          "internalType": "contract IMintableBurnableToken",
          "name": "",
          "type": "address"
        }
      ],
      "stateMutability": "view",
      "type": "function"
    },
    {
      "inputs": [
        {
          "internalType": "address",
          "name": "asset",
          "type": "address"
        },
        {
          "internalType": "uint256",
          "name": "amount",
          "type": "uint256"
        },
        {
          "internalType": "address",
          "name": "to",
          "type": "address"
        }
      ],
      "name": "withdraw",
      "outputs": [
        {
          "internalType": "uint256",
          "name": "",
          "type": "uint256"
        }
      ],
      "stateMutability": "nonpayable",
      "type": "function"
    },
    {
      "inputs": [],
      "name": "yieldRate",
      "outputs": [
        {
          "internalType": "int256",
          "name": "",
          "type": "int256"
        }
      ],
      "stateMutability": "view",
      "type": "function"
    }
  ],
  "bytecode": "0x6080604052600a60025534801561001557600080fd5b5060405161093738038061093783398101604081905261003491610059565b600080546001600160a01b0319166001600160a01b0392909216919091179055610089565b60006020828403121561006b57600080fd5b81516001600160a01b038116811461008257600080fd5b9392505050565b61089f806100986000396000f3fe608060405234801561001057600080fd5b506004361061007d5760003560e01c8063617ba0371161005b578063617ba037146100dd57806369328dec146100f05780636999ac9314610103578063fc0c546a1461010c57600080fd5b8063024b6f091461008257806327e235e31461009757806339bfd8c0146100ca575b600080fd5b610095610090366004610648565b610137565b005b6100b76100a536600461067d565b60016020526000908152604090205481565b6040519081526020015b60405180910390f35b6100956100d8366004610648565b600255565b6100956100eb36600461069f565b610298565b6100b76100fe3660046106f5565b610399565b6100b760025481565b60005461011f906001600160a01b031681565b6040516001600160a01b0390911681526020016100c1565b600080546040516370a0823160e01b81523060048201526001600160a01b03909116906370a0823190602401602060405180830381865afa158015610180573d6000803e3d6000fd5b505050506040513d601f19601f820116820180604052508101906101a49190610731565b9050600060646101b48484610760565b6101be9190610793565b600054604051630852cd8d60e31b8152600481018390529192506001600160a01b0316906342966c6890602401600060405180830381600087803b15801561020557600080fd5b505af1925050508015610216575060015b6102935760005460405163a9059cbb60e01b815261dead6004820152602481018390526001600160a01b039091169063a9059cbb906044016020604051808303816000875af115801561026d573d6000803e3d6000fd5b505050506040513d601f19601f8201168201806040525081019061029191906107a7565b505b505050565b6000546001600160a01b038581169116146102ea5760405162461bcd60e51b815260206004820152600d60248201526c24b73b30b634b2103a37b5b2b760991b60448201526064015b60405180910390fd5b6000546040516323b872dd60e01b8152336004820152306024820152604481018590526001600160a01b03909116906323b872dd906064016020604051808303816000875af1158015610341573d6000803e3d6000fd5b505050506040513d601f19601f8201168201806040525081019061036591906107a7565b506001600160a01b0382166000908152600160205260408120805485929061038e9084906107c9565b909155505050505050565b600080546001600160a01b038581169116146103e75760405162461bcd60e51b815260206004820152600d60248201526c24b73b30b634b2103a37b5b2b760991b60448201526064016102e1565b33600090815260016020819052604090912054908401610405578093505b8084111561044c5760405162461bcd60e51b8152602060048201526014602482015273496e73756666696369656e742062616c616e636560601b60448201526064016102e1565b600060646002548661045e91906107dc565b610468919061080c565b9050600080821261057a5761047d82876107c9565b600080546040516370a0823160e01b815230600482015292935090916001600160a01b03909116906370a0823190602401602060405180830381865afa1580156104cb573d6000803e3d6000fd5b505050506040513d601f19601f820116820180604052508101906104ef9190610731565b905081811015610574576000546001600160a01b03166340c10f1930610515848661083a565b6040516001600160e01b031960e085901b1681526001600160a01b0390921660048301526024820152604401600060405180830381600087803b15801561055b57600080fd5b505af192505050801561056c575060015b610574578091505b506105a2565b60006105858361084d565b9050808711610594578661059e565b61059e818861083a565b9150505b33600090815260016020526040812080548892906105c190849061083a565b909155505060005460405163a9059cbb60e01b81526001600160a01b038781166004830152602482018490529091169063a9059cbb906044016020604051808303816000875af1158015610619573d6000803e3d6000fd5b505050506040513d601f19601f8201168201806040525081019061063d91906107a7565b509695505050505050565b60006020828403121561065a57600080fd5b5035919050565b80356001600160a01b038116811461067857600080fd5b919050565b60006020828403121561068f57600080fd5b61069882610661565b9392505050565b600080600080608085870312156106b557600080fd5b6106be85610661565b9350602085013592506106d360408601610661565b9150606085013561ffff811681146106ea57600080fd5b939692955090935050565b60008060006060848603121561070a57600080fd5b61071384610661565b92506020840135915061072860408501610661565b90509250925092565b60006020828403121561074357600080fd5b5051919050565b634e487b7160e01b600052601160045260246000fd5b80820281158282048414176107775761077761074a565b92915050565b634e487b7160e01b600052601260045260246000fd5b6000826107a2576107a261077d565b500490565b6000602082840312156107b957600080fd5b8151801515811461069857600080fd5b808201808211156107775761077761074a565b80820260008212600160ff1b841416156107f8576107f861074a565b81810583148215176107775761077761074a565b60008261081b5761081b61077d565b600160ff1b8214600019841416156108355761083561074a565b500590565b818103818111156107775761077761074a565b6000600160ff1b82016108625761086261074a565b506000039056fea2646970667358221220c5f957df9cd951a65c8bcf0c025e5fb9aaf2a10b31a5556a69f638f9e0e1240964736f6c63430008130033",
  "linkReferences": {},
  "deployedLinkReferences": {}
}