{
  "_format": "hh-sol-artifact-1",
  "contractName": "NoLossBet",
  "sourceName": "packages/hardhat/contracts/NoLossBet.sol",
  "abi": [
    {
      "inputs": [
        {
          "internalType": "address",
          "name": "_celoToken",
          "type": "address"
        },
        {
          "internalType": "address",
          "name": "_betM3Token",
          "type": "address"
        },
        {
          "internalType": "address",
          "name": "_aavePool",
          "type": "address"
        }
      ],
      "stateMutability": "nonpayable",
      "type": "constructor"
    },
    {
      "anonymous": false,
      "inputs": [
        {
          "indexed": true,
          "internalType": "address",
          "name": "owner",
          "type": "address"
        },
        {
          "indexed": true,
          "internalType": "address",
          "name": "approved",
          "type": "address"
        },
        {
          "indexed": true,
          "internalType": "uint256",
          "name": "tokenId",
          "type": "uint256"
        }
      ],
      "name": "Approval",
      "type": "event"
    },
    {
      "anonymous": false,
      "inputs": [
        {
          "indexed": true,
          "internalType": "address",
          "name": "owner",
          "type": "address"
        },
        {
          "indexed": true,
          "internalType": "address",
          "name": "operator",
          "type": "address"
        },
        {
          "indexed": false,
          "internalType": "bool",
          "name": "approved",
          "type": "bool"
        }
      ],
      "name": "ApprovalForAll",
      "type": "event"
    },
    {
      "anonymous": false,
      "inputs": [
        {
          "indexed": false,
          "internalType": "uint256",
          "name": "betId",
          "type": "uint256"
        },
        {
          "indexed": false,
          "internalType": "address",
          "name": "opponent",
          "type": "address"
        }
      ],
      "name": "BetAccepted",
      "type": "event"
    },
    {
      "anonymous": false,
      "inputs": [
        {
          "indexed": false,
          "internalType": "uint256",
          "name": "betId",
          "type": "uint256"
        },
        {
          "indexed": false,
          "internalType": "address",
          "name": "creator",
          "type": "address"
        },
        {
          "indexed": false,
          "internalType": "string",
          "name": "condition",
          "type": "string"
        }
      ],
      "name": "BetCreated",
      "type": "event"
    },
    {
      "anonymous": false,
      "inputs": [
        {
          "indexed": false,
          "internalType": "uint256",
          "name": "betId",
          "type": "uint256"
        },
        {
          "indexed": false,
          "internalType": "uint256",
          "name": "totalYield",
          "type": "uint256"
        }
      ],
      "name": "BetResolved",
      "type": "event"
    },
    {
      "anonymous": false,
      "inputs": [
        {
          "indexed": false,
          "internalType": "uint256",
          "name": "betId",
          "type": "uint256"
        },
        {
          "indexed": false,
          "internalType": "address",
          "name": "winner",
          "type": "address"
        }
      ],
      "name": "DisputeResolved",
      "type": "event"
    },
    {
      "anonymous": false,
      "inputs": [
        {
          "indexed": false,
          "internalType": "uint256",
          "name": "betId",
          "type": "uint256"
        },
        {
          "indexed": false,
          "internalType": "bool",
          "name": "success",
          "type": "bool"
        }
      ],
      "name": "OutcomeSubmitted",
      "type": "event"
    },
    {
      "anonymous": false,
      "inputs": [
        {
          "indexed": true,
          "internalType": "address",
          "name": "previousOwner",
          "type": "address"
        },
        {
          "indexed": true,
          "internalType": "address",
          "name": "newOwner",
          "type": "address"
        }
      ],
      "name": "OwnershipTransferred",
      "type": "event"
    },
    {
      "anonymous": false,
      "inputs": [
        {
          "indexed": true,
          "internalType": "address",
          "name": "from",
          "type": "address"
        },
        {
          "indexed": true,
          "internalType": "address",
          "name": "to",
          "type": "address"
        },
        {
          "indexed": true,
          "internalType": "uint256",
          "name": "tokenId",
          "type": "uint256"
        }
      ],
      "name": "Transfer",
      "type": "event"
    },
    {
      "inputs": [],
      "name": "aavePool",
      "outputs": [
        {
          "internalType": "contract IPool",
          "name": "",
          "type": "address"
        }
      ],
      "stateMutability": "view",
      "type": "function"
    },
    {
      "inputs": [
        {
          "internalType": "uint256",
          "name": "_betId",
          "type": "uint256"
        }
      ],
      "name": "acceptBet",
      "outputs": [],
      "stateMutability": "nonpayable",
      "type": "function"
    },
    {
      "inputs": [
        {
          "internalType": "address",
          "name": "to",
          "type": "address"
        },
        {
          "internalType": "uint256",
          "name": "tokenId",
          "type": "uint256"
        }
      ],
      "name": "approve",
      "outputs": [],
      "stateMutability": "nonpayable",
      "type": "function"
    },
    {
      "inputs": [
        {
          "internalType": "address",
          "name": "owner",
          "type": "address"
        }
      ],
      "name": "balanceOf",
      "outputs": [
        {
          "internalType": "uint256",
          "name": "",
          "type": "uint256"
        }
      ],
      "stateMutability": "view",
      "type": "function"
    },
    {
      "inputs": [],
      "name": "betCounter",
      "outputs": [
        {
          "internalType": "uint256",
          "name": "",
          "type": "uint256"
        }
      ],
      "stateMutability": "view",
      "type": "function"
    },
    {
      "inputs": [],
      "name": "betM3Token",
      "outputs": [
        {
          "internalType": "contract IERC20",
          "name": "",
          "type": "address"
        }
      ],
      "stateMutability": "view",
      "type": "function"
    },
    {
      "inputs": [
        {
          "internalType": "uint256",
          "name": "",
          "type": "uint256"
        }
      ],
      "name": "bets",
      "outputs": [
        {
          "internalType": "address",
          "name": "creator",
          "type": "address"
        },
        {
          "internalType": "address",
          "name": "opponent",
          "type": "address"
        },
        {
          "internalType": "uint256",
          "name": "creatorStake",
          "type": "uint256"
        },
        {
          "internalType": "uint256",
          "name": "opponentStake",
          "type": "uint256"
        },
        {
          "internalType": "string",
          "name": "condition",
          "type": "string"
        },
        {
          "internalType": "bool",
          "name": "creatorOutcome",
          "type": "bool"
        },
        {
          "internalType": "bool",
          "name": "opponentOutcome",
          "type": "bool"
        },
        {
          "internalType": "bool",
          "name": "resolved",
          "type": "bool"
        }
      ],
      "stateMutability": "view",
      "type": "function"
    },
    {
      "inputs": [],
      "name": "celoToken",
      "outputs": [
        {
          "internalType": "contract IERC20",
          "name": "",
          "type": "address"
        }
      ],
      "stateMutability": "view",
      "type": "function"
    },
    {
      "inputs": [
        {
          "internalType": "uint256",
          "name": "_opponentStake",
          "type": "uint256"
        },
        {
          "internalType": "string",
          "name": "_condition",
          "type": "string"
        },
        {
          "internalType": "string",
          "name": "_tokenURI",
          "type": "string"
        }
      ],
      "name": "createBet",
      "outputs": [],
      "stateMutability": "nonpayable",
      "type": "function"
    },
    {
      "inputs": [
        {
          "internalType": "uint256",
          "name": "amount",
          "type": "uint256"
        }
      ],
      "name": "fundCommunityPool",
      "outputs": [],
      "stateMutability": "nonpayable",
      "type": "function"
    },
    {
      "inputs": [
        {
          "internalType": "uint256",
          "name": "tokenId",
          "type": "uint256"
        }
      ],
      "name": "getApproved",
      "outputs": [
        {
          "internalType": "address",
          "name": "",
          "type": "address"
        }
      ],
      "stateMutability": "view",
      "type": "function"
    },
    {
      "inputs": [
        {
          "internalType": "address",
          "name": "owner",
          "type": "address"
        },
        {
          "internalType": "address",
          "name": "operator",
          "type": "address"
        }
      ],
      "name": "isApprovedForAll",
      "outputs": [
        {
          "internalType": "bool",
          "name": "",
          "type": "bool"
        }
      ],
      "stateMutability": "view",
      "type": "function"
    },
    {
      "inputs": [],
      "name": "name",
      "outputs": [
        {
          "internalType": "string",
          "name": "",
          "type": "string"
        }
      ],
      "stateMutability": "view",
      "type": "function"
    },
    {
      "inputs": [],
      "name": "owner",
      "outputs": [
        {
          "internalType": "address",
          "name": "",
          "type": "address"
        }
      ],
      "stateMutability": "view",
      "type": "function"
    },
    {
      "inputs": [
        {
          "internalType": "uint256",
          "name": "tokenId",
          "type": "uint256"
        }
      ],
      "name": "ownerOf",
      "outputs": [
        {
          "internalType": "address",
          "name": "",
          "type": "address"
        }
      ],
      "stateMutability": "view",
      "type": "function"
    },
    {
      "inputs": [],
      "name": "renounceOwnership",
      "outputs": [],
      "stateMutability": "nonpayable",
      "type": "function"
    },
    {
      "inputs": [
        {
          "internalType": "uint256",
          "name": "_betId",
          "type": "uint256"
        }
      ],
      "name": "resolveBet",
      "outputs": [],
      "stateMutability": "nonpayable",
      "type": "function"
    },
    {
      "inputs": [
        {
          "internalType": "uint256",
          "name": "_betId",
          "type": "uint256"
        },
        {
          "internalType": "bool",
          "name": "_creatorWins",
          "type": "bool"
        }
      ],
      "name": "resolveDispute",
      "outputs": [],
      "stateMutability": "nonpayable",
      "type": "function"
    },
    {
      "inputs": [
        {
          "internalType": "address",
          "name": "from",
          "type": "address"
        },
        {
          "internalType": "address",
          "name": "to",
          "type": "address"
        },
        {
          "internalType": "uint256",
          "name": "tokenId",
          "type": "uint256"
        }
      ],
      "name": "safeTransferFrom",
      "outputs": [],
      "stateMutability": "nonpayable",
      "type": "function"
    },
    {
      "inputs": [
        {
          "internalType": "address",
          "name": "from",
          "type": "address"
        },
        {
          "internalType": "address",
          "name": "to",
          "type": "address"
        },
        {
          "internalType": "uint256",
          "name": "tokenId",
          "type": "uint256"
        },
        {
          "internalType": "bytes",
          "name": "data",
          "type": "bytes"
        }
      ],
      "name": "safeTransferFrom",
      "outputs": [],
      "stateMutability": "nonpayable",
      "type": "function"
    },
    {
      "inputs": [
        {
          "internalType": "address",
          "name": "operator",
          "type": "address"
        },
        {
          "internalType": "bool",
          "name": "approved",
          "type": "bool"
        }
      ],
      "name": "setApprovalForAll",
      "outputs": [],
      "stateMutability": "nonpayable",
      "type": "function"
    },
    {
      "inputs": [
        {
          "internalType": "uint256",
          "name": "_betId",
          "type": "uint256"
        },
        {
          "internalType": "bool",
          "name": "_success",
          "type": "bool"
        }
      ],
      "name": "submitOutcome",
      "outputs": [],
      "stateMutability": "nonpayable",
      "type": "function"
    },
    {
      "inputs": [
        {
          "internalType": "bytes4",
          "name": "interfaceId",
          "type": "bytes4"
        }
      ],
      "name": "supportsInterface",
      "outputs": [
        {
          "internalType": "bool",
          "name": "",
          "type": "bool"
        }
      ],
      "stateMutability": "view",
      "type": "function"
    },
    {
      "inputs": [],
      "name": "symbol",
      "outputs": [
        {
          "internalType": "string",
          "name": "",
          "type": "string"
        }
      ],
      "stateMutability": "view",
      "type": "function"
    },
    {
      "inputs": [
        {
          "internalType": "uint256",
          "name": "tokenId",
          "type": "uint256"
        }
      ],
      "name": "tokenURI",
      "outputs": [
        {
          "internalType": "string",
          "name": "",
          "type": "string"
        }
      ],
      "stateMutability": "view",
      "type": "function"
    },
    {
      "inputs": [
        {
          "internalType": "uint256",
          "name": "",
          "type": "uint256"
        }
      ],
      "name": "tokenURIs",
      "outputs": [
        {
          "internalType": "string",
          "name": "",
          "type": "string"
        }
      ],
      "stateMutability": "view",
      "type": "function"
    },
    {
      "inputs": [
        {
          "internalType": "address",
          "name": "from",
          "type": "address"
        },
        {
          "internalType": "address",
          "name": "to",
          "type": "address"
        },
        {
          "internalType": "uint256",
          "name": "tokenId",
          "type": "uint256"
        }
      ],
      "name": "transferFrom",
      "outputs": [],
      "stateMutability": "nonpayable",
      "type": "function"
    },
    {
      "inputs": [
        {
          "internalType": "address",
          "name": "newOwner",
          "type": "address"
        }
      ],
      "name": "transferOwnership",
      "outputs": [],
      "stateMutability": "nonpayable",
      "type": "function"
    }
  ],
  "bytecode": "0x60806040523480156200001157600080fd5b5060405162005a2338038062005a238339818101604052810190620000379190620002fe565b6040518060400160405280600981526020017f4e6f4c6f737342657400000000000000000000000000000000000000000000008152506040518060400160405280600381526020017f4e4c4200000000000000000000000000000000000000000000000000000000008152508160009081620000b49190620005d4565b508060019081620000c69190620005d4565b505050620000e9620000dd620001c660201b60201c565b620001ce60201b60201c565b620000fa33620001ce60201b60201c565b82600960006101000a81548173ffffffffffffffffffffffffffffffffffffffff021916908373ffffffffffffffffffffffffffffffffffffffff16021790555081600a60006101000a81548173ffffffffffffffffffffffffffffffffffffffff021916908373ffffffffffffffffffffffffffffffffffffffff16021790555080600b60006101000a81548173ffffffffffffffffffffffffffffffffffffffff021916908373ffffffffffffffffffffffffffffffffffffffff160217905550505050620006bb565b600033905090565b6000600660009054906101000a900473ffffffffffffffffffffffffffffffffffffffff16905081600660006101000a81548173ffffffffffffffffffffffffffffffffffffffff021916908373ffffffffffffffffffffffffffffffffffffffff1602179055508173ffffffffffffffffffffffffffffffffffffffff168173ffffffffffffffffffffffffffffffffffffffff167f8be0079c531659141344cd1fd0a4f28419497f9722a3daafe3b4186f6b6457e060405160405180910390a35050565b600080fd5b600073ffffffffffffffffffffffffffffffffffffffff82169050919050565b6000620002c68262000299565b9050919050565b620002d881620002b9565b8114620002e457600080fd5b50565b600081519050620002f881620002cd565b92915050565b6000806000606084860312156200031a576200031962000294565b5b60006200032a86828701620002e7565b93505060206200033d86828701620002e7565b92505060406200035086828701620002e7565b9150509250925092565b600081519050919050565b7f4e487b7100000000000000000000000000000000000000000000000000000000600052604160045260246000fd5b7f4e487b7100000000000000000000000000000000000000000000000000000000600052602260045260246000fd5b60006002820490506001821680620003dc57607f821691505b602082108103620003f257620003f162000394565b5b50919050565b60008190508160005260206000209050919050565b60006020601f8301049050919050565b600082821b905092915050565b6000600883026200045c7fffffffffffffffffffffffffffffffffffffffffffffffffffffffffffffffff826200041d565b6200046886836200041d565b95508019841693508086168417925050509392505050565b6000819050919050565b6000819050919050565b6000620004b5620004af620004a98462000480565b6200048a565b62000480565b9050919050565b6000819050919050565b620004d18362000494565b620004e9620004e082620004bc565b8484546200042a565b825550505050565b600090565b62000500620004f1565b6200050d818484620004c6565b505050565b5b81811015620005355762000529600082620004f6565b60018101905062000513565b5050565b601f82111562000584576200054e81620003f8565b62000559846200040d565b8101602085101562000569578190505b6200058162000578856200040d565b83018262000512565b50505b505050565b600082821c905092915050565b6000620005a96000198460080262000589565b1980831691505092915050565b6000620005c4838362000596565b9150826002028217905092915050565b620005df826200035a565b67ffffffffffffffff811115620005fb57620005fa62000365565b5b620006078254620003c3565b6200061482828562000539565b600060209050601f8311600181146200064c576000841562000637578287015190505b620006438582620005b6565b865550620006b3565b601f1984166200065c86620003f8565b60005b8281101562000686578489015182556001820191506020850194506020810190506200065f565b86831015620006a65784890151620006a2601f89168262000596565b8355505b6001600288020188555050505b505050505050565b61535880620006cb6000396000f3fe608060405234801561001057600080fd5b50600436106101c45760003560e01c80636c8b703f116100f9578063a416f5ab11610097578063dee6862311610071578063dee68623146104f6578063e22d551a14610512578063e985e9c514610530578063f2fde38b14610560576101c4565b8063a416f5ab1461048c578063b88d4fde146104aa578063c87b56dd146104c6576101c4565b80638da5cb5b116100d35780638da5cb5b1461041657806395d89b4114610434578063a03e4bc314610452578063a22cb46514610470576101c4565b80636c8b703f146103ac57806370a08231146103dc578063715018a61461040c576101c4565b8063292e95561161016657806342842e0e1161014057806342842e0e146103285780634c36c36e146103445780636352211e146103605780636c0c27e114610390576101c4565b8063292e9556146102d457806334b25ee2146102f057806341b803001461030c576101c4565b8063095ea7b3116101a2578063095ea7b31461024757806322af00fa1461026357806323b872dd1461029a57806324697399146102b6576101c4565b806301ffc9a7146101c957806306fdde03146101f9578063081812fc14610217575b600080fd5b6101e360048036038101906101de919061377a565b61057c565b6040516101f091906137c2565b60405180910390f35b61020161065e565b60405161020e919061386d565b60405180910390f35b610231600480360381019061022c91906138c5565b6106f0565b60405161023e9190613933565b60405180910390f35b610261600480360381019061025c919061397a565b610736565b005b61027d600480360381019061027891906138c5565b61084d565b6040516102919897969594939291906139c9565b60405180910390f35b6102b460048036038101906102af9190613a4e565b610984565b005b6102be6109e4565b6040516102cb9190613b00565b60405180910390f35b6102ee60048036038101906102e99190613b80565b610a0a565b005b61030a60048036038101906103059190613c41565b610d6c565b005b61032660048036038101906103219190613c41565b6113f9565b005b610342600480360381019061033d9190613a4e565b611621565b005b61035e600480360381019061035991906138c5565b611641565b005b61037a600480360381019061037591906138c5565b61202c565b6040516103879190613933565b60405180910390f35b6103aa60048036038101906103a591906138c5565b6120b2565b005b6103c660048036038101906103c191906138c5565b612514565b6040516103d3919061386d565b60405180910390f35b6103f660048036038101906103f19190613c81565b6125b4565b6040516104039190613cae565b60405180910390f35b61041461266b565b005b61041e61267f565b60405161042b9190613933565b60405180910390f35b61043c6126a9565b604051610449919061386d565b60405180910390f35b61045a61273b565b6040516104679190613cea565b60405180910390f35b61048a60048036038101906104859190613d05565b612761565b005b610494612777565b6040516104a19190613cae565b60405180910390f35b6104c460048036038101906104bf9190613e75565b61277d565b005b6104e060048036038101906104db91906138c5565b6127df565b6040516104ed919061386d565b60405180910390f35b610510600480360381019061050b91906138c5565b612884565b005b61051a612970565b6040516105279190613b00565b60405180910390f35b61054a60048036038101906105459190613ef8565b612996565b60405161055791906137c2565b60405180910390f35b61057a60048036038101906105759190613c81565b612a2a565b005b60007f80ac58cd000000000000000000000000000000000000000000000000000000007bffffffffffffffffffffffffffffffffffffffffffffffffffffffff1916827bffffffffffffffffffffffffffffffffffffffffffffffffffffffff1916148061064757507f5b5e139f000000000000000000000000000000000000000000000000000000007bffffffffffffffffffffffffffffffffffffffffffffffffffffffff1916827bffffffffffffffffffffffffffffffffffffffffffffffffffffffff1916145b80610657575061065682612aad565b5b9050919050565b60606000805461066d90613f67565b80601f016020809104026020016040519081016040528092919081815260200182805461069990613f67565b80156106e65780601f106106bb576101008083540402835291602001916106e6565b820191906000526020600020905b8154815290600101906020018083116106c957829003601f168201915b5050505050905090565b60006106fb82612b17565b6004600083815260200190815260200160002060009054906101000a900473ffffffffffffffffffffffffffffffffffffffff169050919050565b60006107418261202c565b90508073ffffffffffffffffffffffffffffffffffffffff168373ffffffffffffffffffffffffffffffffffffffff16036107b1576040517f08c379a00000000000000000000000000000000000000000000000000000000081526004016107a89061400a565b60405180910390fd5b8073ffffffffffffffffffffffffffffffffffffffff166107d0612b62565b73ffffffffffffffffffffffffffffffffffffffff1614806107ff57506107fe816107f9612b62565b612996565b5b61083e576040517f08c379a00000000000000000000000000000000000000000000000000000000081526004016108359061409c565b60405180910390fd5b6108488383612b6a565b505050565b60076020528060005260406000206000915090508060000160009054906101000a900473ffffffffffffffffffffffffffffffffffffffff16908060010160009054906101000a900473ffffffffffffffffffffffffffffffffffffffff16908060020154908060030154908060040180546108c890613f67565b80601f01602080910402602001604051908101604052809291908181526020018280546108f490613f67565b80156109415780601f1061091657610100808354040283529160200191610941565b820191906000526020600020905b81548152906001019060200180831161092457829003601f168201915b5050505050908060050160009054906101000a900460ff16908060050160019054906101000a900460ff16908060050160029054906101000a900460ff16905088565b61099561098f612b62565b82612c23565b6109d4576040517f08c379a00000000000000000000000000000000000000000000000000000000081526004016109cb9061412e565b60405180910390fd5b6109df838383612cb8565b505050565b600a60009054906101000a900473ffffffffffffffffffffffffffffffffffffffff1681565b600960009054906101000a900473ffffffffffffffffffffffffffffffffffffffff1673ffffffffffffffffffffffffffffffffffffffff166323b872dd333068056bc75e2d631000006040518463ffffffff1660e01b8152600401610a7293929190614189565b6020604051808303816000875af1158015610a91573d6000803e3d6000fd5b505050506040513d601f19601f82011682018060405250810190610ab591906141d5565b610af4576040517f08c379a0000000000000000000000000000000000000000000000000000000008152600401610aeb9061424e565b60405180910390fd5b6000600c6000815480929190610b099061429d565b919050559050610b193382612fb1565b8282600860008481526020019081526020016000209182610b3b929190614492565b506040518061010001604052803373ffffffffffffffffffffffffffffffffffffffff168152602001600073ffffffffffffffffffffffffffffffffffffffff16815260200168056bc75e2d63100000815260200187815260200186868080601f016020809104026020016040519081016040528093929190818152602001838380828437600081840152601f19601f820116905080830192505050505050508152602001600015158152602001600015158152602001600015158152506007600083815260200190815260200160002060008201518160000160006101000a81548173ffffffffffffffffffffffffffffffffffffffff021916908373ffffffffffffffffffffffffffffffffffffffff16021790555060208201518160010160006101000a81548173ffffffffffffffffffffffffffffffffffffffff021916908373ffffffffffffffffffffffffffffffffffffffff16021790555060408201518160020155606082015181600301556080820151816004019081610cc39190614562565b5060a08201518160050160006101000a81548160ff02191690831515021790555060c08201518160050160016101000a81548160ff02191690831515021790555060e08201518160050160026101000a81548160ff0219169083151502179055509050507f6ed99bb502080e4d8a350e358e001cb398d4bf12631314e1dd3eeb285be8e6de81338787604051610d5c9493929190614661565b60405180910390a1505050505050565b610d746131ce565b60006007600084815260200190815260200160002090508060050160029054906101000a900460ff1615610ddd576040517f08c379a0000000000000000000000000000000000000000000000000000000008152600401610dd4906146ed565b60405180910390fd5b8060050160019054906101000a900460ff1615158160050160009054906101000a900460ff16151503610e45576040517f08c379a0000000000000000000000000000000000000000000000000000000008152600401610e3c90614759565b60405180910390fd5b60018160050160026101000a81548160ff021916908315150217905550600081600301548260020154610e789190614779565b9050600b60009054906101000a900473ffffffffffffffffffffffffffffffffffffffff1673ffffffffffffffffffffffffffffffffffffffff166369328dec600960009054906101000a900473ffffffffffffffffffffffffffffffffffffffff167fffffffffffffffffffffffffffffffffffffffffffffffffffffffffffffffff306040518463ffffffff1660e01b8152600401610f1b939291906147ad565b6020604051808303816000875af1158015610f3a573d6000803e3d6000fd5b505050506040513d601f19601f82011682018060405250810190610f5e91906147f9565b506000600960009054906101000a900473ffffffffffffffffffffffffffffffffffffffff1673ffffffffffffffffffffffffffffffffffffffff166370a08231306040518263ffffffff1660e01b8152600401610fbc9190613933565b602060405180830381865afa158015610fd9573d6000803e3d6000fd5b505050506040513d601f19601f82011682018060405250810190610ffd91906147f9565b9050600082821161100f57600061101c565b828261101b9190614826565b5b905084156111c657600960009054906101000a900473ffffffffffffffffffffffffffffffffffffffff1673ffffffffffffffffffffffffffffffffffffffff1663a9059cbb8560000160009054906101000a900473ffffffffffffffffffffffffffffffffffffffff168387600201546110979190614779565b6040518363ffffffff1660e01b81526004016110b492919061485a565b6020604051808303816000875af11580156110d3573d6000803e3d6000fd5b505050506040513d601f19601f820116820180604052508101906110f791906141d5565b50600960009054906101000a900473ffffffffffffffffffffffffffffffffffffffff1673ffffffffffffffffffffffffffffffffffffffff1663a9059cbb8560010160009054906101000a900473ffffffffffffffffffffffffffffffffffffffff1686600301546040518363ffffffff1660e01b815260040161117d92919061485a565b6020604051808303816000875af115801561119c573d6000803e3d6000fd5b505050506040513d601f19601f820116820180604052508101906111c091906141d5565b50611364565b600960009054906101000a900473ffffffffffffffffffffffffffffffffffffffff1673ffffffffffffffffffffffffffffffffffffffff1663a9059cbb8560000160009054906101000a900473ffffffffffffffffffffffffffffffffffffffff1686600201546040518363ffffffff1660e01b815260040161124b92919061485a565b6020604051808303816000875af115801561126a573d6000803e3d6000fd5b505050506040513d601f19601f8201168201806040525081019061128e91906141d5565b50600960009054906101000a900473ffffffffffffffffffffffffffffffffffffffff1673ffffffffffffffffffffffffffffffffffffffff1663a9059cbb8560010160009054906101000a900473ffffffffffffffffffffffffffffffffffffffff168387600301546113029190614779565b6040518363ffffffff1660e01b815260040161131f92919061485a565b6020604051808303816000875af115801561133e573d6000803e3d6000fd5b505050506040513d601f19601f8201168201806040525081019061136291906141d5565b505b7ff77ceb5e091d2da041bc760667f9d5fe7a756949eaf29250ad0e60ca6f4c27d986866113b5578560010160009054906101000a900473ffffffffffffffffffffffffffffffffffffffff166113db565b8560000160009054906101000a900473ffffffffffffffffffffffffffffffffffffffff165b6040516113e9929190614883565b60405180910390a1505050505050565b60006007600084815260200190815260200160002090508060000160009054906101000a900473ffffffffffffffffffffffffffffffffffffffff1673ffffffffffffffffffffffffffffffffffffffff163373ffffffffffffffffffffffffffffffffffffffff1614806114bd57508060010160009054906101000a900473ffffffffffffffffffffffffffffffffffffffff1673ffffffffffffffffffffffffffffffffffffffff163373ffffffffffffffffffffffffffffffffffffffff16145b6114fc576040517f08c379a00000000000000000000000000000000000000000000000000000000081526004016114f3906148f8565b60405180910390fd5b8060050160029054906101000a900460ff161561154e576040517f08c379a0000000000000000000000000000000000000000000000000000000008152600401611545906146ed565b60405180910390fd5b8060000160009054906101000a900473ffffffffffffffffffffffffffffffffffffffff1673ffffffffffffffffffffffffffffffffffffffff163373ffffffffffffffffffffffffffffffffffffffff16036115c657818160050160006101000a81548160ff0219169083151502179055506115e3565b818160050160016101000a81548160ff0219169083151502179055505b7f4d0f19e37ce2918eb3ea8d2f64d9489a5d5e7bb6b7fb871e9595152a261a2ec28383604051611614929190614918565b60405180910390a1505050565b61163c8383836040518060200160405280600081525061277d565b505050565b60006007600083815260200190815260200160002090508060050160029054906101000a900460ff16156116aa576040517f08c379a00000000000000000000000000000000000000000000000000000000081526004016116a1906146ed565b60405180910390fd5b8060050160019054906101000a900460ff1615158160050160009054906101000a900460ff16151514611712576040517f08c379a00000000000000000000000000000000000000000000000000000000081526004016117099061498d565b60405180910390fd5b60018160050160026101000a81548160ff0219169083151502179055506000816003015482600201546117459190614779565b9050600b60009054906101000a900473ffffffffffffffffffffffffffffffffffffffff1673ffffffffffffffffffffffffffffffffffffffff166369328dec600960009054906101000a900473ffffffffffffffffffffffffffffffffffffffff167fffffffffffffffffffffffffffffffffffffffffffffffffffffffffffffffff306040518463ffffffff1660e01b81526004016117e8939291906147ad565b6020604051808303816000875af1158015611807573d6000803e3d6000fd5b505050506040513d601f19601f8201168201806040525081019061182b91906147f9565b506000600960009054906101000a900473ffffffffffffffffffffffffffffffffffffffff1673ffffffffffffffffffffffffffffffffffffffff166370a08231306040518263ffffffff1660e01b81526004016118899190613933565b602060405180830381865afa1580156118a6573d6000803e3d6000fd5b505050506040513d601f19601f820116820180604052508101906118ca91906147f9565b905060008282116118dc5760006118e9565b82826118e89190614826565b5b90508360050160009054906101000a900460ff1615611c7957600960009054906101000a900473ffffffffffffffffffffffffffffffffffffffff1673ffffffffffffffffffffffffffffffffffffffff1663a9059cbb8560000160009054906101000a900473ffffffffffffffffffffffffffffffffffffffff16606460508561197491906149ad565b61197e9190614a1e565b876002015461198d9190614779565b6040518363ffffffff1660e01b81526004016119aa92919061485a565b6020604051808303816000875af11580156119c9573d6000803e3d6000fd5b505050506040513d601f19601f820116820180604052508101906119ed91906141d5565b50600960009054906101000a900473ffffffffffffffffffffffffffffffffffffffff1673ffffffffffffffffffffffffffffffffffffffff1663a9059cbb8560010160009054906101000a900473ffffffffffffffffffffffffffffffffffffffff166064601485611a6091906149ad565b611a6a9190614a1e565b8760030154611a799190614779565b6040518363ffffffff1660e01b8152600401611a9692919061485a565b6020604051808303816000875af1158015611ab5573d6000803e3d6000fd5b505050506040513d601f19601f82011682018060405250810190611ad991906141d5565b50600a60009054906101000a900473ffffffffffffffffffffffffffffffffffffffff1673ffffffffffffffffffffffffffffffffffffffff1663a9059cbb8560000160009054906101000a900473ffffffffffffffffffffffffffffffffffffffff16678ac7230489e800006040518363ffffffff1660e01b8152600401611b63929190614a8a565b6020604051808303816000875af1158015611b82573d6000803e3d6000fd5b505050506040513d601f19601f82011682018060405250810190611ba691906141d5565b50600a60009054906101000a900473ffffffffffffffffffffffffffffffffffffffff1673ffffffffffffffffffffffffffffffffffffffff1663a9059cbb8560010160009054906101000a900473ffffffffffffffffffffffffffffffffffffffff16674563918244f400006040518363ffffffff1660e01b8152600401611c30929190614aee565b6020604051808303816000875af1158015611c4f573d6000803e3d6000fd5b505050506040513d601f19601f82011682018060405250810190611c7391906141d5565b50611fec565b600960009054906101000a900473ffffffffffffffffffffffffffffffffffffffff1673ffffffffffffffffffffffffffffffffffffffff1663a9059cbb8560000160009054906101000a900473ffffffffffffffffffffffffffffffffffffffff166064601485611ceb91906149ad565b611cf59190614a1e565b8760020154611d049190614779565b6040518363ffffffff1660e01b8152600401611d2192919061485a565b6020604051808303816000875af1158015611d40573d6000803e3d6000fd5b505050506040513d601f19601f82011682018060405250810190611d6491906141d5565b50600960009054906101000a900473ffffffffffffffffffffffffffffffffffffffff1673ffffffffffffffffffffffffffffffffffffffff1663a9059cbb8560010160009054906101000a900473ffffffffffffffffffffffffffffffffffffffff166064605085611dd791906149ad565b611de19190614a1e565b8760030154611df09190614779565b6040518363ffffffff1660e01b8152600401611e0d92919061485a565b6020604051808303816000875af1158015611e2c573d6000803e3d6000fd5b505050506040513d601f19601f82011682018060405250810190611e5091906141d5565b50600a60009054906101000a900473ffffffffffffffffffffffffffffffffffffffff1673ffffffffffffffffffffffffffffffffffffffff1663a9059cbb8560000160009054906101000a900473ffffffffffffffffffffffffffffffffffffffff16674563918244f400006040518363ffffffff1660e01b8152600401611eda929190614aee565b6020604051808303816000875af1158015611ef9573d6000803e3d6000fd5b505050506040513d601f19601f82011682018060405250810190611f1d91906141d5565b50600a60009054906101000a900473ffffffffffffffffffffffffffffffffffffffff1673ffffffffffffffffffffffffffffffffffffffff1663a9059cbb8560010160009054906101000a900473ffffffffffffffffffffffffffffffffffffffff16678ac7230489e800006040518363ffffffff1660e01b8152600401611fa7929190614a8a565b6020604051808303816000875af1158015611fc6573d6000803e3d6000fd5b505050506040513d601f19601f82011682018060405250810190611fea91906141d5565b505b7f6f014aa1fc0c12b56c099fa8727bbf780907046b16c01199f4092f5c721187ab858260405161201d929190614b17565b60405180910390a15050505050565b6000806120388361324c565b9050600073ffffffffffffffffffffffffffffffffffffffff168173ffffffffffffffffffffffffffffffffffffffff16036120a9576040517f08c379a00000000000000000000000000000000000000000000000000000000081526004016120a090614b8c565b60405180910390fd5b80915050919050565b6000600760008381526020019081526020016000209050600073ffffffffffffffffffffffffffffffffffffffff168160010160009054906101000a900473ffffffffffffffffffffffffffffffffffffffff1673ffffffffffffffffffffffffffffffffffffffff161461215c576040517f08c379a000000000000000000000000000000000000000000000000000000000815260040161215390614bf8565b60405180910390fd5b8060000160009054906101000a900473ffffffffffffffffffffffffffffffffffffffff1673ffffffffffffffffffffffffffffffffffffffff163373ffffffffffffffffffffffffffffffffffffffff16036121ee576040517f08c379a00000000000000000000000000000000000000000000000000000000081526004016121e590614c64565b60405180910390fd5b600960009054906101000a900473ffffffffffffffffffffffffffffffffffffffff1673ffffffffffffffffffffffffffffffffffffffff166323b872dd333084600301546040518463ffffffff1660e01b815260040161225193929190614c84565b6020604051808303816000875af1158015612270573d6000803e3d6000fd5b505050506040513d601f19601f8201168201806040525081019061229491906141d5565b6122d3576040517f08c379a00000000000000000000000000000000000000000000000000000000081526004016122ca9061424e565b60405180910390fd5b338160010160006101000a81548173ffffffffffffffffffffffffffffffffffffffff021916908373ffffffffffffffffffffffffffffffffffffffff1602179055506123458160000160009054906101000a900473ffffffffffffffffffffffffffffffffffffffff163384612cb8565b60008160030154826002015461235b9190614779565b9050600960009054906101000a900473ffffffffffffffffffffffffffffffffffffffff1673ffffffffffffffffffffffffffffffffffffffff1663095ea7b3600b60009054906101000a900473ffffffffffffffffffffffffffffffffffffffff16836040518363ffffffff1660e01b81526004016123dc92919061485a565b6020604051808303816000875af11580156123fb573d6000803e3d6000fd5b505050506040513d601f19601f8201168201806040525081019061241f91906141d5565b50600b60009054906101000a900473ffffffffffffffffffffffffffffffffffffffff1673ffffffffffffffffffffffffffffffffffffffff1663617ba037600960009054906101000a900473ffffffffffffffffffffffffffffffffffffffff16833060006040518563ffffffff1660e01b81526004016124a49493929190614d04565b600060405180830381600087803b1580156124be57600080fd5b505af11580156124d2573d6000803e3d6000fd5b505050507fb727a22534e43d337addefe6245e691859b29f7bf356bc7e6d77ff92070fe1248333604051612507929190614883565b60405180910390a1505050565b6008602052806000526040600020600091509050805461253390613f67565b80601f016020809104026020016040519081016040528092919081815260200182805461255f90613f67565b80156125ac5780601f10612581576101008083540402835291602001916125ac565b820191906000526020600020905b81548152906001019060200180831161258f57829003601f168201915b505050505081565b60008073ffffffffffffffffffffffffffffffffffffffff168273ffffffffffffffffffffffffffffffffffffffff1603612624576040517f08c379a000000000000000000000000000000000000000000000000000000000815260040161261b90614dbb565b60405180910390fd5b600360008373ffffffffffffffffffffffffffffffffffffffff1673ffffffffffffffffffffffffffffffffffffffff168152602001908152602001600020549050919050565b6126736131ce565b61267d6000613289565b565b6000600660009054906101000a900473ffffffffffffffffffffffffffffffffffffffff16905090565b6060600180546126b890613f67565b80601f01602080910402602001604051908101604052809291908181526020018280546126e490613f67565b80156127315780601f1061270657610100808354040283529160200191612731565b820191906000526020600020905b81548152906001019060200180831161271457829003601f168201915b5050505050905090565b600b60009054906101000a900473ffffffffffffffffffffffffffffffffffffffff1681565b61277361276c612b62565b838361334f565b5050565b600c5481565b61278e612788612b62565b83612c23565b6127cd576040517f08c379a00000000000000000000000000000000000000000000000000000000081526004016127c49061412e565b60405180910390fd5b6127d9848484846134bb565b50505050565b60606008600083815260200190815260200160002080546127ff90613f67565b80601f016020809104026020016040519081016040528092919081815260200182805461282b90613f67565b80156128785780601f1061284d57610100808354040283529160200191612878565b820191906000526020600020905b81548152906001019060200180831161285b57829003601f168201915b50505050509050919050565b61288c6131ce565b600a60009054906101000a900473ffffffffffffffffffffffffffffffffffffffff1673ffffffffffffffffffffffffffffffffffffffff166323b872dd3330846040518463ffffffff1660e01b81526004016128eb93929190614c84565b6020604051808303816000875af115801561290a573d6000803e3d6000fd5b505050506040513d601f19601f8201168201806040525081019061292e91906141d5565b61296d576040517f08c379a000000000000000000000000000000000000000000000000000000000815260040161296490614e27565b60405180910390fd5b50565b600960009054906101000a900473ffffffffffffffffffffffffffffffffffffffff1681565b6000600560008473ffffffffffffffffffffffffffffffffffffffff1673ffffffffffffffffffffffffffffffffffffffff16815260200190815260200160002060008373ffffffffffffffffffffffffffffffffffffffff1673ffffffffffffffffffffffffffffffffffffffff16815260200190815260200160002060009054906101000a900460ff16905092915050565b612a326131ce565b600073ffffffffffffffffffffffffffffffffffffffff168173ffffffffffffffffffffffffffffffffffffffff1603612aa1576040517f08c379a0000000000000000000000000000000000000000000000000000000008152600401612a9890614eb9565b60405180910390fd5b612aaa81613289565b50565b60007f01ffc9a7000000000000000000000000000000000000000000000000000000007bffffffffffffffffffffffffffffffffffffffffffffffffffffffff1916827bffffffffffffffffffffffffffffffffffffffffffffffffffffffff1916149050919050565b612b2081613517565b612b5f576040517f08c379a0000000000000000000000000000000000000000000000000000000008152600401612b5690614b8c565b60405180910390fd5b50565b600033905090565b816004600083815260200190815260200160002060006101000a81548173ffffffffffffffffffffffffffffffffffffffff021916908373ffffffffffffffffffffffffffffffffffffffff160217905550808273ffffffffffffffffffffffffffffffffffffffff16612bdd8361202c565b73ffffffffffffffffffffffffffffffffffffffff167f8c5be1e5ebec7d5bd14f71427d1e84f3dd0314c0f7b2291e5b200ac8c7c3b92560405160405180910390a45050565b600080612c2f8361202c565b90508073ffffffffffffffffffffffffffffffffffffffff168473ffffffffffffffffffffffffffffffffffffffff161480612c715750612c708185612996565b5b80612caf57508373ffffffffffffffffffffffffffffffffffffffff16612c97846106f0565b73ffffffffffffffffffffffffffffffffffffffff16145b91505092915050565b8273ffffffffffffffffffffffffffffffffffffffff16612cd88261202c565b73ffffffffffffffffffffffffffffffffffffffff1614612d2e576040517f08c379a0000000000000000000000000000000000000000000000000000000008152600401612d2590614f4b565b60405180910390fd5b600073ffffffffffffffffffffffffffffffffffffffff168273ffffffffffffffffffffffffffffffffffffffff1603612d9d576040517f08c379a0000000000000000000000000000000000000000000000000000000008152600401612d9490614fdd565b60405180910390fd5b612daa8383836001613558565b8273ffffffffffffffffffffffffffffffffffffffff16612dca8261202c565b73ffffffffffffffffffffffffffffffffffffffff1614612e20576040517f08c379a0000000000000000000000000000000000000000000000000000000008152600401612e1790614f4b565b60405180910390fd5b6004600082815260200190815260200160002060006101000a81549073ffffffffffffffffffffffffffffffffffffffff02191690556001600360008573ffffffffffffffffffffffffffffffffffffffff1673ffffffffffffffffffffffffffffffffffffffff168152602001908152602001600020600082825403925050819055506001600360008473ffffffffffffffffffffffffffffffffffffffff1673ffffffffffffffffffffffffffffffffffffffff16815260200190815260200160002060008282540192505081905550816002600083815260200190815260200160002060006101000a81548173ffffffffffffffffffffffffffffffffffffffff021916908373ffffffffffffffffffffffffffffffffffffffff160217905550808273ffffffffffffffffffffffffffffffffffffffff168473ffffffffffffffffffffffffffffffffffffffff167fddf252ad1be2c89b69c2b068fc378daa952ba7f163c4a11628f55a4df523b3ef60405160405180910390a4612fac838383600161355e565b505050565b600073ffffffffffffffffffffffffffffffffffffffff168273ffffffffffffffffffffffffffffffffffffffff1603613020576040517f08c379a000000000000000000000000000000000000000000000000000000000815260040161301790615049565b60405180910390fd5b61302981613517565b15613069576040517f08c379a0000000000000000000000000000000000000000000000000000000008152600401613060906150b5565b60405180910390fd5b613077600083836001613558565b61308081613517565b156130c0576040517f08c379a00000000000000000000000000000000000000000000000000000000081526004016130b7906150b5565b60405180910390fd5b6001600360008473ffffffffffffffffffffffffffffffffffffffff1673ffffffffffffffffffffffffffffffffffffffff16815260200190815260200160002060008282540192505081905550816002600083815260200190815260200160002060006101000a81548173ffffffffffffffffffffffffffffffffffffffff021916908373ffffffffffffffffffffffffffffffffffffffff160217905550808273ffffffffffffffffffffffffffffffffffffffff16600073ffffffffffffffffffffffffffffffffffffffff167fddf252ad1be2c89b69c2b068fc378daa952ba7f163c4a11628f55a4df523b3ef60405160405180910390a46131ca60008383600161355e565b5050565b6131d6612b62565b73ffffffffffffffffffffffffffffffffffffffff166131f461267f565b73ffffffffffffffffffffffffffffffffffffffff161461324a576040517f08c379a000000000000000000000000000000000000000000000000000000000815260040161324190615121565b60405180910390fd5b565b60006002600083815260200190815260200160002060009054906101000a900473ffffffffffffffffffffffffffffffffffffffff169050919050565b6000600660009054906101000a900473ffffffffffffffffffffffffffffffffffffffff16905081600660006101000a81548173ffffffffffffffffffffffffffffffffffffffff021916908373ffffffffffffffffffffffffffffffffffffffff1602179055508173ffffffffffffffffffffffffffffffffffffffff168173ffffffffffffffffffffffffffffffffffffffff167f8be0079c531659141344cd1fd0a4f28419497f9722a3daafe3b4186f6b6457e060405160405180910390a35050565b8173ffffffffffffffffffffffffffffffffffffffff168373ffffffffffffffffffffffffffffffffffffffff16036133bd576040517f08c379a00000000000000000000000000000000000000000000000000000000081526004016133b49061518d565b60405180910390fd5b80600560008573ffffffffffffffffffffffffffffffffffffffff1673ffffffffffffffffffffffffffffffffffffffff16815260200190815260200160002060008473ffffffffffffffffffffffffffffffffffffffff1673ffffffffffffffffffffffffffffffffffffffff16815260200190815260200160002060006101000a81548160ff0219169083151502179055508173ffffffffffffffffffffffffffffffffffffffff168373ffffffffffffffffffffffffffffffffffffffff167f17307eab39ab6107e8899845ad3d59bd9653f200f220920489ca2b5937696c31836040516134ae91906137c2565b60405180910390a3505050565b6134c6848484612cb8565b6134d284848484613564565b613511576040517f08c379a00000000000000000000000000000000000000000000000000000000081526004016135089061521f565b60405180910390fd5b50505050565b60008073ffffffffffffffffffffffffffffffffffffffff166135398361324c565b73ffffffffffffffffffffffffffffffffffffffff1614159050919050565b50505050565b50505050565b60006135858473ffffffffffffffffffffffffffffffffffffffff166136eb565b156136de578373ffffffffffffffffffffffffffffffffffffffff1663150b7a026135ae612b62565b8786866040518563ffffffff1660e01b81526004016135d09493929190615294565b6020604051808303816000875af192505050801561360c57506040513d601f19601f8201168201806040525081019061360991906152f5565b60015b61368e573d806000811461363c576040519150601f19603f3d011682016040523d82523d6000602084013e613641565b606091505b506000815103613686576040517f08c379a000000000000000000000000000000000000000000000000000000000815260040161367d9061521f565b60405180910390fd5b805181602001fd5b63150b7a0260e01b7bffffffffffffffffffffffffffffffffffffffffffffffffffffffff1916817bffffffffffffffffffffffffffffffffffffffffffffffffffffffff1916149150506136e3565b600190505b949350505050565b6000808273ffffffffffffffffffffffffffffffffffffffff163b119050919050565b6000604051905090565b600080fd5b600080fd5b60007fffffffff0000000000000000000000000000000000000000000000000000000082169050919050565b61375781613722565b811461376257600080fd5b50565b6000813590506137748161374e565b92915050565b6000602082840312156137905761378f613718565b5b600061379e84828501613765565b91505092915050565b60008115159050919050565b6137bc816137a7565b82525050565b60006020820190506137d760008301846137b3565b92915050565b600081519050919050565b600082825260208201905092915050565b60005b838110156138175780820151818401526020810190506137fc565b60008484015250505050565b6000601f19601f8301169050919050565b600061383f826137dd565b61384981856137e8565b93506138598185602086016137f9565b61386281613823565b840191505092915050565b600060208201905081810360008301526138878184613834565b905092915050565b6000819050919050565b6138a28161388f565b81146138ad57600080fd5b50565b6000813590506138bf81613899565b92915050565b6000602082840312156138db576138da613718565b5b60006138e9848285016138b0565b91505092915050565b600073ffffffffffffffffffffffffffffffffffffffff82169050919050565b600061391d826138f2565b9050919050565b61392d81613912565b82525050565b60006020820190506139486000830184613924565b92915050565b61395781613912565b811461396257600080fd5b50565b6000813590506139748161394e565b92915050565b6000806040838503121561399157613990613718565b5b600061399f85828601613965565b92505060206139b0858286016138b0565b9150509250929050565b6139c38161388f565b82525050565b6000610100820190506139df600083018b613924565b6139ec602083018a613924565b6139f960408301896139ba565b613a0660608301886139ba565b8181036080830152613a188187613834565b9050613a2760a08301866137b3565b613a3460c08301856137b3565b613a4160e08301846137b3565b9998505050505050505050565b600080600060608486031215613a6757613a66613718565b5b6000613a7586828701613965565b9350506020613a8686828701613965565b9250506040613a97868287016138b0565b9150509250925092565b6000819050919050565b6000613ac6613ac1613abc846138f2565b613aa1565b6138f2565b9050919050565b6000613ad882613aab565b9050919050565b6000613aea82613acd565b9050919050565b613afa81613adf565b82525050565b6000602082019050613b156000830184613af1565b92915050565b600080fd5b600080fd5b600080fd5b60008083601f840112613b4057613b3f613b1b565b5b8235905067ffffffffffffffff811115613b5d57613b5c613b20565b5b602083019150836001820283011115613b7957613b78613b25565b5b9250929050565b600080600080600060608688031215613b9c57613b9b613718565b5b6000613baa888289016138b0565b955050602086013567ffffffffffffffff811115613bcb57613bca61371d565b5b613bd788828901613b2a565b9450945050604086013567ffffffffffffffff811115613bfa57613bf961371d565b5b613c0688828901613b2a565b92509250509295509295909350565b613c1e816137a7565b8114613c2957600080fd5b50565b600081359050613c3b81613c15565b92915050565b60008060408385031215613c5857613c57613718565b5b6000613c66858286016138b0565b9250506020613c7785828601613c2c565b9150509250929050565b600060208284031215613c9757613c96613718565b5b6000613ca584828501613965565b91505092915050565b6000602082019050613cc360008301846139ba565b92915050565b6000613cd482613acd565b9050919050565b613ce481613cc9565b82525050565b6000602082019050613cff6000830184613cdb565b92915050565b60008060408385031215613d1c57613d1b613718565b5b6000613d2a85828601613965565b9250506020613d3b85828601613c2c565b9150509250929050565b600080fd5b7f4e487b7100000000000000000000000000000000000000000000000000000000600052604160045260246000fd5b613d8282613823565b810181811067ffffffffffffffff82111715613da157613da0613d4a565b5b80604052505050565b6000613db461370e565b9050613dc08282613d79565b919050565b600067ffffffffffffffff821115613de057613ddf613d4a565b5b613de982613823565b9050602081019050919050565b82818337600083830152505050565b6000613e18613e1384613dc5565b613daa565b905082815260208101848484011115613e3457613e33613d45565b5b613e3f848285613df6565b509392505050565b600082601f830112613e5c57613e5b613b1b565b5b8135613e6c848260208601613e05565b91505092915050565b60008060008060808587031215613e8f57613e8e613718565b5b6000613e9d87828801613965565b9450506020613eae87828801613965565b9350506040613ebf878288016138b0565b925050606085013567ffffffffffffffff811115613ee057613edf61371d565b5b613eec87828801613e47565b91505092959194509250565b60008060408385031215613f0f57613f0e613718565b5b6000613f1d85828601613965565b9250506020613f2e85828601613965565b9150509250929050565b7f4e487b7100000000000000000000000000000000000000000000000000000000600052602260045260246000fd5b60006002820490506001821680613f7f57607f821691505b602082108103613f9257613f91613f38565b5b50919050565b7f4552433732313a20617070726f76616c20746f2063757272656e74206f776e6560008201527f7200000000000000000000000000000000000000000000000000000000000000602082015250565b6000613ff46021836137e8565b9150613fff82613f98565b604082019050919050565b6000602082019050818103600083015261402381613fe7565b9050919050565b7f4552433732313a20617070726f76652063616c6c6572206973206e6f7420746f60008201527f6b656e206f776e6572206f7220617070726f76656420666f7220616c6c000000602082015250565b6000614086603d836137e8565b91506140918261402a565b604082019050919050565b600060208201905081810360008301526140b581614079565b9050919050565b7f4552433732313a2063616c6c6572206973206e6f7420746f6b656e206f776e6560008201527f72206f7220617070726f76656400000000000000000000000000000000000000602082015250565b6000614118602d836137e8565b9150614123826140bc565b604082019050919050565b600060208201905081810360008301526141478161410b565b9050919050565b6000819050919050565b600061417361416e6141698461414e565b613aa1565b61388f565b9050919050565b61418381614158565b82525050565b600060608201905061419e6000830186613924565b6141ab6020830185613924565b6141b8604083018461417a565b949350505050565b6000815190506141cf81613c15565b92915050565b6000602082840312156141eb576141ea613718565b5b60006141f9848285016141c0565b91505092915050565b7f5374616b65207472616e73666572206661696c65640000000000000000000000600082015250565b60006142386015836137e8565b915061424382614202565b602082019050919050565b600060208201905081810360008301526142678161422b565b9050919050565b7f4e487b7100000000000000000000000000000000000000000000000000000000600052601160045260246000fd5b60006142a88261388f565b91507fffffffffffffffffffffffffffffffffffffffffffffffffffffffffffffffff82036142da576142d961426e565b5b600182019050919050565b600082905092915050565b60008190508160005260206000209050919050565b60006020601f8301049050919050565b600082821b905092915050565b6000600883026143527fffffffffffffffffffffffffffffffffffffffffffffffffffffffffffffffff82614315565b61435c8683614315565b95508019841693508086168417925050509392505050565b600061438f61438a6143858461388f565b613aa1565b61388f565b9050919050565b6000819050919050565b6143a983614374565b6143bd6143b582614396565b848454614322565b825550505050565b600090565b6143d26143c5565b6143dd8184846143a0565b505050565b5b81811015614401576143f66000826143ca565b6001810190506143e3565b5050565b601f82111561444657614417816142f0565b61442084614305565b8101602085101561442f578190505b61444361443b85614305565b8301826143e2565b50505b505050565b600082821c905092915050565b60006144696000198460080261444b565b1980831691505092915050565b60006144828383614458565b9150826002028217905092915050565b61449c83836142e5565b67ffffffffffffffff8111156144b5576144b4613d4a565b5b6144bf8254613f67565b6144ca828285614405565b6000601f8311600181146144f957600084156144e7578287013590505b6144f18582614476565b865550614559565b601f198416614507866142f0565b60005b8281101561452f5784890135825560018201915060208501945060208101905061450a565b8683101561454c5784890135614548601f891682614458565b8355505b6001600288020188555050505b50505050505050565b61456b826137dd565b67ffffffffffffffff81111561458457614583613d4a565b5b61458e8254613f67565b614599828285614405565b600060209050601f8311600181146145cc57600084156145ba578287015190505b6145c48582614476565b86555061462c565b601f1984166145da866142f0565b60005b82811015614602578489015182556001820191506020850194506020810190506145dd565b8683101561461f578489015161461b601f891682614458565b8355505b6001600288020188555050505b505050505050565b600061464083856137e8565b935061464d838584613df6565b61465683613823565b840190509392505050565b600060608201905061467660008301876139ba565b6146836020830186613924565b8181036040830152614696818486614634565b905095945050505050565b7f42657420616c7265616479207265736f6c766564000000000000000000000000600082015250565b60006146d76014836137e8565b91506146e2826146a1565b602082019050919050565b60006020820190508181036000830152614706816146ca565b9050919050565b7f4e6f206469737075746500000000000000000000000000000000000000000000600082015250565b6000614743600a836137e8565b915061474e8261470d565b602082019050919050565b6000602082019050818103600083015261477281614736565b9050919050565b60006147848261388f565b915061478f8361388f565b92508282019050808211156147a7576147a661426e565b5b92915050565b60006060820190506147c26000830186613924565b6147cf60208301856139ba565b6147dc6040830184613924565b949350505050565b6000815190506147f381613899565b92915050565b60006020828403121561480f5761480e613718565b5b600061481d848285016147e4565b91505092915050565b60006148318261388f565b915061483c8361388f565b92508282039050818111156148545761485361426e565b5b92915050565b600060408201905061486f6000830185613924565b61487c60208301846139ba565b9392505050565b600060408201905061489860008301856139ba565b6148a56020830184613924565b9392505050565b7f4e6f742061207061727469636970616e74000000000000000000000000000000600082015250565b60006148e26011836137e8565b91506148ed826148ac565b602082019050919050565b60006020820190508181036000830152614911816148d5565b9050919050565b600060408201905061492d60008301856139ba565b61493a60208301846137b3565b9392505050565b7f4f7574636f6d657320646f206e6f74206d617463680000000000000000000000600082015250565b60006149776015836137e8565b915061498282614941565b602082019050919050565b600060208201905081810360008301526149a68161496a565b9050919050565b60006149b88261388f565b91506149c38361388f565b92508282026149d18161388f565b915082820484148315176149e8576149e761426e565b5b5092915050565b7f4e487b7100000000000000000000000000000000000000000000000000000000600052601260045260246000fd5b6000614a298261388f565b9150614a348361388f565b925082614a4457614a436149ef565b5b828204905092915050565b6000819050919050565b6000614a74614a6f614a6a84614a4f565b613aa1565b61388f565b9050919050565b614a8481614a59565b82525050565b6000604082019050614a9f6000830185613924565b614aac6020830184614a7b565b9392505050565b6000819050919050565b6000614ad8614ad3614ace84614ab3565b613aa1565b61388f565b9050919050565b614ae881614abd565b82525050565b6000604082019050614b036000830185613924565b614b106020830184614adf565b9392505050565b6000604082019050614b2c60008301856139ba565b614b3960208301846139ba565b9392505050565b7f4552433732313a20696e76616c696420746f6b656e2049440000000000000000600082015250565b6000614b766018836137e8565b9150614b8182614b40565b602082019050919050565b60006020820190508181036000830152614ba581614b69565b9050919050565b7f42657420616c7265616479206163636570746564000000000000000000000000600082015250565b6000614be26014836137e8565b9150614bed82614bac565b602082019050919050565b60006020820190508181036000830152614c1181614bd5565b9050919050565b7f43726561746f722063616e6e6f7420616363657074206f776e20626574000000600082015250565b6000614c4e601d836137e8565b9150614c5982614c18565b602082019050919050565b60006020820190508181036000830152614c7d81614c41565b9050919050565b6000606082019050614c996000830186613924565b614ca66020830185613924565b614cb360408301846139ba565b949350505050565b6000819050919050565b600061ffff82169050919050565b6000614cee614ce9614ce484614cbb565b613aa1565b614cc5565b9050919050565b614cfe81614cd3565b82525050565b6000608082019050614d196000830187613924565b614d2660208301866139ba565b614d336040830185613924565b614d406060830184614cf5565b95945050505050565b7f4552433732313a2061646472657373207a65726f206973206e6f74206120766160008201527f6c6964206f776e65720000000000000000000000000000000000000000000000602082015250565b6000614da56029836137e8565b9150614db082614d49565b604082019050919050565b60006020820190508181036000830152614dd481614d98565b9050919050565b7f5472616e73666572206661696c65640000000000000000000000000000000000600082015250565b6000614e11600f836137e8565b9150614e1c82614ddb565b602082019050919050565b60006020820190508181036000830152614e4081614e04565b9050919050565b7f4f776e61626c653a206e6577206f776e657220697320746865207a65726f206160008201527f6464726573730000000000000000000000000000000000000000000000000000602082015250565b6000614ea36026836137e8565b9150614eae82614e47565b604082019050919050565b60006020820190508181036000830152614ed281614e96565b9050919050565b7f4552433732313a207472616e736665722066726f6d20696e636f72726563742060008201527f6f776e6572000000000000000000000000000000000000000000000000000000602082015250565b6000614f356025836137e8565b9150614f4082614ed9565b604082019050919050565b60006020820190508181036000830152614f6481614f28565b9050919050565b7f4552433732313a207472616e7366657220746f20746865207a65726f2061646460008201527f7265737300000000000000000000000000000000000000000000000000000000602082015250565b6000614fc76024836137e8565b9150614fd282614f6b565b604082019050919050565b60006020820190508181036000830152614ff681614fba565b9050919050565b7f4552433732313a206d696e7420746f20746865207a65726f2061646472657373600082015250565b60006150336020836137e8565b915061503e82614ffd565b602082019050919050565b6000602082019050818103600083015261506281615026565b9050919050565b7f4552433732313a20746f6b656e20616c7265616479206d696e74656400000000600082015250565b600061509f601c836137e8565b91506150aa82615069565b602082019050919050565b600060208201905081810360008301526150ce81615092565b9050919050565b7f4f776e61626c653a2063616c6c6572206973206e6f7420746865206f776e6572600082015250565b600061510b6020836137e8565b9150615116826150d5565b602082019050919050565b6000602082019050818103600083015261513a816150fe565b9050919050565b7f4552433732313a20617070726f766520746f2063616c6c657200000000000000600082015250565b60006151776019836137e8565b915061518282615141565b602082019050919050565b600060208201905081810360008301526151a68161516a565b9050919050565b7f4552433732313a207472616e7366657220746f206e6f6e20455243373231526560008201527f63656976657220696d706c656d656e7465720000000000000000000000000000602082015250565b60006152096032836137e8565b9150615214826151ad565b604082019050919050565b60006020820190508181036000830152615238816151fc565b9050919050565b600081519050919050565b600082825260208201905092915050565b60006152668261523f565b615270818561524a565b93506152808185602086016137f9565b61528981613823565b840191505092915050565b60006080820190506152a96000830187613924565b6152b66020830186613924565b6152c360408301856139ba565b81810360608301526152d5818461525b565b905095945050505050565b6000815190506152ef8161374e565b92915050565b60006020828403121561530b5761530a613718565b5b6000615319848285016152e0565b9150509291505056fea26469706673582212207149c020ffc1151e1feca72e04af3ebb94f8443df5076ab447cd715a36ab8b7e64736f6c63430008130033",
  "linkReferences": {},
  "deployedLinkReferences": {}
}