{
  "_format": "hh-sol-artifact-1",
  "contractName": "NoLossBet",
  "sourceName": "packages/hardhat/contracts/NoLossBet.sol",
  "abi": [
    {
      "inputs": [
        {
          "internalType": "address",
          "name": "_celoToken",
          "type": "address"
        },
        {
          "internalType": "address",
          "name": "_stableToken",
          "type": "address"
        },
        {
          "internalType": "address",
          "name": "_betM3Token",
          "type": "address"
        },
        {
          "internalType": "address",
          "name": "_lpToken",
          "type": "address"
        },
        {
          "internalType": "address",
          "name": "_uniswapRouter",
          "type": "address"
        }
      ],
      "stateMutability": "nonpayable",
      "type": "constructor"
    },
    {
      "anonymous": false,
      "inputs": [
        {
          "indexed": true,
          "internalType": "address",
          "name": "owner",
          "type": "address"
        },
        {
          "indexed": true,
          "internalType": "address",
          "name": "approved",
          "type": "address"
        },
        {
          "indexed": true,
          "internalType": "uint256",
          "name": "tokenId",
          "type": "uint256"
        }
      ],
      "name": "Approval",
      "type": "event"
    },
    {
      "anonymous": false,
      "inputs": [
        {
          "indexed": true,
          "internalType": "address",
          "name": "owner",
          "type": "address"
        },
        {
          "indexed": true,
          "internalType": "address",
          "name": "operator",
          "type": "address"
        },
        {
          "indexed": false,
          "internalType": "bool",
          "name": "approved",
          "type": "bool"
        }
      ],
      "name": "ApprovalForAll",
      "type": "event"
    },
    {
      "anonymous": false,
      "inputs": [
        {
          "indexed": false,
          "internalType": "uint256",
          "name": "betId",
          "type": "uint256"
        },
        {
          "indexed": false,
          "internalType": "address",
          "name": "opponent",
          "type": "address"
        },
        {
          "indexed": false,
          "internalType": "bool",
          "name": "prediction",
          "type": "bool"
        },
        {
          "indexed": false,
          "internalType": "uint256",
          "name": "customStake",
          "type": "uint256"
        },
        {
          "indexed": false,
          "internalType": "string",
          "name": "commentText",
          "type": "string"
        }
      ],
      "name": "BetAccepted",
      "type": "event"
    },
    {
      "anonymous": false,
      "inputs": [
        {
          "indexed": false,
          "internalType": "uint256",
          "name": "betId",
          "type": "uint256"
        },
        {
          "indexed": false,
          "internalType": "address",
          "name": "creator",
          "type": "address"
        },
        {
          "indexed": false,
          "internalType": "uint256",
          "name": "creatorStake",
          "type": "uint256"
        },
        {
          "indexed": false,
          "internalType": "uint256",
          "name": "opponentStake",
          "type": "uint256"
        },
        {
          "indexed": false,
          "internalType": "string",
          "name": "condition",
          "type": "string"
        }
      ],
      "name": "BetCreated",
      "type": "event"
    },
    {
      "anonymous": false,
      "inputs": [
        {
          "indexed": false,
          "internalType": "uint256",
          "name": "betId",
          "type": "uint256"
        },
        {
          "indexed": false,
          "internalType": "uint256",
          "name": "totalYield",
          "type": "uint256"
        }
      ],
      "name": "BetResolved",
      "type": "event"
    },
    {
      "anonymous": false,
      "inputs": [
        {
          "indexed": false,
          "internalType": "uint256",
          "name": "betId",
          "type": "uint256"
        },
        {
          "indexed": false,
          "internalType": "address",
          "name": "winner",
          "type": "address"
        }
      ],
      "name": "DisputeResolved",
      "type": "event"
    },
    {
      "anonymous": false,
      "inputs": [
        {
          "indexed": false,
          "internalType": "uint256",
          "name": "betId",
          "type": "uint256"
        },
        {
          "indexed": false,
          "internalType": "bool",
          "name": "success",
          "type": "bool"
        }
      ],
      "name": "OutcomeSubmitted",
      "type": "event"
    },
    {
      "anonymous": false,
      "inputs": [
        {
          "indexed": true,
          "internalType": "address",
          "name": "previousOwner",
          "type": "address"
        },
        {
          "indexed": true,
          "internalType": "address",
          "name": "newOwner",
          "type": "address"
        }
      ],
      "name": "OwnershipTransferred",
      "type": "event"
    },
    {
      "anonymous": false,
      "inputs": [
        {
          "indexed": true,
          "internalType": "address",
          "name": "from",
          "type": "address"
        },
        {
          "indexed": true,
          "internalType": "address",
          "name": "to",
          "type": "address"
        },
        {
          "indexed": true,
          "internalType": "uint256",
          "name": "tokenId",
          "type": "uint256"
        }
      ],
      "name": "Transfer",
      "type": "event"
    },
    {
      "inputs": [],
      "name": "BET_DURATION",
      "outputs": [
        {
          "internalType": "uint256",
          "name": "",
          "type": "uint256"
        }
      ],
      "stateMutability": "view",
      "type": "function"
    },
    {
      "inputs": [
        {
          "internalType": "uint256",
          "name": "_betId",
          "type": "uint256"
        },
        {
          "internalType": "bool",
          "name": "_prediction",
          "type": "bool"
        }
      ],
      "name": "acceptBet",
      "outputs": [],
      "stateMutability": "nonpayable",
      "type": "function"
    },
    {
      "inputs": [
        {
          "internalType": "uint256",
          "name": "_betId",
          "type": "uint256"
        },
        {
          "internalType": "bool",
          "name": "_prediction",
          "type": "bool"
        },
        {
          "internalType": "uint256",
          "name": "_customStake",
          "type": "uint256"
        },
        {
          "internalType": "string",
          "name": "_commentText",
          "type": "string"
        }
      ],
      "name": "acceptBet",
      "outputs": [],
      "stateMutability": "nonpayable",
      "type": "function"
    },
    {
      "inputs": [
        {
          "internalType": "address",
          "name": "to",
          "type": "address"
        },
        {
          "internalType": "uint256",
          "name": "tokenId",
          "type": "uint256"
        }
      ],
      "name": "approve",
      "outputs": [],
      "stateMutability": "nonpayable",
      "type": "function"
    },
    {
      "inputs": [
        {
          "internalType": "address",
          "name": "owner",
          "type": "address"
        }
      ],
      "name": "balanceOf",
      "outputs": [
        {
          "internalType": "uint256",
          "name": "",
          "type": "uint256"
        }
      ],
      "stateMutability": "view",
      "type": "function"
    },
    {
      "inputs": [],
      "name": "betCounter",
      "outputs": [
        {
          "internalType": "uint256",
          "name": "",
          "type": "uint256"
        }
      ],
      "stateMutability": "view",
      "type": "function"
    },
    {
      "inputs": [
        {
          "internalType": "uint256",
          "name": "",
          "type": "uint256"
        }
      ],
      "name": "betLiquidity",
      "outputs": [
        {
          "internalType": "uint256",
          "name": "",
          "type": "uint256"
        }
      ],
      "stateMutability": "view",
      "type": "function"
    },
    {
      "inputs": [],
      "name": "betM3Token",
      "outputs": [
        {
          "internalType": "contract IERC20",
          "name": "",
          "type": "address"
        }
      ],
      "stateMutability": "view",
      "type": "function"
    },
    {
      "inputs": [
        {
          "internalType": "uint256",
          "name": "",
          "type": "uint256"
        }
      ],
      "name": "bets",
      "outputs": [
        {
          "internalType": "address",
          "name": "creator",
          "type": "address"
        },
        {
          "internalType": "address",
          "name": "opponent",
          "type": "address"
        },
        {
          "internalType": "uint256",
          "name": "creatorStake",
          "type": "uint256"
        },
        {
          "internalType": "uint256",
          "name": "opponentStake",
          "type": "uint256"
        },
        {
          "internalType": "string",
          "name": "condition",
          "type": "string"
        },
        {
          "internalType": "bool",
          "name": "creatorOutcome",
          "type": "bool"
        },
        {
          "internalType": "bool",
          "name": "opponentOutcome",
          "type": "bool"
        },
        {
          "internalType": "bool",
          "name": "resolved",
          "type": "bool"
        },
        {
          "internalType": "uint256",
          "name": "expiration",
          "type": "uint256"
        },
        {
          "internalType": "string",
          "name": "commentText",
          "type": "string"
        }
      ],
      "stateMutability": "view",
      "type": "function"
    },
    {
      "inputs": [],
      "name": "celoToken",
      "outputs": [
        {
          "internalType": "contract IERC20",
          "name": "",
          "type": "address"
        }
      ],
      "stateMutability": "view",
      "type": "function"
    },
    {
      "inputs": [
        {
          "internalType": "uint256",
          "name": "_creatorStake",
          "type": "uint256"
        },
        {
          "internalType": "uint256",
          "name": "_opponentStake",
          "type": "uint256"
        },
        {
          "internalType": "string",
          "name": "_condition",
          "type": "string"
        },
        {
          "internalType": "string",
          "name": "_tokenURI",
          "type": "string"
        }
      ],
      "name": "createBet",
      "outputs": [],
      "stateMutability": "nonpayable",
      "type": "function"
    },
    {
      "inputs": [
        {
          "internalType": "uint256",
          "name": "amount",
          "type": "uint256"
        }
      ],
      "name": "fundCommunityPool",
      "outputs": [],
      "stateMutability": "nonpayable",
      "type": "function"
    },
    {
      "inputs": [
        {
          "internalType": "uint256",
          "name": "amount",
          "type": "uint256"
        }
      ],
      "name": "fundStableTokenPool",
      "outputs": [],
      "stateMutability": "nonpayable",
      "type": "function"
    },
    {
      "inputs": [
        {
          "internalType": "uint256",
          "name": "tokenId",
          "type": "uint256"
        }
      ],
      "name": "getApproved",
      "outputs": [
        {
          "internalType": "address",
          "name": "",
          "type": "address"
        }
      ],
      "stateMutability": "view",
      "type": "function"
    },
    {
      "inputs": [
        {
          "internalType": "address",
          "name": "owner",
          "type": "address"
        },
        {
          "internalType": "address",
          "name": "operator",
          "type": "address"
        }
      ],
      "name": "isApprovedForAll",
      "outputs": [
        {
          "internalType": "bool",
          "name": "",
          "type": "bool"
        }
      ],
      "stateMutability": "view",
      "type": "function"
    },
    {
      "inputs": [],
      "name": "lpToken",
      "outputs": [
        {
          "internalType": "contract IERC20",
          "name": "",
          "type": "address"
        }
      ],
      "stateMutability": "view",
      "type": "function"
    },
    {
      "inputs": [],
      "name": "name",
      "outputs": [
        {
          "internalType": "string",
          "name": "",
          "type": "string"
        }
      ],
      "stateMutability": "view",
      "type": "function"
    },
    {
      "inputs": [],
      "name": "owner",
      "outputs": [
        {
          "internalType": "address",
          "name": "",
          "type": "address"
        }
      ],
      "stateMutability": "view",
      "type": "function"
    },
    {
      "inputs": [
        {
          "internalType": "uint256",
          "name": "tokenId",
          "type": "uint256"
        }
      ],
      "name": "ownerOf",
      "outputs": [
        {
          "internalType": "address",
          "name": "",
          "type": "address"
        }
      ],
      "stateMutability": "view",
      "type": "function"
    },
    {
      "inputs": [],
      "name": "renounceOwnership",
      "outputs": [],
      "stateMutability": "nonpayable",
      "type": "function"
    },
    {
      "inputs": [
        {
          "internalType": "uint256",
          "name": "_betId",
          "type": "uint256"
        }
      ],
      "name": "resolveBet",
      "outputs": [],
      "stateMutability": "nonpayable",
      "type": "function"
    },
    {
      "inputs": [
        {
          "internalType": "uint256",
          "name": "_betId",
          "type": "uint256"
        },
        {
          "internalType": "bool",
          "name": "_creatorWins",
          "type": "bool"
        }
      ],
      "name": "resolveDispute",
      "outputs": [],
      "stateMutability": "nonpayable",
      "type": "function"
    },
    {
      "inputs": [
        {
          "internalType": "address",
          "name": "from",
          "type": "address"
        },
        {
          "internalType": "address",
          "name": "to",
          "type": "address"
        },
        {
          "internalType": "uint256",
          "name": "tokenId",
          "type": "uint256"
        }
      ],
      "name": "safeTransferFrom",
      "outputs": [],
      "stateMutability": "nonpayable",
      "type": "function"
    },
    {
      "inputs": [
        {
          "internalType": "address",
          "name": "from",
          "type": "address"
        },
        {
          "internalType": "address",
          "name": "to",
          "type": "address"
        },
        {
          "internalType": "uint256",
          "name": "tokenId",
          "type": "uint256"
        },
        {
          "internalType": "bytes",
          "name": "data",
          "type": "bytes"
        }
      ],
      "name": "safeTransferFrom",
      "outputs": [],
      "stateMutability": "nonpayable",
      "type": "function"
    },
    {
      "inputs": [
        {
          "internalType": "address",
          "name": "operator",
          "type": "address"
        },
        {
          "internalType": "bool",
          "name": "approved",
          "type": "bool"
        }
      ],
      "name": "setApprovalForAll",
      "outputs": [],
      "stateMutability": "nonpayable",
      "type": "function"
    },
    {
      "inputs": [],
      "name": "stableToken",
      "outputs": [
        {
          "internalType": "contract IERC20",
          "name": "",
          "type": "address"
        }
      ],
      "stateMutability": "view",
      "type": "function"
    },
    {
      "inputs": [
        {
          "internalType": "uint256",
          "name": "_betId",
          "type": "uint256"
        },
        {
          "internalType": "bool",
          "name": "_success",
          "type": "bool"
        }
      ],
      "name": "submitOutcome",
      "outputs": [],
      "stateMutability": "nonpayable",
      "type": "function"
    },
    {
      "inputs": [
        {
          "internalType": "bytes4",
          "name": "interfaceId",
          "type": "bytes4"
        }
      ],
      "name": "supportsInterface",
      "outputs": [
        {
          "internalType": "bool",
          "name": "",
          "type": "bool"
        }
      ],
      "stateMutability": "view",
      "type": "function"
    },
    {
      "inputs": [],
      "name": "symbol",
      "outputs": [
        {
          "internalType": "string",
          "name": "",
          "type": "string"
        }
      ],
      "stateMutability": "view",
      "type": "function"
    },
    {
      "inputs": [
        {
          "internalType": "uint256",
          "name": "tokenId",
          "type": "uint256"
        }
      ],
      "name": "tokenURI",
      "outputs": [
        {
          "internalType": "string",
          "name": "",
          "type": "string"
        }
      ],
      "stateMutability": "view",
      "type": "function"
    },
    {
      "inputs": [
        {
          "internalType": "uint256",
          "name": "",
          "type": "uint256"
        }
      ],
      "name": "tokenURIs",
      "outputs": [
        {
          "internalType": "string",
          "name": "",
          "type": "string"
        }
      ],
      "stateMutability": "view",
      "type": "function"
    },
    {
      "inputs": [
        {
          "internalType": "address",
          "name": "from",
          "type": "address"
        },
        {
          "internalType": "address",
          "name": "to",
          "type": "address"
        },
        {
          "internalType": "uint256",
          "name": "tokenId",
          "type": "uint256"
        }
      ],
      "name": "transferFrom",
      "outputs": [],
      "stateMutability": "nonpayable",
      "type": "function"
    },
    {
      "inputs": [
        {
          "internalType": "address",
          "name": "newOwner",
          "type": "address"
        }
      ],
      "name": "transferOwnership",
      "outputs": [],
      "stateMutability": "nonpayable",
      "type": "function"
    },
    {
      "inputs": [],
      "name": "uniswapRouter",
      "outputs": [
        {
          "internalType": "contract IUniswapV2Router",
          "name": "",
          "type": "address"
        }
      ],
      "stateMutability": "view",
      "type": "function"
    }
  ],
  "bytecode": "0x60806040523480156200001157600080fd5b5060405162004bf638038062004bf6833981016040819052620000349162000195565b60405180604001604052806009815260200168139bd31bdcdcd0995d60ba1b8152506040518060400160405280600381526020016227262160e91b8152508160009081620000839190620002aa565b506001620000928282620002aa565b505050620000af620000a96200012260201b60201c565b62000126565b6001600755620000bf3362000126565b600b80546001600160a01b03199081166001600160a01b0397881617909155600c8054821695871695909517909455600d8054851693861693909317909255600e80548416918516919091179055600f8054909216921691909117905562000376565b3390565b600680546001600160a01b038381166001600160a01b0319831681179093556040519116919082907f8be0079c531659141344cd1fd0a4f28419497f9722a3daafe3b4186f6b6457e090600090a35050565b80516001600160a01b03811681146200019057600080fd5b919050565b600080600080600060a08688031215620001ae57600080fd5b620001b98662000178565b9450620001c96020870162000178565b9350620001d96040870162000178565b9250620001e96060870162000178565b9150620001f96080870162000178565b90509295509295909350565b634e487b7160e01b600052604160045260246000fd5b600181811c908216806200023057607f821691505b6020821081036200025157634e487b7160e01b600052602260045260246000fd5b50919050565b601f821115620002a557600081815260208120601f850160051c81016020861015620002805750805b601f850160051c820191505b81811015620002a1578281556001016200028c565b5050505b505050565b81516001600160401b03811115620002c657620002c662000205565b620002de81620002d784546200021b565b8462000257565b602080601f831160018114620003165760008415620002fd5750858301515b600019600386901b1c1916600185901b178555620002a1565b600085815260208120601f198616915b82811015620003475788860151825594840194600190910190840162000326565b5085821015620003665787850151600019600388901b60f8161c191681555b5050505050600190811b01905550565b61487080620003866000396000f3fe608060405234801561001057600080fd5b50600436106102065760003560e01c806370a082311161011a578063a9d75b2b116100ad578063dee686231161007c578063dee6862314610472578063e22d551a14610485578063e53d4c2d14610498578063e985e9c5146104a2578063f2fde38b146104b557600080fd5b8063a9d75b2b14610419578063ad0de5bc1461042c578063b88d4fde1461044c578063c87b56dd1461045f57600080fd5b806395d89b41116100e957806395d89b41146103e25780639eb8aa11146103ea578063a22cb465146103fd578063a416f5ab1461041057600080fd5b806370a0823114610395578063715018a6146103b6578063735de9f7146103be5780638da5cb5b146103d157600080fd5b806334b25ee21161019d57806354e16c651161016c57806354e16c65146103365780635fcbd285146103495780636352211e1461035c57806366f362821461036f5780636c8b703f1461038257600080fd5b806334b25ee2146102ea57806341b80300146102fd57806342842e0e146103105780634c36c36e1461032357600080fd5b8063095ea7b3116101d9578063095ea7b31461028857806322af00fa1461029b57806323b872dd146102c457806324697399146102d757600080fd5b806301ffc9a71461020b57806306fdde0314610233578063081812fc1461024857806308ac86fa14610273575b600080fd5b61021e610219366004613dd1565b6104c8565b60405190151581526020015b60405180910390f35b61023b61051a565b60405161022a9190613e3b565b61025b610256366004613e4e565b6105ac565b6040516001600160a01b03909116815260200161022a565b610286610281366004613eb0565b6105d3565b005b610286610296366004613f4f565b6108fc565b6102ae6102a9366004613e4e565b610a11565b60405161022a9a99989796959493929190613f79565b6102866102d2366004613ff9565b610b89565b600d5461025b906001600160a01b031681565b6102866102f8366004614043565b610bba565b61028661030b366004614043565b611269565b61028661031e366004613ff9565b6113ab565b610286610331366004613e4e565b6113c6565b610286610344366004613e4e565b6120c8565b600e5461025b906001600160a01b031681565b61025b61036a366004613e4e565b612163565b61028661037d366004614043565b6121c3565b61023b610390366004613e4e565b6121e3565b6103a86103a3366004614073565b61227d565b60405190815260200161022a565b610286612303565b600f5461025b906001600160a01b031681565b6006546001600160a01b031661025b565b61023b612317565b6102866103f836600461408e565b612326565b61028661040b3660046140f8565b61236f565b6103a860105481565b600c5461025b906001600160a01b031681565b6103a861043a366004613e4e565b600a6020526000908152604090205481565b61028661045a36600461413a565b61237a565b61023b61046d366004613e4e565b6123b2565b610286610480366004613e4e565b612454565b600b5461025b906001600160a01b031681565b6103a86212750081565b61021e6104b0366004614216565b612490565b6102866104c3366004614073565b6124be565b60006001600160e01b031982166380ac58cd60e01b14806104f957506001600160e01b03198216635b5e139f60e01b145b8061051457506301ffc9a760e01b6001600160e01b03198316145b92915050565b60606000805461052990614249565b80601f016020809104026020016040519081016040528092919081815260200182805461055590614249565b80156105a25780601f10610577576101008083540402835291602001916105a2565b820191906000526020600020905b81548152906001019060200180831161058557829003601f168201915b5050505050905090565b60006105b782612534565b506000908152600460205260409020546001600160a01b031690565b68056bc75e2d631000008610156106415760405162461bcd60e51b815260206004820152602760248201527f43726561746f72207374616b65206d757374206265206174206c65617374203160448201526630302043454c4f60c81b60648201526084015b60405180910390fd5b600b546040516323b872dd60e01b81526001600160a01b03909116906323b872dd9061067590339030908b90600401614283565b6020604051808303816000875af1158015610694573d6000803e3d6000fd5b505050506040513d601f19601f820116820180604052508101906106b891906142a7565b6106fc5760405162461bcd60e51b815260206004820152601560248201527414dd185ad9481d1c985b9cd9995c8819985a5b1959605a1b6044820152606401610638565b601080546000918261070d836142da565b91905055905061071d3382612593565b6000818152600960205260409020610736838583614341565b5060006107466212750042614401565b9050604051806101400160405280336001600160a01b0316815260200160006001600160a01b0316815260200189815260200188815260200187878080601f016020809104026020016040519081016040528093929190818152602001838380828437600092018290525093855250505060208083018290526040808401839052606080850184905260808086018890528251808501845285815260a0909601959095528784526008835292819020855181546001600160a01b03199081166001600160a01b0392831617835593870151600183018054909516911617909255840151600282015590830151600382015590820151600482019061084a9082614414565b5060a082015160058201805460c085015160e086015161ffff1990921693151561ff0019169390931761010093151584021762ff000019166201000091151591909102179055820151600682015561012082015160078201906108ad9082614414565b509050507f3e441384564139220e8ad22ed44ddbdfe1bba2eb14e6636191fe3baa11c1927c82338a8a8a8a6040516108ea969594939291906144d4565b60405180910390a15050505050505050565b600061090782612163565b9050806001600160a01b0316836001600160a01b0316036109745760405162461bcd60e51b815260206004820152602160248201527f4552433732313a20617070726f76616c20746f2063757272656e74206f776e656044820152603960f91b6064820152608401610638565b336001600160a01b038216148061099057506109908133612490565b610a025760405162461bcd60e51b815260206004820152603d60248201527f4552433732313a20617070726f76652063616c6c6572206973206e6f7420746f60448201527f6b656e206f776e6572206f7220617070726f76656420666f7220616c6c0000006064820152608401610638565b610a0c838361271e565b505050565b600860205260009081526040902080546001820154600283015460038401546004850180546001600160a01b0395861696949095169492939192610a5490614249565b80601f0160208091040260200160405190810160405280929190818152602001828054610a8090614249565b8015610acd5780601f10610aa257610100808354040283529160200191610acd565b820191906000526020600020905b815481529060010190602001808311610ab057829003601f168201915b50505060058401546006850154600786018054959660ff80851697610100860482169750620100009095041694509192610b0690614249565b80601f0160208091040260200160405190810160405280929190818152602001828054610b3290614249565b8015610b7f5780601f10610b5457610100808354040283529160200191610b7f565b820191906000526020600020905b815481529060010190602001808311610b6257829003601f168201915b505050505090508a565b610b93338261278c565b610baf5760405162461bcd60e51b815260040161063890614527565b610a0c8383836127eb565b610bc261294f565b6000828152600860205260409020600581015462010000900460ff1615610bfb5760405162461bcd60e51b815260040161063890614574565b60018101546001600160a01b0316610c255760405162461bcd60e51b8152600401610638906145a2565b600581015460ff6101008204811615159116151503610c735760405162461bcd60e51b815260206004820152600a6024820152694e6f206469737075746560b01b6044820152606401610638565b60058101805462ff00001916620100001790556000838152600a602052604081205460038301546002840154919291610cac9190614401565b600e54600f5460405163095ea7b360e01b81529293506001600160a01b039182169263095ea7b392610ce492169086906004016145d0565b6020604051808303816000875af1158015610d03573d6000803e3d6000fd5b505050506040513d601f19601f82011682018060405250810190610d2791906142a7565b50600f54600b54600c5460009283926001600160a01b039182169263baa2abde92918216911687858030610d5d42610384614401565b6040518863ffffffff1660e01b8152600401610d7f97969594939291906145e9565b60408051808303816000875af1158015610d9d573d6000803e3d6000fd5b505050506040513d601f19601f82011682018060405250810190610dc19190614629565b90925090506000610dd28284614401565b90506000848211610de4576000610dee565b610dee858361464d565b90508715610f3a57600b54875460028901546001600160a01b039283169263a9059cbb921690610e1f908590614401565b6040518363ffffffff1660e01b8152600401610e3c9291906145d0565b6020604051808303816000875af1158015610e5b573d6000803e3d6000fd5b505050506040513d601f19601f82011682018060405250810190610e7f91906142a7565b610e9b5760405162461bcd60e51b815260040161063890614660565b600b546001880154600389015460405163a9059cbb60e01b81526001600160a01b039384169363a9059cbb93610ed6939116916004016145d0565b6020604051808303816000875af1158015610ef5573d6000803e3d6000fd5b505050506040513d601f19601f82011682018060405250810190610f1991906142a7565b610f355760405162461bcd60e51b815260040161063890614660565b611079565b600b548754600289015460405163a9059cbb60e01b81526001600160a01b039384169363a9059cbb93610f72939116916004016145d0565b6020604051808303816000875af1158015610f91573d6000803e3d6000fd5b505050506040513d601f19601f82011682018060405250810190610fb591906142a7565b610fd15760405162461bcd60e51b815260040161063890614660565b600b54600188015460038901546001600160a01b039283169263a9059cbb921690610ffd908590614401565b6040518363ffffffff1660e01b815260040161101a9291906145d0565b6020604051808303816000875af1158015611039573d6000803e3d6000fd5b505050506040513d601f19601f8201168201806040525081019061105d91906142a7565b6110795760405162461bcd60e51b815260040161063890614660565b600c546040516370a0823160e01b81523060048201526000916001600160a01b0316906370a0823190602401602060405180830381865afa1580156110c2573d6000803e3d6000fd5b505050506040513d601f19601f820116820180604052508101906110e69190614689565b11156111f757600c546001600160a01b031663a9059cbb61110f6006546001600160a01b031690565b600c546040516370a0823160e01b81523060048201526001600160a01b03909116906370a0823190602401602060405180830381865afa158015611157573d6000803e3d6000fd5b505050506040513d601f19601f8201168201806040525081019061117b9190614689565b6040518363ffffffff1660e01b81526004016111989291906145d0565b6020604051808303816000875af11580156111b7573d6000803e3d6000fd5b505050506040513d601f19601f820116820180604052508101906111db91906142a7565b6111f75760405162461bcd60e51b815260040161063890614660565b7ff77ceb5e091d2da041bc760667f9d5fe7a756949eaf29250ad0e60ca6f4c27d989896112315760018901546001600160a01b031661123d565b88546001600160a01b03165b604080519283526001600160a01b039091166020830152015b60405180910390a1505050505050505050565b600082815260086020526040902080546001600160a01b031633148061129b575060018101546001600160a01b031633145b6112db5760405162461bcd60e51b8152602060048201526011602482015270139bdd0818481c185c9d1a58da5c185b9d607a1b6044820152606401610638565b600581015462010000900460ff16156113065760405162461bcd60e51b815260040161063890614574565b60018101546001600160a01b03166113305760405162461bcd60e51b8152600401610638906145a2565b80546001600160a01b031633036113565760058101805460ff191683151517905561136c565b60058101805461ff001916610100841515021790555b6040805184815283151560208201527f4d0f19e37ce2918eb3ea8d2f64d9489a5d5e7bb6b7fb871e9595152a261a2ec2910160405180910390a1505050565b610a0c8383836040518060200160405280600081525061237a565b6113ce6129a9565b6000818152600860205260409020600581015462010000900460ff16156114075760405162461bcd60e51b815260040161063890614574565b60018101546001600160a01b03166114315760405162461bcd60e51b8152600401610638906145a2565b8060060154421061144b5761144582612a02565b506120bb565b600581015460ff8082161515610100909204161515146114a55760405162461bcd60e51b815260206004820152601560248201527409eeae8c6dedacae640c8de40dcdee840dac2e8c6d605b1b6044820152606401610638565b60058101805462ff00001916620100001790556000828152600a6020526040812054600383015460028401549192916114de9190614401565b905060006114ed6002836146a2565b600e54600f5460405163095ea7b360e01b81529293506001600160a01b039182169263095ea7b39261152592169087906004016145d0565b6020604051808303816000875af1158015611544573d6000803e3d6000fd5b505050506040513d601f19601f8201168201806040525081019061156891906142a7565b50600f54600b54600c5460009283926001600160a01b039182169263baa2abde9291821691168885803061159e42610384614401565b6040518863ffffffff1660e01b81526004016115c097969594939291906145e9565b60408051808303816000875af11580156115de573d6000803e3d6000fd5b505050506040513d601f19601f820116820180604052508101906116029190614629565b909250905060006116138284614401565b9050600085821161162557600061162f565b61162f868361464d565b600589015490915060ff1615611a9f57600086858a6002015461165291906146c4565b61165c91906146a2565b9050600087868b6003015461167191906146c4565b61167b91906146a2565b600b548b549192506001600160a01b039081169163a9059cbb911660646116a38760506146c4565b6116ad91906146a2565b6116b79086614401565b6040518363ffffffff1660e01b81526004016116d49291906145d0565b6020604051808303816000875af11580156116f3573d6000803e3d6000fd5b505050506040513d601f19601f8201168201806040525081019061171791906142a7565b6117335760405162461bcd60e51b815260040161063890614660565b600b5460018b01546001600160a01b039182169163a9059cbb9116606461175b8760146146c4565b61176591906146a2565b61176f9085614401565b6040518363ffffffff1660e01b815260040161178c9291906145d0565b6020604051808303816000875af11580156117ab573d6000803e3d6000fd5b505050506040513d601f19601f820116820180604052508101906117cf91906142a7565b6117eb5760405162461bcd60e51b815260040161063890614660565b841561195d57600088868c6002015461180491906146c4565b61180e91906146a2565b9050600089878d6003015461182391906146c4565b61182d91906146a2565b600c548d5460405163a9059cbb60e01b81529293506001600160a01b039182169263a9059cbb9261186492169086906004016145d0565b6020604051808303816000875af1158015611883573d6000803e3d6000fd5b505050506040513d601f19601f820116820180604052508101906118a791906142a7565b6118c35760405162461bcd60e51b815260040161063890614660565b600c5460018d015460405163a9059cbb60e01b81526001600160a01b039283169263a9059cbb926118fb9291169085906004016145d0565b6020604051808303816000875af115801561191a573d6000803e3d6000fd5b505050506040513d601f19601f8201168201806040525081019061193e91906142a7565b61195a5760405162461bcd60e51b815260040161063890614660565b50505b600d548a5460405163a9059cbb60e01b81526001600160a01b039283169263a9059cbb9261199a92911690678ac7230489e80000906004016145d0565b6020604051808303816000875af11580156119b9573d6000803e3d6000fd5b505050506040513d601f19601f820116820180604052508101906119dd91906142a7565b6119f95760405162461bcd60e51b815260040161063890614660565b600d5460018b015460405163a9059cbb60e01b81526001600160a01b039283169263a9059cbb92611a3992911690674563918244f40000906004016145d0565b6020604051808303816000875af1158015611a58573d6000803e3d6000fd5b505050506040513d601f19601f82011682018060405250810190611a7c91906142a7565b611a985760405162461bcd60e51b815260040161063890614660565b5050611efb565b600086858a60020154611ab291906146c4565b611abc91906146a2565b9050600087868b60030154611ad191906146c4565b611adb91906146a2565b600b548b549192506001600160a01b039081169163a9059cbb91166064611b038760146146c4565b611b0d91906146a2565b611b179086614401565b6040518363ffffffff1660e01b8152600401611b349291906145d0565b6020604051808303816000875af1158015611b53573d6000803e3d6000fd5b505050506040513d601f19601f82011682018060405250810190611b7791906142a7565b611b935760405162461bcd60e51b815260040161063890614660565b600b5460018b01546001600160a01b039182169163a9059cbb91166064611bbb8760506146c4565b611bc591906146a2565b611bcf9085614401565b6040518363ffffffff1660e01b8152600401611bec9291906145d0565b6020604051808303816000875af1158015611c0b573d6000803e3d6000fd5b505050506040513d601f19601f82011682018060405250810190611c2f91906142a7565b611c4b5760405162461bcd60e51b815260040161063890614660565b8415611dbd57600088868c60020154611c6491906146c4565b611c6e91906146a2565b9050600089878d60030154611c8391906146c4565b611c8d91906146a2565b600c548d5460405163a9059cbb60e01b81529293506001600160a01b039182169263a9059cbb92611cc492169086906004016145d0565b6020604051808303816000875af1158015611ce3573d6000803e3d6000fd5b505050506040513d601f19601f82011682018060405250810190611d0791906142a7565b611d235760405162461bcd60e51b815260040161063890614660565b600c5460018d015460405163a9059cbb60e01b81526001600160a01b039283169263a9059cbb92611d5b9291169085906004016145d0565b6020604051808303816000875af1158015611d7a573d6000803e3d6000fd5b505050506040513d601f19601f82011682018060405250810190611d9e91906142a7565b611dba5760405162461bcd60e51b815260040161063890614660565b50505b600d548a5460405163a9059cbb60e01b81526001600160a01b039283169263a9059cbb92611dfa92911690674563918244f40000906004016145d0565b6020604051808303816000875af1158015611e19573d6000803e3d6000fd5b505050506040513d601f19601f82011682018060405250810190611e3d91906142a7565b611e595760405162461bcd60e51b815260040161063890614660565b600d5460018b015460405163a9059cbb60e01b81526001600160a01b039283169263a9059cbb92611e9992911690678ac7230489e80000906004016145d0565b6020604051808303816000875af1158015611eb8573d6000803e3d6000fd5b505050506040513d601f19601f82011682018060405250810190611edc91906142a7565b611ef85760405162461bcd60e51b815260040161063890614660565b50505b600c546040516370a0823160e01b81523060048201526000916001600160a01b0316906370a0823190602401602060405180830381865afa158015611f44573d6000803e3d6000fd5b505050506040513d601f19601f82011682018060405250810190611f689190614689565b111561207957600c546001600160a01b031663a9059cbb611f916006546001600160a01b031690565b600c546040516370a0823160e01b81523060048201526001600160a01b03909116906370a0823190602401602060405180830381865afa158015611fd9573d6000803e3d6000fd5b505050506040513d601f19601f82011682018060405250810190611ffd9190614689565b6040518363ffffffff1660e01b815260040161201a9291906145d0565b6020604051808303816000875af1158015612039573d6000803e3d6000fd5b505050506040513d601f19601f8201168201806040525081019061205d91906142a7565b6120795760405162461bcd60e51b815260040161063890614660565b604080518a8152602081018390527f6f014aa1fc0c12b56c099fa8727bbf780907046b16c01199f4092f5c721187ab910160405180910390a150505050505050505b6120c56001600755565b50565b6120d061294f565b600c546040516323b872dd60e01b81526001600160a01b03909116906323b872dd9061210490339030908690600401614283565b6020604051808303816000875af1158015612123573d6000803e3d6000fd5b505050506040513d601f19601f8201168201806040525081019061214791906142a7565b6120c55760405162461bcd60e51b815260040161063890614660565b6000818152600260205260408120546001600160a01b0316806105145760405162461bcd60e51b8152602060048201526018602482015277115490cdcc8c4e881a5b9d985b1a59081d1bdad95b88125160421b6044820152606401610638565b6121df8282600060405180602001604052806000815250613595565b5050565b600960205260009081526040902080546121fc90614249565b80601f016020809104026020016040519081016040528092919081815260200182805461222890614249565b80156122755780601f1061224a57610100808354040283529160200191612275565b820191906000526020600020905b81548152906001019060200180831161225857829003601f168201915b505050505081565b60006001600160a01b0382166122e75760405162461bcd60e51b815260206004820152602960248201527f4552433732313a2061646472657373207a65726f206973206e6f7420612076616044820152683634b21037bbb732b960b91b6064820152608401610638565b506001600160a01b031660009081526003602052604090205490565b61230b61294f565b6123156000613b67565b565b60606001805461052990614249565b61236885858585858080601f01602080910402602001604051908101604052809392919081815260200183838082843760009201919091525061359592505050565b5050505050565b6121df338383613bb9565b612384338361278c565b6123a05760405162461bcd60e51b815260040161063890614527565b6123ac84848484613c87565b50505050565b60008181526009602052604090208054606091906123cf90614249565b80601f01602080910402602001604051908101604052809291908181526020018280546123fb90614249565b80156124485780601f1061241d57610100808354040283529160200191612448565b820191906000526020600020905b81548152906001019060200180831161242b57829003601f168201915b50505050509050919050565b61245c61294f565b600d546040516323b872dd60e01b81526001600160a01b03909116906323b872dd9061210490339030908690600401614283565b6001600160a01b03918216600090815260056020908152604080832093909416825291909152205460ff1690565b6124c661294f565b6001600160a01b03811661252b5760405162461bcd60e51b815260206004820152602660248201527f4f776e61626c653a206e6577206f776e657220697320746865207a65726f206160448201526564647265737360d01b6064820152608401610638565b6120c581613b67565b6000818152600260205260409020546001600160a01b03166120c55760405162461bcd60e51b8152602060048201526018602482015277115490cdcc8c4e881a5b9d985b1a59081d1bdad95b88125160421b6044820152606401610638565b6001600160a01b0382166125e95760405162461bcd60e51b815260206004820181905260248201527f4552433732313a206d696e7420746f20746865207a65726f20616464726573736044820152606401610638565b6000818152600260205260409020546001600160a01b03161561264e5760405162461bcd60e51b815260206004820152601c60248201527f4552433732313a20746f6b656e20616c7265616479206d696e746564000000006044820152606401610638565b6000818152600260205260409020546001600160a01b0316156126b35760405162461bcd60e51b815260206004820152601c60248201527f4552433732313a20746f6b656e20616c7265616479206d696e746564000000006044820152606401610638565b6001600160a01b038216600081815260036020908152604080832080546001019055848352600290915280822080546001600160a01b0319168417905551839291907fddf252ad1be2c89b69c2b068fc378daa952ba7f163c4a11628f55a4df523b3ef908290a45050565b600081815260046020526040902080546001600160a01b0319166001600160a01b038416908117909155819061275382612163565b6001600160a01b03167f8c5be1e5ebec7d5bd14f71427d1e84f3dd0314c0f7b2291e5b200ac8c7c3b92560405160405180910390a45050565b60008061279883612163565b9050806001600160a01b0316846001600160a01b031614806127bf57506127bf8185612490565b806127e35750836001600160a01b03166127d8846105ac565b6001600160a01b0316145b949350505050565b826001600160a01b03166127fe82612163565b6001600160a01b0316146128245760405162461bcd60e51b8152600401610638906146db565b6001600160a01b0382166128865760405162461bcd60e51b8152602060048201526024808201527f4552433732313a207472616e7366657220746f20746865207a65726f206164646044820152637265737360e01b6064820152608401610638565b826001600160a01b031661289982612163565b6001600160a01b0316146128bf5760405162461bcd60e51b8152600401610638906146db565b600081815260046020908152604080832080546001600160a01b03199081169091556001600160a01b0387811680865260038552838620805460001901905590871680865283862080546001019055868652600290945282852080549092168417909155905184937fddf252ad1be2c89b69c2b068fc378daa952ba7f163c4a11628f55a4df523b3ef91a4505050565b6006546001600160a01b031633146123155760405162461bcd60e51b815260206004820181905260248201527f4f776e61626c653a2063616c6c6572206973206e6f7420746865206f776e65726044820152606401610638565b6002600754036129fb5760405162461bcd60e51b815260206004820152601f60248201527f5265656e7472616e637947756172643a207265656e7472616e742063616c6c006044820152606401610638565b6002600755565b60008181526008602052604090206006810154421015612a5a5760405162461bcd60e51b815260206004820152601360248201527210995d081b9bdd081e595d08195e1c1a5c9959606a1b6044820152606401610638565b600581015462010000900460ff1615612a855760405162461bcd60e51b815260040161063890614574565b60058101805462ff00001916620100001790556000828152600a602052604081205460038301546002840154919291612abe9190614401565b600e54600f5460405163095ea7b360e01b81529293506001600160a01b039182169263095ea7b392612af692169086906004016145d0565b6020604051808303816000875af1158015612b15573d6000803e3d6000fd5b505050506040513d601f19601f82011682018060405250810190612b3991906142a7565b50600f54600b54600c5460009283926001600160a01b039182169263baa2abde92918216911687858030612b6f42610384614401565b6040518863ffffffff1660e01b8152600401612b9197969594939291906145e9565b60408051808303816000875af1158015612baf573d6000803e3d6000fd5b505050506040513d601f19601f82011682018060405250810190612bd39190614629565b90925090506000612be48284614401565b90506000848211612bf6576000612c00565b612c00858361464d565b600588015490915060ff8082161515610100909204161515148015612c2b5750600587015460ff1615155b1561314757600587015460ff1615612ef457600b5487546001600160a01b039182169163a9059cbb91166064612c628560506146c4565b612c6c91906146a2565b8a60020154612c7b9190614401565b6040518363ffffffff1660e01b8152600401612c989291906145d0565b6020604051808303816000875af1158015612cb7573d6000803e3d6000fd5b505050506040513d601f19601f82011682018060405250810190612cdb91906142a7565b612cf75760405162461bcd60e51b815260040161063890614660565b600b5460018801546001600160a01b039182169163a9059cbb91166064612d1f8560146146c4565b612d2991906146a2565b8a60030154612d389190614401565b6040518363ffffffff1660e01b8152600401612d559291906145d0565b6020604051808303816000875af1158015612d74573d6000803e3d6000fd5b505050506040513d601f19601f82011682018060405250810190612d9891906142a7565b612db45760405162461bcd60e51b815260040161063890614660565b600d54875460405163a9059cbb60e01b81526001600160a01b039283169263a9059cbb92612df192911690678ac7230489e80000906004016145d0565b6020604051808303816000875af1158015612e10573d6000803e3d6000fd5b505050506040513d601f19601f82011682018060405250810190612e3491906142a7565b612e505760405162461bcd60e51b815260040161063890614660565b600d54600188015460405163a9059cbb60e01b81526001600160a01b039283169263a9059cbb92612e9092911690674563918244f40000906004016145d0565b6020604051808303816000875af1158015612eaf573d6000803e3d6000fd5b505050506040513d601f19601f82011682018060405250810190612ed391906142a7565b612eef5760405162461bcd60e51b815260040161063890614660565b6133e1565b600b5487546001600160a01b039182169163a9059cbb91166064612f198560146146c4565b612f2391906146a2565b8a60020154612f329190614401565b6040518363ffffffff1660e01b8152600401612f4f9291906145d0565b6020604051808303816000875af1158015612f6e573d6000803e3d6000fd5b505050506040513d601f19601f82011682018060405250810190612f9291906142a7565b612fae5760405162461bcd60e51b815260040161063890614660565b600b5460018801546001600160a01b039182169163a9059cbb91166064612fd68560506146c4565b612fe091906146a2565b8a60030154612fef9190614401565b6040518363ffffffff1660e01b815260040161300c9291906145d0565b6020604051808303816000875af115801561302b573d6000803e3d6000fd5b505050506040513d601f19601f8201168201806040525081019061304f91906142a7565b61306b5760405162461bcd60e51b815260040161063890614660565b600d54875460405163a9059cbb60e01b81526001600160a01b039283169263a9059cbb926130a892911690674563918244f40000906004016145d0565b6020604051808303816000875af11580156130c7573d6000803e3d6000fd5b505050506040513d601f19601f820116820180604052508101906130eb91906142a7565b6131075760405162461bcd60e51b815260040161063890614660565b600d54600188015460405163a9059cbb60e01b81526001600160a01b039283169263a9059cbb92612e9092911690678ac7230489e80000906004016145d0565b600b5487546001600160a01b039182169163a9059cbb911661316a6002856146a2565b8a600201546131799190614401565b6040518363ffffffff1660e01b81526004016131969291906145d0565b6020604051808303816000875af11580156131b5573d6000803e3d6000fd5b505050506040513d601f19601f820116820180604052508101906131d991906142a7565b6131f55760405162461bcd60e51b815260040161063890614660565b600b5460018801546001600160a01b039182169163a9059cbb911661321b6002856146a2565b8a6003015461322a9190614401565b6040518363ffffffff1660e01b81526004016132479291906145d0565b6020604051808303816000875af1158015613266573d6000803e3d6000fd5b505050506040513d601f19601f8201168201806040525081019061328a91906142a7565b6132a65760405162461bcd60e51b815260040161063890614660565b600d54875460405163a9059cbb60e01b81526001600160a01b039283169263a9059cbb926132e392911690671bc16d674ec80000906004016145d0565b6020604051808303816000875af1158015613302573d6000803e3d6000fd5b505050506040513d601f19601f8201168201806040525081019061332691906142a7565b6133425760405162461bcd60e51b815260040161063890614660565b600d54600188015460405163a9059cbb60e01b81526001600160a01b039283169263a9059cbb9261338292911690671bc16d674ec80000906004016145d0565b6020604051808303816000875af11580156133a1573d6000803e3d6000fd5b505050506040513d601f19601f820116820180604052508101906133c591906142a7565b6133e15760405162461bcd60e51b815260040161063890614660565b600c546040516370a0823160e01b81523060048201526000916001600160a01b0316906370a0823190602401602060405180830381865afa15801561342a573d6000803e3d6000fd5b505050506040513d601f19601f8201168201806040525081019061344e9190614689565b111561355f57600c546001600160a01b031663a9059cbb6134776006546001600160a01b031690565b600c546040516370a0823160e01b81523060048201526001600160a01b03909116906370a0823190602401602060405180830381865afa1580156134bf573d6000803e3d6000fd5b505050506040513d601f19601f820116820180604052508101906134e39190614689565b6040518363ffffffff1660e01b81526004016135009291906145d0565b6020604051808303816000875af115801561351f573d6000803e3d6000fd5b505050506040513d601f19601f8201168201806040525081019061354391906142a7565b61355f5760405162461bcd60e51b815260040161063890614660565b60408051898152602081018390527f6f014aa1fc0c12b56c099fa8727bbf780907046b16c01199f4092f5c721187ab91016108ea565b600084815260086020526040902060018101546001600160a01b0316156135f55760405162461bcd60e51b815260206004820152601460248201527310995d08185b1c9958591e481858d8d95c1d195960621b6044820152606401610638565b80546001600160a01b0316330361364e5760405162461bcd60e51b815260206004820152601d60248201527f43726561746f722063616e6e6f7420616363657074206f776e206265740000006044820152606401610638565b806006015442106136935760405162461bcd60e51b815260206004820152600f60248201526e10995d081a185cc8195e1c1a5c9959608a1b6044820152606401610638565b60008084116136a65781600301546136a8565b835b9050678ac7230489e800008110156137125760405162461bcd60e51b815260206004820152602760248201527f4f70706f6e656e74207374616b65206d757374206265206174206c656173742060448201526631302043454c4f60c81b6064820152608401610638565b600b546040516323b872dd60e01b81526001600160a01b03909116906323b872dd9061374690339030908690600401614283565b6020604051808303816000875af1158015613765573d6000803e3d6000fd5b505050506040513d601f19601f8201168201806040525081019061378991906142a7565b6137cd5760405162461bcd60e51b815260206004820152601560248201527414dd185ad9481d1c985b9cd9995c8819985a5b1959605a1b6044820152606401610638565b6001820180546001600160a01b031916331790556005820180548615156101000261ff0019909116179055600782016138068482614414565b50831561381557600382018490555b815461382b906001600160a01b031633886127eb565b6000826003015483600201546138419190614401565b905060006138506002836146a2565b600c549091506001600160a01b03166323b872dd6138766006546001600160a01b031690565b30846040518463ffffffff1660e01b815260040161389693929190614283565b6020604051808303816000875af11580156138b5573d6000803e3d6000fd5b505050506040513d601f19601f820116820180604052508101906138d991906142a7565b6139255760405162461bcd60e51b815260206004820152601b60248201527f537461626c65546f6b656e207472616e73666572206661696c656400000000006044820152606401610638565b600b54600f5460405163095ea7b360e01b81526001600160a01b039283169263095ea7b39261395b9291169085906004016145d0565b6020604051808303816000875af115801561397a573d6000803e3d6000fd5b505050506040513d601f19601f8201168201806040525081019061399e91906142a7565b50600c54600f5460405163095ea7b360e01b81526001600160a01b039283169263095ea7b3926139d59291169085906004016145d0565b6020604051808303816000875af11580156139f4573d6000803e3d6000fd5b505050506040513d601f19601f82011682018060405250810190613a1891906142a7565b50600f54600b54600c546000926001600160a01b039081169263e8e3370092908216911685806064613a4b82605f6146c4565b613a5591906146a2565b6064613a628a605f6146c4565b613a6c91906146a2565b30613a7942610384614401565b60405160e08a901b6001600160e01b03191681526001600160a01b039889166004820152968816602488015260448701959095526064860193909352608485019190915260a484015290921660c482015260e4810191909152610104016060604051808303816000875af1158015613af5573d6000803e3d6000fd5b505050506040513d601f19601f82011682018060405250810190613b199190614720565b60008c8152600a602052604090819020829055519093507f099017437d07c2457f7830310ccdd19cd9666caaaf58bc4f0b779c2cbdd12ecc925061125691508b9033908c9089908c9061474e565b600680546001600160a01b038381166001600160a01b0319831681179093556040519116919082907f8be0079c531659141344cd1fd0a4f28419497f9722a3daafe3b4186f6b6457e090600090a35050565b816001600160a01b0316836001600160a01b031603613c1a5760405162461bcd60e51b815260206004820152601960248201527f4552433732313a20617070726f766520746f2063616c6c6572000000000000006044820152606401610638565b6001600160a01b03838116600081815260056020908152604080832094871680845294825291829020805460ff191686151590811790915591519182527f17307eab39ab6107e8899845ad3d59bd9653f200f220920489ca2b5937696c31910160405180910390a3505050565b613c928484846127eb565b613c9e84848484613cba565b6123ac5760405162461bcd60e51b81526004016106389061478e565b60006001600160a01b0384163b15613db057604051630a85bd0160e11b81526001600160a01b0385169063150b7a0290613cfe9033908990889088906004016147e0565b6020604051808303816000875af1925050508015613d39575060408051601f3d908101601f19168201909252613d369181019061481d565b60015b613d96573d808015613d67576040519150601f19603f3d011682016040523d82523d6000602084013e613d6c565b606091505b508051600003613d8e5760405162461bcd60e51b81526004016106389061478e565b805181602001fd5b6001600160e01b031916630a85bd0160e11b1490506127e3565b506001949350505050565b6001600160e01b0319811681146120c557600080fd5b600060208284031215613de357600080fd5b8135613dee81613dbb565b9392505050565b6000815180845260005b81811015613e1b57602081850181015186830182015201613dff565b506000602082860101526020601f19601f83011685010191505092915050565b602081526000613dee6020830184613df5565b600060208284031215613e6057600080fd5b5035919050565b60008083601f840112613e7957600080fd5b50813567ffffffffffffffff811115613e9157600080fd5b602083019150836020828501011115613ea957600080fd5b9250929050565b60008060008060008060808789031215613ec957600080fd5b8635955060208701359450604087013567ffffffffffffffff80821115613eef57600080fd5b613efb8a838b01613e67565b90965094506060890135915080821115613f1457600080fd5b50613f2189828a01613e67565b979a9699509497509295939492505050565b80356001600160a01b0381168114613f4a57600080fd5b919050565b60008060408385031215613f6257600080fd5b613f6b83613f33565b946020939093013593505050565b6001600160a01b038b811682528a166020820152604081018990526060810188905261014060808201819052600090613fb48382018a613df5565b905087151560a084015286151560c084015285151560e084015284610100840152828103610120840152613fe88185613df5565b9d9c50505050505050505050505050565b60008060006060848603121561400e57600080fd5b61401784613f33565b925061402560208501613f33565b9150604084013590509250925092565b80151581146120c557600080fd5b6000806040838503121561405657600080fd5b82359150602083013561406881614035565b809150509250929050565b60006020828403121561408557600080fd5b613dee82613f33565b6000806000806000608086880312156140a657600080fd5b8535945060208601356140b881614035565b935060408601359250606086013567ffffffffffffffff8111156140db57600080fd5b6140e788828901613e67565b969995985093965092949392505050565b6000806040838503121561410b57600080fd5b61411483613f33565b9150602083013561406881614035565b634e487b7160e01b600052604160045260246000fd5b6000806000806080858703121561415057600080fd5b61415985613f33565b935061416760208601613f33565b925060408501359150606085013567ffffffffffffffff8082111561418b57600080fd5b818701915087601f83011261419f57600080fd5b8135818111156141b1576141b1614124565b604051601f8201601f19908116603f011681019083821181831017156141d9576141d9614124565b816040528281528a60208487010111156141f257600080fd5b82602086016020830137600060208483010152809550505050505092959194509250565b6000806040838503121561422957600080fd5b61423283613f33565b915061424060208401613f33565b90509250929050565b600181811c9082168061425d57607f821691505b60208210810361427d57634e487b7160e01b600052602260045260246000fd5b50919050565b6001600160a01b039384168152919092166020820152604081019190915260600190565b6000602082840312156142b957600080fd5b8151613dee81614035565b634e487b7160e01b600052601160045260246000fd5b6000600182016142ec576142ec6142c4565b5060010190565b601f821115610a0c57600081815260208120601f850160051c8101602086101561431a5750805b601f850160051c820191505b8181101561433957828155600101614326565b505050505050565b67ffffffffffffffff83111561435957614359614124565b61436d836143678354614249565b836142f3565b6000601f8411600181146143a157600085156143895750838201355b600019600387901b1c1916600186901b178355612368565b600083815260209020601f19861690835b828110156143d257868501358255602094850194600190920191016143b2565b50868210156143ef5760001960f88860031b161c19848701351681555b505060018560011b0183555050505050565b80820180821115610514576105146142c4565b815167ffffffffffffffff81111561442e5761442e614124565b6144428161443c8454614249565b846142f3565b602080601f831160018114614477576000841561445f5750858301515b600019600386901b1c1916600185901b178555614339565b600085815260208120601f198616915b828110156144a657888601518255948401946001909101908401614487565b50858210156144c45787850151600019600388901b60f8161c191681555b5050505050600190811b01905550565b86815260018060a01b038616602082015284604082015283606082015260a060808201528160a0820152818360c0830137600081830160c090810191909152601f909201601f1916010195945050505050565b6020808252602d908201527f4552433732313a2063616c6c6572206973206e6f7420746f6b656e206f776e6560408201526c1c881bdc88185c1c1c9bdd9959609a1b606082015260800190565b60208082526014908201527310995d08185b1c9958591e481c995cdbdb1d995960621b604082015260600190565b60208082526014908201527310995d081b9bdd081858d8d95c1d1959081e595d60621b604082015260600190565b6001600160a01b03929092168252602082015260400190565b6001600160a01b039788168152958716602087015260408601949094526060850192909252608084015290921660a082015260c081019190915260e00190565b6000806040838503121561463c57600080fd5b505080516020909101519092909150565b81810381811115610514576105146142c4565b6020808252600f908201526e151c985b9cd9995c8819985a5b1959608a1b604082015260600190565b60006020828403121561469b57600080fd5b5051919050565b6000826146bf57634e487b7160e01b600052601260045260246000fd5b500490565b8082028115828204841417610514576105146142c4565b60208082526025908201527f4552433732313a207472616e736665722066726f6d20696e636f72726563742060408201526437bbb732b960d91b606082015260800190565b60008060006060848603121561473557600080fd5b8351925060208401519150604084015190509250925092565b85815260018060a01b0385166020820152831515604082015282606082015260a06080820152600061478360a0830184613df5565b979650505050505050565b60208082526032908201527f4552433732313a207472616e7366657220746f206e6f6e20455243373231526560408201527131b2b4bb32b91034b6b83632b6b2b73a32b960711b606082015260800190565b6001600160a01b038581168252841660208201526040810183905260806060820181905260009061481390830184613df5565b9695505050505050565b60006020828403121561482f57600080fd5b8151613dee81613dbb56fea2646970667358221220b56bf97fe4b411b2361600c88e37b539e848d9a7dbcb9a33e176dc64ba43016464736f6c63430008130033",
  "linkReferences": {},
  "deployedLinkReferences": {}
}