{
  "_format": "hh-sol-artifact-1",
  "contractName": "NoLossBet",
  "sourceName": "packages/hardhat/contracts/NoLossBet.sol",
  "abi": [
    {
      "inputs": [
        {
          "internalType": "address",
          "name": "_celoToken",
          "type": "address"
        },
        {
          "internalType": "address",
          "name": "_betM3Token",
          "type": "address"
        },
        {
          "internalType": "address",
          "name": "_aavePool",
          "type": "address"
        }
      ],
      "stateMutability": "nonpayable",
      "type": "constructor"
    },
    {
      "anonymous": false,
      "inputs": [
        {
          "indexed": true,
          "internalType": "address",
          "name": "owner",
          "type": "address"
        },
        {
          "indexed": true,
          "internalType": "address",
          "name": "approved",
          "type": "address"
        },
        {
          "indexed": true,
          "internalType": "uint256",
          "name": "tokenId",
          "type": "uint256"
        }
      ],
      "name": "Approval",
      "type": "event"
    },
    {
      "anonymous": false,
      "inputs": [
        {
          "indexed": true,
          "internalType": "address",
          "name": "owner",
          "type": "address"
        },
        {
          "indexed": true,
          "internalType": "address",
          "name": "operator",
          "type": "address"
        },
        {
          "indexed": false,
          "internalType": "bool",
          "name": "approved",
          "type": "bool"
        }
      ],
      "name": "ApprovalForAll",
      "type": "event"
    },
    {
      "anonymous": false,
      "inputs": [
        {
          "indexed": false,
          "internalType": "uint256",
          "name": "betId",
          "type": "uint256"
        },
        {
          "indexed": false,
          "internalType": "address",
          "name": "opponent",
          "type": "address"
        }
      ],
      "name": "BetAccepted",
      "type": "event"
    },
    {
      "anonymous": false,
      "inputs": [
        {
          "indexed": false,
          "internalType": "uint256",
          "name": "betId",
          "type": "uint256"
        },
        {
          "indexed": false,
          "internalType": "address",
          "name": "creator",
          "type": "address"
        },
        {
          "indexed": false,
          "internalType": "string",
          "name": "condition",
          "type": "string"
        },
        {
          "indexed": false,
          "internalType": "uint256",
          "name": "expiration",
          "type": "uint256"
        }
      ],
      "name": "BetCreated",
      "type": "event"
    },
    {
      "anonymous": false,
      "inputs": [
        {
          "indexed": false,
          "internalType": "uint256",
          "name": "betId",
          "type": "uint256"
        },
        {
          "indexed": false,
          "internalType": "uint256",
          "name": "totalYield",
          "type": "uint256"
        }
      ],
      "name": "BetResolved",
      "type": "event"
    },
    {
      "anonymous": false,
      "inputs": [
        {
          "indexed": false,
          "internalType": "uint256",
          "name": "betId",
          "type": "uint256"
        },
        {
          "indexed": false,
          "internalType": "address",
          "name": "winner",
          "type": "address"
        }
      ],
      "name": "DisputeResolved",
      "type": "event"
    },
    {
      "anonymous": false,
      "inputs": [
        {
          "indexed": false,
          "internalType": "uint256",
          "name": "betId",
          "type": "uint256"
        },
        {
          "indexed": false,
          "internalType": "bool",
          "name": "success",
          "type": "bool"
        }
      ],
      "name": "OutcomeSubmitted",
      "type": "event"
    },
    {
      "anonymous": false,
      "inputs": [
        {
          "indexed": true,
          "internalType": "address",
          "name": "previousOwner",
          "type": "address"
        },
        {
          "indexed": true,
          "internalType": "address",
          "name": "newOwner",
          "type": "address"
        }
      ],
      "name": "OwnershipTransferred",
      "type": "event"
    },
    {
      "anonymous": false,
      "inputs": [
        {
          "indexed": true,
          "internalType": "address",
          "name": "from",
          "type": "address"
        },
        {
          "indexed": true,
          "internalType": "address",
          "name": "to",
          "type": "address"
        },
        {
          "indexed": true,
          "internalType": "uint256",
          "name": "tokenId",
          "type": "uint256"
        }
      ],
      "name": "Transfer",
      "type": "event"
    },
    {
      "inputs": [],
      "name": "BET_DURATION",
      "outputs": [
        {
          "internalType": "uint256",
          "name": "",
          "type": "uint256"
        }
      ],
      "stateMutability": "view",
      "type": "function"
    },
    {
      "inputs": [],
      "name": "aavePool",
      "outputs": [
        {
          "internalType": "contract IPool",
          "name": "",
          "type": "address"
        }
      ],
      "stateMutability": "view",
      "type": "function"
    },
    {
      "inputs": [
        {
          "internalType": "uint256",
          "name": "_betId",
          "type": "uint256"
        }
      ],
      "name": "acceptBet",
      "outputs": [],
      "stateMutability": "nonpayable",
      "type": "function"
    },
    {
      "inputs": [
        {
          "internalType": "address",
          "name": "to",
          "type": "address"
        },
        {
          "internalType": "uint256",
          "name": "tokenId",
          "type": "uint256"
        }
      ],
      "name": "approve",
      "outputs": [],
      "stateMutability": "nonpayable",
      "type": "function"
    },
    {
      "inputs": [
        {
          "internalType": "address",
          "name": "owner",
          "type": "address"
        }
      ],
      "name": "balanceOf",
      "outputs": [
        {
          "internalType": "uint256",
          "name": "",
          "type": "uint256"
        }
      ],
      "stateMutability": "view",
      "type": "function"
    },
    {
      "inputs": [],
      "name": "betCounter",
      "outputs": [
        {
          "internalType": "uint256",
          "name": "",
          "type": "uint256"
        }
      ],
      "stateMutability": "view",
      "type": "function"
    },
    {
      "inputs": [],
      "name": "betM3Token",
      "outputs": [
        {
          "internalType": "contract IERC20",
          "name": "",
          "type": "address"
        }
      ],
      "stateMutability": "view",
      "type": "function"
    },
    {
      "inputs": [
        {
          "internalType": "uint256",
          "name": "",
          "type": "uint256"
        }
      ],
      "name": "bets",
      "outputs": [
        {
          "internalType": "address",
          "name": "creator",
          "type": "address"
        },
        {
          "internalType": "address",
          "name": "opponent",
          "type": "address"
        },
        {
          "internalType": "uint256",
          "name": "creatorStake",
          "type": "uint256"
        },
        {
          "internalType": "uint256",
          "name": "opponentStake",
          "type": "uint256"
        },
        {
          "internalType": "string",
          "name": "condition",
          "type": "string"
        },
        {
          "internalType": "bool",
          "name": "creatorOutcome",
          "type": "bool"
        },
        {
          "internalType": "bool",
          "name": "opponentOutcome",
          "type": "bool"
        },
        {
          "internalType": "bool",
          "name": "resolved",
          "type": "bool"
        },
        {
          "internalType": "uint256",
          "name": "expiration",
          "type": "uint256"
        }
      ],
      "stateMutability": "view",
      "type": "function"
    },
    {
      "inputs": [],
      "name": "celoToken",
      "outputs": [
        {
          "internalType": "contract IERC20",
          "name": "",
          "type": "address"
        }
      ],
      "stateMutability": "view",
      "type": "function"
    },
    {
      "inputs": [
        {
          "internalType": "uint256",
          "name": "_opponentStake",
          "type": "uint256"
        },
        {
          "internalType": "string",
          "name": "_condition",
          "type": "string"
        },
        {
          "internalType": "string",
          "name": "_tokenURI",
          "type": "string"
        }
      ],
      "name": "createBet",
      "outputs": [],
      "stateMutability": "nonpayable",
      "type": "function"
    },
    {
      "inputs": [
        {
          "internalType": "uint256",
          "name": "amount",
          "type": "uint256"
        }
      ],
      "name": "fundCommunityPool",
      "outputs": [],
      "stateMutability": "nonpayable",
      "type": "function"
    },
    {
      "inputs": [
        {
          "internalType": "uint256",
          "name": "tokenId",
          "type": "uint256"
        }
      ],
      "name": "getApproved",
      "outputs": [
        {
          "internalType": "address",
          "name": "",
          "type": "address"
        }
      ],
      "stateMutability": "view",
      "type": "function"
    },
    {
      "inputs": [
        {
          "internalType": "address",
          "name": "owner",
          "type": "address"
        },
        {
          "internalType": "address",
          "name": "operator",
          "type": "address"
        }
      ],
      "name": "isApprovedForAll",
      "outputs": [
        {
          "internalType": "bool",
          "name": "",
          "type": "bool"
        }
      ],
      "stateMutability": "view",
      "type": "function"
    },
    {
      "inputs": [],
      "name": "name",
      "outputs": [
        {
          "internalType": "string",
          "name": "",
          "type": "string"
        }
      ],
      "stateMutability": "view",
      "type": "function"
    },
    {
      "inputs": [],
      "name": "owner",
      "outputs": [
        {
          "internalType": "address",
          "name": "",
          "type": "address"
        }
      ],
      "stateMutability": "view",
      "type": "function"
    },
    {
      "inputs": [
        {
          "internalType": "uint256",
          "name": "tokenId",
          "type": "uint256"
        }
      ],
      "name": "ownerOf",
      "outputs": [
        {
          "internalType": "address",
          "name": "",
          "type": "address"
        }
      ],
      "stateMutability": "view",
      "type": "function"
    },
    {
      "inputs": [],
      "name": "renounceOwnership",
      "outputs": [],
      "stateMutability": "nonpayable",
      "type": "function"
    },
    {
      "inputs": [
        {
          "internalType": "uint256",
          "name": "_betId",
          "type": "uint256"
        }
      ],
      "name": "resolveBet",
      "outputs": [],
      "stateMutability": "nonpayable",
      "type": "function"
    },
    {
      "inputs": [
        {
          "internalType": "uint256",
          "name": "_betId",
          "type": "uint256"
        },
        {
          "internalType": "bool",
          "name": "_creatorWins",
          "type": "bool"
        }
      ],
      "name": "resolveDispute",
      "outputs": [],
      "stateMutability": "nonpayable",
      "type": "function"
    },
    {
      "inputs": [
        {
          "internalType": "address",
          "name": "from",
          "type": "address"
        },
        {
          "internalType": "address",
          "name": "to",
          "type": "address"
        },
        {
          "internalType": "uint256",
          "name": "tokenId",
          "type": "uint256"
        }
      ],
      "name": "safeTransferFrom",
      "outputs": [],
      "stateMutability": "nonpayable",
      "type": "function"
    },
    {
      "inputs": [
        {
          "internalType": "address",
          "name": "from",
          "type": "address"
        },
        {
          "internalType": "address",
          "name": "to",
          "type": "address"
        },
        {
          "internalType": "uint256",
          "name": "tokenId",
          "type": "uint256"
        },
        {
          "internalType": "bytes",
          "name": "data",
          "type": "bytes"
        }
      ],
      "name": "safeTransferFrom",
      "outputs": [],
      "stateMutability": "nonpayable",
      "type": "function"
    },
    {
      "inputs": [
        {
          "internalType": "address",
          "name": "operator",
          "type": "address"
        },
        {
          "internalType": "bool",
          "name": "approved",
          "type": "bool"
        }
      ],
      "name": "setApprovalForAll",
      "outputs": [],
      "stateMutability": "nonpayable",
      "type": "function"
    },
    {
      "inputs": [
        {
          "internalType": "uint256",
          "name": "_betId",
          "type": "uint256"
        },
        {
          "internalType": "bool",
          "name": "_success",
          "type": "bool"
        }
      ],
      "name": "submitOutcome",
      "outputs": [],
      "stateMutability": "nonpayable",
      "type": "function"
    },
    {
      "inputs": [
        {
          "internalType": "bytes4",
          "name": "interfaceId",
          "type": "bytes4"
        }
      ],
      "name": "supportsInterface",
      "outputs": [
        {
          "internalType": "bool",
          "name": "",
          "type": "bool"
        }
      ],
      "stateMutability": "view",
      "type": "function"
    },
    {
      "inputs": [],
      "name": "symbol",
      "outputs": [
        {
          "internalType": "string",
          "name": "",
          "type": "string"
        }
      ],
      "stateMutability": "view",
      "type": "function"
    },
    {
      "inputs": [
        {
          "internalType": "uint256",
          "name": "tokenId",
          "type": "uint256"
        }
      ],
      "name": "tokenURI",
      "outputs": [
        {
          "internalType": "string",
          "name": "",
          "type": "string"
        }
      ],
      "stateMutability": "view",
      "type": "function"
    },
    {
      "inputs": [
        {
          "internalType": "uint256",
          "name": "",
          "type": "uint256"
        }
      ],
      "name": "tokenURIs",
      "outputs": [
        {
          "internalType": "string",
          "name": "",
          "type": "string"
        }
      ],
      "stateMutability": "view",
      "type": "function"
    },
    {
      "inputs": [
        {
          "internalType": "address",
          "name": "from",
          "type": "address"
        },
        {
          "internalType": "address",
          "name": "to",
          "type": "address"
        },
        {
          "internalType": "uint256",
          "name": "tokenId",
          "type": "uint256"
        }
      ],
      "name": "transferFrom",
      "outputs": [],
      "stateMutability": "nonpayable",
      "type": "function"
    },
    {
      "inputs": [
        {
          "internalType": "address",
          "name": "newOwner",
          "type": "address"
        }
      ],
      "name": "transferOwnership",
      "outputs": [],
      "stateMutability": "nonpayable",
      "type": "function"
    }
  ],
  "bytecode": "0x60806040523480156200001157600080fd5b506040516200370038038062003700833981016040819052620000349162000170565b60405180604001604052806009815260200168139bd31bdcdcd0995d60ba1b8152506040518060400160405280600381526020016227262160e91b81525081600090816200008391906200025f565b5060016200009282826200025f565b505050620000af620000a9620000fd60201b60201c565b62000101565b620000ba3362000101565b600980546001600160a01b039485166001600160a01b031991821617909155600a805493851693821693909317909255600b80549190931691161790556200032b565b3390565b600680546001600160a01b038381166001600160a01b0319831681179093556040519116919082907f8be0079c531659141344cd1fd0a4f28419497f9722a3daafe3b4186f6b6457e090600090a35050565b80516001600160a01b03811681146200016b57600080fd5b919050565b6000806000606084860312156200018657600080fd5b620001918462000153565b9250620001a16020850162000153565b9150620001b16040850162000153565b90509250925092565b634e487b7160e01b600052604160045260246000fd5b600181811c90821680620001e557607f821691505b6020821081036200020657634e487b7160e01b600052602260045260246000fd5b50919050565b601f8211156200025a57600081815260208120601f850160051c81016020861015620002355750805b601f850160051c820191505b81811015620002565782815560010162000241565b5050505b505050565b81516001600160401b038111156200027b576200027b620001ba565b62000293816200028c8454620001d0565b846200020c565b602080601f831160018114620002cb5760008415620002b25750858301515b600019600386901b1c1916600185901b17855562000256565b600085815260208120601f198616915b82811015620002fc57888601518255948401946001909101908401620002db565b50858210156200031b5787850151600019600388901b60f8161c191681555b5050505050600190811b01905550565b6133c5806200033b6000396000f3fe608060405234801561001057600080fd5b50600436106101cf5760003560e01c80636c8b703f11610104578063a416f5ab116100a2578063e22d551a11610071578063e22d551a146103e1578063e53d4c2d146103f4578063e985e9c5146103fe578063f2fde38b1461041157600080fd5b8063a416f5ab1461039f578063b88d4fde146103a8578063c87b56dd146103bb578063dee68623146103ce57600080fd5b80638da5cb5b116100de5780638da5cb5b1461036057806395d89b4114610371578063a03e4bc314610379578063a22cb4651461038c57600080fd5b80636c8b703f1461032457806370a0823114610337578063715018a61461035857600080fd5b8063292e95561161017157806342842e0e1161014b57806342842e0e146102d85780634c36c36e146102eb5780636352211e146102fe5780636c0c27e11461031157600080fd5b8063292e95561461029f57806334b25ee2146102b257806341b80300146102c557600080fd5b8063095ea7b3116101ad578063095ea7b31461023c57806322af00fa1461025157806323b872dd14610279578063246973991461028c57600080fd5b806301ffc9a7146101d457806306fdde03146101fc578063081812fc14610211575b600080fd5b6101e76101e2366004612ad4565b610424565b60405190151581526020015b60405180910390f35b610204610476565b6040516101f39190612b3e565b61022461021f366004612b51565b610508565b6040516001600160a01b0390911681526020016101f3565b61024f61024a366004612b86565b61052f565b005b61026461025f366004612b51565b610649565b6040516101f399989796959493929190612bb0565b61024f610287366004612c15565b610731565b600a54610224906001600160a01b031681565b61024f6102ad366004612c9a565b610762565b61024f6102c0366004612d22565b610a06565b61024f6102d3366004612d22565b610e83565b61024f6102e6366004612c15565b610fc6565b61024f6102f9366004612b51565b610fe1565b61022461030c366004612b51565b6116ce565b61024f61031f366004612b51565b61172e565b610204610332366004612b51565b611a5e565b61034a610345366004612d52565b611af8565b6040519081526020016101f3565b61024f611b7e565b6006546001600160a01b0316610224565b610204611b92565b600b54610224906001600160a01b031681565b61024f61039a366004612d6d565b611ba1565b61034a600c5481565b61024f6103b6366004612daf565b611bac565b6102046103c9366004612b51565b611be4565b61024f6103dc366004612b51565b611c86565b600954610224906001600160a01b031681565b61034a6212750081565b6101e761040c366004612e8b565b611d4a565b61024f61041f366004612d52565b611d78565b60006001600160e01b031982166380ac58cd60e01b148061045557506001600160e01b03198216635b5e139f60e01b145b8061047057506301ffc9a760e01b6001600160e01b03198316145b92915050565b60606000805461048590612ebe565b80601f01602080910402602001604051908101604052809291908181526020018280546104b190612ebe565b80156104fe5780601f106104d3576101008083540402835291602001916104fe565b820191906000526020600020905b8154815290600101906020018083116104e157829003601f168201915b5050505050905090565b600061051382611dee565b506000908152600460205260409020546001600160a01b031690565b600061053a826116ce565b9050806001600160a01b0316836001600160a01b0316036105ac5760405162461bcd60e51b815260206004820152602160248201527f4552433732313a20617070726f76616c20746f2063757272656e74206f776e656044820152603960f91b60648201526084015b60405180910390fd5b336001600160a01b03821614806105c857506105c88133611d4a565b61063a5760405162461bcd60e51b815260206004820152603d60248201527f4552433732313a20617070726f76652063616c6c6572206973206e6f7420746f60448201527f6b656e206f776e6572206f7220617070726f76656420666f7220616c6c00000060648201526084016105a3565b6106448383611e4d565b505050565b600760205260009081526040902080546001820154600283015460038401546004850180546001600160a01b039586169694909516949293919261068c90612ebe565b80601f01602080910402602001604051908101604052809291908181526020018280546106b890612ebe565b80156107055780601f106106da57610100808354040283529160200191610705565b820191906000526020600020905b8154815290600101906020018083116106e857829003601f168201915b5050506005840154600690940154929360ff808216946101008304821694506201000090920416915089565b61073b3382611ebb565b6107575760405162461bcd60e51b81526004016105a390612ef8565b610644838383611f1a565b6009546040516323b872dd60e01b815233600482015230602482015268056bc75e2d6310000060448201526001600160a01b03909116906323b872dd906064016020604051808303816000875af11580156107c1573d6000803e3d6000fd5b505050506040513d601f19601f820116820180604052508101906107e59190612f45565b6108295760405162461bcd60e51b815260206004820152601560248201527414dd185ad9481d1c985b9cd9995c8819985a5b1959605a1b60448201526064016105a3565b600c80546000918261083a83612f78565b91905055905061084a338261207e565b6000818152600860205260409020610863838583612fdf565b50600061087362127500426130a0565b9050604051806101200160405280336001600160a01b0316815260200160006001600160a01b0316815260200168056bc75e2d63100000815260200188815260200187878080601f016020809104026020016040519081016040528093929190818152602001838380828437600092018290525093855250505060208083018290526040808401839052606080850184905260809485018790528784526007835292819020855181546001600160a01b03199081166001600160a01b0392831617835593870151600183018054909516911617909255840151600282015590830151600382015590820151600482019061096d90826130b3565b5060a082015160058201805460c085015160e086015161ffff1990921693151561ff0019169390931761010093151584021762ff000019166201000091151591909102179055909101516006909101556040517fe8e535ef9804960dfde2925cd2b47ef7ada0c70faf4f250196fd7f6132b8dabd906109f590849033908a908a908790613173565b60405180910390a150505050505050565b610a0e612209565b6000828152600760205260409020600581015462010000900460ff1615610a475760405162461bcd60e51b81526004016105a3906131c4565b60018101546001600160a01b0316610a715760405162461bcd60e51b81526004016105a3906131f2565b600581015460ff6101008204811615159116151503610abf5760405162461bcd60e51b815260206004820152600a6024820152694e6f206469737075746560b01b60448201526064016105a3565b60058101805462ff000019166201000017905560038101546002820154600091610ae8916130a0565b600b54600954604051631a4ca37b60e21b81526001600160a01b039182166004820152600019602482015230604482015292935016906369328dec906064016020604051808303816000875af1158015610b46573d6000803e3d6000fd5b505050506040513d601f19601f82011682018060405250810190610b6a9190613220565b506009546040516370a0823160e01b81523060048201526000916001600160a01b0316906370a0823190602401602060405180830381865afa158015610bb4573d6000803e3d6000fd5b505050506040513d601f19601f82011682018060405250810190610bd89190613220565b9050600082821015610beb576000610bf5565b610bf58383613239565b90508415610d0b57600954845460028601546001600160a01b039283169263a9059cbb921690610c269085906130a0565b6040518363ffffffff1660e01b8152600401610c4392919061324c565b6020604051808303816000875af1158015610c62573d6000803e3d6000fd5b505050506040513d601f19601f82011682018060405250810190610c869190612f45565b506009546001850154600386015460405163a9059cbb60e01b81526001600160a01b039384169363a9059cbb93610cc29391169160040161324c565b6020604051808303816000875af1158015610ce1573d6000803e3d6000fd5b505050506040513d601f19601f82011682018060405250810190610d059190612f45565b50610e15565b6009548454600286015460405163a9059cbb60e01b81526001600160a01b039384169363a9059cbb93610d439391169160040161324c565b6020604051808303816000875af1158015610d62573d6000803e3d6000fd5b505050506040513d601f19601f82011682018060405250810190610d869190612f45565b50600954600185015460038601546001600160a01b039283169263a9059cbb921690610db39085906130a0565b6040518363ffffffff1660e01b8152600401610dd092919061324c565b6020604051808303816000875af1158015610def573d6000803e3d6000fd5b505050506040513d601f19601f82011682018060405250810190610e139190612f45565b505b7ff77ceb5e091d2da041bc760667f9d5fe7a756949eaf29250ad0e60ca6f4c27d98686610e4f5760018601546001600160a01b0316610e5b565b85546001600160a01b03165b604080519283526001600160a01b0390911660208301520160405180910390a1505050505050565b600082815260076020526040902080546001600160a01b0316331480610eb5575060018101546001600160a01b031633145b610ef55760405162461bcd60e51b8152602060048201526011602482015270139bdd0818481c185c9d1a58da5c185b9d607a1b60448201526064016105a3565b600581015462010000900460ff1615610f205760405162461bcd60e51b81526004016105a3906131c4565b60018101546001600160a01b0316610f4a5760405162461bcd60e51b81526004016105a3906131f2565b80546001600160a01b03163303610f705760058101805460ff1916831515179055610f86565b60058101805461ff001916610100841515021790555b6040805184815283151560208201527f4d0f19e37ce2918eb3ea8d2f64d9489a5d5e7bb6b7fb871e9595152a261a2ec291015b60405180910390a1505050565b61064483838360405180602001604052806000815250611bac565b6000818152600760205260409020600581015462010000900460ff161561101a5760405162461bcd60e51b81526004016105a3906131c4565b60018101546001600160a01b03166110445760405162461bcd60e51b81526004016105a3906131f2565b8060060154421061105c5761105882612263565b5050565b600581015460ff8082161515610100909204161515146110b65760405162461bcd60e51b815260206004820152601560248201527409eeae8c6dedacae640c8de40dcdee840dac2e8c6d605b1b60448201526064016105a3565b60058101805462ff0000191662010000179055600381015460028201546000916110df916130a0565b600b54600954604051631a4ca37b60e21b81526001600160a01b039182166004820152600019602482015230604482015292935016906369328dec906064016020604051808303816000875af115801561113d573d6000803e3d6000fd5b505050506040513d601f19601f820116820180604052508101906111619190613220565b506009546040516370a0823160e01b81523060048201526000916001600160a01b0316906370a0823190602401602060405180830381865afa1580156111ab573d6000803e3d6000fd5b505050506040513d601f19601f820116820180604052508101906111cf9190613220565b90506000828210156111e25760006111ec565b6111ec8383613239565b600585015490915060ff16156114475760095484546001600160a01b039182169163a9059cbb91166064611221856050613265565b61122b919061327c565b876002015461123a91906130a0565b6040518363ffffffff1660e01b815260040161125792919061324c565b6020604051808303816000875af1158015611276573d6000803e3d6000fd5b505050506040513d601f19601f8201168201806040525081019061129a9190612f45565b5060095460018501546001600160a01b039182169163a9059cbb911660646112c3856014613265565b6112cd919061327c565b87600301546112dc91906130a0565b6040518363ffffffff1660e01b81526004016112f992919061324c565b6020604051808303816000875af1158015611318573d6000803e3d6000fd5b505050506040513d601f19601f8201168201806040525081019061133c9190612f45565b50600a54845460405163a9059cbb60e01b81526001600160a01b039283169263a9059cbb9261137a92911690678ac7230489e800009060040161324c565b6020604051808303816000875af1158015611399573d6000803e3d6000fd5b505050506040513d601f19601f820116820180604052508101906113bd9190612f45565b50600a54600185015460405163a9059cbb60e01b81526001600160a01b039283169263a9059cbb926113fe92911690674563918244f400009060040161324c565b6020604051808303816000875af115801561141d573d6000803e3d6000fd5b505050506040513d601f19601f820116820180604052508101906114419190612f45565b5061168e565b60095484546001600160a01b039182169163a9059cbb9116606461146c856014613265565b611476919061327c565b876002015461148591906130a0565b6040518363ffffffff1660e01b81526004016114a292919061324c565b6020604051808303816000875af11580156114c1573d6000803e3d6000fd5b505050506040513d601f19601f820116820180604052508101906114e59190612f45565b5060095460018501546001600160a01b039182169163a9059cbb9116606461150e856050613265565b611518919061327c565b876003015461152791906130a0565b6040518363ffffffff1660e01b815260040161154492919061324c565b6020604051808303816000875af1158015611563573d6000803e3d6000fd5b505050506040513d601f19601f820116820180604052508101906115879190612f45565b50600a54845460405163a9059cbb60e01b81526001600160a01b039283169263a9059cbb926115c592911690674563918244f400009060040161324c565b6020604051808303816000875af11580156115e4573d6000803e3d6000fd5b505050506040513d601f19601f820116820180604052508101906116089190612f45565b50600a54600185015460405163a9059cbb60e01b81526001600160a01b039283169263a9059cbb9261164992911690678ac7230489e800009060040161324c565b6020604051808303816000875af1158015611668573d6000803e3d6000fd5b505050506040513d601f19601f8201168201806040525081019061168c9190612f45565b505b60408051868152602081018390527f6f014aa1fc0c12b56c099fa8727bbf780907046b16c01199f4092f5c721187ab910160405180910390a15050505050565b6000818152600260205260408120546001600160a01b0316806104705760405162461bcd60e51b8152602060048201526018602482015277115490cdcc8c4e881a5b9d985b1a59081d1bdad95b88125160421b60448201526064016105a3565b600081815260076020526040902060018101546001600160a01b03161561178e5760405162461bcd60e51b815260206004820152601460248201527310995d08185b1c9958591e481858d8d95c1d195960621b60448201526064016105a3565b80546001600160a01b031633036117e75760405162461bcd60e51b815260206004820152601d60248201527f43726561746f722063616e6e6f7420616363657074206f776e2062657400000060448201526064016105a3565b8060060154421061182c5760405162461bcd60e51b815260206004820152600f60248201526e10995d081a185cc8195e1c1a5c9959608a1b60448201526064016105a3565b60095460038201546040516323b872dd60e01b815233600482015230602482015260448101919091526001600160a01b03909116906323b872dd906064016020604051808303816000875af1158015611889573d6000803e3d6000fd5b505050506040513d601f19601f820116820180604052508101906118ad9190612f45565b6118f15760405162461bcd60e51b815260206004820152601560248201527414dd185ad9481d1c985b9cd9995c8819985a5b1959605a1b60448201526064016105a3565b6001810180546001600160a01b031916339081179091558154611921916001600160a01b03919091169084611f1a565b60008160030154826002015461193791906130a0565b600954600b5460405163095ea7b360e01b81529293506001600160a01b039182169263095ea7b39261196f921690859060040161324c565b6020604051808303816000875af115801561198e573d6000803e3d6000fd5b505050506040513d601f19601f820116820180604052508101906119b29190612f45565b50600b5460095460405163617ba03760e01b81526001600160a01b039182166004820152602481018490523060448201526000606482015291169063617ba03790608401600060405180830381600087803b158015611a1057600080fd5b505af1158015611a24573d6000803e3d6000fd5b5050604080518681523360208201527fb727a22534e43d337addefe6245e691859b29f7bf356bc7e6d77ff92070fe1249350019050610fb9565b60086020526000908152604090208054611a7790612ebe565b80601f0160208091040260200160405190810160405280929190818152602001828054611aa390612ebe565b8015611af05780601f10611ac557610100808354040283529160200191611af0565b820191906000526020600020905b815481529060010190602001808311611ad357829003601f168201915b505050505081565b60006001600160a01b038216611b625760405162461bcd60e51b815260206004820152602960248201527f4552433732313a2061646472657373207a65726f206973206e6f7420612076616044820152683634b21037bbb732b960b91b60648201526084016105a3565b506001600160a01b031660009081526003602052604090205490565b611b86612209565b611b90600061286a565b565b60606001805461048590612ebe565b6110583383836128bc565b611bb63383611ebb565b611bd25760405162461bcd60e51b81526004016105a390612ef8565b611bde8484848461298a565b50505050565b6000818152600860205260409020805460609190611c0190612ebe565b80601f0160208091040260200160405190810160405280929190818152602001828054611c2d90612ebe565b8015611c7a5780601f10611c4f57610100808354040283529160200191611c7a565b820191906000526020600020905b815481529060010190602001808311611c5d57829003601f168201915b50505050509050919050565b611c8e612209565b600a546040516323b872dd60e01b8152336004820152306024820152604481018390526001600160a01b03909116906323b872dd906064016020604051808303816000875af1158015611ce5573d6000803e3d6000fd5b505050506040513d601f19601f82011682018060405250810190611d099190612f45565b611d475760405162461bcd60e51b815260206004820152600f60248201526e151c985b9cd9995c8819985a5b1959608a1b60448201526064016105a3565b50565b6001600160a01b03918216600090815260056020908152604080832093909416825291909152205460ff1690565b611d80612209565b6001600160a01b038116611de55760405162461bcd60e51b815260206004820152602660248201527f4f776e61626c653a206e6577206f776e657220697320746865207a65726f206160448201526564647265737360d01b60648201526084016105a3565b611d478161286a565b6000818152600260205260409020546001600160a01b0316611d475760405162461bcd60e51b8152602060048201526018602482015277115490cdcc8c4e881a5b9d985b1a59081d1bdad95b88125160421b60448201526064016105a3565b600081815260046020526040902080546001600160a01b0319166001600160a01b0384169081179091558190611e82826116ce565b6001600160a01b03167f8c5be1e5ebec7d5bd14f71427d1e84f3dd0314c0f7b2291e5b200ac8c7c3b92560405160405180910390a45050565b600080611ec7836116ce565b9050806001600160a01b0316846001600160a01b03161480611eee5750611eee8185611d4a565b80611f125750836001600160a01b0316611f0784610508565b6001600160a01b0316145b949350505050565b826001600160a01b0316611f2d826116ce565b6001600160a01b031614611f535760405162461bcd60e51b81526004016105a39061329e565b6001600160a01b038216611fb55760405162461bcd60e51b8152602060048201526024808201527f4552433732313a207472616e7366657220746f20746865207a65726f206164646044820152637265737360e01b60648201526084016105a3565b826001600160a01b0316611fc8826116ce565b6001600160a01b031614611fee5760405162461bcd60e51b81526004016105a39061329e565b600081815260046020908152604080832080546001600160a01b03199081169091556001600160a01b0387811680865260038552838620805460001901905590871680865283862080546001019055868652600290945282852080549092168417909155905184937fddf252ad1be2c89b69c2b068fc378daa952ba7f163c4a11628f55a4df523b3ef91a4505050565b6001600160a01b0382166120d45760405162461bcd60e51b815260206004820181905260248201527f4552433732313a206d696e7420746f20746865207a65726f206164647265737360448201526064016105a3565b6000818152600260205260409020546001600160a01b0316156121395760405162461bcd60e51b815260206004820152601c60248201527f4552433732313a20746f6b656e20616c7265616479206d696e7465640000000060448201526064016105a3565b6000818152600260205260409020546001600160a01b03161561219e5760405162461bcd60e51b815260206004820152601c60248201527f4552433732313a20746f6b656e20616c7265616479206d696e7465640000000060448201526064016105a3565b6001600160a01b038216600081815260036020908152604080832080546001019055848352600290915280822080546001600160a01b0319168417905551839291907fddf252ad1be2c89b69c2b068fc378daa952ba7f163c4a11628f55a4df523b3ef908290a45050565b6006546001600160a01b03163314611b905760405162461bcd60e51b815260206004820181905260248201527f4f776e61626c653a2063616c6c6572206973206e6f7420746865206f776e657260448201526064016105a3565b600081815260076020526040902060068101544210156122bb5760405162461bcd60e51b815260206004820152601360248201527210995d081b9bdd081e595d08195e1c1a5c9959606a1b60448201526064016105a3565b600581015462010000900460ff16156122e65760405162461bcd60e51b81526004016105a3906131c4565b60058101805462ff00001916620100001790556003810154600282015460009161230f916130a0565b600b54600954604051631a4ca37b60e21b81526001600160a01b039182166004820152600019602482015230604482015292935016906369328dec906064016020604051808303816000875af115801561236d573d6000803e3d6000fd5b505050506040513d601f19601f820116820180604052508101906123919190613220565b506009546040516370a0823160e01b81523060048201526000916001600160a01b0316906370a0823190602401602060405180830381865afa1580156123db573d6000803e3d6000fd5b505050506040513d601f19601f820116820180604052508101906123ff9190613220565b905060008282101561241257600061241c565b61241c8383613239565b600585015490915060ff80821615156101009092041615151480156124475750600584015460ff1615155b1561268057600584015460ff161561247e5760095484546001600160a01b039182169163a9059cbb91166064611221856050613265565b60095484546001600160a01b039182169163a9059cbb911660646124a3856014613265565b6124ad919061327c565b87600201546124bc91906130a0565b6040518363ffffffff1660e01b81526004016124d992919061324c565b6020604051808303816000875af11580156124f8573d6000803e3d6000fd5b505050506040513d601f19601f8201168201806040525081019061251c9190612f45565b5060095460018501546001600160a01b039182169163a9059cbb91166064612545856050613265565b61254f919061327c565b876003015461255e91906130a0565b6040518363ffffffff1660e01b815260040161257b92919061324c565b6020604051808303816000875af115801561259a573d6000803e3d6000fd5b505050506040513d601f19601f820116820180604052508101906125be9190612f45565b50600a54845460405163a9059cbb60e01b81526001600160a01b039283169263a9059cbb926125fc92911690674563918244f400009060040161324c565b6020604051808303816000875af115801561261b573d6000803e3d6000fd5b505050506040513d601f19601f8201168201806040525081019061263f9190612f45565b50600a54600185015460405163a9059cbb60e01b81526001600160a01b039283169263a9059cbb926113fe92911690678ac7230489e800009060040161324c565b60095484546001600160a01b039182169163a9059cbb91166126a360028561327c565b87600201546126b291906130a0565b6040518363ffffffff1660e01b81526004016126cf92919061324c565b6020604051808303816000875af11580156126ee573d6000803e3d6000fd5b505050506040513d601f19601f820116820180604052508101906127129190612f45565b5060095460018501546001600160a01b039182169163a9059cbb911661273960028561327c565b876003015461274891906130a0565b6040518363ffffffff1660e01b815260040161276592919061324c565b6020604051808303816000875af1158015612784573d6000803e3d6000fd5b505050506040513d601f19601f820116820180604052508101906127a89190612f45565b50600a54845460405163a9059cbb60e01b81526001600160a01b039283169263a9059cbb926127e692911690671bc16d674ec800009060040161324c565b6020604051808303816000875af1158015612805573d6000803e3d6000fd5b505050506040513d601f19601f820116820180604052508101906128299190612f45565b50600a54600185015460405163a9059cbb60e01b81526001600160a01b039283169263a9059cbb9261164992911690671bc16d674ec800009060040161324c565b600680546001600160a01b038381166001600160a01b0319831681179093556040519116919082907f8be0079c531659141344cd1fd0a4f28419497f9722a3daafe3b4186f6b6457e090600090a35050565b816001600160a01b0316836001600160a01b03160361291d5760405162461bcd60e51b815260206004820152601960248201527f4552433732313a20617070726f766520746f2063616c6c65720000000000000060448201526064016105a3565b6001600160a01b03838116600081815260056020908152604080832094871680845294825291829020805460ff191686151590811790915591519182527f17307eab39ab6107e8899845ad3d59bd9653f200f220920489ca2b5937696c31910160405180910390a3505050565b612995848484611f1a565b6129a1848484846129bd565b611bde5760405162461bcd60e51b81526004016105a3906132e3565b60006001600160a01b0384163b15612ab357604051630a85bd0160e11b81526001600160a01b0385169063150b7a0290612a01903390899088908890600401613335565b6020604051808303816000875af1925050508015612a3c575060408051601f3d908101601f19168201909252612a3991810190613372565b60015b612a99573d808015612a6a576040519150601f19603f3d011682016040523d82523d6000602084013e612a6f565b606091505b508051600003612a915760405162461bcd60e51b81526004016105a3906132e3565b805181602001fd5b6001600160e01b031916630a85bd0160e11b149050611f12565b506001949350505050565b6001600160e01b031981168114611d4757600080fd5b600060208284031215612ae657600080fd5b8135612af181612abe565b9392505050565b6000815180845260005b81811015612b1e57602081850181015186830182015201612b02565b506000602082860101526020601f19601f83011685010191505092915050565b602081526000612af16020830184612af8565b600060208284031215612b6357600080fd5b5035919050565b80356001600160a01b0381168114612b8157600080fd5b919050565b60008060408385031215612b9957600080fd5b612ba283612b6a565b946020939093013593505050565b6001600160a01b038a8116825289166020820152604081018890526060810187905261012060808201819052600090612beb83820189612af8565b96151560a0840152505092151560c084015290151560e08301526101009091015295945050505050565b600080600060608486031215612c2a57600080fd5b612c3384612b6a565b9250612c4160208501612b6a565b9150604084013590509250925092565b60008083601f840112612c6357600080fd5b50813567ffffffffffffffff811115612c7b57600080fd5b602083019150836020828501011115612c9357600080fd5b9250929050565b600080600080600060608688031215612cb257600080fd5b85359450602086013567ffffffffffffffff80821115612cd157600080fd5b612cdd89838a01612c51565b90965094506040880135915080821115612cf657600080fd5b50612d0388828901612c51565b969995985093965092949392505050565b8015158114611d4757600080fd5b60008060408385031215612d3557600080fd5b823591506020830135612d4781612d14565b809150509250929050565b600060208284031215612d6457600080fd5b612af182612b6a565b60008060408385031215612d8057600080fd5b612d8983612b6a565b91506020830135612d4781612d14565b634e487b7160e01b600052604160045260246000fd5b60008060008060808587031215612dc557600080fd5b612dce85612b6a565b9350612ddc60208601612b6a565b925060408501359150606085013567ffffffffffffffff80821115612e0057600080fd5b818701915087601f830112612e1457600080fd5b813581811115612e2657612e26612d99565b604051601f8201601f19908116603f01168101908382118183101715612e4e57612e4e612d99565b816040528281528a6020848701011115612e6757600080fd5b82602086016020830137600060208483010152809550505050505092959194509250565b60008060408385031215612e9e57600080fd5b612ea783612b6a565b9150612eb560208401612b6a565b90509250929050565b600181811c90821680612ed257607f821691505b602082108103612ef257634e487b7160e01b600052602260045260246000fd5b50919050565b6020808252602d908201527f4552433732313a2063616c6c6572206973206e6f7420746f6b656e206f776e6560408201526c1c881bdc88185c1c1c9bdd9959609a1b606082015260800190565b600060208284031215612f5757600080fd5b8151612af181612d14565b634e487b7160e01b600052601160045260246000fd5b600060018201612f8a57612f8a612f62565b5060010190565b601f82111561064457600081815260208120601f850160051c81016020861015612fb85750805b601f850160051c820191505b81811015612fd757828155600101612fc4565b505050505050565b67ffffffffffffffff831115612ff757612ff7612d99565b61300b836130058354612ebe565b83612f91565b6000601f84116001811461303f57600085156130275750838201355b600019600387901b1c1916600186901b178355613099565b600083815260209020601f19861690835b828110156130705786850135825560209485019460019092019101613050565b508682101561308d5760001960f88860031b161c19848701351681555b505060018560011b0183555b5050505050565b8082018082111561047057610470612f62565b815167ffffffffffffffff8111156130cd576130cd612d99565b6130e1816130db8454612ebe565b84612f91565b602080601f83116001811461311657600084156130fe5750858301515b600019600386901b1c1916600185901b178555612fd7565b600085815260208120601f198616915b8281101561314557888601518255948401946001909101908401613126565b50858210156131635787850151600019600388901b60f8161c191681555b5050505050600190811b01905550565b8581526001600160a01b03851660208201526080604082018190528101839052828460a0830137600060a08483010152600060a0601f19601f86011683010190508260608301529695505050505050565b60208082526014908201527310995d08185b1c9958591e481c995cdbdb1d995960621b604082015260600190565b60208082526014908201527310995d081b9bdd081858d8d95c1d1959081e595d60621b604082015260600190565b60006020828403121561323257600080fd5b5051919050565b8181038181111561047057610470612f62565b6001600160a01b03929092168252602082015260400190565b808202811582820484141761047057610470612f62565b60008261329957634e487b7160e01b600052601260045260246000fd5b500490565b60208082526025908201527f4552433732313a207472616e736665722066726f6d20696e636f72726563742060408201526437bbb732b960d91b606082015260800190565b60208082526032908201527f4552433732313a207472616e7366657220746f206e6f6e20455243373231526560408201527131b2b4bb32b91034b6b83632b6b2b73a32b960711b606082015260800190565b6001600160a01b038581168252841660208201526040810183905260806060820181905260009061336890830184612af8565b9695505050505050565b60006020828403121561338457600080fd5b8151612af181612abe56fea26469706673582212204a563ccae97dca5b597bd4c6398ee0877a7085a77db1b88248dbfd85c205be3464736f6c63430008130033",
  "linkReferences": {},
  "deployedLinkReferences": {}
}