{
  "_format": "hh-sol-artifact-1",
  "contractName": "NoLossBet",
  "sourceName": "packages/hardhat/contracts/NoLossBet.sol",
  "abi": [
    {
      "inputs": [
        {
          "internalType": "address",
          "name": "_celoToken",
          "type": "address"
        },
        {
          "internalType": "address",
          "name": "_stableToken",
          "type": "address"
        },
        {
          "internalType": "address",
          "name": "_betM3Token",
          "type": "address"
        },
        {
          "internalType": "address",
          "name": "_lpToken",
          "type": "address"
        },
        {
          "internalType": "address",
          "name": "_uniswapRouter",
          "type": "address"
        }
      ],
      "stateMutability": "nonpayable",
      "type": "constructor"
    },
    {
      "anonymous": false,
      "inputs": [
        {
          "indexed": true,
          "internalType": "address",
          "name": "owner",
          "type": "address"
        },
        {
          "indexed": true,
          "internalType": "address",
          "name": "approved",
          "type": "address"
        },
        {
          "indexed": true,
          "internalType": "uint256",
          "name": "tokenId",
          "type": "uint256"
        }
      ],
      "name": "Approval",
      "type": "event"
    },
    {
      "anonymous": false,
      "inputs": [
        {
          "indexed": true,
          "internalType": "address",
          "name": "owner",
          "type": "address"
        },
        {
          "indexed": true,
          "internalType": "address",
          "name": "operator",
          "type": "address"
        },
        {
          "indexed": false,
          "internalType": "bool",
          "name": "approved",
          "type": "bool"
        }
      ],
      "name": "ApprovalForAll",
      "type": "event"
    },
    {
      "anonymous": false,
      "inputs": [
        {
          "indexed": false,
          "internalType": "uint256",
          "name": "betId",
          "type": "uint256"
        },
        {
          "indexed": false,
          "internalType": "address",
          "name": "opponent",
          "type": "address"
        }
      ],
      "name": "BetAccepted",
      "type": "event"
    },
    {
      "anonymous": false,
      "inputs": [
        {
          "indexed": false,
          "internalType": "uint256",
          "name": "betId",
          "type": "uint256"
        },
        {
          "indexed": false,
          "internalType": "address",
          "name": "creator",
          "type": "address"
        },
        {
          "indexed": false,
          "internalType": "string",
          "name": "condition",
          "type": "string"
        },
        {
          "indexed": false,
          "internalType": "uint256",
          "name": "expiration",
          "type": "uint256"
        }
      ],
      "name": "BetCreated",
      "type": "event"
    },
    {
      "anonymous": false,
      "inputs": [
        {
          "indexed": false,
          "internalType": "uint256",
          "name": "betId",
          "type": "uint256"
        },
        {
          "indexed": false,
          "internalType": "uint256",
          "name": "totalYield",
          "type": "uint256"
        }
      ],
      "name": "BetResolved",
      "type": "event"
    },
    {
      "anonymous": false,
      "inputs": [
        {
          "indexed": false,
          "internalType": "uint256",
          "name": "betId",
          "type": "uint256"
        },
        {
          "indexed": false,
          "internalType": "address",
          "name": "winner",
          "type": "address"
        }
      ],
      "name": "DisputeResolved",
      "type": "event"
    },
    {
      "anonymous": false,
      "inputs": [
        {
          "indexed": false,
          "internalType": "uint256",
          "name": "betId",
          "type": "uint256"
        },
        {
          "indexed": false,
          "internalType": "bool",
          "name": "success",
          "type": "bool"
        }
      ],
      "name": "OutcomeSubmitted",
      "type": "event"
    },
    {
      "anonymous": false,
      "inputs": [
        {
          "indexed": true,
          "internalType": "address",
          "name": "previousOwner",
          "type": "address"
        },
        {
          "indexed": true,
          "internalType": "address",
          "name": "newOwner",
          "type": "address"
        }
      ],
      "name": "OwnershipTransferred",
      "type": "event"
    },
    {
      "anonymous": false,
      "inputs": [
        {
          "indexed": true,
          "internalType": "address",
          "name": "from",
          "type": "address"
        },
        {
          "indexed": true,
          "internalType": "address",
          "name": "to",
          "type": "address"
        },
        {
          "indexed": true,
          "internalType": "uint256",
          "name": "tokenId",
          "type": "uint256"
        }
      ],
      "name": "Transfer",
      "type": "event"
    },
    {
      "inputs": [],
      "name": "BET_DURATION",
      "outputs": [
        {
          "internalType": "uint256",
          "name": "",
          "type": "uint256"
        }
      ],
      "stateMutability": "view",
      "type": "function"
    },
    {
      "inputs": [
        {
          "internalType": "uint256",
          "name": "_betId",
          "type": "uint256"
        }
      ],
      "name": "acceptBet",
      "outputs": [],
      "stateMutability": "nonpayable",
      "type": "function"
    },
    {
      "inputs": [
        {
          "internalType": "address",
          "name": "to",
          "type": "address"
        },
        {
          "internalType": "uint256",
          "name": "tokenId",
          "type": "uint256"
        }
      ],
      "name": "approve",
      "outputs": [],
      "stateMutability": "nonpayable",
      "type": "function"
    },
    {
      "inputs": [
        {
          "internalType": "address",
          "name": "owner",
          "type": "address"
        }
      ],
      "name": "balanceOf",
      "outputs": [
        {
          "internalType": "uint256",
          "name": "",
          "type": "uint256"
        }
      ],
      "stateMutability": "view",
      "type": "function"
    },
    {
      "inputs": [],
      "name": "betCounter",
      "outputs": [
        {
          "internalType": "uint256",
          "name": "",
          "type": "uint256"
        }
      ],
      "stateMutability": "view",
      "type": "function"
    },
    {
      "inputs": [
        {
          "internalType": "uint256",
          "name": "",
          "type": "uint256"
        }
      ],
      "name": "betLiquidity",
      "outputs": [
        {
          "internalType": "uint256",
          "name": "",
          "type": "uint256"
        }
      ],
      "stateMutability": "view",
      "type": "function"
    },
    {
      "inputs": [],
      "name": "betM3Token",
      "outputs": [
        {
          "internalType": "contract IERC20",
          "name": "",
          "type": "address"
        }
      ],
      "stateMutability": "view",
      "type": "function"
    },
    {
      "inputs": [
        {
          "internalType": "uint256",
          "name": "",
          "type": "uint256"
        }
      ],
      "name": "bets",
      "outputs": [
        {
          "internalType": "address",
          "name": "creator",
          "type": "address"
        },
        {
          "internalType": "address",
          "name": "opponent",
          "type": "address"
        },
        {
          "internalType": "uint256",
          "name": "creatorStake",
          "type": "uint256"
        },
        {
          "internalType": "uint256",
          "name": "opponentStake",
          "type": "uint256"
        },
        {
          "internalType": "string",
          "name": "condition",
          "type": "string"
        },
        {
          "internalType": "bool",
          "name": "creatorOutcome",
          "type": "bool"
        },
        {
          "internalType": "bool",
          "name": "opponentOutcome",
          "type": "bool"
        },
        {
          "internalType": "bool",
          "name": "resolved",
          "type": "bool"
        },
        {
          "internalType": "uint256",
          "name": "expiration",
          "type": "uint256"
        }
      ],
      "stateMutability": "view",
      "type": "function"
    },
    {
      "inputs": [],
      "name": "celoToken",
      "outputs": [
        {
          "internalType": "contract IERC20",
          "name": "",
          "type": "address"
        }
      ],
      "stateMutability": "view",
      "type": "function"
    },
    {
      "inputs": [
        {
          "internalType": "uint256",
          "name": "_opponentStake",
          "type": "uint256"
        },
        {
          "internalType": "string",
          "name": "_condition",
          "type": "string"
        },
        {
          "internalType": "string",
          "name": "_tokenURI",
          "type": "string"
        }
      ],
      "name": "createBet",
      "outputs": [],
      "stateMutability": "nonpayable",
      "type": "function"
    },
    {
      "inputs": [
        {
          "internalType": "uint256",
          "name": "amount",
          "type": "uint256"
        }
      ],
      "name": "fundCommunityPool",
      "outputs": [],
      "stateMutability": "nonpayable",
      "type": "function"
    },
    {
      "inputs": [
        {
          "internalType": "uint256",
          "name": "amount",
          "type": "uint256"
        }
      ],
      "name": "fundStableTokenPool",
      "outputs": [],
      "stateMutability": "nonpayable",
      "type": "function"
    },
    {
      "inputs": [
        {
          "internalType": "uint256",
          "name": "tokenId",
          "type": "uint256"
        }
      ],
      "name": "getApproved",
      "outputs": [
        {
          "internalType": "address",
          "name": "",
          "type": "address"
        }
      ],
      "stateMutability": "view",
      "type": "function"
    },
    {
      "inputs": [
        {
          "internalType": "address",
          "name": "owner",
          "type": "address"
        },
        {
          "internalType": "address",
          "name": "operator",
          "type": "address"
        }
      ],
      "name": "isApprovedForAll",
      "outputs": [
        {
          "internalType": "bool",
          "name": "",
          "type": "bool"
        }
      ],
      "stateMutability": "view",
      "type": "function"
    },
    {
      "inputs": [],
      "name": "lpToken",
      "outputs": [
        {
          "internalType": "contract IERC20",
          "name": "",
          "type": "address"
        }
      ],
      "stateMutability": "view",
      "type": "function"
    },
    {
      "inputs": [],
      "name": "name",
      "outputs": [
        {
          "internalType": "string",
          "name": "",
          "type": "string"
        }
      ],
      "stateMutability": "view",
      "type": "function"
    },
    {
      "inputs": [],
      "name": "owner",
      "outputs": [
        {
          "internalType": "address",
          "name": "",
          "type": "address"
        }
      ],
      "stateMutability": "view",
      "type": "function"
    },
    {
      "inputs": [
        {
          "internalType": "uint256",
          "name": "tokenId",
          "type": "uint256"
        }
      ],
      "name": "ownerOf",
      "outputs": [
        {
          "internalType": "address",
          "name": "",
          "type": "address"
        }
      ],
      "stateMutability": "view",
      "type": "function"
    },
    {
      "inputs": [],
      "name": "renounceOwnership",
      "outputs": [],
      "stateMutability": "nonpayable",
      "type": "function"
    },
    {
      "inputs": [
        {
          "internalType": "uint256",
          "name": "_betId",
          "type": "uint256"
        }
      ],
      "name": "resolveBet",
      "outputs": [],
      "stateMutability": "nonpayable",
      "type": "function"
    },
    {
      "inputs": [
        {
          "internalType": "uint256",
          "name": "_betId",
          "type": "uint256"
        },
        {
          "internalType": "bool",
          "name": "_creatorWins",
          "type": "bool"
        }
      ],
      "name": "resolveDispute",
      "outputs": [],
      "stateMutability": "nonpayable",
      "type": "function"
    },
    {
      "inputs": [
        {
          "internalType": "address",
          "name": "from",
          "type": "address"
        },
        {
          "internalType": "address",
          "name": "to",
          "type": "address"
        },
        {
          "internalType": "uint256",
          "name": "tokenId",
          "type": "uint256"
        }
      ],
      "name": "safeTransferFrom",
      "outputs": [],
      "stateMutability": "nonpayable",
      "type": "function"
    },
    {
      "inputs": [
        {
          "internalType": "address",
          "name": "from",
          "type": "address"
        },
        {
          "internalType": "address",
          "name": "to",
          "type": "address"
        },
        {
          "internalType": "uint256",
          "name": "tokenId",
          "type": "uint256"
        },
        {
          "internalType": "bytes",
          "name": "data",
          "type": "bytes"
        }
      ],
      "name": "safeTransferFrom",
      "outputs": [],
      "stateMutability": "nonpayable",
      "type": "function"
    },
    {
      "inputs": [
        {
          "internalType": "address",
          "name": "operator",
          "type": "address"
        },
        {
          "internalType": "bool",
          "name": "approved",
          "type": "bool"
        }
      ],
      "name": "setApprovalForAll",
      "outputs": [],
      "stateMutability": "nonpayable",
      "type": "function"
    },
    {
      "inputs": [],
      "name": "stableToken",
      "outputs": [
        {
          "internalType": "contract IERC20",
          "name": "",
          "type": "address"
        }
      ],
      "stateMutability": "view",
      "type": "function"
    },
    {
      "inputs": [
        {
          "internalType": "uint256",
          "name": "_betId",
          "type": "uint256"
        },
        {
          "internalType": "bool",
          "name": "_success",
          "type": "bool"
        }
      ],
      "name": "submitOutcome",
      "outputs": [],
      "stateMutability": "nonpayable",
      "type": "function"
    },
    {
      "inputs": [
        {
          "internalType": "bytes4",
          "name": "interfaceId",
          "type": "bytes4"
        }
      ],
      "name": "supportsInterface",
      "outputs": [
        {
          "internalType": "bool",
          "name": "",
          "type": "bool"
        }
      ],
      "stateMutability": "view",
      "type": "function"
    },
    {
      "inputs": [],
      "name": "symbol",
      "outputs": [
        {
          "internalType": "string",
          "name": "",
          "type": "string"
        }
      ],
      "stateMutability": "view",
      "type": "function"
    },
    {
      "inputs": [
        {
          "internalType": "uint256",
          "name": "tokenId",
          "type": "uint256"
        }
      ],
      "name": "tokenURI",
      "outputs": [
        {
          "internalType": "string",
          "name": "",
          "type": "string"
        }
      ],
      "stateMutability": "view",
      "type": "function"
    },
    {
      "inputs": [
        {
          "internalType": "uint256",
          "name": "",
          "type": "uint256"
        }
      ],
      "name": "tokenURIs",
      "outputs": [
        {
          "internalType": "string",
          "name": "",
          "type": "string"
        }
      ],
      "stateMutability": "view",
      "type": "function"
    },
    {
      "inputs": [
        {
          "internalType": "address",
          "name": "from",
          "type": "address"
        },
        {
          "internalType": "address",
          "name": "to",
          "type": "address"
        },
        {
          "internalType": "uint256",
          "name": "tokenId",
          "type": "uint256"
        }
      ],
      "name": "transferFrom",
      "outputs": [],
      "stateMutability": "nonpayable",
      "type": "function"
    },
    {
      "inputs": [
        {
          "internalType": "address",
          "name": "newOwner",
          "type": "address"
        }
      ],
      "name": "transferOwnership",
      "outputs": [],
      "stateMutability": "nonpayable",
      "type": "function"
    },
    {
      "inputs": [],
      "name": "uniswapRouter",
      "outputs": [
        {
          "internalType": "contract IUniswapV2Router",
          "name": "",
          "type": "address"
        }
      ],
      "stateMutability": "view",
      "type": "function"
    }
  ],
  "bytecode": "0x60806040523480156200001157600080fd5b506040516200454f3803806200454f833981016040819052620000349162000190565b60405180604001604052806009815260200168139bd31bdcdcd0995d60ba1b8152506040518060400160405280600381526020016227262160e91b8152508160009081620000839190620002a5565b506001620000928282620002a5565b505050620000af620000a96200011d60201b60201c565b62000121565b620000ba3362000121565b600a80546001600160a01b03199081166001600160a01b0397881617909155600b8054821695871695909517909455600c8054851693861693909317909255600d80548416918516919091179055600e8054909216921691909117905562000371565b3390565b600680546001600160a01b038381166001600160a01b0319831681179093556040519116919082907f8be0079c531659141344cd1fd0a4f28419497f9722a3daafe3b4186f6b6457e090600090a35050565b80516001600160a01b03811681146200018b57600080fd5b919050565b600080600080600060a08688031215620001a957600080fd5b620001b48662000173565b9450620001c46020870162000173565b9350620001d46040870162000173565b9250620001e46060870162000173565b9150620001f46080870162000173565b90509295509295909350565b634e487b7160e01b600052604160045260246000fd5b600181811c908216806200022b57607f821691505b6020821081036200024c57634e487b7160e01b600052602260045260246000fd5b50919050565b601f821115620002a057600081815260208120601f850160051c810160208610156200027b5750805b601f850160051c820191505b818110156200029c5782815560010162000287565b5050505b505050565b81516001600160401b03811115620002c157620002c162000200565b620002d981620002d2845462000216565b8462000252565b602080601f831160018114620003115760008415620002f85750858301515b600019600386901b1c1916600185901b1785556200029c565b600085815260208120601f198616915b82811015620003425788860151825594840194600190910190840162000321565b5085821015620003615787850151600019600388901b60f8161c191681555b5050505050600190811b01905550565b6141ce80620003816000396000f3fe608060405234801561001057600080fd5b50600436106101fb5760003560e01c80636c8b703f1161011a578063a9d75b2b116100ad578063dee686231161007c578063dee6862314610453578063e22d551a14610466578063e53d4c2d14610479578063e985e9c514610483578063f2fde38b1461049657600080fd5b8063a9d75b2b146103fa578063ad0de5bc1461040d578063b88d4fde1461042d578063c87b56dd1461044057600080fd5b80638da5cb5b116100e95780638da5cb5b146103c557806395d89b41146103d6578063a22cb465146103de578063a416f5ab146103f157600080fd5b80636c8b703f1461037657806370a0823114610389578063715018a6146103aa578063735de9f7146103b257600080fd5b806334b25ee21161019257806354e16c651161016157806354e16c651461032a5780635fcbd2851461033d5780636352211e146103505780636c0c27e11461036357600080fd5b806334b25ee2146102de57806341b80300146102f157806342842e0e146103045780634c36c36e1461031757600080fd5b806322af00fa116101ce57806322af00fa1461027d57806323b872dd146102a557806324697399146102b8578063292e9556146102cb57600080fd5b806301ffc9a71461020057806306fdde0314610228578063081812fc1461023d578063095ea7b314610268575b600080fd5b61021361020e366004613827565b6104a9565b60405190151581526020015b60405180910390f35b6102306104fb565b60405161021f9190613891565b61025061024b3660046138a4565b61058d565b6040516001600160a01b03909116815260200161021f565b61027b6102763660046138d9565b6105b4565b005b61029061028b3660046138a4565b6106ce565b60405161021f99989796959493929190613903565b61027b6102b3366004613968565b6107b6565b600c54610250906001600160a01b031681565b61027b6102d93660046139ed565b6107e7565b61027b6102ec366004613a75565b610a88565b61027b6102ff366004613a75565b6110b2565b61027b610312366004613968565b6111f4565b61027b6103253660046138a4565b61120f565b61027b6103383660046138a4565b611d90565b600d54610250906001600160a01b031681565b61025061035e3660046138a4565b611e50565b61027b6103713660046138a4565b611eb0565b6102306103843660046138a4565b6123e2565b61039c610397366004613aa5565b61247c565b60405190815260200161021f565b61027b612502565b600e54610250906001600160a01b031681565b6006546001600160a01b0316610250565b610230612516565b61027b6103ec366004613ac0565b612525565b61039c600f5481565b600b54610250906001600160a01b031681565b61039c61041b3660046138a4565b60096020526000908152604090205481565b61027b61043b366004613b02565b612530565b61023061044e3660046138a4565b612568565b61027b6104613660046138a4565b61260a565b600a54610250906001600160a01b031681565b61039c6212750081565b610213610491366004613bde565b612646565b61027b6104a4366004613aa5565b612674565b60006001600160e01b031982166380ac58cd60e01b14806104da57506001600160e01b03198216635b5e139f60e01b145b806104f557506301ffc9a760e01b6001600160e01b03198316145b92915050565b60606000805461050a90613c11565b80601f016020809104026020016040519081016040528092919081815260200182805461053690613c11565b80156105835780601f1061055857610100808354040283529160200191610583565b820191906000526020600020905b81548152906001019060200180831161056657829003601f168201915b5050505050905090565b6000610598826126ea565b506000908152600460205260409020546001600160a01b031690565b60006105bf82611e50565b9050806001600160a01b0316836001600160a01b0316036106315760405162461bcd60e51b815260206004820152602160248201527f4552433732313a20617070726f76616c20746f2063757272656e74206f776e656044820152603960f91b60648201526084015b60405180910390fd5b336001600160a01b038216148061064d575061064d8133612646565b6106bf5760405162461bcd60e51b815260206004820152603d60248201527f4552433732313a20617070726f76652063616c6c6572206973206e6f7420746f60448201527f6b656e206f776e6572206f7220617070726f76656420666f7220616c6c0000006064820152608401610628565b6106c98383612749565b505050565b600760205260009081526040902080546001820154600283015460038401546004850180546001600160a01b039586169694909516949293919261071190613c11565b80601f016020809104026020016040519081016040528092919081815260200182805461073d90613c11565b801561078a5780601f1061075f5761010080835404028352916020019161078a565b820191906000526020600020905b81548152906001019060200180831161076d57829003601f168201915b5050506005840154600690940154929360ff808216946101008304821694506201000090920416915089565b6107c033826127b7565b6107dc5760405162461bcd60e51b815260040161062890613c4b565b6106c9838383612816565b600a546040516323b872dd60e01b81526001600160a01b03909116906323b872dd90610824903390309068056bc75e2d6310000090600401613c98565b6020604051808303816000875af1158015610843573d6000803e3d6000fd5b505050506040513d601f19601f820116820180604052508101906108679190613cbc565b6108ab5760405162461bcd60e51b815260206004820152601560248201527414dd185ad9481d1c985b9cd9995c8819985a5b1959605a1b6044820152606401610628565b600f8054600091826108bc83613cef565b9190505590506108cc338261297a565b60008181526008602052604090206108e5838583613d56565b5060006108f56212750042613e17565b9050604051806101200160405280336001600160a01b0316815260200160006001600160a01b0316815260200168056bc75e2d63100000815260200188815260200187878080601f016020809104026020016040519081016040528093929190818152602001838380828437600092018290525093855250505060208083018290526040808401839052606080850184905260809485018790528784526007835292819020855181546001600160a01b03199081166001600160a01b039283161783559387015160018301805490951691161790925584015160028201559083015160038201559082015160048201906109ef9082613e2a565b5060a082015160058201805460c085015160e086015161ffff1990921693151561ff0019169390931761010093151584021762ff000019166201000091151591909102179055909101516006909101556040517fe8e535ef9804960dfde2925cd2b47ef7ada0c70faf4f250196fd7f6132b8dabd90610a7790849033908a908a908790613eea565b60405180910390a150505050505050565b610a90612b05565b6000828152600760205260409020600581015462010000900460ff1615610ac95760405162461bcd60e51b815260040161062890613f3b565b60018101546001600160a01b0316610af35760405162461bcd60e51b815260040161062890613f69565b600581015460ff6101008204811615159116151503610b415760405162461bcd60e51b815260206004820152600a6024820152694e6f206469737075746560b01b6044820152606401610628565b60058101805462ff000019166201000017905560008381526009602052604081205460038301546002840154919291610b7a9190613e17565b600d54600e5460405163095ea7b360e01b81529293506001600160a01b039182169263095ea7b392610bb29216908690600401613f97565b6020604051808303816000875af1158015610bd1573d6000803e3d6000fd5b505050506040513d601f19601f82011682018060405250810190610bf59190613cbc565b50600e54600a54600b5460009283926001600160a01b039182169263baa2abde92918216911687858030610c2b42610384613e17565b6040518863ffffffff1660e01b8152600401610c4d9796959493929190613fb0565b60408051808303816000875af1158015610c6b573d6000803e3d6000fd5b505050506040513d601f19601f82011682018060405250810190610c8f9190613ff0565b90925090506000610ca08284613e17565b90506000848211610cb2576000610cbc565b610cbc8583614014565b90508715610dd257600a54875460028901546001600160a01b039283169263a9059cbb921690610ced908590613e17565b6040518363ffffffff1660e01b8152600401610d0a929190613f97565b6020604051808303816000875af1158015610d29573d6000803e3d6000fd5b505050506040513d601f19601f82011682018060405250810190610d4d9190613cbc565b50600a546001880154600389015460405163a9059cbb60e01b81526001600160a01b039384169363a9059cbb93610d8993911691600401613f97565b6020604051808303816000875af1158015610da8573d6000803e3d6000fd5b505050506040513d601f19601f82011682018060405250810190610dcc9190613cbc565b50610edc565b600a548754600289015460405163a9059cbb60e01b81526001600160a01b039384169363a9059cbb93610e0a93911691600401613f97565b6020604051808303816000875af1158015610e29573d6000803e3d6000fd5b505050506040513d601f19601f82011682018060405250810190610e4d9190613cbc565b50600a54600188015460038901546001600160a01b039283169263a9059cbb921690610e7a908590613e17565b6040518363ffffffff1660e01b8152600401610e97929190613f97565b6020604051808303816000875af1158015610eb6573d6000803e3d6000fd5b505050506040513d601f19601f82011682018060405250810190610eda9190613cbc565b505b600b546040516370a0823160e01b81523060048201526000916001600160a01b0316906370a0823190602401602060405180830381865afa158015610f25573d6000803e3d6000fd5b505050506040513d601f19601f82011682018060405250810190610f499190614027565b111561104057600b546001600160a01b031663a9059cbb610f726006546001600160a01b031690565b600b546040516370a0823160e01b81523060048201526001600160a01b03909116906370a0823190602401602060405180830381865afa158015610fba573d6000803e3d6000fd5b505050506040513d601f19601f82011682018060405250810190610fde9190614027565b6040518363ffffffff1660e01b8152600401610ffb929190613f97565b6020604051808303816000875af115801561101a573d6000803e3d6000fd5b505050506040513d601f19601f8201168201806040525081019061103e9190613cbc565b505b7ff77ceb5e091d2da041bc760667f9d5fe7a756949eaf29250ad0e60ca6f4c27d9898961107a5760018901546001600160a01b0316611086565b88546001600160a01b03165b604080519283526001600160a01b039091166020830152015b60405180910390a1505050505050505050565b600082815260076020526040902080546001600160a01b03163314806110e4575060018101546001600160a01b031633145b6111245760405162461bcd60e51b8152602060048201526011602482015270139bdd0818481c185c9d1a58da5c185b9d607a1b6044820152606401610628565b600581015462010000900460ff161561114f5760405162461bcd60e51b815260040161062890613f3b565b60018101546001600160a01b03166111795760405162461bcd60e51b815260040161062890613f69565b80546001600160a01b0316330361119f5760058101805460ff19168315151790556111b5565b60058101805461ff001916610100841515021790555b6040805184815283151560208201527f4d0f19e37ce2918eb3ea8d2f64d9489a5d5e7bb6b7fb871e9595152a261a2ec2910160405180910390a1505050565b6106c983838360405180602001604052806000815250612530565b6000818152600760205260409020600581015462010000900460ff16156112485760405162461bcd60e51b815260040161062890613f3b565b60018101546001600160a01b03166112725760405162461bcd60e51b815260040161062890613f69565b8060060154421061128a5761128682612b5f565b5050565b600581015460ff8082161515610100909204161515146112e45760405162461bcd60e51b815260206004820152601560248201527409eeae8c6dedacae640c8de40dcdee840dac2e8c6d605b1b6044820152606401610628565b60058101805462ff00001916620100001790556000828152600960205260408120546003830154600284015491929161131d9190613e17565b9050600061132c600283614040565b600d54600e5460405163095ea7b360e01b81529293506001600160a01b039182169263095ea7b3926113649216908790600401613f97565b6020604051808303816000875af1158015611383573d6000803e3d6000fd5b505050506040513d601f19601f820116820180604052508101906113a79190613cbc565b50600e54600a54600b5460009283926001600160a01b039182169263baa2abde929182169116888580306113dd42610384613e17565b6040518863ffffffff1660e01b81526004016113ff9796959493929190613fb0565b60408051808303816000875af115801561141d573d6000803e3d6000fd5b505050506040513d601f19601f820116820180604052508101906114419190613ff0565b909250905060006114528284613e17565b9050600085821161146457600061146e565b61146e8683614014565b600589015490915060ff161561183c57600086858a600201546114919190614062565b61149b9190614040565b9050600087868b600301546114b09190614062565b6114ba9190614040565b600a548b549192506001600160a01b039081169163a9059cbb911660646114e2876050614062565b6114ec9190614040565b6114f69086613e17565b6040518363ffffffff1660e01b8152600401611513929190613f97565b6020604051808303816000875af1158015611532573d6000803e3d6000fd5b505050506040513d601f19601f820116820180604052508101906115569190613cbc565b50600a5460018b01546001600160a01b039182169163a9059cbb9116606461157f876014614062565b6115899190614040565b6115939085613e17565b6040518363ffffffff1660e01b81526004016115b0929190613f97565b6020604051808303816000875af11580156115cf573d6000803e3d6000fd5b505050506040513d601f19601f820116820180604052508101906115f39190613cbc565b50841561173057600088868c6002015461160d9190614062565b6116179190614040565b9050600089878d6003015461162c9190614062565b6116369190614040565b600b548d5460405163a9059cbb60e01b81529293506001600160a01b039182169263a9059cbb9261166d9216908690600401613f97565b6020604051808303816000875af115801561168c573d6000803e3d6000fd5b505050506040513d601f19601f820116820180604052508101906116b09190613cbc565b50600b5460018d015460405163a9059cbb60e01b81526001600160a01b039283169263a9059cbb926116e9929116908590600401613f97565b6020604051808303816000875af1158015611708573d6000803e3d6000fd5b505050506040513d601f19601f8201168201806040525081019061172c9190613cbc565b5050505b600c548a5460405163a9059cbb60e01b81526001600160a01b039283169263a9059cbb9261176d92911690678ac7230489e8000090600401613f97565b6020604051808303816000875af115801561178c573d6000803e3d6000fd5b505050506040513d601f19601f820116820180604052508101906117b09190613cbc565b50600c5460018b015460405163a9059cbb60e01b81526001600160a01b039283169263a9059cbb926117f192911690674563918244f4000090600401613f97565b6020604051808303816000875af1158015611810573d6000803e3d6000fd5b505050506040513d601f19601f820116820180604052508101906118349190613cbc565b505050611bf6565b600086858a6002015461184f9190614062565b6118599190614040565b9050600087868b6003015461186e9190614062565b6118789190614040565b600a548b549192506001600160a01b039081169163a9059cbb911660646118a0876014614062565b6118aa9190614040565b6118b49086613e17565b6040518363ffffffff1660e01b81526004016118d1929190613f97565b6020604051808303816000875af11580156118f0573d6000803e3d6000fd5b505050506040513d601f19601f820116820180604052508101906119149190613cbc565b50600a5460018b01546001600160a01b039182169163a9059cbb9116606461193d876050614062565b6119479190614040565b6119519085613e17565b6040518363ffffffff1660e01b815260040161196e929190613f97565b6020604051808303816000875af115801561198d573d6000803e3d6000fd5b505050506040513d601f19601f820116820180604052508101906119b19190613cbc565b508415611aee57600088868c600201546119cb9190614062565b6119d59190614040565b9050600089878d600301546119ea9190614062565b6119f49190614040565b600b548d5460405163a9059cbb60e01b81529293506001600160a01b039182169263a9059cbb92611a2b9216908690600401613f97565b6020604051808303816000875af1158015611a4a573d6000803e3d6000fd5b505050506040513d601f19601f82011682018060405250810190611a6e9190613cbc565b50600b5460018d015460405163a9059cbb60e01b81526001600160a01b039283169263a9059cbb92611aa7929116908590600401613f97565b6020604051808303816000875af1158015611ac6573d6000803e3d6000fd5b505050506040513d601f19601f82011682018060405250810190611aea9190613cbc565b5050505b600c548a5460405163a9059cbb60e01b81526001600160a01b039283169263a9059cbb92611b2b92911690674563918244f4000090600401613f97565b6020604051808303816000875af1158015611b4a573d6000803e3d6000fd5b505050506040513d601f19601f82011682018060405250810190611b6e9190613cbc565b50600c5460018b015460405163a9059cbb60e01b81526001600160a01b039283169263a9059cbb92611baf92911690678ac7230489e8000090600401613f97565b6020604051808303816000875af1158015611bce573d6000803e3d6000fd5b505050506040513d601f19601f82011682018060405250810190611bf29190613cbc565b5050505b600b546040516370a0823160e01b81523060048201526000916001600160a01b0316906370a0823190602401602060405180830381865afa158015611c3f573d6000803e3d6000fd5b505050506040513d601f19601f82011682018060405250810190611c639190614027565b1115611d5a57600b546001600160a01b031663a9059cbb611c8c6006546001600160a01b031690565b600b546040516370a0823160e01b81523060048201526001600160a01b03909116906370a0823190602401602060405180830381865afa158015611cd4573d6000803e3d6000fd5b505050506040513d601f19601f82011682018060405250810190611cf89190614027565b6040518363ffffffff1660e01b8152600401611d15929190613f97565b6020604051808303816000875af1158015611d34573d6000803e3d6000fd5b505050506040513d601f19601f82011682018060405250810190611d589190613cbc565b505b604080518a8152602081018390527f6f014aa1fc0c12b56c099fa8727bbf780907046b16c01199f4092f5c721187ab910161109f565b611d98612b05565b600b546040516323b872dd60e01b81526001600160a01b03909116906323b872dd90611dcc90339030908690600401613c98565b6020604051808303816000875af1158015611deb573d6000803e3d6000fd5b505050506040513d601f19601f82011682018060405250810190611e0f9190613cbc565b611e4d5760405162461bcd60e51b815260206004820152600f60248201526e151c985b9cd9995c8819985a5b1959608a1b6044820152606401610628565b50565b6000818152600260205260408120546001600160a01b0316806104f55760405162461bcd60e51b8152602060048201526018602482015277115490cdcc8c4e881a5b9d985b1a59081d1bdad95b88125160421b6044820152606401610628565b600081815260076020526040902060018101546001600160a01b031615611f105760405162461bcd60e51b815260206004820152601460248201527310995d08185b1c9958591e481858d8d95c1d195960621b6044820152606401610628565b80546001600160a01b03163303611f695760405162461bcd60e51b815260206004820152601d60248201527f43726561746f722063616e6e6f7420616363657074206f776e206265740000006044820152606401610628565b80600601544210611fae5760405162461bcd60e51b815260206004820152600f60248201526e10995d081a185cc8195e1c1a5c9959608a1b6044820152606401610628565b600a5460038201546040516323b872dd60e01b81526001600160a01b03909216916323b872dd91611fe59133913091600401613c98565b6020604051808303816000875af1158015612004573d6000803e3d6000fd5b505050506040513d601f19601f820116820180604052508101906120289190613cbc565b61206c5760405162461bcd60e51b815260206004820152601560248201527414dd185ad9481d1c985b9cd9995c8819985a5b1959605a1b6044820152606401610628565b6001810180546001600160a01b03191633908117909155815461209c916001600160a01b03919091169084612816565b6000816003015482600201546120b29190613e17565b905060006120c1600283614040565b600b549091506001600160a01b03166323b872dd6120e76006546001600160a01b031690565b30846040518463ffffffff1660e01b815260040161210793929190613c98565b6020604051808303816000875af1158015612126573d6000803e3d6000fd5b505050506040513d601f19601f8201168201806040525081019061214a9190613cbc565b6121965760405162461bcd60e51b815260206004820152601b60248201527f537461626c65546f6b656e207472616e73666572206661696c656400000000006044820152606401610628565b600a54600e5460405163095ea7b360e01b81526001600160a01b039283169263095ea7b3926121cc929116908590600401613f97565b6020604051808303816000875af11580156121eb573d6000803e3d6000fd5b505050506040513d601f19601f8201168201806040525081019061220f9190613cbc565b50600b54600e5460405163095ea7b360e01b81526001600160a01b039283169263095ea7b392612246929116908590600401613f97565b6020604051808303816000875af1158015612265573d6000803e3d6000fd5b505050506040513d601f19601f820116820180604052508101906122899190613cbc565b50600e54600a54600b546000926001600160a01b039081169263e8e33700929082169116858060646122bc82605f614062565b6122c69190614040565b60646122d38a605f614062565b6122dd9190614040565b306122ea42610384613e17565b60405160e08a901b6001600160e01b03191681526001600160a01b039889166004820152968816602488015260448701959095526064860193909352608485019190915260a484015290921660c482015260e4810191909152610104016060604051808303816000875af1158015612366573d6000803e3d6000fd5b505050506040513d601f19601f8201168201806040525081019061238a9190614079565b60008881526009602090815260409182902083905581518a8152339181019190915281519295507fb727a22534e43d337addefe6245e691859b29f7bf356bc7e6d77ff92070fe1249450829003019150a15050505050565b600860205260009081526040902080546123fb90613c11565b80601f016020809104026020016040519081016040528092919081815260200182805461242790613c11565b80156124745780601f1061244957610100808354040283529160200191612474565b820191906000526020600020905b81548152906001019060200180831161245757829003601f168201915b505050505081565b60006001600160a01b0382166124e65760405162461bcd60e51b815260206004820152602960248201527f4552433732313a2061646472657373207a65726f206973206e6f7420612076616044820152683634b21037bbb732b960b91b6064820152608401610628565b506001600160a01b031660009081526003602052604090205490565b61250a612b05565b61251460006135bd565b565b60606001805461050a90613c11565b61128633838361360f565b61253a33836127b7565b6125565760405162461bcd60e51b815260040161062890613c4b565b612562848484846136dd565b50505050565b600081815260086020526040902080546060919061258590613c11565b80601f01602080910402602001604051908101604052809291908181526020018280546125b190613c11565b80156125fe5780601f106125d3576101008083540402835291602001916125fe565b820191906000526020600020905b8154815290600101906020018083116125e157829003601f168201915b50505050509050919050565b612612612b05565b600c546040516323b872dd60e01b81526001600160a01b03909116906323b872dd90611dcc90339030908690600401613c98565b6001600160a01b03918216600090815260056020908152604080832093909416825291909152205460ff1690565b61267c612b05565b6001600160a01b0381166126e15760405162461bcd60e51b815260206004820152602660248201527f4f776e61626c653a206e6577206f776e657220697320746865207a65726f206160448201526564647265737360d01b6064820152608401610628565b611e4d816135bd565b6000818152600260205260409020546001600160a01b0316611e4d5760405162461bcd60e51b8152602060048201526018602482015277115490cdcc8c4e881a5b9d985b1a59081d1bdad95b88125160421b6044820152606401610628565b600081815260046020526040902080546001600160a01b0319166001600160a01b038416908117909155819061277e82611e50565b6001600160a01b03167f8c5be1e5ebec7d5bd14f71427d1e84f3dd0314c0f7b2291e5b200ac8c7c3b92560405160405180910390a45050565b6000806127c383611e50565b9050806001600160a01b0316846001600160a01b031614806127ea57506127ea8185612646565b8061280e5750836001600160a01b03166128038461058d565b6001600160a01b0316145b949350505050565b826001600160a01b031661282982611e50565b6001600160a01b03161461284f5760405162461bcd60e51b8152600401610628906140a7565b6001600160a01b0382166128b15760405162461bcd60e51b8152602060048201526024808201527f4552433732313a207472616e7366657220746f20746865207a65726f206164646044820152637265737360e01b6064820152608401610628565b826001600160a01b03166128c482611e50565b6001600160a01b0316146128ea5760405162461bcd60e51b8152600401610628906140a7565b600081815260046020908152604080832080546001600160a01b03199081169091556001600160a01b0387811680865260038552838620805460001901905590871680865283862080546001019055868652600290945282852080549092168417909155905184937fddf252ad1be2c89b69c2b068fc378daa952ba7f163c4a11628f55a4df523b3ef91a4505050565b6001600160a01b0382166129d05760405162461bcd60e51b815260206004820181905260248201527f4552433732313a206d696e7420746f20746865207a65726f20616464726573736044820152606401610628565b6000818152600260205260409020546001600160a01b031615612a355760405162461bcd60e51b815260206004820152601c60248201527f4552433732313a20746f6b656e20616c7265616479206d696e746564000000006044820152606401610628565b6000818152600260205260409020546001600160a01b031615612a9a5760405162461bcd60e51b815260206004820152601c60248201527f4552433732313a20746f6b656e20616c7265616479206d696e746564000000006044820152606401610628565b6001600160a01b038216600081815260036020908152604080832080546001019055848352600290915280822080546001600160a01b0319168417905551839291907fddf252ad1be2c89b69c2b068fc378daa952ba7f163c4a11628f55a4df523b3ef908290a45050565b6006546001600160a01b031633146125145760405162461bcd60e51b815260206004820181905260248201527f4f776e61626c653a2063616c6c6572206973206e6f7420746865206f776e65726044820152606401610628565b60008181526007602052604090206006810154421015612bb75760405162461bcd60e51b815260206004820152601360248201527210995d081b9bdd081e595d08195e1c1a5c9959606a1b6044820152606401610628565b600581015462010000900460ff1615612be25760405162461bcd60e51b815260040161062890613f3b565b60058101805462ff000019166201000017905560008281526009602052604081205460038301546002840154919291612c1b9190613e17565b600d54600e5460405163095ea7b360e01b81529293506001600160a01b039182169263095ea7b392612c539216908690600401613f97565b6020604051808303816000875af1158015612c72573d6000803e3d6000fd5b505050506040513d601f19601f82011682018060405250810190612c969190613cbc565b50600e54600a54600b5460009283926001600160a01b039182169263baa2abde92918216911687858030612ccc42610384613e17565b6040518863ffffffff1660e01b8152600401612cee9796959493929190613fb0565b60408051808303816000875af1158015612d0c573d6000803e3d6000fd5b505050506040513d601f19601f82011682018060405250810190612d309190613ff0565b90925090506000612d418284613e17565b90506000848211612d53576000612d5d565b612d5d8583614014565b600588015490915060ff8082161515610100909204161515148015612d885750600587015460ff1615155b156131e757600587015460ff1615612fe557600a5487546001600160a01b039182169163a9059cbb91166064612dbf856050614062565b612dc99190614040565b8a60020154612dd89190613e17565b6040518363ffffffff1660e01b8152600401612df5929190613f97565b6020604051808303816000875af1158015612e14573d6000803e3d6000fd5b505050506040513d601f19601f82011682018060405250810190612e389190613cbc565b50600a5460018801546001600160a01b039182169163a9059cbb91166064612e61856014614062565b612e6b9190614040565b8a60030154612e7a9190613e17565b6040518363ffffffff1660e01b8152600401612e97929190613f97565b6020604051808303816000875af1158015612eb6573d6000803e3d6000fd5b505050506040513d601f19601f82011682018060405250810190612eda9190613cbc565b50600c54875460405163a9059cbb60e01b81526001600160a01b039283169263a9059cbb92612f1892911690678ac7230489e8000090600401613f97565b6020604051808303816000875af1158015612f37573d6000803e3d6000fd5b505050506040513d601f19601f82011682018060405250810190612f5b9190613cbc565b50600c54600188015460405163a9059cbb60e01b81526001600160a01b039283169263a9059cbb92612f9c92911690674563918244f4000090600401613f97565b6020604051808303816000875af1158015612fbb573d6000803e3d6000fd5b505050506040513d601f19601f82011682018060405250810190612fdf9190613cbc565b50613416565b600a5487546001600160a01b039182169163a9059cbb9116606461300a856014614062565b6130149190614040565b8a600201546130239190613e17565b6040518363ffffffff1660e01b8152600401613040929190613f97565b6020604051808303816000875af115801561305f573d6000803e3d6000fd5b505050506040513d601f19601f820116820180604052508101906130839190613cbc565b50600a5460018801546001600160a01b039182169163a9059cbb911660646130ac856050614062565b6130b69190614040565b8a600301546130c59190613e17565b6040518363ffffffff1660e01b81526004016130e2929190613f97565b6020604051808303816000875af1158015613101573d6000803e3d6000fd5b505050506040513d601f19601f820116820180604052508101906131259190613cbc565b50600c54875460405163a9059cbb60e01b81526001600160a01b039283169263a9059cbb9261316392911690674563918244f4000090600401613f97565b6020604051808303816000875af1158015613182573d6000803e3d6000fd5b505050506040513d601f19601f820116820180604052508101906131a69190613cbc565b50600c54600188015460405163a9059cbb60e01b81526001600160a01b039283169263a9059cbb92612f9c92911690678ac7230489e8000090600401613f97565b600a5487546001600160a01b039182169163a9059cbb911661320a600285614040565b8a600201546132199190613e17565b6040518363ffffffff1660e01b8152600401613236929190613f97565b6020604051808303816000875af1158015613255573d6000803e3d6000fd5b505050506040513d601f19601f820116820180604052508101906132799190613cbc565b50600a5460018801546001600160a01b039182169163a9059cbb91166132a0600285614040565b8a600301546132af9190613e17565b6040518363ffffffff1660e01b81526004016132cc929190613f97565b6020604051808303816000875af11580156132eb573d6000803e3d6000fd5b505050506040513d601f19601f8201168201806040525081019061330f9190613cbc565b50600c54875460405163a9059cbb60e01b81526001600160a01b039283169263a9059cbb9261334d92911690671bc16d674ec8000090600401613f97565b6020604051808303816000875af115801561336c573d6000803e3d6000fd5b505050506040513d601f19601f820116820180604052508101906133909190613cbc565b50600c54600188015460405163a9059cbb60e01b81526001600160a01b039283169263a9059cbb926133d192911690671bc16d674ec8000090600401613f97565b6020604051808303816000875af11580156133f0573d6000803e3d6000fd5b505050506040513d601f19601f820116820180604052508101906134149190613cbc565b505b600b546040516370a0823160e01b81523060048201526000916001600160a01b0316906370a0823190602401602060405180830381865afa15801561345f573d6000803e3d6000fd5b505050506040513d601f19601f820116820180604052508101906134839190614027565b111561357a57600b546001600160a01b031663a9059cbb6134ac6006546001600160a01b031690565b600b546040516370a0823160e01b81523060048201526001600160a01b03909116906370a0823190602401602060405180830381865afa1580156134f4573d6000803e3d6000fd5b505050506040513d601f19601f820116820180604052508101906135189190614027565b6040518363ffffffff1660e01b8152600401613535929190613f97565b6020604051808303816000875af1158015613554573d6000803e3d6000fd5b505050506040513d601f19601f820116820180604052508101906135789190613cbc565b505b60408051898152602081018390527f6f014aa1fc0c12b56c099fa8727bbf780907046b16c01199f4092f5c721187ab910160405180910390a15050505050505050565b600680546001600160a01b038381166001600160a01b0319831681179093556040519116919082907f8be0079c531659141344cd1fd0a4f28419497f9722a3daafe3b4186f6b6457e090600090a35050565b816001600160a01b0316836001600160a01b0316036136705760405162461bcd60e51b815260206004820152601960248201527f4552433732313a20617070726f766520746f2063616c6c6572000000000000006044820152606401610628565b6001600160a01b03838116600081815260056020908152604080832094871680845294825291829020805460ff191686151590811790915591519182527f17307eab39ab6107e8899845ad3d59bd9653f200f220920489ca2b5937696c31910160405180910390a3505050565b6136e8848484612816565b6136f484848484613710565b6125625760405162461bcd60e51b8152600401610628906140ec565b60006001600160a01b0384163b1561380657604051630a85bd0160e11b81526001600160a01b0385169063150b7a029061375490339089908890889060040161413e565b6020604051808303816000875af192505050801561378f575060408051601f3d908101601f1916820190925261378c9181019061417b565b60015b6137ec573d8080156137bd576040519150601f19603f3d011682016040523d82523d6000602084013e6137c2565b606091505b5080516000036137e45760405162461bcd60e51b8152600401610628906140ec565b805181602001fd5b6001600160e01b031916630a85bd0160e11b14905061280e565b506001949350505050565b6001600160e01b031981168114611e4d57600080fd5b60006020828403121561383957600080fd5b813561384481613811565b9392505050565b6000815180845260005b8181101561387157602081850181015186830182015201613855565b506000602082860101526020601f19601f83011685010191505092915050565b602081526000613844602083018461384b565b6000602082840312156138b657600080fd5b5035919050565b80356001600160a01b03811681146138d457600080fd5b919050565b600080604083850312156138ec57600080fd5b6138f5836138bd565b946020939093013593505050565b6001600160a01b038a811682528916602082015260408101889052606081018790526101206080820181905260009061393e8382018961384b565b96151560a0840152505092151560c084015290151560e08301526101009091015295945050505050565b60008060006060848603121561397d57600080fd5b613986846138bd565b9250613994602085016138bd565b9150604084013590509250925092565b60008083601f8401126139b657600080fd5b50813567ffffffffffffffff8111156139ce57600080fd5b6020830191508360208285010111156139e657600080fd5b9250929050565b600080600080600060608688031215613a0557600080fd5b85359450602086013567ffffffffffffffff80821115613a2457600080fd5b613a3089838a016139a4565b90965094506040880135915080821115613a4957600080fd5b50613a56888289016139a4565b969995985093965092949392505050565b8015158114611e4d57600080fd5b60008060408385031215613a8857600080fd5b823591506020830135613a9a81613a67565b809150509250929050565b600060208284031215613ab757600080fd5b613844826138bd565b60008060408385031215613ad357600080fd5b613adc836138bd565b91506020830135613a9a81613a67565b634e487b7160e01b600052604160045260246000fd5b60008060008060808587031215613b1857600080fd5b613b21856138bd565b9350613b2f602086016138bd565b925060408501359150606085013567ffffffffffffffff80821115613b5357600080fd5b818701915087601f830112613b6757600080fd5b813581811115613b7957613b79613aec565b604051601f8201601f19908116603f01168101908382118183101715613ba157613ba1613aec565b816040528281528a6020848701011115613bba57600080fd5b82602086016020830137600060208483010152809550505050505092959194509250565b60008060408385031215613bf157600080fd5b613bfa836138bd565b9150613c08602084016138bd565b90509250929050565b600181811c90821680613c2557607f821691505b602082108103613c4557634e487b7160e01b600052602260045260246000fd5b50919050565b6020808252602d908201527f4552433732313a2063616c6c6572206973206e6f7420746f6b656e206f776e6560408201526c1c881bdc88185c1c1c9bdd9959609a1b606082015260800190565b6001600160a01b039384168152919092166020820152604081019190915260600190565b600060208284031215613cce57600080fd5b815161384481613a67565b634e487b7160e01b600052601160045260246000fd5b600060018201613d0157613d01613cd9565b5060010190565b601f8211156106c957600081815260208120601f850160051c81016020861015613d2f5750805b601f850160051c820191505b81811015613d4e57828155600101613d3b565b505050505050565b67ffffffffffffffff831115613d6e57613d6e613aec565b613d8283613d7c8354613c11565b83613d08565b6000601f841160018114613db65760008515613d9e5750838201355b600019600387901b1c1916600186901b178355613e10565b600083815260209020601f19861690835b82811015613de75786850135825560209485019460019092019101613dc7565b5086821015613e045760001960f88860031b161c19848701351681555b505060018560011b0183555b5050505050565b808201808211156104f5576104f5613cd9565b815167ffffffffffffffff811115613e4457613e44613aec565b613e5881613e528454613c11565b84613d08565b602080601f831160018114613e8d5760008415613e755750858301515b600019600386901b1c1916600185901b178555613d4e565b600085815260208120601f198616915b82811015613ebc57888601518255948401946001909101908401613e9d565b5085821015613eda5787850151600019600388901b60f8161c191681555b5050505050600190811b01905550565b8581526001600160a01b03851660208201526080604082018190528101839052828460a0830137600060a08483010152600060a0601f19601f86011683010190508260608301529695505050505050565b60208082526014908201527310995d08185b1c9958591e481c995cdbdb1d995960621b604082015260600190565b60208082526014908201527310995d081b9bdd081858d8d95c1d1959081e595d60621b604082015260600190565b6001600160a01b03929092168252602082015260400190565b6001600160a01b039788168152958716602087015260408601949094526060850192909252608084015290921660a082015260c081019190915260e00190565b6000806040838503121561400357600080fd5b505080516020909101519092909150565b818103818111156104f5576104f5613cd9565b60006020828403121561403957600080fd5b5051919050565b60008261405d57634e487b7160e01b600052601260045260246000fd5b500490565b80820281158282048414176104f5576104f5613cd9565b60008060006060848603121561408e57600080fd5b8351925060208401519150604084015190509250925092565b60208082526025908201527f4552433732313a207472616e736665722066726f6d20696e636f72726563742060408201526437bbb732b960d91b606082015260800190565b60208082526032908201527f4552433732313a207472616e7366657220746f206e6f6e20455243373231526560408201527131b2b4bb32b91034b6b83632b6b2b73a32b960711b606082015260800190565b6001600160a01b03858116825284166020820152604081018390526080606082018190526000906141719083018461384b565b9695505050505050565b60006020828403121561418d57600080fd5b81516138448161381156fea26469706673582212205e96b14365265c2529afaeddbdb4c8e780a4976b4f034eb7711c68de4e10ed5c64736f6c63430008130033",
  "linkReferences": {},
  "deployedLinkReferences": {}
}