{
  "_format": "hh-sol-artifact-1",
  "contractName": "UniswapPoolMock",
  "sourceName": "contracts/UniswapPoolMock.sol",
  "abi": [
    {
      "inputs": [
        {
          "internalType": "address",
          "name": "_token0",
          "type": "address"
        },
        {
          "internalType": "address",
          "name": "_token1",
          "type": "address"
        },
        {
          "internalType": "address",
          "name": "_lpToken",
          "type": "address"
        }
      ],
      "stateMutability": "nonpayable",
      "type": "constructor"
    },
    {
      "inputs": [
        {
          "internalType": "address",
          "name": "tokenA",
          "type": "address"
        },
        {
          "internalType": "address",
          "name": "tokenB",
          "type": "address"
        },
        {
          "internalType": "uint256",
          "name": "amountA",
          "type": "uint256"
        },
        {
          "internalType": "uint256",
          "name": "amountB",
          "type": "uint256"
        },
        {
          "internalType": "uint256",
          "name": "amountAMin",
          "type": "uint256"
        },
        {
          "internalType": "uint256",
          "name": "amountBMin",
          "type": "uint256"
        },
        {
          "internalType": "address",
          "name": "to",
          "type": "address"
        },
        {
          "internalType": "uint256",
          "name": "deadline",
          "type": "uint256"
        }
      ],
      "name": "addLiquidity",
      "outputs": [
        {
          "internalType": "uint256",
          "name": "",
          "type": "uint256"
        },
        {
          "internalType": "uint256",
          "name": "",
          "type": "uint256"
        },
        {
          "internalType": "uint256",
          "name": "",
          "type": "uint256"
        }
      ],
      "stateMutability": "nonpayable",
      "type": "function"
    },
    {
      "inputs": [],
      "name": "feeRate",
      "outputs": [
        {
          "internalType": "int256",
          "name": "",
          "type": "int256"
        }
      ],
      "stateMutability": "view",
      "type": "function"
    },
    {
      "inputs": [
        {
          "internalType": "address",
          "name": "",
          "type": "address"
        }
      ],
      "name": "liquidityProvided",
      "outputs": [
        {
          "internalType": "uint256",
          "name": "",
          "type": "uint256"
        }
      ],
      "stateMutability": "view",
      "type": "function"
    },
    {
      "inputs": [],
      "name": "lpToken",
      "outputs": [
        {
          "internalType": "contract IMintableBurnableToken",
          "name": "",
          "type": "address"
        }
      ],
      "stateMutability": "view",
      "type": "function"
    },
    {
      "inputs": [
        {
          "internalType": "address",
          "name": "tokenA",
          "type": "address"
        },
        {
          "internalType": "address",
          "name": "tokenB",
          "type": "address"
        },
        {
          "internalType": "uint256",
          "name": "liquidity",
          "type": "uint256"
        },
        {
          "internalType": "uint256",
          "name": "amountAMin",
          "type": "uint256"
        },
        {
          "internalType": "uint256",
          "name": "amountBMin",
          "type": "uint256"
        },
        {
          "internalType": "address",
          "name": "to",
          "type": "address"
        },
        {
          "internalType": "uint256",
          "name": "deadline",
          "type": "uint256"
        }
      ],
      "name": "removeLiquidity",
      "outputs": [
        {
          "internalType": "uint256",
          "name": "",
          "type": "uint256"
        },
        {
          "internalType": "uint256",
          "name": "",
          "type": "uint256"
        }
      ],
      "stateMutability": "nonpayable",
      "type": "function"
    },
    {
      "inputs": [
        {
          "internalType": "int256",
          "name": "_feeRate",
          "type": "int256"
        }
      ],
      "name": "setFeeRate",
      "outputs": [],
      "stateMutability": "nonpayable",
      "type": "function"
    },
    {
      "inputs": [
        {
          "internalType": "uint256",
          "name": "lossPercentage",
          "type": "uint256"
        }
      ],
      "name": "simulateImpermanentLoss",
      "outputs": [],
      "stateMutability": "nonpayable",
      "type": "function"
    },
    {
      "inputs": [
        {
          "internalType": "uint256",
          "name": "volume",
          "type": "uint256"
        }
      ],
      "name": "simulateTrading",
      "outputs": [],
      "stateMutability": "nonpayable",
      "type": "function"
    },
    {
      "inputs": [],
      "name": "token0",
      "outputs": [
        {
          "internalType": "contract IMintableBurnableToken",
          "name": "",
          "type": "address"
        }
      ],
      "stateMutability": "view",
      "type": "function"
    },
    {
      "inputs": [],
      "name": "token1",
      "outputs": [
        {
          "internalType": "contract IMintableBurnableToken",
          "name": "",
          "type": "address"
        }
      ],
      "stateMutability": "view",
      "type": "function"
    }
  ],
  "bytecode": "0x6080604052600360045534801561001557600080fd5b506040516110fb3803806110fb83398101604081905261003491610092565b600080546001600160a01b039485166001600160a01b0319918216179091556001805493851693821693909317909255600280549190931691161790556100d5565b80516001600160a01b038116811461008d57600080fd5b919050565b6000806000606084860312156100a757600080fd5b6100b084610076565b92506100be60208501610076565b91506100cc60408501610076565b90509250925092565b611017806100e46000396000f3fe608060405234801561001057600080fd5b506004361061009e5760003560e01c8063978bbdb911610066578063978bbdb91461013c578063aa5d987414610145578063baa2abde14610158578063d21220a714610180578063e8e337001461019357600080fd5b80630dfe1681146100a35780635fcbd285146100d357806363020abb146100e657806365119f72146100fb5780636896e81314610129575b600080fd5b6000546100b6906001600160a01b031681565b6040516001600160a01b0390911681526020015b60405180910390f35b6002546100b6906001600160a01b031681565b6100f96100f4366004610d73565b6101c1565b005b61011b610109366004610da8565b60036020526000908152604090205481565b6040519081526020016100ca565b6100f9610137366004610d73565b600455565b61011b60045481565b6100f9610153366004610d73565b610484565b61016b610166366004610dca565b61057c565b604080519283526020830191909152016100ca565b6001546100b6906001600160a01b031681565b6101a66101a1366004610e34565b610a0a565b604080519384526020840192909252908201526060016100ca565b600080546040516370a0823160e01b81523060048201526001600160a01b03909116906370a0823190602401602060405180830381865afa15801561020a573d6000803e3d6000fd5b505050506040513d601f19601f8201168201806040525081019061022e9190610ea8565b6001546040516370a0823160e01b81523060048201529192506000916001600160a01b03909116906370a0823190602401602060405180830381865afa15801561027c573d6000803e3d6000fd5b505050506040513d601f19601f820116820180604052508101906102a09190610ea8565b9050600060646102b08585610ed7565b6102ba9190610ef4565b9050600060646102ca8685610ed7565b6102d49190610ef4565b600054604051630852cd8d60e31b8152600481018590529192506001600160a01b0316906342966c6890602401600060405180830381600087803b15801561031b57600080fd5b505af192505050801561032c575060015b6103a95760005460405163a9059cbb60e01b815261dead6004820152602481018490526001600160a01b039091169063a9059cbb906044016020604051808303816000875af1158015610383573d6000803e3d6000fd5b505050506040513d601f19601f820116820180604052508101906103a79190610f16565b505b600154604051630852cd8d60e31b8152600481018390526001600160a01b03909116906342966c6890602401600060405180830381600087803b1580156103ef57600080fd5b505af1925050508015610400575060015b61047d5760015460405163a9059cbb60e01b815261dead6004820152602481018390526001600160a01b039091169063a9059cbb906044016020604051808303816000875af1158015610457573d6000803e3d6000fd5b505050506040513d601f19601f8201168201806040525081019061047b9190610f16565b505b5050505050565b60008060045413156104ae576103e8600454836104a19190610ed7565b6104ab9190610ef4565b90505b8015610578576000546040516340c10f1960e01b8152306004820152602481018390526001600160a01b03909116906340c10f1990604401600060405180830381600087803b15801561050057600080fd5b505af1158015610514573d6000803e3d6000fd5b50506001546040516340c10f1960e01b8152306004820152602481018590526001600160a01b0390911692506340c10f199150604401600060405180830381600087803b15801561056457600080fd5b505af115801561047b573d6000803e3d6000fd5b5050565b600080428310156105cf5760405162461bcd60e51b8152602060048201526018602482015277155b9a5cddd85c141bdbdb135bd8dace881156141254915160421b60448201526064015b60405180910390fd5b6000546001600160a01b038a811691161480156105f957506001546001600160a01b038981169116145b8061062957506001546001600160a01b038a8116911614801561062957506000546001600160a01b038981169116145b6106455760405162461bcd60e51b81526004016105c690610f38565b6002546040516323b872dd60e01b81526001600160a01b03909116906323b872dd9061067990339030908c90600401610f7b565b6020604051808303816000875af1158015610698573d6000803e3d6000fd5b505050506040513d601f19601f820116820180604052508101906106bc9190610f16565b50600254604051630852cd8d60e31b8152600481018990526001600160a01b03909116906342966c6890602401600060405180830381600087803b15801561070357600080fd5b505af1158015610717573d6000803e3d6000fd5b505050506000806004541315610745576103e8600454896107389190610ed7565b6107429190610ef4565b90505b60045488908190600012156107715761075e8383610f9f565b915061076a8382610f9f565b90506107d9565b600060045412156107d95760006103e860045461078d90610fb2565b610797908d610ed7565b6107a19190610ef4565b90508083116107b15760006107bb565b6107bb8184610fce565b92508082116107cb5760006107d5565b6107d58183610fce565b9150505b6000546001600160a01b03908116908d16036108e45760005460405163a9059cbb60e01b81526001600160a01b038981166004830152602482018590529091169063a9059cbb906044016020604051808303816000875af1158015610842573d6000803e3d6000fd5b505050506040513d601f19601f820116820180604052508101906108669190610f16565b5060015460405163a9059cbb60e01b81526001600160a01b038981166004830152602482018490529091169063a9059cbb906044016020604051808303816000875af11580156108ba573d6000803e3d6000fd5b505050506040513d601f19601f820116820180604052508101906108de9190610f16565b506109d5565b60005460405163a9059cbb60e01b81526001600160a01b038981166004830152602482018490529091169063a9059cbb906044016020604051808303816000875af1158015610937573d6000803e3d6000fd5b505050506040513d601f19601f8201168201806040525081019061095b9190610f16565b5060015460405163a9059cbb60e01b81526001600160a01b038981166004830152602482018590529091169063a9059cbb906044016020604051808303816000875af11580156109af573d6000803e3d6000fd5b505050506040513d601f19601f820116820180604052508101906109d39190610f16565b505b33600090815260036020526040812080548c92906109f4908490610fce565b90915550919c909b509950505050505050505050565b600080600042841015610a5a5760405162461bcd60e51b8152602060048201526018602482015277155b9a5cddd85c141bdbdb135bd8dace881156141254915160421b60448201526064016105c6565b6000546001600160a01b038c81169116148015610a8457506001546001600160a01b038b81169116145b80610ab457506001546001600160a01b038c81169116148015610ab457506000546001600160a01b038b81169116145b610ad05760405162461bcd60e51b81526004016105c690610f38565b60005489906001600160a01b03908116908d1603610bdd576000546040516323b872dd60e01b81526001600160a01b03909116906323b872dd90610b1c90339030908f90600401610f7b565b6020604051808303816000875af1158015610b3b573d6000803e3d6000fd5b505050506040513d601f19601f82011682018060405250810190610b5f9190610f16565b506001546040516323b872dd60e01b81526001600160a01b03909116906323b872dd90610b9490339030908e90600401610f7b565b6020604051808303816000875af1158015610bb3573d6000803e3d6000fd5b505050506040513d601f19601f82011682018060405250810190610bd79190610f16565b50610cce565b6000546040516323b872dd60e01b81526001600160a01b03909116906323b872dd90610c1190339030908e90600401610f7b565b6020604051808303816000875af1158015610c30573d6000803e3d6000fd5b505050506040513d601f19601f82011682018060405250810190610c549190610f16565b506001546040516323b872dd60e01b81526001600160a01b03909116906323b872dd90610c8990339030908f90600401610f7b565b6020604051808303816000875af1158015610ca8573d6000803e3d6000fd5b505050506040513d601f19601f82011682018060405250810190610ccc9190610f16565b505b6002546040516340c10f1960e01b81526001600160a01b03888116600483015260248201849052909116906340c10f1990604401600060405180830381600087803b158015610d1c57600080fd5b505af1158015610d30573d6000803e3d6000fd5b505050506001600160a01b03861660009081526003602052604081208054839290610d5c908490610f9f565b90915550999c989b50995096975050505050505050565b600060208284031215610d8557600080fd5b5035919050565b80356001600160a01b0381168114610da357600080fd5b919050565b600060208284031215610dba57600080fd5b610dc382610d8c565b9392505050565b600080600080600080600060e0888a031215610de557600080fd5b610dee88610d8c565b9650610dfc60208901610d8c565b9550604088013594506060880135935060808801359250610e1f60a08901610d8c565b915060c0880135905092959891949750929550565b600080600080600080600080610100898b031215610e5157600080fd5b610e5a89610d8c565b9750610e6860208a01610d8c565b965060408901359550606089013594506080890135935060a08901359250610e9260c08a01610d8c565b915060e089013590509295985092959890939650565b600060208284031215610eba57600080fd5b5051919050565b634e487b7160e01b600052601160045260246000fd5b8082028115828204841417610eee57610eee610ec1565b92915050565b600082610f1157634e487b7160e01b600052601260045260246000fd5b500490565b600060208284031215610f2857600080fd5b81518015158114610dc357600080fd5b60208082526023908201527f556e6973776170506f6f6c4d6f636b3a20494e56414c49445f544f4b454e5f5060408201526220a4a960e91b606082015260800190565b6001600160a01b039384168152919092166020820152604081019190915260600190565b80820180821115610eee57610eee610ec1565b6000600160ff1b8201610fc757610fc7610ec1565b5060000390565b81810381811115610eee57610eee610ec156fea264697066735822122047e9ab0152fdff977a9ba9aa79e7a421b781ff4f3608c22998b36067cece1df364736f6c63430008140033",
  "linkReferences": {},
  "deployedLinkReferences": {}
}