{
  "_format": "hh-sol-artifact-1",
  "contractName": "AavePoolMock",
  "sourceName": "contracts/mocks/AavePoolMock.sol",
  "abi": [
    {
      "inputs": [
        {
          "internalType": "address",
          "name": "_token",
          "type": "address"
        }
      ],
      "stateMutability": "nonpayable",
      "type": "constructor"
    },
    {
      "inputs": [
        {
          "internalType": "address",
          "name": "asset",
          "type": "address"
        },
        {
          "internalType": "uint256",
          "name": "amount",
          "type": "uint256"
        },
        {
          "internalType": "address",
          "name": "onBehalfOf",
          "type": "address"
        },
        {
          "internalType": "uint16",
          "name": "",
          "type": "uint16"
        }
      ],
      "name": "supply",
      "outputs": [],
      "stateMutability": "nonpayable",
      "type": "function"
    },
    {
      "inputs": [],
      "name": "token",
      "outputs": [
        {
          "internalType": "contract IERC20",
          "name": "",
          "type": "address"
        }
      ],
      "stateMutability": "view",
      "type": "function"
    },
    {
      "inputs": [
        {
          "internalType": "address",
          "name": "asset",
          "type": "address"
        },
        {
          "internalType": "uint256",
          "name": "amount",
          "type": "uint256"
        },
        {
          "internalType": "address",
          "name": "to",
          "type": "address"
        }
      ],
      "name": "withdraw",
      "outputs": [
        {
          "internalType": "uint256",
          "name": "",
          "type": "uint256"
        }
      ],
      "stateMutability": "nonpayable",
      "type": "function"
    }
  ],
  "bytecode": "0x608060405234801561001057600080fd5b506040516108ac3803806108ac833981810160405281019061003291906100db565b806000806101000a81548173ffffffffffffffffffffffffffffffffffffffff021916908373ffffffffffffffffffffffffffffffffffffffff16021790555050610108565b600080fd5b600073ffffffffffffffffffffffffffffffffffffffff82169050919050565b60006100a88261007d565b9050919050565b6100b88161009d565b81146100c357600080fd5b50565b6000815190506100d5816100af565b92915050565b6000602082840312156100f1576100f0610078565b5b60006100ff848285016100c6565b91505092915050565b610795806101176000396000f3fe608060405234801561001057600080fd5b50600436106100415760003560e01c8063617ba0371461004657806369328dec14610062578063fc0c546a14610092575b600080fd5b610060600480360381019061005b91906103cb565b6100b0565b005b61007c60048036038101906100779190610432565b610157565b6040516100899190610494565b60405180910390f35b61009a6102d4565b6040516100a7919061050e565b60405180910390f35b60008054906101000a900473ffffffffffffffffffffffffffffffffffffffff1673ffffffffffffffffffffffffffffffffffffffff166323b872dd3330866040518463ffffffff1660e01b815260040161010d93929190610538565b6020604051808303816000875af115801561012c573d6000803e3d6000fd5b505050506040513d601f19601f8201168201806040525081019061015091906105a7565b5050505050565b60008060008054906101000a900473ffffffffffffffffffffffffffffffffffffffff1673ffffffffffffffffffffffffffffffffffffffff166370a08231306040518263ffffffff1660e01b81526004016101b391906105d4565b602060405180830381865afa1580156101d0573d6000803e3d6000fd5b505050506040513d601f19601f820116820180604052508101906101f49190610604565b9050600060646005836102079190610660565b61021191906106d1565b905060008054906101000a900473ffffffffffffffffffffffffffffffffffffffff1673ffffffffffffffffffffffffffffffffffffffff1663a9059cbb85838561025c9190610702565b6040518363ffffffff1660e01b8152600401610279929190610736565b6020604051808303816000875af1158015610298573d6000803e3d6000fd5b505050506040513d601f19601f820116820180604052508101906102bc91906105a7565b5080826102c99190610702565b925050509392505050565b60008054906101000a900473ffffffffffffffffffffffffffffffffffffffff1681565b600080fd5b600073ffffffffffffffffffffffffffffffffffffffff82169050919050565b6000610328826102fd565b9050919050565b6103388161031d565b811461034357600080fd5b50565b6000813590506103558161032f565b92915050565b6000819050919050565b61036e8161035b565b811461037957600080fd5b50565b60008135905061038b81610365565b92915050565b600061ffff82169050919050565b6103a881610391565b81146103b357600080fd5b50565b6000813590506103c58161039f565b92915050565b600080600080608085870312156103e5576103e46102f8565b5b60006103f387828801610346565b94505060206104048782880161037c565b935050604061041587828801610346565b9250506060610426878288016103b6565b91505092959194509250565b60008060006060848603121561044b5761044a6102f8565b5b600061045986828701610346565b935050602061046a8682870161037c565b925050604061047b86828701610346565b9150509250925092565b61048e8161035b565b82525050565b60006020820190506104a96000830184610485565b92915050565b6000819050919050565b60006104d46104cf6104ca846102fd565b6104af565b6102fd565b9050919050565b60006104e6826104b9565b9050919050565b60006104f8826104db565b9050919050565b610508816104ed565b82525050565b600060208201905061052360008301846104ff565b92915050565b6105328161031d565b82525050565b600060608201905061054d6000830186610529565b61055a6020830185610529565b6105676040830184610485565b949350505050565b60008115159050919050565b6105848161056f565b811461058f57600080fd5b50565b6000815190506105a18161057b565b92915050565b6000602082840312156105bd576105bc6102f8565b5b60006105cb84828501610592565b91505092915050565b60006020820190506105e96000830184610529565b92915050565b6000815190506105fe81610365565b92915050565b60006020828403121561061a576106196102f8565b5b6000610628848285016105ef565b91505092915050565b7f4e487b7100000000000000000000000000000000000000000000000000000000600052601160045260246000fd5b600061066b8261035b565b91506106768361035b565b92508282026106848161035b565b9150828204841483151761069b5761069a610631565b5b5092915050565b7f4e487b7100000000000000000000000000000000000000000000000000000000600052601260045260246000fd5b60006106dc8261035b565b91506106e78361035b565b9250826106f7576106f66106a2565b5b828204905092915050565b600061070d8261035b565b91506107188361035b565b92508282019050808211156107305761072f610631565b5b92915050565b600060408201905061074b6000830185610529565b6107586020830184610485565b939250505056fea2646970667358221220508969e48cb41b45dc9a4b4897fa28732ec5d85f42c01104ae914e91f296c2dc64736f6c63430008130033",
  "linkReferences": {},
  "deployedLinkReferences": {}
}