{
  "_format": "hh-sol-artifact-1",
  "contractName": "NoLossBet",
  "sourceName": "contracts/NoLossBet.sol",
  "abi": [
    {
      "inputs": [
        {
          "internalType": "address",
          "name": "_celoToken",
          "type": "address"
        },
        {
          "internalType": "address",
          "name": "_stableToken",
          "type": "address"
        },
        {
          "internalType": "address",
          "name": "_betM3Token",
          "type": "address"
        },
        {
          "internalType": "address",
          "name": "_lpToken",
          "type": "address"
        },
        {
          "internalType": "address",
          "name": "_uniswapRouter",
          "type": "address"
        }
      ],
      "stateMutability": "nonpayable",
      "type": "constructor"
    },
    {
      "anonymous": false,
      "inputs": [
        {
          "indexed": true,
          "internalType": "address",
          "name": "owner",
          "type": "address"
        },
        {
          "indexed": true,
          "internalType": "address",
          "name": "approved",
          "type": "address"
        },
        {
          "indexed": true,
          "internalType": "uint256",
          "name": "tokenId",
          "type": "uint256"
        }
      ],
      "name": "Approval",
      "type": "event"
    },
    {
      "anonymous": false,
      "inputs": [
        {
          "indexed": true,
          "internalType": "address",
          "name": "owner",
          "type": "address"
        },
        {
          "indexed": true,
          "internalType": "address",
          "name": "operator",
          "type": "address"
        },
        {
          "indexed": false,
          "internalType": "bool",
          "name": "approved",
          "type": "bool"
        }
      ],
      "name": "ApprovalForAll",
      "type": "event"
    },
    {
      "anonymous": false,
      "inputs": [
        {
          "indexed": false,
          "internalType": "uint256",
          "name": "betId",
          "type": "uint256"
        },
        {
          "indexed": false,
          "internalType": "address",
          "name": "opponent",
          "type": "address"
        },
        {
          "indexed": false,
          "internalType": "bool",
          "name": "prediction",
          "type": "bool"
        },
        {
          "indexed": false,
          "internalType": "uint256",
          "name": "customStake",
          "type": "uint256"
        },
        {
          "indexed": false,
          "internalType": "string",
          "name": "commentText",
          "type": "string"
        }
      ],
      "name": "BetAccepted",
      "type": "event"
    },
    {
      "anonymous": false,
      "inputs": [
        {
          "indexed": false,
          "internalType": "uint256",
          "name": "betId",
          "type": "uint256"
        },
        {
          "indexed": false,
          "internalType": "address",
          "name": "creator",
          "type": "address"
        },
        {
          "indexed": false,
          "internalType": "string",
          "name": "condition",
          "type": "string"
        },
        {
          "indexed": false,
          "internalType": "uint256",
          "name": "expiration",
          "type": "uint256"
        }
      ],
      "name": "BetCreated",
      "type": "event"
    },
    {
      "anonymous": false,
      "inputs": [
        {
          "indexed": false,
          "internalType": "uint256",
          "name": "betId",
          "type": "uint256"
        },
        {
          "indexed": false,
          "internalType": "uint256",
          "name": "totalYield",
          "type": "uint256"
        }
      ],
      "name": "BetResolved",
      "type": "event"
    },
    {
      "anonymous": false,
      "inputs": [
        {
          "indexed": false,
          "internalType": "uint256",
          "name": "betId",
          "type": "uint256"
        },
        {
          "indexed": false,
          "internalType": "address",
          "name": "winner",
          "type": "address"
        }
      ],
      "name": "DisputeResolved",
      "type": "event"
    },
    {
      "anonymous": false,
      "inputs": [
        {
          "indexed": false,
          "internalType": "uint256",
          "name": "betId",
          "type": "uint256"
        },
        {
          "indexed": false,
          "internalType": "bool",
          "name": "success",
          "type": "bool"
        }
      ],
      "name": "OutcomeSubmitted",
      "type": "event"
    },
    {
      "anonymous": false,
      "inputs": [
        {
          "indexed": true,
          "internalType": "address",
          "name": "previousOwner",
          "type": "address"
        },
        {
          "indexed": true,
          "internalType": "address",
          "name": "newOwner",
          "type": "address"
        }
      ],
      "name": "OwnershipTransferred",
      "type": "event"
    },
    {
      "anonymous": false,
      "inputs": [
        {
          "indexed": true,
          "internalType": "address",
          "name": "from",
          "type": "address"
        },
        {
          "indexed": true,
          "internalType": "address",
          "name": "to",
          "type": "address"
        },
        {
          "indexed": true,
          "internalType": "uint256",
          "name": "tokenId",
          "type": "uint256"
        }
      ],
      "name": "Transfer",
      "type": "event"
    },
    {
      "inputs": [],
      "name": "BET_DURATION",
      "outputs": [
        {
          "internalType": "uint256",
          "name": "",
          "type": "uint256"
        }
      ],
      "stateMutability": "view",
      "type": "function"
    },
    {
      "inputs": [
        {
          "internalType": "uint256",
          "name": "_betId",
          "type": "uint256"
        },
        {
          "internalType": "bool",
          "name": "_prediction",
          "type": "bool"
        }
      ],
      "name": "acceptBet",
      "outputs": [],
      "stateMutability": "nonpayable",
      "type": "function"
    },
    {
      "inputs": [
        {
          "internalType": "uint256",
          "name": "_betId",
          "type": "uint256"
        },
        {
          "internalType": "bool",
          "name": "_prediction",
          "type": "bool"
        },
        {
          "internalType": "uint256",
          "name": "_customStake",
          "type": "uint256"
        },
        {
          "internalType": "string",
          "name": "_commentText",
          "type": "string"
        }
      ],
      "name": "acceptBet",
      "outputs": [],
      "stateMutability": "nonpayable",
      "type": "function"
    },
    {
      "inputs": [
        {
          "internalType": "address",
          "name": "to",
          "type": "address"
        },
        {
          "internalType": "uint256",
          "name": "tokenId",
          "type": "uint256"
        }
      ],
      "name": "approve",
      "outputs": [],
      "stateMutability": "nonpayable",
      "type": "function"
    },
    {
      "inputs": [
        {
          "internalType": "address",
          "name": "owner",
          "type": "address"
        }
      ],
      "name": "balanceOf",
      "outputs": [
        {
          "internalType": "uint256",
          "name": "",
          "type": "uint256"
        }
      ],
      "stateMutability": "view",
      "type": "function"
    },
    {
      "inputs": [],
      "name": "betCounter",
      "outputs": [
        {
          "internalType": "uint256",
          "name": "",
          "type": "uint256"
        }
      ],
      "stateMutability": "view",
      "type": "function"
    },
    {
      "inputs": [
        {
          "internalType": "uint256",
          "name": "",
          "type": "uint256"
        }
      ],
      "name": "betLiquidity",
      "outputs": [
        {
          "internalType": "uint256",
          "name": "",
          "type": "uint256"
        }
      ],
      "stateMutability": "view",
      "type": "function"
    },
    {
      "inputs": [],
      "name": "betM3Token",
      "outputs": [
        {
          "internalType": "contract IERC20",
          "name": "",
          "type": "address"
        }
      ],
      "stateMutability": "view",
      "type": "function"
    },
    {
      "inputs": [
        {
          "internalType": "uint256",
          "name": "",
          "type": "uint256"
        }
      ],
      "name": "bets",
      "outputs": [
        {
          "internalType": "address",
          "name": "creator",
          "type": "address"
        },
        {
          "internalType": "address",
          "name": "opponent",
          "type": "address"
        },
        {
          "internalType": "uint256",
          "name": "creatorStake",
          "type": "uint256"
        },
        {
          "internalType": "uint256",
          "name": "opponentStake",
          "type": "uint256"
        },
        {
          "internalType": "string",
          "name": "condition",
          "type": "string"
        },
        {
          "internalType": "bool",
          "name": "creatorOutcome",
          "type": "bool"
        },
        {
          "internalType": "bool",
          "name": "opponentOutcome",
          "type": "bool"
        },
        {
          "internalType": "bool",
          "name": "resolved",
          "type": "bool"
        },
        {
          "internalType": "uint256",
          "name": "expiration",
          "type": "uint256"
        },
        {
          "internalType": "string",
          "name": "commentText",
          "type": "string"
        }
      ],
      "stateMutability": "view",
      "type": "function"
    },
    {
      "inputs": [],
      "name": "celoToken",
      "outputs": [
        {
          "internalType": "contract IERC20",
          "name": "",
          "type": "address"
        }
      ],
      "stateMutability": "view",
      "type": "function"
    },
    {
      "inputs": [
        {
          "internalType": "uint256",
          "name": "_opponentStake",
          "type": "uint256"
        },
        {
          "internalType": "string",
          "name": "_condition",
          "type": "string"
        },
        {
          "internalType": "string",
          "name": "_tokenURI",
          "type": "string"
        }
      ],
      "name": "createBet",
      "outputs": [],
      "stateMutability": "nonpayable",
      "type": "function"
    },
    {
      "inputs": [
        {
          "internalType": "uint256",
          "name": "amount",
          "type": "uint256"
        }
      ],
      "name": "fundCommunityPool",
      "outputs": [],
      "stateMutability": "nonpayable",
      "type": "function"
    },
    {
      "inputs": [
        {
          "internalType": "uint256",
          "name": "amount",
          "type": "uint256"
        }
      ],
      "name": "fundStableTokenPool",
      "outputs": [],
      "stateMutability": "nonpayable",
      "type": "function"
    },
    {
      "inputs": [
        {
          "internalType": "uint256",
          "name": "tokenId",
          "type": "uint256"
        }
      ],
      "name": "getApproved",
      "outputs": [
        {
          "internalType": "address",
          "name": "",
          "type": "address"
        }
      ],
      "stateMutability": "view",
      "type": "function"
    },
    {
      "inputs": [
        {
          "internalType": "address",
          "name": "owner",
          "type": "address"
        },
        {
          "internalType": "address",
          "name": "operator",
          "type": "address"
        }
      ],
      "name": "isApprovedForAll",
      "outputs": [
        {
          "internalType": "bool",
          "name": "",
          "type": "bool"
        }
      ],
      "stateMutability": "view",
      "type": "function"
    },
    {
      "inputs": [],
      "name": "lpToken",
      "outputs": [
        {
          "internalType": "contract IERC20",
          "name": "",
          "type": "address"
        }
      ],
      "stateMutability": "view",
      "type": "function"
    },
    {
      "inputs": [],
      "name": "name",
      "outputs": [
        {
          "internalType": "string",
          "name": "",
          "type": "string"
        }
      ],
      "stateMutability": "view",
      "type": "function"
    },
    {
      "inputs": [],
      "name": "owner",
      "outputs": [
        {
          "internalType": "address",
          "name": "",
          "type": "address"
        }
      ],
      "stateMutability": "view",
      "type": "function"
    },
    {
      "inputs": [
        {
          "internalType": "uint256",
          "name": "tokenId",
          "type": "uint256"
        }
      ],
      "name": "ownerOf",
      "outputs": [
        {
          "internalType": "address",
          "name": "",
          "type": "address"
        }
      ],
      "stateMutability": "view",
      "type": "function"
    },
    {
      "inputs": [],
      "name": "renounceOwnership",
      "outputs": [],
      "stateMutability": "nonpayable",
      "type": "function"
    },
    {
      "inputs": [
        {
          "internalType": "uint256",
          "name": "_betId",
          "type": "uint256"
        }
      ],
      "name": "resolveBet",
      "outputs": [],
      "stateMutability": "nonpayable",
      "type": "function"
    },
    {
      "inputs": [
        {
          "internalType": "uint256",
          "name": "_betId",
          "type": "uint256"
        },
        {
          "internalType": "bool",
          "name": "_creatorWins",
          "type": "bool"
        }
      ],
      "name": "resolveDispute",
      "outputs": [],
      "stateMutability": "nonpayable",
      "type": "function"
    },
    {
      "inputs": [
        {
          "internalType": "address",
          "name": "from",
          "type": "address"
        },
        {
          "internalType": "address",
          "name": "to",
          "type": "address"
        },
        {
          "internalType": "uint256",
          "name": "tokenId",
          "type": "uint256"
        }
      ],
      "name": "safeTransferFrom",
      "outputs": [],
      "stateMutability": "nonpayable",
      "type": "function"
    },
    {
      "inputs": [
        {
          "internalType": "address",
          "name": "from",
          "type": "address"
        },
        {
          "internalType": "address",
          "name": "to",
          "type": "address"
        },
        {
          "internalType": "uint256",
          "name": "tokenId",
          "type": "uint256"
        },
        {
          "internalType": "bytes",
          "name": "data",
          "type": "bytes"
        }
      ],
      "name": "safeTransferFrom",
      "outputs": [],
      "stateMutability": "nonpayable",
      "type": "function"
    },
    {
      "inputs": [
        {
          "internalType": "address",
          "name": "operator",
          "type": "address"
        },
        {
          "internalType": "bool",
          "name": "approved",
          "type": "bool"
        }
      ],
      "name": "setApprovalForAll",
      "outputs": [],
      "stateMutability": "nonpayable",
      "type": "function"
    },
    {
      "inputs": [],
      "name": "stableToken",
      "outputs": [
        {
          "internalType": "contract IERC20",
          "name": "",
          "type": "address"
        }
      ],
      "stateMutability": "view",
      "type": "function"
    },
    {
      "inputs": [
        {
          "internalType": "uint256",
          "name": "_betId",
          "type": "uint256"
        },
        {
          "internalType": "bool",
          "name": "_success",
          "type": "bool"
        }
      ],
      "name": "submitOutcome",
      "outputs": [],
      "stateMutability": "nonpayable",
      "type": "function"
    },
    {
      "inputs": [
        {
          "internalType": "bytes4",
          "name": "interfaceId",
          "type": "bytes4"
        }
      ],
      "name": "supportsInterface",
      "outputs": [
        {
          "internalType": "bool",
          "name": "",
          "type": "bool"
        }
      ],
      "stateMutability": "view",
      "type": "function"
    },
    {
      "inputs": [],
      "name": "symbol",
      "outputs": [
        {
          "internalType": "string",
          "name": "",
          "type": "string"
        }
      ],
      "stateMutability": "view",
      "type": "function"
    },
    {
      "inputs": [
        {
          "internalType": "uint256",
          "name": "tokenId",
          "type": "uint256"
        }
      ],
      "name": "tokenURI",
      "outputs": [
        {
          "internalType": "string",
          "name": "",
          "type": "string"
        }
      ],
      "stateMutability": "view",
      "type": "function"
    },
    {
      "inputs": [
        {
          "internalType": "uint256",
          "name": "",
          "type": "uint256"
        }
      ],
      "name": "tokenURIs",
      "outputs": [
        {
          "internalType": "string",
          "name": "",
          "type": "string"
        }
      ],
      "stateMutability": "view",
      "type": "function"
    },
    {
      "inputs": [
        {
          "internalType": "address",
          "name": "from",
          "type": "address"
        },
        {
          "internalType": "address",
          "name": "to",
          "type": "address"
        },
        {
          "internalType": "uint256",
          "name": "tokenId",
          "type": "uint256"
        }
      ],
      "name": "transferFrom",
      "outputs": [],
      "stateMutability": "nonpayable",
      "type": "function"
    },
    {
      "inputs": [
        {
          "internalType": "address",
          "name": "newOwner",
          "type": "address"
        }
      ],
      "name": "transferOwnership",
      "outputs": [],
      "stateMutability": "nonpayable",
      "type": "function"
    },
    {
      "inputs": [],
      "name": "uniswapRouter",
      "outputs": [
        {
          "internalType": "contract IUniswapV2Router",
          "name": "",
          "type": "address"
        }
      ],
      "stateMutability": "view",
      "type": "function"
    }
  ],
  "bytecode": "0x60806040523480156200001157600080fd5b506040516200476138038062004761833981016040819052620000349162000190565b60405180604001604052806009815260200168139bd31bdcdcd0995d60ba1b8152506040518060400160405280600381526020016227262160e91b8152508160009081620000839190620002a5565b506001620000928282620002a5565b505050620000af620000a96200011d60201b60201c565b62000121565b620000ba3362000121565b600a80546001600160a01b03199081166001600160a01b0397881617909155600b8054821695871695909517909455600c8054851693861693909317909255600d80548416918516919091179055600e8054909216921691909117905562000371565b3390565b600680546001600160a01b038381166001600160a01b0319831681179093556040519116919082907f8be0079c531659141344cd1fd0a4f28419497f9722a3daafe3b4186f6b6457e090600090a35050565b80516001600160a01b03811681146200018b57600080fd5b919050565b600080600080600060a08688031215620001a957600080fd5b620001b48662000173565b9450620001c46020870162000173565b9350620001d46040870162000173565b9250620001e46060870162000173565b9150620001f46080870162000173565b90509295509295909350565b634e487b7160e01b600052604160045260246000fd5b600181811c908216806200022b57607f821691505b6020821081036200024c57634e487b7160e01b600052602260045260246000fd5b50919050565b601f821115620002a057600081815260208120601f850160051c810160208610156200027b5750805b601f850160051c820191505b818110156200029c5782815560010162000287565b5050505b505050565b81516001600160401b03811115620002c157620002c162000200565b620002d981620002d2845462000216565b8462000252565b602080601f831160018114620003115760008415620002f85750858301515b600019600386901b1c1916600185901b1785556200029c565b600085815260208120601f198616915b82811015620003425788860151825594840194600190910190840162000321565b5085821015620003615787850151600019600388901b60f8161c191681555b5050505050600190811b01905550565b6143e080620003816000396000f3fe608060405234801561001057600080fd5b50600436106102065760003560e01c806370a082311161011a578063a9d75b2b116100ad578063dee686231161007c578063dee6862314610472578063e22d551a14610485578063e53d4c2d14610498578063e985e9c5146104a2578063f2fde38b146104b557600080fd5b8063a9d75b2b14610419578063ad0de5bc1461042c578063b88d4fde1461044c578063c87b56dd1461045f57600080fd5b806395d89b41116100e957806395d89b41146103e25780639eb8aa11146103ea578063a22cb465146103fd578063a416f5ab1461041057600080fd5b806370a0823114610395578063715018a6146103b6578063735de9f7146103be5780638da5cb5b146103d157600080fd5b806334b25ee21161019d57806354e16c651161016c57806354e16c65146103365780635fcbd285146103495780636352211e1461035c57806366f362821461036f5780636c8b703f1461038257600080fd5b806334b25ee2146102ea57806341b80300146102fd57806342842e0e146103105780634c36c36e1461032357600080fd5b806322af00fa116101d957806322af00fa1461028857806323b872dd146102b157806324697399146102c4578063292e9556146102d757600080fd5b806301ffc9a71461020b57806306fdde0314610233578063081812fc14610248578063095ea7b314610273575b600080fd5b61021e610219366004613986565b6104c8565b60405190151581526020015b60405180910390f35b61023b61051a565b60405161022a91906139f0565b61025b610256366004613a03565b6105ac565b6040516001600160a01b03909116815260200161022a565b610286610281366004613a38565b6105d3565b005b61029b610296366004613a03565b6106ed565b60405161022a9a99989796959493929190613a62565b6102866102bf366004613ae2565b610865565b600c5461025b906001600160a01b031681565b6102866102e5366004613b67565b610896565b6102866102f8366004613bef565b610b58565b61028661030b366004613bef565b611182565b61028661031e366004613ae2565b6112c4565b610286610331366004613a03565b6112df565b610286610344366004613a03565b611e60565b600d5461025b906001600160a01b031681565b61025b61036a366004613a03565b611f20565b61028661037d366004613bef565b611f80565b61023b610390366004613a03565b611f9c565b6103a86103a3366004613c1f565b612036565b60405190815260200161022a565b6102866120bc565b600e5461025b906001600160a01b031681565b6006546001600160a01b031661025b565b61023b6120d0565b6102866103f8366004613c3a565b6120df565b61028661040b366004613c93565b612128565b6103a8600f5481565b600b5461025b906001600160a01b031681565b6103a861043a366004613a03565b60096020526000908152604090205481565b61028661045a366004613cd5565b612133565b61023b61046d366004613a03565b61216b565b610286610480366004613a03565b61220d565b600a5461025b906001600160a01b031681565b6103a86212750081565b61021e6104b0366004613db1565b612249565b6102866104c3366004613c1f565b612277565b60006001600160e01b031982166380ac58cd60e01b14806104f957506001600160e01b03198216635b5e139f60e01b145b8061051457506301ffc9a760e01b6001600160e01b03198316145b92915050565b60606000805461052990613de4565b80601f016020809104026020016040519081016040528092919081815260200182805461055590613de4565b80156105a25780601f10610577576101008083540402835291602001916105a2565b820191906000526020600020905b81548152906001019060200180831161058557829003601f168201915b5050505050905090565b60006105b7826122ed565b506000908152600460205260409020546001600160a01b031690565b60006105de82611f20565b9050806001600160a01b0316836001600160a01b0316036106505760405162461bcd60e51b815260206004820152602160248201527f4552433732313a20617070726f76616c20746f2063757272656e74206f776e656044820152603960f91b60648201526084015b60405180910390fd5b336001600160a01b038216148061066c575061066c8133612249565b6106de5760405162461bcd60e51b815260206004820152603d60248201527f4552433732313a20617070726f76652063616c6c6572206973206e6f7420746f60448201527f6b656e206f776e6572206f7220617070726f76656420666f7220616c6c0000006064820152608401610647565b6106e8838361234c565b505050565b600760205260009081526040902080546001820154600283015460038401546004850180546001600160a01b039586169694909516949293919261073090613de4565b80601f016020809104026020016040519081016040528092919081815260200182805461075c90613de4565b80156107a95780601f1061077e576101008083540402835291602001916107a9565b820191906000526020600020905b81548152906001019060200180831161078c57829003601f168201915b50505060058401546006850154600786018054959660ff808516976101008604821697506201000090950416945091926107e290613de4565b80601f016020809104026020016040519081016040528092919081815260200182805461080e90613de4565b801561085b5780601f106108305761010080835404028352916020019161085b565b820191906000526020600020905b81548152906001019060200180831161083e57829003601f168201915b505050505090508a565b61086f33826123ba565b61088b5760405162461bcd60e51b815260040161064790613e1e565b6106e8838383612419565b600a546040516323b872dd60e01b815268056bc75e2d63100000916001600160a01b0316906323b872dd906108d390339030908690600401613e6b565b6020604051808303816000875af11580156108f2573d6000803e3d6000fd5b505050506040513d601f19601f820116820180604052508101906109169190613e8f565b61095a5760405162461bcd60e51b815260206004820152601560248201527414dd185ad9481d1c985b9cd9995c8819985a5b1959605a1b6044820152606401610647565b600f80546000918261096b83613ec2565b91905055905061097b338261257d565b6000818152600860205260409020610994848683613f29565b5060006109a46212750042613fe9565b9050604051806101400160405280336001600160a01b0316815260200160006001600160a01b0316815260200184815260200189815260200188888080601f016020809104026020016040519081016040528093929190818152602001838380828437600092018290525093855250505060208083018290526040808401839052606080850184905260808086018890528251808501845285815260a0909601959095528784526007835292819020855181546001600160a01b03199081166001600160a01b03928316178355938701516001830180549095169116179092558401516002820155908301516003820155908201516004820190610aa89082613ffc565b5060a082015160058201805460c085015160e086015161ffff1990921693151561ff0019169390931761010093151584021762ff00001916620100009115159190910217905582015160068201556101208201516007820190610b0b9082613ffc565b509050507fe8e535ef9804960dfde2925cd2b47ef7ada0c70faf4f250196fd7f6132b8dabd8233898985604051610b469594939291906140bc565b60405180910390a15050505050505050565b610b60612708565b6000828152600760205260409020600581015462010000900460ff1615610b995760405162461bcd60e51b81526004016106479061410d565b60018101546001600160a01b0316610bc35760405162461bcd60e51b81526004016106479061413b565b600581015460ff6101008204811615159116151503610c115760405162461bcd60e51b815260206004820152600a6024820152694e6f206469737075746560b01b6044820152606401610647565b60058101805462ff000019166201000017905560008381526009602052604081205460038301546002840154919291610c4a9190613fe9565b600d54600e5460405163095ea7b360e01b81529293506001600160a01b039182169263095ea7b392610c829216908690600401614169565b6020604051808303816000875af1158015610ca1573d6000803e3d6000fd5b505050506040513d601f19601f82011682018060405250810190610cc59190613e8f565b50600e54600a54600b5460009283926001600160a01b039182169263baa2abde92918216911687858030610cfb42610384613fe9565b6040518863ffffffff1660e01b8152600401610d1d9796959493929190614182565b60408051808303816000875af1158015610d3b573d6000803e3d6000fd5b505050506040513d601f19601f82011682018060405250810190610d5f91906141c2565b90925090506000610d708284613fe9565b90506000848211610d82576000610d8c565b610d8c85836141e6565b90508715610ea257600a54875460028901546001600160a01b039283169263a9059cbb921690610dbd908590613fe9565b6040518363ffffffff1660e01b8152600401610dda929190614169565b6020604051808303816000875af1158015610df9573d6000803e3d6000fd5b505050506040513d601f19601f82011682018060405250810190610e1d9190613e8f565b50600a546001880154600389015460405163a9059cbb60e01b81526001600160a01b039384169363a9059cbb93610e5993911691600401614169565b6020604051808303816000875af1158015610e78573d6000803e3d6000fd5b505050506040513d601f19601f82011682018060405250810190610e9c9190613e8f565b50610fac565b600a548754600289015460405163a9059cbb60e01b81526001600160a01b039384169363a9059cbb93610eda93911691600401614169565b6020604051808303816000875af1158015610ef9573d6000803e3d6000fd5b505050506040513d601f19601f82011682018060405250810190610f1d9190613e8f565b50600a54600188015460038901546001600160a01b039283169263a9059cbb921690610f4a908590613fe9565b6040518363ffffffff1660e01b8152600401610f67929190614169565b6020604051808303816000875af1158015610f86573d6000803e3d6000fd5b505050506040513d601f19601f82011682018060405250810190610faa9190613e8f565b505b600b546040516370a0823160e01b81523060048201526000916001600160a01b0316906370a0823190602401602060405180830381865afa158015610ff5573d6000803e3d6000fd5b505050506040513d601f19601f8201168201806040525081019061101991906141f9565b111561111057600b546001600160a01b031663a9059cbb6110426006546001600160a01b031690565b600b546040516370a0823160e01b81523060048201526001600160a01b03909116906370a0823190602401602060405180830381865afa15801561108a573d6000803e3d6000fd5b505050506040513d601f19601f820116820180604052508101906110ae91906141f9565b6040518363ffffffff1660e01b81526004016110cb929190614169565b6020604051808303816000875af11580156110ea573d6000803e3d6000fd5b505050506040513d601f19601f8201168201806040525081019061110e9190613e8f565b505b7ff77ceb5e091d2da041bc760667f9d5fe7a756949eaf29250ad0e60ca6f4c27d9898961114a5760018901546001600160a01b0316611156565b88546001600160a01b03165b604080519283526001600160a01b039091166020830152015b60405180910390a1505050505050505050565b600082815260076020526040902080546001600160a01b03163314806111b4575060018101546001600160a01b031633145b6111f45760405162461bcd60e51b8152602060048201526011602482015270139bdd0818481c185c9d1a58da5c185b9d607a1b6044820152606401610647565b600581015462010000900460ff161561121f5760405162461bcd60e51b81526004016106479061410d565b60018101546001600160a01b03166112495760405162461bcd60e51b81526004016106479061413b565b80546001600160a01b0316330361126f5760058101805460ff1916831515179055611285565b60058101805461ff001916610100841515021790555b6040805184815283151560208201527f4d0f19e37ce2918eb3ea8d2f64d9489a5d5e7bb6b7fb871e9595152a261a2ec2910160405180910390a1505050565b6106e883838360405180602001604052806000815250612133565b6000818152600760205260409020600581015462010000900460ff16156113185760405162461bcd60e51b81526004016106479061410d565b60018101546001600160a01b03166113425760405162461bcd60e51b81526004016106479061413b565b8060060154421061135a5761135682612762565b5050565b600581015460ff8082161515610100909204161515146113b45760405162461bcd60e51b815260206004820152601560248201527409eeae8c6dedacae640c8de40dcdee840dac2e8c6d605b1b6044820152606401610647565b60058101805462ff0000191662010000179055600082815260096020526040812054600383015460028401549192916113ed9190613fe9565b905060006113fc600283614212565b600d54600e5460405163095ea7b360e01b81529293506001600160a01b039182169263095ea7b3926114349216908790600401614169565b6020604051808303816000875af1158015611453573d6000803e3d6000fd5b505050506040513d601f19601f820116820180604052508101906114779190613e8f565b50600e54600a54600b5460009283926001600160a01b039182169263baa2abde929182169116888580306114ad42610384613fe9565b6040518863ffffffff1660e01b81526004016114cf9796959493929190614182565b60408051808303816000875af11580156114ed573d6000803e3d6000fd5b505050506040513d601f19601f8201168201806040525081019061151191906141c2565b909250905060006115228284613fe9565b9050600085821161153457600061153e565b61153e86836141e6565b600589015490915060ff161561190c57600086858a600201546115619190614234565b61156b9190614212565b9050600087868b600301546115809190614234565b61158a9190614212565b600a548b549192506001600160a01b039081169163a9059cbb911660646115b2876050614234565b6115bc9190614212565b6115c69086613fe9565b6040518363ffffffff1660e01b81526004016115e3929190614169565b6020604051808303816000875af1158015611602573d6000803e3d6000fd5b505050506040513d601f19601f820116820180604052508101906116269190613e8f565b50600a5460018b01546001600160a01b039182169163a9059cbb9116606461164f876014614234565b6116599190614212565b6116639085613fe9565b6040518363ffffffff1660e01b8152600401611680929190614169565b6020604051808303816000875af115801561169f573d6000803e3d6000fd5b505050506040513d601f19601f820116820180604052508101906116c39190613e8f565b50841561180057600088868c600201546116dd9190614234565b6116e79190614212565b9050600089878d600301546116fc9190614234565b6117069190614212565b600b548d5460405163a9059cbb60e01b81529293506001600160a01b039182169263a9059cbb9261173d9216908690600401614169565b6020604051808303816000875af115801561175c573d6000803e3d6000fd5b505050506040513d601f19601f820116820180604052508101906117809190613e8f565b50600b5460018d015460405163a9059cbb60e01b81526001600160a01b039283169263a9059cbb926117b9929116908590600401614169565b6020604051808303816000875af11580156117d8573d6000803e3d6000fd5b505050506040513d601f19601f820116820180604052508101906117fc9190613e8f565b5050505b600c548a5460405163a9059cbb60e01b81526001600160a01b039283169263a9059cbb9261183d92911690678ac7230489e8000090600401614169565b6020604051808303816000875af115801561185c573d6000803e3d6000fd5b505050506040513d601f19601f820116820180604052508101906118809190613e8f565b50600c5460018b015460405163a9059cbb60e01b81526001600160a01b039283169263a9059cbb926118c192911690674563918244f4000090600401614169565b6020604051808303816000875af11580156118e0573d6000803e3d6000fd5b505050506040513d601f19601f820116820180604052508101906119049190613e8f565b505050611cc6565b600086858a6002015461191f9190614234565b6119299190614212565b9050600087868b6003015461193e9190614234565b6119489190614212565b600a548b549192506001600160a01b039081169163a9059cbb91166064611970876014614234565b61197a9190614212565b6119849086613fe9565b6040518363ffffffff1660e01b81526004016119a1929190614169565b6020604051808303816000875af11580156119c0573d6000803e3d6000fd5b505050506040513d601f19601f820116820180604052508101906119e49190613e8f565b50600a5460018b01546001600160a01b039182169163a9059cbb91166064611a0d876050614234565b611a179190614212565b611a219085613fe9565b6040518363ffffffff1660e01b8152600401611a3e929190614169565b6020604051808303816000875af1158015611a5d573d6000803e3d6000fd5b505050506040513d601f19601f82011682018060405250810190611a819190613e8f565b508415611bbe57600088868c60020154611a9b9190614234565b611aa59190614212565b9050600089878d60030154611aba9190614234565b611ac49190614212565b600b548d5460405163a9059cbb60e01b81529293506001600160a01b039182169263a9059cbb92611afb9216908690600401614169565b6020604051808303816000875af1158015611b1a573d6000803e3d6000fd5b505050506040513d601f19601f82011682018060405250810190611b3e9190613e8f565b50600b5460018d015460405163a9059cbb60e01b81526001600160a01b039283169263a9059cbb92611b77929116908590600401614169565b6020604051808303816000875af1158015611b96573d6000803e3d6000fd5b505050506040513d601f19601f82011682018060405250810190611bba9190613e8f565b5050505b600c548a5460405163a9059cbb60e01b81526001600160a01b039283169263a9059cbb92611bfb92911690674563918244f4000090600401614169565b6020604051808303816000875af1158015611c1a573d6000803e3d6000fd5b505050506040513d601f19601f82011682018060405250810190611c3e9190613e8f565b50600c5460018b015460405163a9059cbb60e01b81526001600160a01b039283169263a9059cbb92611c7f92911690678ac7230489e8000090600401614169565b6020604051808303816000875af1158015611c9e573d6000803e3d6000fd5b505050506040513d601f19601f82011682018060405250810190611cc29190613e8f565b5050505b600b546040516370a0823160e01b81523060048201526000916001600160a01b0316906370a0823190602401602060405180830381865afa158015611d0f573d6000803e3d6000fd5b505050506040513d601f19601f82011682018060405250810190611d3391906141f9565b1115611e2a57600b546001600160a01b031663a9059cbb611d5c6006546001600160a01b031690565b600b546040516370a0823160e01b81523060048201526001600160a01b03909116906370a0823190602401602060405180830381865afa158015611da4573d6000803e3d6000fd5b505050506040513d601f19601f82011682018060405250810190611dc891906141f9565b6040518363ffffffff1660e01b8152600401611de5929190614169565b6020604051808303816000875af1158015611e04573d6000803e3d6000fd5b505050506040513d601f19601f82011682018060405250810190611e289190613e8f565b505b604080518a8152602081018390527f6f014aa1fc0c12b56c099fa8727bbf780907046b16c01199f4092f5c721187ab910161116f565b611e68612708565b600b546040516323b872dd60e01b81526001600160a01b03909116906323b872dd90611e9c90339030908690600401613e6b565b6020604051808303816000875af1158015611ebb573d6000803e3d6000fd5b505050506040513d601f19601f82011682018060405250810190611edf9190613e8f565b611f1d5760405162461bcd60e51b815260206004820152600f60248201526e151c985b9cd9995c8819985a5b1959608a1b6044820152606401610647565b50565b6000818152600260205260408120546001600160a01b0316806105145760405162461bcd60e51b8152602060048201526018602482015277115490cdcc8c4e881a5b9d985b1a59081d1bdad95b88125160421b6044820152606401610647565b61135682826000604051806020016040528060008152506131b3565b60086020526000908152604090208054611fb590613de4565b80601f0160208091040260200160405190810160405280929190818152602001828054611fe190613de4565b801561202e5780601f106120035761010080835404028352916020019161202e565b820191906000526020600020905b81548152906001019060200180831161201157829003601f168201915b505050505081565b60006001600160a01b0382166120a05760405162461bcd60e51b815260206004820152602960248201527f4552433732313a2061646472657373207a65726f206973206e6f7420612076616044820152683634b21037bbb732b960b91b6064820152608401610647565b506001600160a01b031660009081526003602052604090205490565b6120c4612708565b6120ce600061371c565b565b60606001805461052990613de4565b61212185858585858080601f0160208091040260200160405190810160405280939291908181526020018383808284376000920191909152506131b392505050565b5050505050565b61135633838361376e565b61213d33836123ba565b6121595760405162461bcd60e51b815260040161064790613e1e565b6121658484848461383c565b50505050565b600081815260086020526040902080546060919061218890613de4565b80601f01602080910402602001604051908101604052809291908181526020018280546121b490613de4565b80156122015780601f106121d657610100808354040283529160200191612201565b820191906000526020600020905b8154815290600101906020018083116121e457829003601f168201915b50505050509050919050565b612215612708565b600c546040516323b872dd60e01b81526001600160a01b03909116906323b872dd90611e9c90339030908690600401613e6b565b6001600160a01b03918216600090815260056020908152604080832093909416825291909152205460ff1690565b61227f612708565b6001600160a01b0381166122e45760405162461bcd60e51b815260206004820152602660248201527f4f776e61626c653a206e6577206f776e657220697320746865207a65726f206160448201526564647265737360d01b6064820152608401610647565b611f1d8161371c565b6000818152600260205260409020546001600160a01b0316611f1d5760405162461bcd60e51b8152602060048201526018602482015277115490cdcc8c4e881a5b9d985b1a59081d1bdad95b88125160421b6044820152606401610647565b600081815260046020526040902080546001600160a01b0319166001600160a01b038416908117909155819061238182611f20565b6001600160a01b03167f8c5be1e5ebec7d5bd14f71427d1e84f3dd0314c0f7b2291e5b200ac8c7c3b92560405160405180910390a45050565b6000806123c683611f20565b9050806001600160a01b0316846001600160a01b031614806123ed57506123ed8185612249565b806124115750836001600160a01b0316612406846105ac565b6001600160a01b0316145b949350505050565b826001600160a01b031661242c82611f20565b6001600160a01b0316146124525760405162461bcd60e51b81526004016106479061424b565b6001600160a01b0382166124b45760405162461bcd60e51b8152602060048201526024808201527f4552433732313a207472616e7366657220746f20746865207a65726f206164646044820152637265737360e01b6064820152608401610647565b826001600160a01b03166124c782611f20565b6001600160a01b0316146124ed5760405162461bcd60e51b81526004016106479061424b565b600081815260046020908152604080832080546001600160a01b03199081169091556001600160a01b0387811680865260038552838620805460001901905590871680865283862080546001019055868652600290945282852080549092168417909155905184937fddf252ad1be2c89b69c2b068fc378daa952ba7f163c4a11628f55a4df523b3ef91a4505050565b6001600160a01b0382166125d35760405162461bcd60e51b815260206004820181905260248201527f4552433732313a206d696e7420746f20746865207a65726f20616464726573736044820152606401610647565b6000818152600260205260409020546001600160a01b0316156126385760405162461bcd60e51b815260206004820152601c60248201527f4552433732313a20746f6b656e20616c7265616479206d696e746564000000006044820152606401610647565b6000818152600260205260409020546001600160a01b03161561269d5760405162461bcd60e51b815260206004820152601c60248201527f4552433732313a20746f6b656e20616c7265616479206d696e746564000000006044820152606401610647565b6001600160a01b038216600081815260036020908152604080832080546001019055848352600290915280822080546001600160a01b0319168417905551839291907fddf252ad1be2c89b69c2b068fc378daa952ba7f163c4a11628f55a4df523b3ef908290a45050565b6006546001600160a01b031633146120ce5760405162461bcd60e51b815260206004820181905260248201527f4f776e61626c653a2063616c6c6572206973206e6f7420746865206f776e65726044820152606401610647565b600081815260076020526040902060068101544210156127ba5760405162461bcd60e51b815260206004820152601360248201527210995d081b9bdd081e595d08195e1c1a5c9959606a1b6044820152606401610647565b600581015462010000900460ff16156127e55760405162461bcd60e51b81526004016106479061410d565b60058101805462ff00001916620100001790556000828152600960205260408120546003830154600284015491929161281e9190613fe9565b600d54600e5460405163095ea7b360e01b81529293506001600160a01b039182169263095ea7b3926128569216908690600401614169565b6020604051808303816000875af1158015612875573d6000803e3d6000fd5b505050506040513d601f19601f820116820180604052508101906128999190613e8f565b50600e54600a54600b5460009283926001600160a01b039182169263baa2abde929182169116878580306128cf42610384613fe9565b6040518863ffffffff1660e01b81526004016128f19796959493929190614182565b60408051808303816000875af115801561290f573d6000803e3d6000fd5b505050506040513d601f19601f8201168201806040525081019061293391906141c2565b909250905060006129448284613fe9565b90506000848211612956576000612960565b61296085836141e6565b600588015490915060ff808216151561010090920416151514801561298b5750600587015460ff1615155b15612dea57600587015460ff1615612be857600a5487546001600160a01b039182169163a9059cbb911660646129c2856050614234565b6129cc9190614212565b8a600201546129db9190613fe9565b6040518363ffffffff1660e01b81526004016129f8929190614169565b6020604051808303816000875af1158015612a17573d6000803e3d6000fd5b505050506040513d601f19601f82011682018060405250810190612a3b9190613e8f565b50600a5460018801546001600160a01b039182169163a9059cbb91166064612a64856014614234565b612a6e9190614212565b8a60030154612a7d9190613fe9565b6040518363ffffffff1660e01b8152600401612a9a929190614169565b6020604051808303816000875af1158015612ab9573d6000803e3d6000fd5b505050506040513d601f19601f82011682018060405250810190612add9190613e8f565b50600c54875460405163a9059cbb60e01b81526001600160a01b039283169263a9059cbb92612b1b92911690678ac7230489e8000090600401614169565b6020604051808303816000875af1158015612b3a573d6000803e3d6000fd5b505050506040513d601f19601f82011682018060405250810190612b5e9190613e8f565b50600c54600188015460405163a9059cbb60e01b81526001600160a01b039283169263a9059cbb92612b9f92911690674563918244f4000090600401614169565b6020604051808303816000875af1158015612bbe573d6000803e3d6000fd5b505050506040513d601f19601f82011682018060405250810190612be29190613e8f565b50613019565b600a5487546001600160a01b039182169163a9059cbb91166064612c0d856014614234565b612c179190614212565b8a60020154612c269190613fe9565b6040518363ffffffff1660e01b8152600401612c43929190614169565b6020604051808303816000875af1158015612c62573d6000803e3d6000fd5b505050506040513d601f19601f82011682018060405250810190612c869190613e8f565b50600a5460018801546001600160a01b039182169163a9059cbb91166064612caf856050614234565b612cb99190614212565b8a60030154612cc89190613fe9565b6040518363ffffffff1660e01b8152600401612ce5929190614169565b6020604051808303816000875af1158015612d04573d6000803e3d6000fd5b505050506040513d601f19601f82011682018060405250810190612d289190613e8f565b50600c54875460405163a9059cbb60e01b81526001600160a01b039283169263a9059cbb92612d6692911690674563918244f4000090600401614169565b6020604051808303816000875af1158015612d85573d6000803e3d6000fd5b505050506040513d601f19601f82011682018060405250810190612da99190613e8f565b50600c54600188015460405163a9059cbb60e01b81526001600160a01b039283169263a9059cbb92612b9f92911690678ac7230489e8000090600401614169565b600a5487546001600160a01b039182169163a9059cbb9116612e0d600285614212565b8a60020154612e1c9190613fe9565b6040518363ffffffff1660e01b8152600401612e39929190614169565b6020604051808303816000875af1158015612e58573d6000803e3d6000fd5b505050506040513d601f19601f82011682018060405250810190612e7c9190613e8f565b50600a5460018801546001600160a01b039182169163a9059cbb9116612ea3600285614212565b8a60030154612eb29190613fe9565b6040518363ffffffff1660e01b8152600401612ecf929190614169565b6020604051808303816000875af1158015612eee573d6000803e3d6000fd5b505050506040513d601f19601f82011682018060405250810190612f129190613e8f565b50600c54875460405163a9059cbb60e01b81526001600160a01b039283169263a9059cbb92612f5092911690671bc16d674ec8000090600401614169565b6020604051808303816000875af1158015612f6f573d6000803e3d6000fd5b505050506040513d601f19601f82011682018060405250810190612f939190613e8f565b50600c54600188015460405163a9059cbb60e01b81526001600160a01b039283169263a9059cbb92612fd492911690671bc16d674ec8000090600401614169565b6020604051808303816000875af1158015612ff3573d6000803e3d6000fd5b505050506040513d601f19601f820116820180604052508101906130179190613e8f565b505b600b546040516370a0823160e01b81523060048201526000916001600160a01b0316906370a0823190602401602060405180830381865afa158015613062573d6000803e3d6000fd5b505050506040513d601f19601f8201168201806040525081019061308691906141f9565b111561317d57600b546001600160a01b031663a9059cbb6130af6006546001600160a01b031690565b600b546040516370a0823160e01b81523060048201526001600160a01b03909116906370a0823190602401602060405180830381865afa1580156130f7573d6000803e3d6000fd5b505050506040513d601f19601f8201168201806040525081019061311b91906141f9565b6040518363ffffffff1660e01b8152600401613138929190614169565b6020604051808303816000875af1158015613157573d6000803e3d6000fd5b505050506040513d601f19601f8201168201806040525081019061317b9190613e8f565b505b60408051898152602081018390527f6f014aa1fc0c12b56c099fa8727bbf780907046b16c01199f4092f5c721187ab9101610b46565b600084815260076020526040902060018101546001600160a01b0316156132135760405162461bcd60e51b815260206004820152601460248201527310995d08185b1c9958591e481858d8d95c1d195960621b6044820152606401610647565b80546001600160a01b0316330361326c5760405162461bcd60e51b815260206004820152601d60248201527f43726561746f722063616e6e6f7420616363657074206f776e206265740000006044820152606401610647565b806006015442106132b15760405162461bcd60e51b815260206004820152600f60248201526e10995d081a185cc8195e1c1a5c9959608a1b6044820152606401610647565b60008084116132c45781600301546132c6565b835b600a546040516323b872dd60e01b81529192506001600160a01b0316906323b872dd906132fb90339030908690600401613e6b565b6020604051808303816000875af115801561331a573d6000803e3d6000fd5b505050506040513d601f19601f8201168201806040525081019061333e9190613e8f565b6133825760405162461bcd60e51b815260206004820152601560248201527414dd185ad9481d1c985b9cd9995c8819985a5b1959605a1b6044820152606401610647565b6001820180546001600160a01b031916331790556005820180548615156101000261ff0019909116179055600782016133bb8482613ffc565b5083156133ca57600382018490555b81546133e0906001600160a01b03163388612419565b6000826003015483600201546133f69190613fe9565b90506000613405600283614212565b600b549091506001600160a01b03166323b872dd61342b6006546001600160a01b031690565b30846040518463ffffffff1660e01b815260040161344b93929190613e6b565b6020604051808303816000875af115801561346a573d6000803e3d6000fd5b505050506040513d601f19601f8201168201806040525081019061348e9190613e8f565b6134da5760405162461bcd60e51b815260206004820152601b60248201527f537461626c65546f6b656e207472616e73666572206661696c656400000000006044820152606401610647565b600a54600e5460405163095ea7b360e01b81526001600160a01b039283169263095ea7b392613510929116908590600401614169565b6020604051808303816000875af115801561352f573d6000803e3d6000fd5b505050506040513d601f19601f820116820180604052508101906135539190613e8f565b50600b54600e5460405163095ea7b360e01b81526001600160a01b039283169263095ea7b39261358a929116908590600401614169565b6020604051808303816000875af11580156135a9573d6000803e3d6000fd5b505050506040513d601f19601f820116820180604052508101906135cd9190613e8f565b50600e54600a54600b546000926001600160a01b039081169263e8e337009290821691168580606461360082605f614234565b61360a9190614212565b60646136178a605f614234565b6136219190614212565b3061362e42610384613fe9565b60405160e08a901b6001600160e01b03191681526001600160a01b039889166004820152968816602488015260448701959095526064860193909352608485019190915260a484015290921660c482015260e4810191909152610104016060604051808303816000875af11580156136aa573d6000803e3d6000fd5b505050506040513d601f19601f820116820180604052508101906136ce9190614290565b60008c81526009602052604090819020829055519093507f099017437d07c2457f7830310ccdd19cd9666caaaf58bc4f0b779c2cbdd12ecc925061116f91508b9033908c9089908c906142be565b600680546001600160a01b038381166001600160a01b0319831681179093556040519116919082907f8be0079c531659141344cd1fd0a4f28419497f9722a3daafe3b4186f6b6457e090600090a35050565b816001600160a01b0316836001600160a01b0316036137cf5760405162461bcd60e51b815260206004820152601960248201527f4552433732313a20617070726f766520746f2063616c6c6572000000000000006044820152606401610647565b6001600160a01b03838116600081815260056020908152604080832094871680845294825291829020805460ff191686151590811790915591519182527f17307eab39ab6107e8899845ad3d59bd9653f200f220920489ca2b5937696c31910160405180910390a3505050565b613847848484612419565b6138538484848461386f565b6121655760405162461bcd60e51b8152600401610647906142fe565b60006001600160a01b0384163b1561396557604051630a85bd0160e11b81526001600160a01b0385169063150b7a02906138b3903390899088908890600401614350565b6020604051808303816000875af19250505080156138ee575060408051601f3d908101601f191682019092526138eb9181019061438d565b60015b61394b573d80801561391c576040519150601f19603f3d011682016040523d82523d6000602084013e613921565b606091505b5080516000036139435760405162461bcd60e51b8152600401610647906142fe565b805181602001fd5b6001600160e01b031916630a85bd0160e11b149050612411565b506001949350505050565b6001600160e01b031981168114611f1d57600080fd5b60006020828403121561399857600080fd5b81356139a381613970565b9392505050565b6000815180845260005b818110156139d0576020818501810151868301820152016139b4565b506000602082860101526020601f19601f83011685010191505092915050565b6020815260006139a360208301846139aa565b600060208284031215613a1557600080fd5b5035919050565b80356001600160a01b0381168114613a3357600080fd5b919050565b60008060408385031215613a4b57600080fd5b613a5483613a1c565b946020939093013593505050565b6001600160a01b038b811682528a166020820152604081018990526060810188905261014060808201819052600090613a9d8382018a6139aa565b905087151560a084015286151560c084015285151560e084015284610100840152828103610120840152613ad181856139aa565b9d9c50505050505050505050505050565b600080600060608486031215613af757600080fd5b613b0084613a1c565b9250613b0e60208501613a1c565b9150604084013590509250925092565b60008083601f840112613b3057600080fd5b50813567ffffffffffffffff811115613b4857600080fd5b602083019150836020828501011115613b6057600080fd5b9250929050565b600080600080600060608688031215613b7f57600080fd5b85359450602086013567ffffffffffffffff80821115613b9e57600080fd5b613baa89838a01613b1e565b90965094506040880135915080821115613bc357600080fd5b50613bd088828901613b1e565b969995985093965092949392505050565b8015158114611f1d57600080fd5b60008060408385031215613c0257600080fd5b823591506020830135613c1481613be1565b809150509250929050565b600060208284031215613c3157600080fd5b6139a382613a1c565b600080600080600060808688031215613c5257600080fd5b853594506020860135613c6481613be1565b935060408601359250606086013567ffffffffffffffff811115613c8757600080fd5b613bd088828901613b1e565b60008060408385031215613ca657600080fd5b613caf83613a1c565b91506020830135613c1481613be1565b634e487b7160e01b600052604160045260246000fd5b60008060008060808587031215613ceb57600080fd5b613cf485613a1c565b9350613d0260208601613a1c565b925060408501359150606085013567ffffffffffffffff80821115613d2657600080fd5b818701915087601f830112613d3a57600080fd5b813581811115613d4c57613d4c613cbf565b604051601f8201601f19908116603f01168101908382118183101715613d7457613d74613cbf565b816040528281528a6020848701011115613d8d57600080fd5b82602086016020830137600060208483010152809550505050505092959194509250565b60008060408385031215613dc457600080fd5b613dcd83613a1c565b9150613ddb60208401613a1c565b90509250929050565b600181811c90821680613df857607f821691505b602082108103613e1857634e487b7160e01b600052602260045260246000fd5b50919050565b6020808252602d908201527f4552433732313a2063616c6c6572206973206e6f7420746f6b656e206f776e6560408201526c1c881bdc88185c1c1c9bdd9959609a1b606082015260800190565b6001600160a01b039384168152919092166020820152604081019190915260600190565b600060208284031215613ea157600080fd5b81516139a381613be1565b634e487b7160e01b600052601160045260246000fd5b600060018201613ed457613ed4613eac565b5060010190565b601f8211156106e857600081815260208120601f850160051c81016020861015613f025750805b601f850160051c820191505b81811015613f2157828155600101613f0e565b505050505050565b67ffffffffffffffff831115613f4157613f41613cbf565b613f5583613f4f8354613de4565b83613edb565b6000601f841160018114613f895760008515613f715750838201355b600019600387901b1c1916600186901b178355612121565b600083815260209020601f19861690835b82811015613fba5786850135825560209485019460019092019101613f9a565b5086821015613fd75760001960f88860031b161c19848701351681555b505060018560011b0183555050505050565b8082018082111561051457610514613eac565b815167ffffffffffffffff81111561401657614016613cbf565b61402a816140248454613de4565b84613edb565b602080601f83116001811461405f57600084156140475750858301515b600019600386901b1c1916600185901b178555613f21565b600085815260208120601f198616915b8281101561408e5788860151825594840194600190910190840161406f565b50858210156140ac5787850151600019600388901b60f8161c191681555b5050505050600190811b01905550565b8581526001600160a01b03851660208201526080604082018190528101839052828460a0830137600060a08483010152600060a0601f19601f86011683010190508260608301529695505050505050565b60208082526014908201527310995d08185b1c9958591e481c995cdbdb1d995960621b604082015260600190565b60208082526014908201527310995d081b9bdd081858d8d95c1d1959081e595d60621b604082015260600190565b6001600160a01b03929092168252602082015260400190565b6001600160a01b039788168152958716602087015260408601949094526060850192909252608084015290921660a082015260c081019190915260e00190565b600080604083850312156141d557600080fd5b505080516020909101519092909150565b8181038181111561051457610514613eac565b60006020828403121561420b57600080fd5b5051919050565b60008261422f57634e487b7160e01b600052601260045260246000fd5b500490565b808202811582820484141761051457610514613eac565b60208082526025908201527f4552433732313a207472616e736665722066726f6d20696e636f72726563742060408201526437bbb732b960d91b606082015260800190565b6000806000606084860312156142a557600080fd5b8351925060208401519150604084015190509250925092565b85815260018060a01b0385166020820152831515604082015282606082015260a0608082015260006142f360a08301846139aa565b979650505050505050565b60208082526032908201527f4552433732313a207472616e7366657220746f206e6f6e20455243373231526560408201527131b2b4bb32b91034b6b83632b6b2b73a32b960711b606082015260800190565b6001600160a01b0385811682528416602082015260408101839052608060608201819052600090614383908301846139aa565b9695505050505050565b60006020828403121561439f57600080fd5b81516139a38161397056fea2646970667358221220433639fb6ca6206e6c8cbf486ce4d08d03a2645d0ce699c97cfbc7f80047827f64736f6c63430008140033",
  "linkReferences": {},
  "deployedLinkReferences": {}
}