{
  "_format": "hh-sol-artifact-1",
  "contractName": "MockUniswapRouter",
  "sourceName": "packages/hardhat/contracts/MockUniswapRouter.sol",
  "abi": [
    {
      "anonymous": false,
      "inputs": [
        {
          "indexed": false,
          "internalType": "address",
          "name": "tokenA",
          "type": "address"
        },
        {
          "indexed": false,
          "internalType": "address",
          "name": "tokenB",
          "type": "address"
        },
        {
          "indexed": false,
          "internalType": "uint256",
          "name": "amountA",
          "type": "uint256"
        },
        {
          "indexed": false,
          "internalType": "uint256",
          "name": "amountB",
          "type": "uint256"
        },
        {
          "indexed": false,
          "internalType": "uint256",
          "name": "liquidity",
          "type": "uint256"
        }
      ],
      "name": "LiquidityAdded",
      "type": "event"
    },
    {
      "anonymous": false,
      "inputs": [
        {
          "indexed": false,
          "internalType": "address",
          "name": "tokenA",
          "type": "address"
        },
        {
          "indexed": false,
          "internalType": "address",
          "name": "tokenB",
          "type": "address"
        },
        {
          "indexed": false,
          "internalType": "uint256",
          "name": "liquidity",
          "type": "uint256"
        },
        {
          "indexed": false,
          "internalType": "uint256",
          "name": "amountA",
          "type": "uint256"
        },
        {
          "indexed": false,
          "internalType": "uint256",
          "name": "amountB",
          "type": "uint256"
        }
      ],
      "name": "LiquidityRemoved",
      "type": "event"
    },
    {
      "inputs": [
        {
          "internalType": "address",
          "name": "tokenA",
          "type": "address"
        },
        {
          "internalType": "address",
          "name": "tokenB",
          "type": "address"
        },
        {
          "internalType": "uint256",
          "name": "amountADesired",
          "type": "uint256"
        },
        {
          "internalType": "uint256",
          "name": "amountBDesired",
          "type": "uint256"
        },
        {
          "internalType": "uint256",
          "name": "amountAMin",
          "type": "uint256"
        },
        {
          "internalType": "uint256",
          "name": "amountBMin",
          "type": "uint256"
        },
        {
          "internalType": "address",
          "name": "to",
          "type": "address"
        },
        {
          "internalType": "uint256",
          "name": "deadline",
          "type": "uint256"
        }
      ],
      "name": "addLiquidity",
      "outputs": [
        {
          "internalType": "uint256",
          "name": "amountA",
          "type": "uint256"
        },
        {
          "internalType": "uint256",
          "name": "amountB",
          "type": "uint256"
        },
        {
          "internalType": "uint256",
          "name": "liquidity",
          "type": "uint256"
        }
      ],
      "stateMutability": "nonpayable",
      "type": "function"
    },
    {
      "inputs": [
        {
          "internalType": "address",
          "name": "tokenA",
          "type": "address"
        },
        {
          "internalType": "address",
          "name": "tokenB",
          "type": "address"
        },
        {
          "internalType": "uint256",
          "name": "liquidity",
          "type": "uint256"
        },
        {
          "internalType": "uint256",
          "name": "amountAMin",
          "type": "uint256"
        },
        {
          "internalType": "uint256",
          "name": "amountBMin",
          "type": "uint256"
        },
        {
          "internalType": "address",
          "name": "to",
          "type": "address"
        },
        {
          "internalType": "uint256",
          "name": "deadline",
          "type": "uint256"
        }
      ],
      "name": "removeLiquidity",
      "outputs": [
        {
          "internalType": "uint256",
          "name": "amountA",
          "type": "uint256"
        },
        {
          "internalType": "uint256",
          "name": "amountB",
          "type": "uint256"
        }
      ],
      "stateMutability": "nonpayable",
      "type": "function"
    },
    {
      "inputs": [
        {
          "internalType": "address",
          "name": "token",
          "type": "address"
        },
        {
          "internalType": "address",
          "name": "user",
          "type": "address"
        },
        {
          "internalType": "uint256",
          "name": "amount",
          "type": "uint256"
        }
      ],
      "name": "simulateTransferToUser",
      "outputs": [],
      "stateMutability": "nonpayable",
      "type": "function"
    },
    {
      "inputs": [
        {
          "internalType": "address",
          "name": "",
          "type": "address"
        },
        {
          "internalType": "address",
          "name": "",
          "type": "address"
        }
      ],
      "name": "transferredAmounts",
      "outputs": [
        {
          "internalType": "uint256",
          "name": "",
          "type": "uint256"
        }
      ],
      "stateMutability": "view",
      "type": "function"
    }
  ],
  "bytecode": "0x608060405234801561001057600080fd5b506105d3806100206000396000f3fe608060405234801561001057600080fd5b506004361061004c5760003560e01c8063641bc9c214610051578063baa2abde1461008c578063e25348fb146100b4578063e8e33700146100c9575b600080fd5b61007961005f366004610400565b600060208181529281526040808220909352908152205481565b6040519081526020015b60405180910390f35b61009f61009a366004610433565b6100f7565b60408051928352602083019190915201610083565b6100c76100c236600461049d565b610248565b005b6100dc6100d73660046104d9565b610287565b60408051938452602084019290925290820152606001610083565b60405163a9059cbb60e01b81526001600160a01b03838116600483015260248201879052869182918a169063a9059cbb906044016020604051808303816000875af115801561014a573d6000803e3d6000fd5b505050506040513d601f19601f8201168201806040525081019061016e919061054d565b5060405163a9059cbb60e01b81526001600160a01b0385811660048301526024820183905289169063a9059cbb906044016020604051808303816000875af11580156101be573d6000803e3d6000fd5b505050506040513d601f19601f820116820180604052508101906101e2919061054d565b50604080516001600160a01b03808c1682528a16602082015290810188905260608101839052608081018290527fbc7d19d505c7ec4db83f3b51f19fb98c4c8a99922e7839d1ee608dfbee29501b9060a00160405180910390a197509795505050505050565b6001600160a01b038084166000908152602081815260408083209386168352929052908120805483929061027d908490610576565b9091555050505050565b6040516323b872dd60e01b8152336004820152306024820152604481018790528690869082906001600160a01b038c16906323b872dd906064016020604051808303816000875af11580156102e0573d6000803e3d6000fd5b505050506040513d601f19601f82011682018060405250810190610304919061054d565b506040516323b872dd60e01b8152336004820152306024820152604481018390526001600160a01b038b16906323b872dd906064016020604051808303816000875af1158015610358573d6000803e3d6000fd5b505050506040513d601f19601f8201168201806040525081019061037c919061054d565b50604080516001600160a01b03808e1682528c16602082015290810184905260608101839052608081018290527f4a1a2a6176e9646d9e3157f7c2ab3c499f18337c0b0828cfb28e0a61de4a11f79060a00160405180910390a1985098509895505050505050565b80356001600160a01b03811681146103fb57600080fd5b919050565b6000806040838503121561041357600080fd5b61041c836103e4565b915061042a602084016103e4565b90509250929050565b600080600080600080600060e0888a03121561044e57600080fd5b610457886103e4565b9650610465602089016103e4565b955060408801359450606088013593506080880135925061048860a089016103e4565b915060c0880135905092959891949750929550565b6000806000606084860312156104b257600080fd5b6104bb846103e4565b92506104c9602085016103e4565b9150604084013590509250925092565b600080600080600080600080610100898b0312156104f657600080fd5b6104ff896103e4565b975061050d60208a016103e4565b965060408901359550606089013594506080890135935060a0890135925061053760c08a016103e4565b915060e089013590509295985092959890939650565b60006020828403121561055f57600080fd5b8151801515811461056f57600080fd5b9392505050565b8082018082111561059757634e487b7160e01b600052601160045260246000fd5b9291505056fea2646970667358221220ff741dbad2df1aa70cbeeb5ed93df94f6069734dbe5a0488f59b633a8201bfd664736f6c63430008130033",
  "linkReferences": {},
  "deployedLinkReferences": {}
}