{
  "_format": "hh-sol-artifact-1",
  "contractName": "BettingManagerFactory",
  "sourceName": "packages/hardhat/contracts/BettingManagerFactory.sol",
  "abi": [
    {
      "anonymous": false,
      "inputs": [
        {
          "indexed": true,
          "internalType": "address",
          "name": "bettingContract",
          "type": "address"
        },
        {
          "indexed": true,
          "internalType": "address",
          "name": "creator",
          "type": "address"
        }
      ],
      "name": "BettingContractCreated",
      "type": "event"
    },
    {
      "anonymous": false,
      "inputs": [
        {
          "indexed": true,
          "internalType": "address",
          "name": "previousOwner",
          "type": "address"
        },
        {
          "indexed": true,
          "internalType": "address",
          "name": "newOwner",
          "type": "address"
        }
      ],
      "name": "OwnershipTransferred",
      "type": "event"
    },
    {
      "inputs": [
        {
          "internalType": "uint256",
          "name": "",
          "type": "uint256"
        }
      ],
      "name": "bettingContracts",
      "outputs": [
        {
          "internalType": "address",
          "name": "",
          "type": "address"
        }
      ],
      "stateMutability": "view",
      "type": "function"
    },
    {
      "inputs": [
        {
          "internalType": "address",
          "name": "_token",
          "type": "address"
        }
      ],
      "name": "createBettingContract",
      "outputs": [
        {
          "internalType": "address",
          "name": "",
          "type": "address"
        }
      ],
      "stateMutability": "nonpayable",
      "type": "function"
    },
    {
      "inputs": [
        {
          "internalType": "uint256",
          "name": "index",
          "type": "uint256"
        }
      ],
      "name": "getBettingContract",
      "outputs": [
        {
          "internalType": "address",
          "name": "",
          "type": "address"
        }
      ],
      "stateMutability": "view",
      "type": "function"
    },
    {
      "inputs": [],
      "name": "getBettingContractsCount",
      "outputs": [
        {
          "internalType": "uint256",
          "name": "",
          "type": "uint256"
        }
      ],
      "stateMutability": "view",
      "type": "function"
    },
    {
      "inputs": [],
      "name": "owner",
      "outputs": [
        {
          "internalType": "address",
          "name": "",
          "type": "address"
        }
      ],
      "stateMutability": "view",
      "type": "function"
    },
    {
      "inputs": [],
      "name": "renounceOwnership",
      "outputs": [],
      "stateMutability": "nonpayable",
      "type": "function"
    },
    {
      "inputs": [
        {
          "internalType": "address",
          "name": "newOwner",
          "type": "address"
        }
      ],
      "name": "transferOwnership",
      "outputs": [],
      "stateMutability": "nonpayable",
      "type": "function"
    }
  ],
  "bytecode": "0x608060405234801561001057600080fd5b5061001a3361001f565b61006f565b600080546001600160a01b038381166001600160a01b0319831681178455604051919092169283917f8be0079c531659141344cd1fd0a4f28419497f9722a3daafe3b4186f6b6457e09190a35050565b6126ed8061007e6000396000f3fe608060405234801561001057600080fd5b506004361061007d5760003560e01c80638da5cb5b1161005b5780638da5cb5b146100cd578063b7d139da146100de578063d704624b146100f1578063f2fde38b1461010457600080fd5b80630b1983de1461008257806332b47797146100b2578063715018a6146100c3575b600080fd5b610095610090366004610418565b610117565b6040516001600160a01b0390911681526020015b60405180910390f35b6001546040519081526020016100a9565b6100cb610141565b005b6000546001600160a01b0316610095565b6100956100ec366004610431565b610155565b6100956100ff366004610418565b61026b565b6100cb610112366004610431565b6102e8565b6001818154811061012757600080fd5b6000918252602090912001546001600160a01b0316905081565b610149610361565b61015360006103bb565b565b600080826040516101659061040b565b6001600160a01b039091168152602001604051809103906000f080158015610191573d6000803e3d6000fd5b5060405163f2fde38b60e01b81523360048201529091506001600160a01b0382169063f2fde38b90602401600060405180830381600087803b1580156101d657600080fd5b505af11580156101ea573d6000803e3d6000fd5b505060018054808201825560009182527fb10e2d527612073b26eecdfd717e6a320cf44b4afac2b0732d9fcbe2b7fa0cf60180546001600160a01b0319166001600160a01b0386169081179091556040513394509092507f48fe6b475437c69375486920959a02e2dd1be3bb6fb26ca084a9d0378b96b2759190a392915050565b60015460009082106102ba5760405162461bcd60e51b8152602060048201526013602482015272496e646578206f7574206f6620626f756e647360681b60448201526064015b60405180910390fd5b600182815481106102cd576102cd610461565b6000918252602090912001546001600160a01b031692915050565b6102f0610361565b6001600160a01b0381166103555760405162461bcd60e51b815260206004820152602660248201527f4f776e61626c653a206e6577206f776e657220697320746865207a65726f206160448201526564647265737360d01b60648201526084016102b1565b61035e816103bb565b50565b6000546001600160a01b031633146101535760405162461bcd60e51b815260206004820181905260248201527f4f776e61626c653a2063616c6c6572206973206e6f7420746865206f776e657260448201526064016102b1565b600080546001600160a01b038381166001600160a01b0319831681178455604051919092169283917f8be0079c531659141344cd1fd0a4f28419497f9722a3daafe3b4186f6b6457e09190a35050565b6122408061047883390190565b60006020828403121561042a57600080fd5b5035919050565b60006020828403121561044357600080fd5b81356001600160a01b038116811461045a57600080fd5b9392505050565b634e487b7160e01b600052603260045260246000fdfe6080604052600580553480156200001557600080fd5b5060405162002240380380620022408339810160408190526200003891620000bd565b62000043336200006d565b60018055600480546001600160a01b0319166001600160a01b0392909216919091179055620000ef565b600080546001600160a01b038381166001600160a01b0319831681178455604051919092169283917f8be0079c531659141344cd1fd0a4f28419497f9722a3daafe3b4186f6b6457e09190a35050565b600060208284031215620000d057600080fd5b81516001600160a01b0381168114620000e857600080fd5b9392505050565b61214180620000ff6000396000f3fe608060405234801561001057600080fd5b506004361061012c5760003560e01c8063715018a6116100ad578063c1f0906111610071578063c1f090611461025d578063cb1c2b5c14610270578063f2fde38b1461027f578063f5489b7e14610292578063fc0c546a146102a557600080fd5b8063715018a6146102015780638d9004d4146102095780638da5cb5b1461021c578063a416f5ab14610241578063b893ca1a1461024a57600080fd5b80633df2967e116100f45780633df2967e1461019c57806350f90594146101c3578063535d76a7146101cd5780636999ac93146101f05780636f9fb98a146101f957600080fd5b80631411dab01461013157806316ae482814610146578063196b256714610163578063221b14d91461017657806331bfe3a914610189575b600080fd5b61014461013f366004611ba0565b6102b8565b005b61015062093a8081565b6040519081526020015b60405180910390f35b610144610171366004611bc7565b6102c5565b610150610184366004611c79565b610537565b610144610197366004611ca5565b61057e565b6101af6101aa366004611ba0565b61089a565b60405161015a989796959493929190611cde565b6101506201518081565b6101e06101db366004611ba0565b6109a8565b604051901515815260200161015a565b61015060055481565b610150610a36565b610144610aad565b610150610217366004611ba0565b610ac1565b6000546001600160a01b03165b6040516001600160a01b03909116815260200161015a565b61015060035481565b610144610258366004611d84565b610aea565b61014461026b366004611dbb565b610b5a565b610150678ac7230489e8000081565b61014461028d366004611deb565b610ee6565b6101446102a0366004611ba0565b610f5f565b600454610229906001600160a01b031681565b6102c06110e0565b600555565b678ac7230489e800008510156102f65760405162461bcd60e51b81526004016102ed90611e06565b60405180910390fd5b600480546040516323b872dd60e01b81523392810192909252306024830152604482018790526001600160a01b0316906323b872dd906064016020604051808303816000875af115801561034e573d6000803e3d6000fd5b505050506040513d601f19601f820116820180604052508101906103729190611e48565b6103be5760405162461bcd60e51b815260206004820152601f60248201527f546f6b656e207472616e7366657220666f72207374616b65206661696c65640060448201526064016102ed565b60008083116103d05762093a806103dd565b6103dd8362015180611e7b565b905060006103eb8242611e92565b600354600090815260026020526040902080546001600160a01b031916331781559091506001810161041e878983611f43565b506002810182905560038101805460ff199081169091556008820180549091169055831561048b5760048101889055336000818152600983016020908152604082208b9055600b8401805460018101825590835291200180546001600160a01b03191690911790556104cc565b60058101889055336000818152600a83016020908152604082208b9055600c8401805460018101825590835291200180546001600160a01b03191690911790555b336001600160a01b03166003547fd4182c8a59ad80591d8a72ae9e840efb3036b6740a6a5a074995ccfdefa37039898986898e604051610510959493929190612004565b60405180910390a36003805490600061052883612049565b91905055505050505050505050565b60008281526002602090815260408083206001600160a01b0385168452600a81018352818420546009820190935290832054909161057491611e92565b9150505b92915050565b678ac7230489e800008210156105a65760405162461bcd60e51b81526004016102ed90611e06565b60008381526002602081905260409091209081015442106106095760405162461bcd60e51b815260206004820152601760248201527f4265742068617320616c7265616479206578706972656400000000000000000060448201526064016102ed565b600381015460ff161561065e5760405162461bcd60e51b815260206004820152601760248201527f42657420697320616c7265616479207265736f6c76656400000000000000000060448201526064016102ed565b33600090815260098201602052604090205415801561068c5750336000908152600a82016020526040902054155b6106d85760405162461bcd60e51b815260206004820152601a60248201527f5061727469636970616e7420616c7265616479206a6f696e656400000000000060448201526064016102ed565b600480546040516323b872dd60e01b81523392810192909252306024830152604482018590526001600160a01b0316906323b872dd906064016020604051808303816000875af1158015610730573d6000803e3d6000fd5b505050506040513d601f19601f820116820180604052508101906107549190611e48565b6107a05760405162461bcd60e51b815260206004820152601f60248201527f546f6b656e207472616e7366657220666f72207374616b65206661696c65640060448201526064016102ed565b81156108005733600081815260098301602090815260408220869055600b840180546001810182559083529082200180546001600160a01b0319169092179091556004820180548592906107f5908490611e92565b909155506108559050565b336000818152600a8301602090815260408220869055600c840180546001810182559083529082200180546001600160a01b03191690921790915560058201805485929061084f908490611e92565b90915550505b60408051831515815260208101859052339186917fbdea915dee87ac0c987ce0be8ee477a6fa7f1491bbe7f11cb0b18fb28a20f77a910160405180910390a350505050565b6000818152600260208190526040822080549181015460038201546004830154600584015460088501546001860180546060988a988998899889988998899894976001600160a01b0390961696939460ff93841694929391928183169261010090920490911690879061090c90611ebb565b80601f016020809104026020016040519081016040528092919081815260200182805461093890611ebb565b80156109855780601f1061095a57610100808354040283529160200191610985565b820191906000526020600020905b81548152906001019060200180831161096857829003601f168201915b505050505096509850985098509850985098509850985050919395975091939597565b60006109b26110e0565b600480546040516323b872dd60e01b81523392810192909252306024830152604482018490526001600160a01b0316906323b872dd906064016020604051808303816000875af1158015610a0a573d6000803e3d6000fd5b505050506040513d601f19601f82011682018060405250810190610a2e9190611e48565b90505b919050565b600480546040516370a0823160e01b815230928101929092526000916001600160a01b03909116906370a0823190602401602060405180830381865afa158015610a84573d6000803e3d6000fd5b505050506040513d601f19601f82011682018060405250810190610aa89190612062565b905090565b610ab56110e0565b610abf600061113a565b565b600081815260026020526040812060058101546004820154610ae39190611e92565b9392505050565b610af26110e0565b610afa61118a565b6000838152600260205260409020600881015460ff1615610b2d5760405162461bcd60e51b81526004016102ed9061207b565b8115610b4157610b3c846111e3565b610b4b565b610b4b84846114c1565b50610b5560018055565b505050565b600082815260026020819052604090912090810154421015610bb75760405162461bcd60e51b815260206004820152601660248201527510995d081a5cc81b9bdd08195e1c1a5c9959081e595d60521b60448201526064016102ed565b620151808160020154610bca9190611e92565b4210610c185760405162461bcd60e51b815260206004820152601960248201527f5265736f6c7574696f6e20706572696f64206973206f7665720000000000000060448201526064016102ed565b600881015460ff1615610c3d5760405162461bcd60e51b81526004016102ed9061207b565b6000610c498433610537565b11610c965760405162461bcd60e51b815260206004820152601b60248201527f53656e646572206973206e6f742061207061727469636970616e74000000000060448201526064016102ed565b336000908152600d8201602052604090205460ff1615610cf85760405162461bcd60e51b815260206004820152601960248201527f5061727469636970616e7420616c726561647920766f7465640000000000000060448201526064016102ed565b33600090815260098201602052604090205415610ded57600182151514610d7d5760405162461bcd60e51b815260206004820152603360248201527f4d75737420766f746520277472756527206265636175736520796f75206a6f696044820152726e65642074686520277472756527207369646560681b60648201526084016102ed565b33600090815260098201602052604081205460068301805491928392610da4908490611e92565b9091555050604080516001815260208101839052339186917f01e12c6d241eb97f68e147b48bebefe30d0296d4d4c2f134704114c948df0cc8910160405180910390a350610ec5565b8115610e595760405162461bcd60e51b815260206004820152603560248201527f4d75737420766f7465202766616c736527206265636175736520796f75206a6f604482015274696e656420746865202766616c736527207369646560581b60648201526084016102ed565b336000908152600a8201602052604081205460078301805491928392610e80908490611e92565b9091555050604080516000815260208101839052339186917f01e12c6d241eb97f68e147b48bebefe30d0296d4d4c2f134704114c948df0cc8910160405180910390a3505b336000908152600d90910160205260409020805460ff191660011790555050565b610eee6110e0565b6001600160a01b038116610f535760405162461bcd60e51b815260206004820152602660248201527f4f776e61626c653a206e6577206f776e657220697320746865207a65726f206160448201526564647265737360d01b60648201526084016102ed565b610f5c8161113a565b50565b610f6761118a565b600081815260026020819052604090912090810154610f8a906201518090611e92565b421015610fe75760405162461bcd60e51b815260206004820152602560248201527f5265736f6c7574696f6e20706572696f64206973206e6f742066696e6973686560448201526419081e595d60da1b60648201526084016102ed565b600881015460ff161561100c5760405162461bcd60e51b81526004016102ed9061207b565b6000816005015482600401546110229190611e92565b905060006064611033836050611e7b565b61103d91906120c0565b90508083600601541061105a576110558460016114c1565b6110d4565b80836007015410611070576110558460006114c1565b60405162461bcd60e51b815260206004820152603360248201527f4e6f2073757065726d616a6f7269747920726561636865643b2061646d696e206044820152721c995cdbdb1d5d1a5bdb881c995c5d5a5c9959606a1b60648201526084016102ed565b505050610f5c60018055565b6000546001600160a01b03163314610abf5760405162461bcd60e51b815260206004820181905260248201527f4f776e61626c653a2063616c6c6572206973206e6f7420746865206f776e657260448201526064016102ed565b600080546001600160a01b038381166001600160a01b0319831681178455604051919092169283917f8be0079c531659141344cd1fd0a4f28419497f9722a3daafe3b4186f6b6457e09190a35050565b6002600154036111dc5760405162461bcd60e51b815260206004820152601f60248201527f5265656e7472616e637947756172643a207265656e7472616e742063616c6c0060448201526064016102ed565b6002600155565b6000818152600260205260408120600881018054600160ff1991821681179092556003830180549091169091179055905b600b82015481101561135057600082600b018281548110611237576112376120e2565b60009182526020808320909101546001600160a01b031680835260098601909152604090912054909150801561133b576004805460405163a9059cbb60e01b81526001600160a01b03858116938201939093526024810184905291169063a9059cbb906044016020604051808303816000875af11580156112bc573d6000803e3d6000fd5b505050506040513d601f19601f820116820180604052508101906112e09190611e48565b61133b5760405162461bcd60e51b815260206004820152602660248201527f526566756e6420746f20747275652d73696465207061727469636970616e742060448201526519985a5b195960d21b60648201526084016102ed565b5050808061134890612049565b915050611214565b5060005b600c82015481101561149157600082600c018281548110611377576113776120e2565b60009182526020808320909101546001600160a01b0316808352600a8601909152604090912054909150801561147c576004805460405163a9059cbb60e01b81526001600160a01b03858116938201939093526024810184905291169063a9059cbb906044016020604051808303816000875af11580156113fc573d6000803e3d6000fd5b505050506040513d601f19601f820116820180604052508101906114209190611e48565b61147c5760405162461bcd60e51b815260206004820152602760248201527f526566756e6420746f2066616c73652d73696465207061727469636970616e746044820152660819985a5b195960ca1b60648201526084016102ed565b5050808061148990612049565b915050611354565b5060405182907f7c60b52933fa6f2124886458b681ab0c0c4bb6dfed5a85af825b2e4991e1fccc90600090a25050565b6000828152600260205260408120600881018054600383018054600160ff19909116811790915561ffff199091166101008615150217179055600581015460048201549192916115119190611e92565b905060006064600554836115259190611e7b565b61152f91906120c0565b9050831561184c5760006064611546836050611e7b565b61155091906120c0565b9050600061155e82846120f8565b600486015490915060005b600b8701548110156116cc57600087600b01828154811061158c5761158c6120e2565b60009182526020808320909101546001600160a01b031680835260098b0190915260409091205490915080156116b7576000846115c98884611e7b565b6115d391906120c0565b905060006115e18284611e92565b6004805460405163a9059cbb60e01b81526001600160a01b038881169382019390935260248101849052929350169063a9059cbb906044016020604051808303816000875af1158015611638573d6000803e3d6000fd5b505050506040513d601f19601f8201168201806040525081019061165c9190611e48565b6116b45760405162461bcd60e51b815260206004820152602360248201527f5472616e7366657220746f20747275652d736964652077696e6e6572206661696044820152621b195960ea1b60648201526084016102ed565b50505b505080806116c490612049565b915050611569565b506005860154156118445760005b600c87015481101561184257600087600c0182815481106116fd576116fd6120e2565b60009182526020808320909101546001600160a01b0316808352600a8b01909152604090912054909150801561182d57600589015460009061173f8784611e7b565b61174991906120c0565b905060006117578284611e92565b6004805460405163a9059cbb60e01b81526001600160a01b038881169382019390935260248101849052929350169063a9059cbb906044016020604051808303816000875af11580156117ae573d6000803e3d6000fd5b505050506040513d601f19601f820116820180604052508101906117d29190611e48565b61182a5760405162461bcd60e51b815260206004820152602360248201527f5472616e7366657220746f2066616c73652d73696465206c6f736572206661696044820152621b195960ea1b60648201526084016102ed565b50505b5050808061183a90612049565b9150506116da565b505b505050611b5c565b6000606461185b836050611e7b565b61186591906120c0565b9050600061187382846120f8565b600586015490915060005b600c8701548110156119e157600087600c0182815481106118a1576118a16120e2565b60009182526020808320909101546001600160a01b0316808352600a8b0190915260409091205490915080156119cc576000846118de8884611e7b565b6118e891906120c0565b905060006118f68284611e92565b6004805460405163a9059cbb60e01b81526001600160a01b038881169382019390935260248101849052929350169063a9059cbb906044016020604051808303816000875af115801561194d573d6000803e3d6000fd5b505050506040513d601f19601f820116820180604052508101906119719190611e48565b6119c95760405162461bcd60e51b8152602060048201526024808201527f5472616e7366657220746f2066616c73652d736964652077696e6e65722066616044820152631a5b195960e21b60648201526084016102ed565b50505b505080806119d990612049565b91505061187e565b50600486015415611b585760005b600b870154811015611b5657600087600b018281548110611a1257611a126120e2565b60009182526020808320909101546001600160a01b031680835260098b019091526040909120549091508015611b41576004890154600090611a548784611e7b565b611a5e91906120c0565b90506000611a6c8284611e92565b6004805460405163a9059cbb60e01b81526001600160a01b038881169382019390935260248101849052929350169063a9059cbb906044016020604051808303816000875af1158015611ac3573d6000803e3d6000fd5b505050506040513d601f19601f82011682018060405250810190611ae79190611e48565b611b3e5760405162461bcd60e51b815260206004820152602260248201527f5472616e7366657220746f20747275652d73696465206c6f736572206661696c604482015261195960f21b60648201526084016102ed565b50505b50508080611b4e90612049565b9150506119ef565b505b5050505b6040805185151581526020810183905286917fe1b4cc7b572a56466df9203312ded49052ff26393efd614a3f8658c98ec0fc38910160405180910390a25050505050565b600060208284031215611bb257600080fd5b5035919050565b8015158114610f5c57600080fd5b600080600080600060808688031215611bdf57600080fd5b85359450602086013567ffffffffffffffff80821115611bfe57600080fd5b818801915088601f830112611c1257600080fd5b813581811115611c2157600080fd5b896020828501011115611c3357600080fd5b602083019650809550505050604086013591506060860135611c5481611bb9565b809150509295509295909350565b80356001600160a01b0381168114610a3157600080fd5b60008060408385031215611c8c57600080fd5b82359150611c9c60208401611c62565b90509250929050565b600080600060608486031215611cba57600080fd5b83359250602084013591506040840135611cd381611bb9565b809150509250925092565b6001600160a01b0389168152610100602080830182905289519183018290526000918291905b80831015611d23578b8301820151858401610120015291810191611d04565b6101209250600083828701015282601f19601f8301168601019350505050876040830152611d55606083018815159052565b8560808301528460a0830152611d6f60c083018515159052565b82151560e08301529998505050505050505050565b600080600060608486031215611d9957600080fd5b833592506020840135611dab81611bb9565b91506040840135611cd381611bb9565b60008060408385031215611dce57600080fd5b823591506020830135611de081611bb9565b809150509250929050565b600060208284031215611dfd57600080fd5b610ae382611c62565b60208082526022908201527f5374616b652069732062656c6f77206d696e696d756d20726571756972656d656040820152611b9d60f21b606082015260800190565b600060208284031215611e5a57600080fd5b8151610ae381611bb9565b634e487b7160e01b600052601160045260246000fd5b808202811582820484141761057857610578611e65565b8082018082111561057857610578611e65565b634e487b7160e01b600052604160045260246000fd5b600181811c90821680611ecf57607f821691505b602082108103611eef57634e487b7160e01b600052602260045260246000fd5b50919050565b601f821115610b5557600081815260208120601f850160051c81016020861015611f1c5750805b601f850160051c820191505b81811015611f3b57828155600101611f28565b505050505050565b67ffffffffffffffff831115611f5b57611f5b611ea5565b611f6f83611f698354611ebb565b83611ef5565b6000601f841160018114611fa35760008515611f8b5750838201355b600019600387901b1c1916600186901b178355611ffd565b600083815260209020601f19861690835b82811015611fd45786850135825560209485019460019092019101611fb4565b5086821015611ff15760001960f88860031b161c19848701351681555b505060018560011b0183555b5050505050565b60808152846080820152848660a0830137600060a0868301810191909152602082019490945291151560408301526060820152601f909201601f191690910101919050565b60006001820161205b5761205b611e65565b5060010190565b60006020828403121561207457600080fd5b5051919050565b60208082526025908201527f5265736f6c7574696f6e2068617320616c7265616479206265656e2066696e616040820152641b1a5e995960da1b606082015260800190565b6000826120dd57634e487b7160e01b600052601260045260246000fd5b500490565b634e487b7160e01b600052603260045260246000fd5b8181038181111561057857610578611e6556fea26469706673582212208e2e319df16e60c9e2bb235736d315fc532754b8537c1f2eb2624567e1f04cd164736f6c63430008130033a2646970667358221220caee48ceab24d2c285466881651c59ab6ec0564d27a63c5b7cf883265420a32a64736f6c63430008130033",
  "linkReferences": {},
  "deployedLinkReferences": {}
}