{
  "_format": "hh-sol-artifact-1",
  "contractName": "MockCELO",
  "sourceName": "packages/hardhat/contracts/MockCELO.sol",
  "abi": [
    {
      "inputs": [],
      "stateMutability": "nonpayable",
      "type": "constructor"
    },
    {
      "anonymous": false,
      "inputs": [
        {
          "indexed": true,
          "internalType": "address",
          "name": "owner",
          "type": "address"
        },
        {
          "indexed": true,
          "internalType": "address",
          "name": "spender",
          "type": "address"
        },
        {
          "indexed": false,
          "internalType": "uint256",
          "name": "value",
          "type": "uint256"
        }
      ],
      "name": "Approval",
      "type": "event"
    },
    {
      "anonymous": false,
      "inputs": [
        {
          "indexed": true,
          "internalType": "address",
          "name": "previousOwner",
          "type": "address"
        },
        {
          "indexed": true,
          "internalType": "address",
          "name": "newOwner",
          "type": "address"
        }
      ],
      "name": "OwnershipTransferred",
      "type": "event"
    },
    {
      "anonymous": false,
      "inputs": [
        {
          "indexed": true,
          "internalType": "address",
          "name": "from",
          "type": "address"
        },
        {
          "indexed": true,
          "internalType": "address",
          "name": "to",
          "type": "address"
        },
        {
          "indexed": false,
          "internalType": "uint256",
          "name": "value",
          "type": "uint256"
        }
      ],
      "name": "Transfer",
      "type": "event"
    },
    {
      "inputs": [
        {
          "internalType": "address",
          "name": "owner",
          "type": "address"
        },
        {
          "internalType": "address",
          "name": "spender",
          "type": "address"
        }
      ],
      "name": "allowance",
      "outputs": [
        {
          "internalType": "uint256",
          "name": "",
          "type": "uint256"
        }
      ],
      "stateMutability": "view",
      "type": "function"
    },
    {
      "inputs": [
        {
          "internalType": "address",
          "name": "spender",
          "type": "address"
        },
        {
          "internalType": "uint256",
          "name": "amount",
          "type": "uint256"
        }
      ],
      "name": "approve",
      "outputs": [
        {
          "internalType": "bool",
          "name": "",
          "type": "bool"
        }
      ],
      "stateMutability": "nonpayable",
      "type": "function"
    },
    {
      "inputs": [
        {
          "internalType": "address",
          "name": "account",
          "type": "address"
        }
      ],
      "name": "balanceOf",
      "outputs": [
        {
          "internalType": "uint256",
          "name": "",
          "type": "uint256"
        }
      ],
      "stateMutability": "view",
      "type": "function"
    },
    {
      "inputs": [
        {
          "internalType": "uint256",
          "name": "amount",
          "type": "uint256"
        }
      ],
      "name": "burn",
      "outputs": [],
      "stateMutability": "nonpayable",
      "type": "function"
    },
    {
      "inputs": [],
      "name": "decimals",
      "outputs": [
        {
          "internalType": "uint8",
          "name": "",
          "type": "uint8"
        }
      ],
      "stateMutability": "view",
      "type": "function"
    },
    {
      "inputs": [
        {
          "internalType": "address",
          "name": "spender",
          "type": "address"
        },
        {
          "internalType": "uint256",
          "name": "subtractedValue",
          "type": "uint256"
        }
      ],
      "name": "decreaseAllowance",
      "outputs": [
        {
          "internalType": "bool",
          "name": "",
          "type": "bool"
        }
      ],
      "stateMutability": "nonpayable",
      "type": "function"
    },
    {
      "inputs": [
        {
          "internalType": "address",
          "name": "spender",
          "type": "address"
        },
        {
          "internalType": "uint256",
          "name": "addedValue",
          "type": "uint256"
        }
      ],
      "name": "increaseAllowance",
      "outputs": [
        {
          "internalType": "bool",
          "name": "",
          "type": "bool"
        }
      ],
      "stateMutability": "nonpayable",
      "type": "function"
    },
    {
      "inputs": [
        {
          "internalType": "address",
          "name": "account",
          "type": "address"
        }
      ],
      "name": "isValidator",
      "outputs": [
        {
          "internalType": "bool",
          "name": "",
          "type": "bool"
        }
      ],
      "stateMutability": "view",
      "type": "function"
    },
    {
      "inputs": [
        {
          "internalType": "address",
          "name": "to",
          "type": "address"
        },
        {
          "internalType": "uint256",
          "name": "amount",
          "type": "uint256"
        }
      ],
      "name": "mint",
      "outputs": [],
      "stateMutability": "nonpayable",
      "type": "function"
    },
    {
      "inputs": [],
      "name": "name",
      "outputs": [
        {
          "internalType": "string",
          "name": "",
          "type": "string"
        }
      ],
      "stateMutability": "view",
      "type": "function"
    },
    {
      "inputs": [],
      "name": "owner",
      "outputs": [
        {
          "internalType": "address",
          "name": "",
          "type": "address"
        }
      ],
      "stateMutability": "view",
      "type": "function"
    },
    {
      "inputs": [
        {
          "internalType": "address",
          "name": "validator",
          "type": "address"
        }
      ],
      "name": "registerValidator",
      "outputs": [],
      "stateMutability": "nonpayable",
      "type": "function"
    },
    {
      "inputs": [
        {
          "internalType": "address",
          "name": "validator",
          "type": "address"
        }
      ],
      "name": "removeValidator",
      "outputs": [],
      "stateMutability": "nonpayable",
      "type": "function"
    },
    {
      "inputs": [],
      "name": "renounceOwnership",
      "outputs": [],
      "stateMutability": "nonpayable",
      "type": "function"
    },
    {
      "inputs": [
        {
          "internalType": "uint256",
          "name": "amount",
          "type": "uint256"
        }
      ],
      "name": "simulateStaking",
      "outputs": [],
      "stateMutability": "nonpayable",
      "type": "function"
    },
    {
      "inputs": [
        {
          "internalType": "uint256",
          "name": "amount",
          "type": "uint256"
        }
      ],
      "name": "simulateUnstaking",
      "outputs": [],
      "stateMutability": "nonpayable",
      "type": "function"
    },
    {
      "inputs": [],
      "name": "symbol",
      "outputs": [
        {
          "internalType": "string",
          "name": "",
          "type": "string"
        }
      ],
      "stateMutability": "view",
      "type": "function"
    },
    {
      "inputs": [],
      "name": "totalSupply",
      "outputs": [
        {
          "internalType": "uint256",
          "name": "",
          "type": "uint256"
        }
      ],
      "stateMutability": "view",
      "type": "function"
    },
    {
      "inputs": [
        {
          "internalType": "address",
          "name": "to",
          "type": "address"
        },
        {
          "internalType": "uint256",
          "name": "amount",
          "type": "uint256"
        }
      ],
      "name": "transfer",
      "outputs": [
        {
          "internalType": "bool",
          "name": "",
          "type": "bool"
        }
      ],
      "stateMutability": "nonpayable",
      "type": "function"
    },
    {
      "inputs": [
        {
          "internalType": "address",
          "name": "from",
          "type": "address"
        },
        {
          "internalType": "address",
          "name": "to",
          "type": "address"
        },
        {
          "internalType": "uint256",
          "name": "amount",
          "type": "uint256"
        }
      ],
      "name": "transferFrom",
      "outputs": [
        {
          "internalType": "bool",
          "name": "",
          "type": "bool"
        }
      ],
      "stateMutability": "nonpayable",
      "type": "function"
    },
    {
      "inputs": [
        {
          "internalType": "address",
          "name": "newOwner",
          "type": "address"
        }
      ],
      "name": "transferOwnership",
      "outputs": [],
      "stateMutability": "nonpayable",
      "type": "function"
    },
    {
      "inputs": [
        {
          "internalType": "address",
          "name": "",
          "type": "address"
        }
      ],
      "name": "validators",
      "outputs": [
        {
          "internalType": "bool",
          "name": "",
          "type": "bool"
        }
      ],
      "stateMutability": "view",
      "type": "function"
    }
  ],
  "bytecode": "0x60806040523480156200001157600080fd5b506040518060400160405280601181526020017010d95b1bc813985d1a5d9948105cdcd95d607a1b8152506040518060400160405280600481526020016343454c4f60e01b81525081600390816200006a919062000289565b50600462000079828262000289565b5050506200009662000090620000c460201b60201c565b620000c8565b620000be33620000a96012600a6200046a565b620000b890620f424062000482565b6200011a565b620004b2565b3390565b600580546001600160a01b038381166001600160a01b0319831681179093556040519116919082907f8be0079c531659141344cd1fd0a4f28419497f9722a3daafe3b4186f6b6457e090600090a35050565b6001600160a01b038216620001755760405162461bcd60e51b815260206004820152601f60248201527f45524332303a206d696e7420746f20746865207a65726f206164647265737300604482015260640160405180910390fd5b80600260008282546200018991906200049c565b90915550506001600160a01b038216600081815260208181526040808320805486019055518481527fddf252ad1be2c89b69c2b068fc378daa952ba7f163c4a11628f55a4df523b3ef910160405180910390a35050565b505050565b634e487b7160e01b600052604160045260246000fd5b600181811c908216806200021057607f821691505b6020821081036200023157634e487b7160e01b600052602260045260246000fd5b50919050565b601f821115620001e057600081815260208120601f850160051c81016020861015620002605750805b601f850160051c820191505b8181101562000281578281556001016200026c565b505050505050565b81516001600160401b03811115620002a557620002a5620001e5565b620002bd81620002b68454620001fb565b8462000237565b602080601f831160018114620002f55760008415620002dc5750858301515b600019600386901b1c1916600185901b17855562000281565b600085815260208120601f198616915b82811015620003265788860151825594840194600190910190840162000305565b5085821015620003455787850151600019600388901b60f8161c191681555b5050505050600190811b01905550565b634e487b7160e01b600052601160045260246000fd5b600181815b80851115620003ac57816000190482111562000390576200039062000355565b808516156200039e57918102915b93841c939080029062000370565b509250929050565b600082620003c55750600162000464565b81620003d45750600062000464565b8160018114620003ed5760028114620003f85762000418565b600191505062000464565b60ff8411156200040c576200040c62000355565b50506001821b62000464565b5060208310610133831016604e8410600b84101617156200043d575081810a62000464565b6200044983836200036b565b806000190482111562000460576200046062000355565b0290505b92915050565b60006200047b60ff841683620003b4565b9392505050565b808202811582820484141762000464576200046462000355565b8082018082111562000464576200046462000355565b610e3f80620004c26000396000f3fe608060405234801561001057600080fd5b50600436106101425760003560e01c806371860d85116100b8578063a5cfb04e1161007c578063a5cfb04e14610297578063a9059cbb146102aa578063dd62ed3e146102bd578063f2fde38b146102d0578063fa52c7d8146102e3578063facd743b1461030657600080fd5b806371860d851461023b5780638da5cb5b1461024e57806395d89b41146102695780639fca516914610271578063a457c2d71461028457600080fd5b8063395093511161010a57806339509351146101bc57806340a141ff146101cf57806340c10f19146101e457806342966c68146101f757806370a082311461020a578063715018a61461023357600080fd5b806306fdde0314610147578063095ea7b31461016557806318160ddd1461018857806323b872dd1461019a578063313ce567146101ad575b600080fd5b61014f610332565b60405161015c9190610c50565b60405180910390f35b610178610173366004610cba565b6103c4565b604051901515815260200161015c565b6002545b60405190815260200161015c565b6101786101a8366004610ce4565b6103de565b6040516012815260200161015c565b6101786101ca366004610cba565b610402565b6101e26101dd366004610d20565b610424565b005b6101e26101f2366004610cba565b61044d565b6101e2610205366004610d42565b610463565b61018c610218366004610d20565b6001600160a01b031660009081526020819052604090205490565b6101e2610470565b6101e2610249366004610d42565b610484565b6005546040516001600160a01b03909116815260200161015c565b61014f610517565b6101e261027f366004610d20565b610526565b610178610292366004610cba565b610552565b6101e26102a5366004610d42565b6105cd565b6101786102b8366004610cba565b6105ff565b61018c6102cb366004610d5b565b61060d565b6101e26102de366004610d20565b610638565b6101786102f1366004610d20565b60066020526000908152604090205460ff1681565b610178610314366004610d20565b6001600160a01b031660009081526006602052604090205460ff1690565b60606003805461034190610d8e565b80601f016020809104026020016040519081016040528092919081815260200182805461036d90610d8e565b80156103ba5780601f1061038f576101008083540402835291602001916103ba565b820191906000526020600020905b81548152906001019060200180831161039d57829003601f168201915b5050505050905090565b6000336103d28185856106ae565b60019150505b92915050565b6000336103ec8582856107d3565b6103f785858561084d565b506001949350505050565b6000336103d2818585610415838361060d565b61041f9190610dc8565b6106ae565b61042c6109df565b6001600160a01b03166000908152600660205260409020805460ff19169055565b6104556109df565b61045f8282610a39565b5050565b61046d3382610ae6565b50565b6104786109df565b6104826000610bfe565b565b336000908152602081905260409020548111156104e85760405162461bcd60e51b815260206004820181905260248201527f496e73756666696369656e742062616c616e636520666f72207374616b696e6760448201526064015b60405180910390fd5b60405181815230903390600080516020610dea8339815191529060200160405180910390a361046d3382610ae6565b60606004805461034190610d8e565b61052e6109df565b6001600160a01b03166000908152600660205260409020805460ff19166001179055565b60003381610560828661060d565b9050838110156105c05760405162461bcd60e51b815260206004820152602560248201527f45524332303a2064656372656173656420616c6c6f77616e63652062656c6f77604482015264207a65726f60d81b60648201526084016104df565b6103f782868684036106ae565b6105d73382610a39565b60405181815233903090600080516020610dea8339815191529060200160405180910390a350565b6000336103d281858561084d565b6001600160a01b03918216600090815260016020908152604080832093909416825291909152205490565b6106406109df565b6001600160a01b0381166106a55760405162461bcd60e51b815260206004820152602660248201527f4f776e61626c653a206e6577206f776e657220697320746865207a65726f206160448201526564647265737360d01b60648201526084016104df565b61046d81610bfe565b6001600160a01b0383166107105760405162461bcd60e51b8152602060048201526024808201527f45524332303a20617070726f76652066726f6d20746865207a65726f206164646044820152637265737360e01b60648201526084016104df565b6001600160a01b0382166107715760405162461bcd60e51b815260206004820152602260248201527f45524332303a20617070726f766520746f20746865207a65726f206164647265604482015261737360f01b60648201526084016104df565b6001600160a01b0383811660008181526001602090815260408083209487168084529482529182902085905590518481527f8c5be1e5ebec7d5bd14f71427d1e84f3dd0314c0f7b2291e5b200ac8c7c3b92591015b60405180910390a3505050565b60006107df848461060d565b90506000198114610847578181101561083a5760405162461bcd60e51b815260206004820152601d60248201527f45524332303a20696e73756666696369656e7420616c6c6f77616e636500000060448201526064016104df565b61084784848484036106ae565b50505050565b6001600160a01b0383166108b15760405162461bcd60e51b815260206004820152602560248201527f45524332303a207472616e736665722066726f6d20746865207a65726f206164604482015264647265737360d81b60648201526084016104df565b6001600160a01b0382166109135760405162461bcd60e51b815260206004820152602360248201527f45524332303a207472616e7366657220746f20746865207a65726f206164647260448201526265737360e81b60648201526084016104df565b6001600160a01b0383166000908152602081905260409020548181101561098b5760405162461bcd60e51b815260206004820152602660248201527f45524332303a207472616e7366657220616d6f756e7420657863656564732062604482015265616c616e636560d01b60648201526084016104df565b6001600160a01b0384811660008181526020818152604080832087870390559387168083529184902080548701905592518581529092600080516020610dea833981519152910160405180910390a3610847565b6005546001600160a01b031633146104825760405162461bcd60e51b815260206004820181905260248201527f4f776e61626c653a2063616c6c6572206973206e6f7420746865206f776e657260448201526064016104df565b6001600160a01b038216610a8f5760405162461bcd60e51b815260206004820152601f60248201527f45524332303a206d696e7420746f20746865207a65726f20616464726573730060448201526064016104df565b8060026000828254610aa19190610dc8565b90915550506001600160a01b03821660008181526020818152604080832080548601905551848152600080516020610dea833981519152910160405180910390a35050565b6001600160a01b038216610b465760405162461bcd60e51b815260206004820152602160248201527f45524332303a206275726e2066726f6d20746865207a65726f206164647265736044820152607360f81b60648201526084016104df565b6001600160a01b03821660009081526020819052604090205481811015610bba5760405162461bcd60e51b815260206004820152602260248201527f45524332303a206275726e20616d6f756e7420657863656564732062616c616e604482015261636560f01b60648201526084016104df565b6001600160a01b038316600081815260208181526040808320868603905560028054879003905551858152919291600080516020610dea83398151915291016107c6565b600580546001600160a01b038381166001600160a01b0319831681179093556040519116919082907f8be0079c531659141344cd1fd0a4f28419497f9722a3daafe3b4186f6b6457e090600090a35050565b600060208083528351808285015260005b81811015610c7d57858101830151858201604001528201610c61565b506000604082860101526040601f19601f8301168501019250505092915050565b80356001600160a01b0381168114610cb557600080fd5b919050565b60008060408385031215610ccd57600080fd5b610cd683610c9e565b946020939093013593505050565b600080600060608486031215610cf957600080fd5b610d0284610c9e565b9250610d1060208501610c9e565b9150604084013590509250925092565b600060208284031215610d3257600080fd5b610d3b82610c9e565b9392505050565b600060208284031215610d5457600080fd5b5035919050565b60008060408385031215610d6e57600080fd5b610d7783610c9e565b9150610d8560208401610c9e565b90509250929050565b600181811c90821680610da257607f821691505b602082108103610dc257634e487b7160e01b600052602260045260246000fd5b50919050565b808201808211156103d857634e487b7160e01b600052601160045260246000fdfeddf252ad1be2c89b69c2b068fc378daa952ba7f163c4a11628f55a4df523b3efa26469706673582212201d9ecb3c9a77b735c76c821ee05963ecb5e010139a3c0ec22a6d1966ab810cf464736f6c63430008130033",
  "linkReferences": {},
  "deployedLinkReferences": {}
}