{
  "_format": "hh-sol-artifact-1",
  "contractName": "NoLossBetMulti",
  "sourceName": "packages/hardhat/contracts/NoLossBetMulti.sol",
  "abi": [
    {
      "inputs": [
        {
          "internalType": "address",
          "name": "_token",
          "type": "address"
        }
      ],
      "stateMutability": "nonpayable",
      "type": "constructor"
    },
    {
      "anonymous": false,
      "inputs": [
        {
          "indexed": true,
          "internalType": "uint256",
          "name": "betId",
          "type": "uint256"
        },
        {
          "indexed": true,
          "internalType": "address",
          "name": "creator",
          "type": "address"
        },
        {
          "indexed": false,
          "internalType": "string",
          "name": "condition",
          "type": "string"
        },
        {
          "indexed": false,
          "internalType": "uint256",
          "name": "expiration",
          "type": "uint256"
        },
        {
          "indexed": false,
          "internalType": "bool",
          "name": "creatorPrediction",
          "type": "bool"
        },
        {
          "indexed": false,
          "internalType": "uint256",
          "name": "creatorStake",
          "type": "uint256"
        }
      ],
      "name": "BetCreated",
      "type": "event"
    },
    {
      "anonymous": false,
      "inputs": [
        {
          "indexed": true,
          "internalType": "uint256",
          "name": "betId",
          "type": "uint256"
        },
        {
          "indexed": true,
          "internalType": "address",
          "name": "participant",
          "type": "address"
        },
        {
          "indexed": false,
          "internalType": "bool",
          "name": "prediction",
          "type": "bool"
        },
        {
          "indexed": false,
          "internalType": "uint256",
          "name": "stake",
          "type": "uint256"
        }
      ],
      "name": "BetJoined",
      "type": "event"
    },
    {
      "anonymous": false,
      "inputs": [
        {
          "indexed": true,
          "internalType": "uint256",
          "name": "betId",
          "type": "uint256"
        }
      ],
      "name": "BetResolutionCancelled",
      "type": "event"
    },
    {
      "anonymous": false,
      "inputs": [
        {
          "indexed": true,
          "internalType": "uint256",
          "name": "betId",
          "type": "uint256"
        },
        {
          "indexed": false,
          "internalType": "bool",
          "name": "winningOutcome",
          "type": "bool"
        },
        {
          "indexed": false,
          "internalType": "uint256",
          "name": "simulatedYield",
          "type": "uint256"
        }
      ],
      "name": "BetResolved",
      "type": "event"
    },
    {
      "anonymous": false,
      "inputs": [
        {
          "indexed": true,
          "internalType": "address",
          "name": "previousOwner",
          "type": "address"
        },
        {
          "indexed": true,
          "internalType": "address",
          "name": "newOwner",
          "type": "address"
        }
      ],
      "name": "OwnershipTransferred",
      "type": "event"
    },
    {
      "anonymous": false,
      "inputs": [
        {
          "indexed": true,
          "internalType": "uint256",
          "name": "betId",
          "type": "uint256"
        },
        {
          "indexed": true,
          "internalType": "address",
          "name": "participant",
          "type": "address"
        },
        {
          "indexed": false,
          "internalType": "bool",
          "name": "outcome",
          "type": "bool"
        },
        {
          "indexed": false,
          "internalType": "uint256",
          "name": "voteWeight",
          "type": "uint256"
        }
      ],
      "name": "ResolutionVoteSubmitted",
      "type": "event"
    },
    {
      "inputs": [],
      "name": "DEFAULT_BET_DURATION",
      "outputs": [
        {
          "internalType": "uint256",
          "name": "",
          "type": "uint256"
        }
      ],
      "stateMutability": "view",
      "type": "function"
    },
    {
      "inputs": [],
      "name": "MIN_STAKE",
      "outputs": [
        {
          "internalType": "uint256",
          "name": "",
          "type": "uint256"
        }
      ],
      "stateMutability": "view",
      "type": "function"
    },
    {
      "inputs": [],
      "name": "RESOLUTION_PERIOD",
      "outputs": [
        {
          "internalType": "uint256",
          "name": "",
          "type": "uint256"
        }
      ],
      "stateMutability": "view",
      "type": "function"
    },
    {
      "inputs": [
        {
          "internalType": "uint256",
          "name": "_betId",
          "type": "uint256"
        },
        {
          "internalType": "bool",
          "name": "_winningOutcome",
          "type": "bool"
        },
        {
          "internalType": "bool",
          "name": "_cancel",
          "type": "bool"
        }
      ],
      "name": "adminFinalizeResolution",
      "outputs": [],
      "stateMutability": "nonpayable",
      "type": "function"
    },
    {
      "inputs": [],
      "name": "betCounter",
      "outputs": [
        {
          "internalType": "uint256",
          "name": "",
          "type": "uint256"
        }
      ],
      "stateMutability": "view",
      "type": "function"
    },
    {
      "inputs": [
        {
          "internalType": "uint256",
          "name": "_stake",
          "type": "uint256"
        },
        {
          "internalType": "string",
          "name": "_condition",
          "type": "string"
        },
        {
          "internalType": "uint256",
          "name": "_durationDays",
          "type": "uint256"
        },
        {
          "internalType": "bool",
          "name": "_creatorPrediction",
          "type": "bool"
        }
      ],
      "name": "createBet",
      "outputs": [],
      "stateMutability": "nonpayable",
      "type": "function"
    },
    {
      "inputs": [
        {
          "internalType": "uint256",
          "name": "_betId",
          "type": "uint256"
        }
      ],
      "name": "finalizeResolution",
      "outputs": [],
      "stateMutability": "nonpayable",
      "type": "function"
    },
    {
      "inputs": [
        {
          "internalType": "uint256",
          "name": "_betId",
          "type": "uint256"
        }
      ],
      "name": "getBetDetails",
      "outputs": [
        {
          "internalType": "address",
          "name": "creator",
          "type": "address"
        },
        {
          "internalType": "string",
          "name": "condition",
          "type": "string"
        },
        {
          "internalType": "uint256",
          "name": "expiration",
          "type": "uint256"
        },
        {
          "internalType": "bool",
          "name": "resolved",
          "type": "bool"
        },
        {
          "internalType": "uint256",
          "name": "totalStakeTrue",
          "type": "uint256"
        },
        {
          "internalType": "uint256",
          "name": "totalStakeFalse",
          "type": "uint256"
        },
        {
          "internalType": "bool",
          "name": "resolutionFinalized",
          "type": "bool"
        },
        {
          "internalType": "bool",
          "name": "winningOutcome",
          "type": "bool"
        }
      ],
      "stateMutability": "view",
      "type": "function"
    },
    {
      "inputs": [
        {
          "internalType": "uint256",
          "name": "_betId",
          "type": "uint256"
        },
        {
          "internalType": "address",
          "name": "_participant",
          "type": "address"
        }
      ],
      "name": "getParticipantStake",
      "outputs": [
        {
          "internalType": "uint256",
          "name": "",
          "type": "uint256"
        }
      ],
      "stateMutability": "view",
      "type": "function"
    },
    {
      "inputs": [
        {
          "internalType": "uint256",
          "name": "_betId",
          "type": "uint256"
        },
        {
          "internalType": "uint256",
          "name": "_stake",
          "type": "uint256"
        },
        {
          "internalType": "bool",
          "name": "_prediction",
          "type": "bool"
        }
      ],
      "name": "joinBet",
      "outputs": [],
      "stateMutability": "nonpayable",
      "type": "function"
    },
    {
      "inputs": [],
      "name": "owner",
      "outputs": [
        {
          "internalType": "address",
          "name": "",
          "type": "address"
        }
      ],
      "stateMutability": "view",
      "type": "function"
    },
    {
      "inputs": [],
      "name": "renounceOwnership",
      "outputs": [],
      "stateMutability": "nonpayable",
      "type": "function"
    },
    {
      "inputs": [
        {
          "internalType": "uint256",
          "name": "_yieldRate",
          "type": "uint256"
        }
      ],
      "name": "setYieldRate",
      "outputs": [],
      "stateMutability": "nonpayable",
      "type": "function"
    },
    {
      "inputs": [
        {
          "internalType": "uint256",
          "name": "_betId",
          "type": "uint256"
        },
        {
          "internalType": "bool",
          "name": "_outcome",
          "type": "bool"
        }
      ],
      "name": "submitResolutionOutcome",
      "outputs": [],
      "stateMutability": "nonpayable",
      "type": "function"
    },
    {
      "inputs": [],
      "name": "token",
      "outputs": [
        {
          "internalType": "contract IERC20",
          "name": "",
          "type": "address"
        }
      ],
      "stateMutability": "view",
      "type": "function"
    },
    {
      "inputs": [
        {
          "internalType": "address",
          "name": "newOwner",
          "type": "address"
        }
      ],
      "name": "transferOwnership",
      "outputs": [],
      "stateMutability": "nonpayable",
      "type": "function"
    },
    {
      "inputs": [],
      "name": "yieldRate",
      "outputs": [
        {
          "internalType": "uint256",
          "name": "",
          "type": "uint256"
        }
      ],
      "stateMutability": "view",
      "type": "function"
    }
  ],
  "bytecode": "0x6080604052600580553480156200001557600080fd5b50604051620020a6380380620020a68339810160408190526200003891620000bd565b62000043336200006d565b60018055600480546001600160a01b0319166001600160a01b0392909216919091179055620000ef565b600080546001600160a01b038381166001600160a01b0319831681178455604051919092169283917f8be0079c531659141344cd1fd0a4f28419497f9722a3daafe3b4186f6b6457e09190a35050565b600060208284031215620000d057600080fd5b81516001600160a01b0381168114620000e857600080fd5b9392505050565b611fa780620000ff6000396000f3fe608060405234801561001057600080fd5b506004361061010b5760003560e01c8063715018a6116100a2578063c1f0906111610071578063c1f09061146101fe578063cb1c2b5c14610211578063f2fde38b14610220578063f5489b7e14610233578063fc0c546a1461024657600080fd5b8063715018a6146101b55780638da5cb5b146101bd578063a416f5ab146101e2578063b893ca1a146101eb57600080fd5b806331bfe3a9116100de57806331bfe3a9146101685780633df2967e1461017b57806350f90594146101a25780636999ac93146101ac57600080fd5b80631411dab01461011057806316ae482814610125578063196b256714610142578063221b14d914610155575b600080fd5b61012361011e366004611a13565b610259565b005b61012f62093a8081565b6040519081526020015b60405180910390f35b610123610150366004611a3a565b610266565b61012f610163366004611af1565b6104d8565b610123610176366004611b1d565b61051f565b61018e610189366004611a13565b61083b565b604051610139989796959493929190611b56565b61012f6201518081565b61012f60055481565b610123610949565b6000546001600160a01b03165b6040516001600160a01b039091168152602001610139565b61012f60035481565b6101236101f9366004611bfc565b61095d565b61012361020c366004611c33565b6109cd565b61012f678ac7230489e8000081565b61012361022e366004611c63565b610d59565b610123610241366004611a13565b610dd2565b6004546101ca906001600160a01b031681565b610261610f53565b600555565b678ac7230489e800008510156102975760405162461bcd60e51b815260040161028e90611c85565b60405180910390fd5b600480546040516323b872dd60e01b81523392810192909252306024830152604482018790526001600160a01b0316906323b872dd906064016020604051808303816000875af11580156102ef573d6000803e3d6000fd5b505050506040513d601f19601f820116820180604052508101906103139190611cc7565b61035f5760405162461bcd60e51b815260206004820152601f60248201527f546f6b656e207472616e7366657220666f72207374616b65206661696c656400604482015260640161028e565b60008083116103715762093a8061037e565b61037e8362015180611cfa565b9050600061038c8242611d11565b600354600090815260026020526040902080546001600160a01b03191633178155909150600181016103bf878983611dc2565b506002810182905560038101805460ff199081169091556008820180549091169055831561042c5760048101889055336000818152600983016020908152604082208b9055600b8401805460018101825590835291200180546001600160a01b031916909117905561046d565b60058101889055336000818152600a83016020908152604082208b9055600c8401805460018101825590835291200180546001600160a01b03191690911790555b336001600160a01b03166003547fd4182c8a59ad80591d8a72ae9e840efb3036b6740a6a5a074995ccfdefa37039898986898e6040516104b1959493929190611e83565b60405180910390a3600380549060006104c983611ec8565b91905055505050505050505050565b60008281526002602090815260408083206001600160a01b0385168452600a81018352818420546009820190935290832054909161051591611d11565b9150505b92915050565b678ac7230489e800008210156105475760405162461bcd60e51b815260040161028e90611c85565b60008381526002602081905260409091209081015442106105aa5760405162461bcd60e51b815260206004820152601760248201527f4265742068617320616c72656164792065787069726564000000000000000000604482015260640161028e565b600381015460ff16156105ff5760405162461bcd60e51b815260206004820152601760248201527f42657420697320616c7265616479207265736f6c766564000000000000000000604482015260640161028e565b33600090815260098201602052604090205415801561062d5750336000908152600a82016020526040902054155b6106795760405162461bcd60e51b815260206004820152601a60248201527f5061727469636970616e7420616c7265616479206a6f696e6564000000000000604482015260640161028e565b600480546040516323b872dd60e01b81523392810192909252306024830152604482018590526001600160a01b0316906323b872dd906064016020604051808303816000875af11580156106d1573d6000803e3d6000fd5b505050506040513d601f19601f820116820180604052508101906106f59190611cc7565b6107415760405162461bcd60e51b815260206004820152601f60248201527f546f6b656e207472616e7366657220666f72207374616b65206661696c656400604482015260640161028e565b81156107a15733600081815260098301602090815260408220869055600b840180546001810182559083529082200180546001600160a01b031916909217909155600482018054859290610796908490611d11565b909155506107f69050565b336000818152600a8301602090815260408220869055600c840180546001810182559083529082200180546001600160a01b0319169092179091556005820180548592906107f0908490611d11565b90915550505b60408051831515815260208101859052339186917fbdea915dee87ac0c987ce0be8ee477a6fa7f1491bbe7f11cb0b18fb28a20f77a910160405180910390a350505050565b6000818152600260208190526040822080549181015460038201546004830154600584015460088501546001860180546060988a988998899889988998899894976001600160a01b0390961696939460ff9384169492939192818316926101009092049091169087906108ad90611d3a565b80601f01602080910402602001604051908101604052809291908181526020018280546108d990611d3a565b80156109265780601f106108fb57610100808354040283529160200191610926565b820191906000526020600020905b81548152906001019060200180831161090957829003601f168201915b505050505096509850985098509850985098509850985050919395975091939597565b610951610f53565b61095b6000610fad565b565b610965610f53565b61096d610ffd565b6000838152600260205260409020600881015460ff16156109a05760405162461bcd60e51b815260040161028e90611ee1565b81156109b4576109af84611056565b6109be565b6109be8484611334565b506109c860018055565b505050565b600082815260026020819052604090912090810154421015610a2a5760405162461bcd60e51b815260206004820152601660248201527510995d081a5cc81b9bdd08195e1c1a5c9959081e595d60521b604482015260640161028e565b620151808160020154610a3d9190611d11565b4210610a8b5760405162461bcd60e51b815260206004820152601960248201527f5265736f6c7574696f6e20706572696f64206973206f76657200000000000000604482015260640161028e565b600881015460ff1615610ab05760405162461bcd60e51b815260040161028e90611ee1565b6000610abc84336104d8565b11610b095760405162461bcd60e51b815260206004820152601b60248201527f53656e646572206973206e6f742061207061727469636970616e740000000000604482015260640161028e565b336000908152600d8201602052604090205460ff1615610b6b5760405162461bcd60e51b815260206004820152601960248201527f5061727469636970616e7420616c726561647920766f74656400000000000000604482015260640161028e565b33600090815260098201602052604090205415610c6057600182151514610bf05760405162461bcd60e51b815260206004820152603360248201527f4d75737420766f746520277472756527206265636175736520796f75206a6f696044820152726e65642074686520277472756527207369646560681b606482015260840161028e565b33600090815260098201602052604081205460068301805491928392610c17908490611d11565b9091555050604080516001815260208101839052339186917f01e12c6d241eb97f68e147b48bebefe30d0296d4d4c2f134704114c948df0cc8910160405180910390a350610d38565b8115610ccc5760405162461bcd60e51b815260206004820152603560248201527f4d75737420766f7465202766616c736527206265636175736520796f75206a6f604482015274696e656420746865202766616c736527207369646560581b606482015260840161028e565b336000908152600a8201602052604081205460078301805491928392610cf3908490611d11565b9091555050604080516000815260208101839052339186917f01e12c6d241eb97f68e147b48bebefe30d0296d4d4c2f134704114c948df0cc8910160405180910390a3505b336000908152600d90910160205260409020805460ff191660011790555050565b610d61610f53565b6001600160a01b038116610dc65760405162461bcd60e51b815260206004820152602660248201527f4f776e61626c653a206e6577206f776e657220697320746865207a65726f206160448201526564647265737360d01b606482015260840161028e565b610dcf81610fad565b50565b610dda610ffd565b600081815260026020819052604090912090810154610dfd906201518090611d11565b421015610e5a5760405162461bcd60e51b815260206004820152602560248201527f5265736f6c7574696f6e20706572696f64206973206e6f742066696e6973686560448201526419081e595d60da1b606482015260840161028e565b600881015460ff1615610e7f5760405162461bcd60e51b815260040161028e90611ee1565b600081600501548260040154610e959190611d11565b905060006064610ea6836050611cfa565b610eb09190611f26565b905080836006015410610ecd57610ec8846001611334565b610f47565b80836007015410610ee357610ec8846000611334565b60405162461bcd60e51b815260206004820152603360248201527f4e6f2073757065726d616a6f7269747920726561636865643b2061646d696e206044820152721c995cdbdb1d5d1a5bdb881c995c5d5a5c9959606a1b606482015260840161028e565b505050610dcf60018055565b6000546001600160a01b0316331461095b5760405162461bcd60e51b815260206004820181905260248201527f4f776e61626c653a2063616c6c6572206973206e6f7420746865206f776e6572604482015260640161028e565b600080546001600160a01b038381166001600160a01b0319831681178455604051919092169283917f8be0079c531659141344cd1fd0a4f28419497f9722a3daafe3b4186f6b6457e09190a35050565b60026001540361104f5760405162461bcd60e51b815260206004820152601f60248201527f5265656e7472616e637947756172643a207265656e7472616e742063616c6c00604482015260640161028e565b6002600155565b6000818152600260205260408120600881018054600160ff1991821681179092556003830180549091169091179055905b600b8201548110156111c357600082600b0182815481106110aa576110aa611f48565b60009182526020808320909101546001600160a01b03168083526009860190915260409091205490915080156111ae576004805460405163a9059cbb60e01b81526001600160a01b03858116938201939093526024810184905291169063a9059cbb906044016020604051808303816000875af115801561112f573d6000803e3d6000fd5b505050506040513d601f19601f820116820180604052508101906111539190611cc7565b6111ae5760405162461bcd60e51b815260206004820152602660248201527f526566756e6420746f20747275652d73696465207061727469636970616e742060448201526519985a5b195960d21b606482015260840161028e565b505080806111bb90611ec8565b915050611087565b5060005b600c82015481101561130457600082600c0182815481106111ea576111ea611f48565b60009182526020808320909101546001600160a01b0316808352600a860190915260409091205490915080156112ef576004805460405163a9059cbb60e01b81526001600160a01b03858116938201939093526024810184905291169063a9059cbb906044016020604051808303816000875af115801561126f573d6000803e3d6000fd5b505050506040513d601f19601f820116820180604052508101906112939190611cc7565b6112ef5760405162461bcd60e51b815260206004820152602760248201527f526566756e6420746f2066616c73652d73696465207061727469636970616e746044820152660819985a5b195960ca1b606482015260840161028e565b505080806112fc90611ec8565b9150506111c7565b5060405182907f7c60b52933fa6f2124886458b681ab0c0c4bb6dfed5a85af825b2e4991e1fccc90600090a25050565b6000828152600260205260408120600881018054600383018054600160ff19909116811790915561ffff199091166101008615150217179055600581015460048201549192916113849190611d11565b905060006064600554836113989190611cfa565b6113a29190611f26565b905083156116bf57600060646113b9836050611cfa565b6113c39190611f26565b905060006113d18284611f5e565b600486015490915060005b600b87015481101561153f57600087600b0182815481106113ff576113ff611f48565b60009182526020808320909101546001600160a01b031680835260098b01909152604090912054909150801561152a5760008461143c8884611cfa565b6114469190611f26565b905060006114548284611d11565b6004805460405163a9059cbb60e01b81526001600160a01b038881169382019390935260248101849052929350169063a9059cbb906044016020604051808303816000875af11580156114ab573d6000803e3d6000fd5b505050506040513d601f19601f820116820180604052508101906114cf9190611cc7565b6115275760405162461bcd60e51b815260206004820152602360248201527f5472616e7366657220746f20747275652d736964652077696e6e6572206661696044820152621b195960ea1b606482015260840161028e565b50505b5050808061153790611ec8565b9150506113dc565b506005860154156116b75760005b600c8701548110156116b557600087600c01828154811061157057611570611f48565b60009182526020808320909101546001600160a01b0316808352600a8b0190915260409091205490915080156116a05760058901546000906115b28784611cfa565b6115bc9190611f26565b905060006115ca8284611d11565b6004805460405163a9059cbb60e01b81526001600160a01b038881169382019390935260248101849052929350169063a9059cbb906044016020604051808303816000875af1158015611621573d6000803e3d6000fd5b505050506040513d601f19601f820116820180604052508101906116459190611cc7565b61169d5760405162461bcd60e51b815260206004820152602360248201527f5472616e7366657220746f2066616c73652d73696465206c6f736572206661696044820152621b195960ea1b606482015260840161028e565b50505b505080806116ad90611ec8565b91505061154d565b505b5050506119cf565b600060646116ce836050611cfa565b6116d89190611f26565b905060006116e68284611f5e565b600586015490915060005b600c87015481101561185457600087600c01828154811061171457611714611f48565b60009182526020808320909101546001600160a01b0316808352600a8b01909152604090912054909150801561183f576000846117518884611cfa565b61175b9190611f26565b905060006117698284611d11565b6004805460405163a9059cbb60e01b81526001600160a01b038881169382019390935260248101849052929350169063a9059cbb906044016020604051808303816000875af11580156117c0573d6000803e3d6000fd5b505050506040513d601f19601f820116820180604052508101906117e49190611cc7565b61183c5760405162461bcd60e51b8152602060048201526024808201527f5472616e7366657220746f2066616c73652d736964652077696e6e65722066616044820152631a5b195960e21b606482015260840161028e565b50505b5050808061184c90611ec8565b9150506116f1565b506004860154156119cb5760005b600b8701548110156119c957600087600b01828154811061188557611885611f48565b60009182526020808320909101546001600160a01b031680835260098b0190915260409091205490915080156119b45760048901546000906118c78784611cfa565b6118d19190611f26565b905060006118df8284611d11565b6004805460405163a9059cbb60e01b81526001600160a01b038881169382019390935260248101849052929350169063a9059cbb906044016020604051808303816000875af1158015611936573d6000803e3d6000fd5b505050506040513d601f19601f8201168201806040525081019061195a9190611cc7565b6119b15760405162461bcd60e51b815260206004820152602260248201527f5472616e7366657220746f20747275652d73696465206c6f736572206661696c604482015261195960f21b606482015260840161028e565b50505b505080806119c190611ec8565b915050611862565b505b5050505b6040805185151581526020810183905286917fe1b4cc7b572a56466df9203312ded49052ff26393efd614a3f8658c98ec0fc38910160405180910390a25050505050565b600060208284031215611a2557600080fd5b5035919050565b8015158114610dcf57600080fd5b600080600080600060808688031215611a5257600080fd5b85359450602086013567ffffffffffffffff80821115611a7157600080fd5b818801915088601f830112611a8557600080fd5b813581811115611a9457600080fd5b896020828501011115611aa657600080fd5b602083019650809550505050604086013591506060860135611ac781611a2c565b809150509295509295909350565b80356001600160a01b0381168114611aec57600080fd5b919050565b60008060408385031215611b0457600080fd5b82359150611b1460208401611ad5565b90509250929050565b600080600060608486031215611b3257600080fd5b83359250602084013591506040840135611b4b81611a2c565b809150509250925092565b6001600160a01b0389168152610100602080830182905289519183018290526000918291905b80831015611b9b578b8301820151858401610120015291810191611b7c565b6101209250600083828701015282601f19601f8301168601019350505050876040830152611bcd606083018815159052565b8560808301528460a0830152611be760c083018515159052565b82151560e08301529998505050505050505050565b600080600060608486031215611c1157600080fd5b833592506020840135611c2381611a2c565b91506040840135611b4b81611a2c565b60008060408385031215611c4657600080fd5b823591506020830135611c5881611a2c565b809150509250929050565b600060208284031215611c7557600080fd5b611c7e82611ad5565b9392505050565b60208082526022908201527f5374616b652069732062656c6f77206d696e696d756d20726571756972656d656040820152611b9d60f21b606082015260800190565b600060208284031215611cd957600080fd5b8151611c7e81611a2c565b634e487b7160e01b600052601160045260246000fd5b808202811582820484141761051957610519611ce4565b8082018082111561051957610519611ce4565b634e487b7160e01b600052604160045260246000fd5b600181811c90821680611d4e57607f821691505b602082108103611d6e57634e487b7160e01b600052602260045260246000fd5b50919050565b601f8211156109c857600081815260208120601f850160051c81016020861015611d9b5750805b601f850160051c820191505b81811015611dba57828155600101611da7565b505050505050565b67ffffffffffffffff831115611dda57611dda611d24565b611dee83611de88354611d3a565b83611d74565b6000601f841160018114611e225760008515611e0a5750838201355b600019600387901b1c1916600186901b178355611e7c565b600083815260209020601f19861690835b82811015611e535786850135825560209485019460019092019101611e33565b5086821015611e705760001960f88860031b161c19848701351681555b505060018560011b0183555b5050505050565b60808152846080820152848660a0830137600060a0868301810191909152602082019490945291151560408301526060820152601f909201601f191690910101919050565b600060018201611eda57611eda611ce4565b5060010190565b60208082526025908201527f5265736f6c7574696f6e2068617320616c7265616479206265656e2066696e616040820152641b1a5e995960da1b606082015260800190565b600082611f4357634e487b7160e01b600052601260045260246000fd5b500490565b634e487b7160e01b600052603260045260246000fd5b8181038181111561051957610519611ce456fea26469706673582212202ff1913f50f847ebd27003be7791ad362d8179b8bad90cb735e91448024431b864736f6c63430008130033",
  "linkReferences": {},
  "deployedLinkReferences": {}
}