{
  "_format": "hh-sol-artifact-1",
  "contractName": "NoLossBet",
  "sourceName": "packages/hardhat/contracts/NoLossBet.sol",
  "abi": [
    {
      "inputs": [
        {
          "internalType": "address",
          "name": "_celoToken",
          "type": "address"
        }
      ],
      "stateMutability": "nonpayable",
      "type": "constructor"
    },
    {
      "anonymous": false,
      "inputs": [
        {
          "indexed": true,
          "internalType": "uint256",
          "name": "betId",
          "type": "uint256"
        },
        {
          "indexed": true,
          "internalType": "address",
          "name": "opponent",
          "type": "address"
        },
        {
          "indexed": false,
          "internalType": "bool",
          "name": "prediction",
          "type": "bool"
        },
        {
          "indexed": false,
          "internalType": "uint256",
          "name": "customStake",
          "type": "uint256"
        }
      ],
      "name": "BetAccepted",
      "type": "event"
    },
    {
      "anonymous": false,
      "inputs": [
        {
          "indexed": true,
          "internalType": "uint256",
          "name": "betId",
          "type": "uint256"
        }
      ],
      "name": "BetCancelled",
      "type": "event"
    },
    {
      "anonymous": false,
      "inputs": [
        {
          "indexed": true,
          "internalType": "uint256",
          "name": "betId",
          "type": "uint256"
        },
        {
          "indexed": true,
          "internalType": "address",
          "name": "creator",
          "type": "address"
        },
        {
          "indexed": false,
          "internalType": "uint256",
          "name": "creatorStake",
          "type": "uint256"
        },
        {
          "indexed": false,
          "internalType": "uint256",
          "name": "opponentStake",
          "type": "uint256"
        },
        {
          "indexed": false,
          "internalType": "string",
          "name": "condition",
          "type": "string"
        },
        {
          "indexed": false,
          "internalType": "uint256",
          "name": "expiration",
          "type": "uint256"
        }
      ],
      "name": "BetCreated",
      "type": "event"
    },
    {
      "anonymous": false,
      "inputs": [
        {
          "indexed": true,
          "internalType": "uint256",
          "name": "betId",
          "type": "uint256"
        },
        {
          "indexed": true,
          "internalType": "address",
          "name": "winner",
          "type": "address"
        },
        {
          "indexed": false,
          "internalType": "uint256",
          "name": "simulatedYield",
          "type": "uint256"
        }
      ],
      "name": "BetResolved",
      "type": "event"
    },
    {
      "anonymous": false,
      "inputs": [
        {
          "indexed": true,
          "internalType": "uint256",
          "name": "betId",
          "type": "uint256"
        },
        {
          "indexed": true,
          "internalType": "address",
          "name": "submitter",
          "type": "address"
        },
        {
          "indexed": false,
          "internalType": "bool",
          "name": "outcome",
          "type": "bool"
        }
      ],
      "name": "OutcomeSubmitted",
      "type": "event"
    },
    {
      "anonymous": false,
      "inputs": [
        {
          "indexed": true,
          "internalType": "address",
          "name": "previousOwner",
          "type": "address"
        },
        {
          "indexed": true,
          "internalType": "address",
          "name": "newOwner",
          "type": "address"
        }
      ],
      "name": "OwnershipTransferred",
      "type": "event"
    },
    {
      "inputs": [],
      "name": "DEFAULT_BET_DURATION",
      "outputs": [
        {
          "internalType": "uint256",
          "name": "",
          "type": "uint256"
        }
      ],
      "stateMutability": "view",
      "type": "function"
    },
    {
      "inputs": [],
      "name": "MIN_CREATOR_STAKE",
      "outputs": [
        {
          "internalType": "uint256",
          "name": "",
          "type": "uint256"
        }
      ],
      "stateMutability": "view",
      "type": "function"
    },
    {
      "inputs": [],
      "name": "MIN_OPPONENT_STAKE",
      "outputs": [
        {
          "internalType": "uint256",
          "name": "",
          "type": "uint256"
        }
      ],
      "stateMutability": "view",
      "type": "function"
    },
    {
      "inputs": [
        {
          "internalType": "uint256",
          "name": "_betId",
          "type": "uint256"
        },
        {
          "internalType": "bool",
          "name": "_prediction",
          "type": "bool"
        },
        {
          "internalType": "uint256",
          "name": "_customStake",
          "type": "uint256"
        }
      ],
      "name": "acceptBet",
      "outputs": [],
      "stateMutability": "nonpayable",
      "type": "function"
    },
    {
      "inputs": [],
      "name": "betCounter",
      "outputs": [
        {
          "internalType": "uint256",
          "name": "",
          "type": "uint256"
        }
      ],
      "stateMutability": "view",
      "type": "function"
    },
    {
      "inputs": [
        {
          "internalType": "uint256",
          "name": "",
          "type": "uint256"
        }
      ],
      "name": "bets",
      "outputs": [
        {
          "internalType": "address",
          "name": "creator",
          "type": "address"
        },
        {
          "internalType": "address",
          "name": "opponent",
          "type": "address"
        },
        {
          "internalType": "uint256",
          "name": "creatorStake",
          "type": "uint256"
        },
        {
          "internalType": "uint256",
          "name": "opponentStake",
          "type": "uint256"
        },
        {
          "internalType": "string",
          "name": "condition",
          "type": "string"
        },
        {
          "internalType": "bool",
          "name": "creatorOutcome",
          "type": "bool"
        },
        {
          "internalType": "bool",
          "name": "opponentOutcome",
          "type": "bool"
        },
        {
          "internalType": "bool",
          "name": "resolved",
          "type": "bool"
        },
        {
          "internalType": "uint256",
          "name": "expiration",
          "type": "uint256"
        }
      ],
      "stateMutability": "view",
      "type": "function"
    },
    {
      "inputs": [
        {
          "internalType": "uint256",
          "name": "_betId",
          "type": "uint256"
        }
      ],
      "name": "cancelBet",
      "outputs": [],
      "stateMutability": "nonpayable",
      "type": "function"
    },
    {
      "inputs": [],
      "name": "celoToken",
      "outputs": [
        {
          "internalType": "contract IERC20",
          "name": "",
          "type": "address"
        }
      ],
      "stateMutability": "view",
      "type": "function"
    },
    {
      "inputs": [
        {
          "internalType": "uint256",
          "name": "_creatorStake",
          "type": "uint256"
        },
        {
          "internalType": "uint256",
          "name": "_opponentStake",
          "type": "uint256"
        },
        {
          "internalType": "string",
          "name": "_condition",
          "type": "string"
        },
        {
          "internalType": "uint256",
          "name": "_durationDays",
          "type": "uint256"
        }
      ],
      "name": "createBet",
      "outputs": [],
      "stateMutability": "nonpayable",
      "type": "function"
    },
    {
      "inputs": [
        {
          "internalType": "uint256",
          "name": "_betId",
          "type": "uint256"
        }
      ],
      "name": "getBet",
      "outputs": [
        {
          "components": [
            {
              "internalType": "address",
              "name": "creator",
              "type": "address"
            },
            {
              "internalType": "address",
              "name": "opponent",
              "type": "address"
            },
            {
              "internalType": "uint256",
              "name": "creatorStake",
              "type": "uint256"
            },
            {
              "internalType": "uint256",
              "name": "opponentStake",
              "type": "uint256"
            },
            {
              "internalType": "string",
              "name": "condition",
              "type": "string"
            },
            {
              "internalType": "bool",
              "name": "creatorOutcome",
              "type": "bool"
            },
            {
              "internalType": "bool",
              "name": "opponentOutcome",
              "type": "bool"
            },
            {
              "internalType": "bool",
              "name": "resolved",
              "type": "bool"
            },
            {
              "internalType": "uint256",
              "name": "expiration",
              "type": "uint256"
            }
          ],
          "internalType": "struct NoLossBet.Bet",
          "name": "",
          "type": "tuple"
        }
      ],
      "stateMutability": "view",
      "type": "function"
    },
    {
      "inputs": [],
      "name": "getBetCount",
      "outputs": [
        {
          "internalType": "uint256",
          "name": "",
          "type": "uint256"
        }
      ],
      "stateMutability": "view",
      "type": "function"
    },
    {
      "inputs": [],
      "name": "owner",
      "outputs": [
        {
          "internalType": "address",
          "name": "",
          "type": "address"
        }
      ],
      "stateMutability": "view",
      "type": "function"
    },
    {
      "inputs": [
        {
          "internalType": "address",
          "name": "_token",
          "type": "address"
        },
        {
          "internalType": "uint256",
          "name": "_amount",
          "type": "uint256"
        }
      ],
      "name": "recoverTokens",
      "outputs": [],
      "stateMutability": "nonpayable",
      "type": "function"
    },
    {
      "inputs": [],
      "name": "renounceOwnership",
      "outputs": [],
      "stateMutability": "nonpayable",
      "type": "function"
    },
    {
      "inputs": [
        {
          "internalType": "uint256",
          "name": "_betId",
          "type": "uint256"
        }
      ],
      "name": "resolveBet",
      "outputs": [],
      "stateMutability": "nonpayable",
      "type": "function"
    },
    {
      "inputs": [
        {
          "internalType": "uint256",
          "name": "_betId",
          "type": "uint256"
        },
        {
          "internalType": "bool",
          "name": "_outcome",
          "type": "bool"
        }
      ],
      "name": "submitOutcome",
      "outputs": [],
      "stateMutability": "nonpayable",
      "type": "function"
    },
    {
      "inputs": [
        {
          "internalType": "address",
          "name": "newOwner",
          "type": "address"
        }
      ],
      "name": "transferOwnership",
      "outputs": [],
      "stateMutability": "nonpayable",
      "type": "function"
    }
  ],
  "bytecode": "0x60806040523480156200001157600080fd5b5060405162002041380380620020418339810160408190526200003491620000b9565b6200003f3362000069565b60018055600380546001600160a01b0319166001600160a01b0392909216919091179055620000eb565b600080546001600160a01b038381166001600160a01b0319831681178455604051919092169283917f8be0079c531659141344cd1fd0a4f28419497f9722a3daafe3b4186f6b6457e09190a35050565b600060208284031215620000cc57600080fd5b81516001600160a01b0381168114620000e457600080fd5b9392505050565b611f4680620000fb6000396000f3fe608060405234801561001057600080fd5b506004361061010b5760003560e01c806372bebffe116100a2578063ae0ea67511610071578063ae0ea6751461020c578063b93dab0b1461021f578063c93f002314610227578063e22d551a1461023a578063f2fde38b1461024d57600080fd5b806372bebffe146101cf578063788965e9146101cf5780638da5cb5b146101de578063a416f5ab1461020357600080fd5b8063357401f5116100de578063357401f51461018e57806341b80300146101a15780634c36c36e146101b4578063715018a6146101c757600080fd5b8063061e494f14610110578063069c9fae1461013957806316ae48281461014e57806322af00fa14610166575b600080fd5b61012361011e36600461193d565b610260565b604051610130919061199c565b60405180910390f35b61014c610147366004611a69565b6103ca565b005b61015862093a8081565b604051908152602001610130565b61017961017436600461193d565b610459565b60405161013099989796959493929190611a93565b61014c61019c36600461193d565b610543565b61014c6101af366004611b06565b610725565b61014c6101c236600461193d565b6108d7565b61014c6109f1565b610158678ac7230489e8000081565b6000546001600160a01b03165b6040516001600160a01b039091168152602001610130565b61015860045481565b61014c61021a366004611b36565b610a05565b600454610158565b61014c610235366004611bbe565b610d3e565b6003546101eb906001600160a01b031681565b61014c61025b366004611bf6565b611026565b60408051610120810182526000808252602082018190529181018290526060808201839052608082015260a0810182905260c0810182905260e0810182905261010081019190915260008281526002602081815260409283902083516101208101855281546001600160a01b0390811682526001830154169281019290925291820154928101929092526003810154606083015260048101805460808401919061030990611c18565b80601f016020809104026020016040519081016040528092919081815260200182805461033590611c18565b80156103825780601f1061035757610100808354040283529160200191610382565b820191906000526020600020905b81548152906001019060200180831161036557829003601f168201915b5050509183525050600582015460ff80821615156020840152610100820481161515604084015262010000909104161515606082015260069091015460809091015292915050565b6103d261109c565b816001600160a01b031663a9059cbb6103f36000546001600160a01b031690565b836040518363ffffffff1660e01b8152600401610411929190611c52565b6020604051808303816000875af1158015610430573d6000803e3d6000fd5b505050506040513d601f19601f820116820180604052508101906104549190611c6b565b505050565b6002602081905260009182526040909120805460018201549282015460038301546004840180546001600160a01b039485169690941694929391929161049e90611c18565b80601f01602080910402602001604051908101604052809291908181526020018280546104ca90611c18565b80156105175780601f106104ec57610100808354040283529160200191610517565b820191906000526020600020905b8154815290600101906020018083116104fa57829003601f168201915b5050506005840154600690940154929360ff808216946101008304821694506201000090920416915089565b600081815260026020526040902080546001600160a01b031633146105af5760405162461bcd60e51b815260206004820152601760248201527f4f6e6c792063726561746f722063616e2063616e63656c00000000000000000060448201526064015b60405180910390fd5b60018101546001600160a01b0316156106015760405162461bcd60e51b815260206004820152601460248201527310995d08185b1c9958591e481858d8d95c1d195960621b60448201526064016105a6565b600581015462010000900460ff161561062c5760405162461bcd60e51b81526004016105a690611c88565b60058101805462ff00001916620100001790556003548154600283015460405163a9059cbb60e01b81526001600160a01b039384169363a9059cbb9361067793911691600401611c52565b6020604051808303816000875af1158015610696573d6000803e3d6000fd5b505050506040513d601f19601f820116820180604052508101906106ba9190611c6b565b6106f65760405162461bcd60e51b815260206004820152600d60248201526c1499599d5b990819985a5b1959609a1b60448201526064016105a6565b60405182907fe3906e8d1e2167ef706b023e6e83af697db5cd38f233c71bf5021b26b316c3a290600090a25050565b600082815260026020526040902060018101546001600160a01b03166107845760405162461bcd60e51b815260206004820152601460248201527310995d081b9bdd081858d8d95c1d1959081e595d60621b60448201526064016105a6565b600581015462010000900460ff16156107af5760405162461bcd60e51b81526004016105a690611c88565b80546001600160a01b03163314806107d3575060018101546001600160a01b031633145b6108135760405162461bcd60e51b8152602060048201526011602482015270139bdd0818481c185c9d1a58da5c185b9d607a1b60448201526064016105a6565b80546001600160a01b031633036108395760058101805460ff191683151517905561084f565b60058101805461ff001916610100841515021790555b6040518215158152339084907fe64fc5d3ec89c58b1bc0305aa4e968c6bead6672aaacc91b33f219bfcf361a2b9060200160405180910390a3600581015460ff80821615156101009092041615151480156108c9575080546001600160a01b03163314806108c9575060018101546001600160a01b031633145b1561045457610454836110f6565b6108df6114bc565b600081815260026020526040902060018101546001600160a01b031661093e5760405162461bcd60e51b815260206004820152601460248201527310995d081b9bdd081858d8d95c1d1959081e595d60621b60448201526064016105a6565b600581015462010000900460ff16156109695760405162461bcd60e51b81526004016105a690611c88565b806006015442106109825761097d82611515565b6109e4565b600581015460ff8082161515610100909204161515146109db5760405162461bcd60e51b815260206004820152601460248201527309eeae8c6dedacae640c8dedc4ee840dac2e8c6d60631b60448201526064016105a6565b6109e4826110f6565b506109ee60018055565b50565b6109f961109c565b610a0360006118ed565b565b678ac7230489e80000851015610a555760405162461bcd60e51b815260206004820152601560248201527443726561746f72207374616b6520746f6f206c6f7760581b60448201526064016105a6565b678ac7230489e80000841015610aa65760405162461bcd60e51b81526020600482015260166024820152754f70706f6e656e74207374616b6520746f6f206c6f7760501b60448201526064016105a6565b6003546040516323b872dd60e01b8152336004820152306024820152604481018790526001600160a01b03909116906323b872dd906064016020604051808303816000875af1158015610afd573d6000803e3d6000fd5b505050506040513d601f19601f82011682018060405250810190610b219190611c6b565b610b655760405162461bcd60e51b815260206004820152601560248201527414dd185ad9481d1c985b9cd9995c8819985a5b1959605a1b60448201526064016105a6565b6000808211610b775762093a80610b84565b610b848262015180611ccc565b90506000610b928242611ce9565b600480549192506000919082610ba783611cfc565b919050559050604051806101200160405280336001600160a01b0316815260200160006001600160a01b0316815260200189815260200188815260200187878080601f01602080910402602001604051908101604052809392919081815260200183838082843760009201829052509385525050506020808301829052604080840183905260608085018490526080948501889052868452600280845293829020865181546001600160a01b03199081166001600160a01b03928316178355948801516001830180549096169116179093559085015192820192909255908301516003820155908201516004820190610ca09082611d79565b5060a082015160058201805460c085015160e086015161ffff1990921693151561ff0019169390931761010093151584021762ff00001916620100009115159190910217905590910151600690910155604051339082907faa04bf3b345f165d756c64731bad28cc81a001fbf6d22081afbbfd310a53065b90610d2c908c908c908c908c908a90611e39565b60405180910390a35050505050505050565b600083815260026020526040902080546001600160a01b0316610d985760405162461bcd60e51b815260206004820152601260248201527110995d08191bd95cc81b9bdd08195e1a5cdd60721b60448201526064016105a6565b60018101546001600160a01b031615610dea5760405162461bcd60e51b815260206004820152601460248201527310995d08185b1c9958591e481858d8d95c1d195960621b60448201526064016105a6565b80546001600160a01b03163303610e435760405162461bcd60e51b815260206004820152601d60248201527f43726561746f722063616e6e6f7420616363657074206f776e2062657400000060448201526064016105a6565b80600601544210610e885760405162461bcd60e51b815260206004820152600f60248201526e10995d081a185cc8195e1c1a5c9959608a1b60448201526064016105a6565b6000808311610e9b578160030154610e9d565b825b9050678ac7230489e80000811015610ee75760405162461bcd60e51b815260206004820152600d60248201526c5374616b6520746f6f206c6f7760981b60448201526064016105a6565b6003546040516323b872dd60e01b8152336004820152306024820152604481018390526001600160a01b03909116906323b872dd906064016020604051808303816000875af1158015610f3e573d6000803e3d6000fd5b505050506040513d601f19601f82011682018060405250810190610f629190611c6b565b610fa65760405162461bcd60e51b815260206004820152601560248201527414dd185ad9481d1c985b9cd9995c8819985a5b1959605a1b60448201526064016105a6565b6001820180546001600160a01b031916331790556005820180548515156101000261ff00199091161790558215610fdf57600382018390555b60408051851515815260208101839052339187917f097afe110a07d405b1fe267d4d6755c88da971ea07d6f465d4a14e0e82c5fc6791015b60405180910390a35050505050565b61102e61109c565b6001600160a01b0381166110935760405162461bcd60e51b815260206004820152602660248201527f4f776e61626c653a206e6577206f776e657220697320746865207a65726f206160448201526564647265737360d01b60648201526084016105a6565b6109ee816118ed565b6000546001600160a01b03163314610a035760405162461bcd60e51b815260206004820181905260248201527f4f776e61626c653a2063616c6c6572206973206e6f7420746865206f776e657260448201526064016105a6565b6000818152600260208190526040822060058101805462ff000019166201000017905560038101549181015490929161112e91611ce9565b90506000606461113f836005611ccc565b6111499190611e80565b600584015490915060009060ff16156112ef576000606461116b846050611ccc565b6111759190611e80565b85600201546111849190611ce9565b905060006064611195856014611ccc565b61119f9190611e80565b86600301546111ae9190611ce9565b600354875460405163a9059cbb60e01b81529293506001600160a01b039182169263a9059cbb926111e59216908690600401611c52565b6020604051808303816000875af1158015611204573d6000803e3d6000fd5b505050506040513d601f19601f820116820180604052508101906112289190611c6b565b6112445760405162461bcd60e51b81526004016105a690611ea2565b600354600187015460405163a9059cbb60e01b81526001600160a01b039283169263a9059cbb9261127c929116908590600401611c52565b6020604051808303816000875af115801561129b573d6000803e3d6000fd5b505050506040513d601f19601f820116820180604052508101906112bf9190611c6b565b6112db5760405162461bcd60e51b81526004016105a690611ed9565b505083546001600160a01b03169050611480565b600060646112fe846014611ccc565b6113089190611e80565b85600201546113179190611ce9565b905060006064611328856050611ccc565b6113329190611e80565b86600301546113419190611ce9565b600354875460405163a9059cbb60e01b81529293506001600160a01b039182169263a9059cbb926113789216908690600401611c52565b6020604051808303816000875af1158015611397573d6000803e3d6000fd5b505050506040513d601f19601f820116820180604052508101906113bb9190611c6b565b6113d75760405162461bcd60e51b81526004016105a690611ea2565b600354600187015460405163a9059cbb60e01b81526001600160a01b039283169263a9059cbb9261140f929116908590600401611c52565b6020604051808303816000875af115801561142e573d6000803e3d6000fd5b505050506040513d601f19601f820116820180604052508101906114529190611c6b565b61146e5760405162461bcd60e51b81526004016105a690611ed9565b50505060018301546001600160a01b03165b806001600160a01b0316857f96a2bff66387be9e7910e4a9ddf9ba9d0b23439aa8c0790b867617d60a8891438460405161101791815260200190565b60026001540361150e5760405162461bcd60e51b815260206004820152601f60248201527f5265656e7472616e637947756172643a207265656e7472616e742063616c6c0060448201526064016105a6565b6002600155565b6000818152600260208190526040822060058101805462ff000019166201000017905560038101549181015490929161154d91611ce9565b90506000606461155e836005611ccc565b6115689190611e80565b600584015490915060009060ff80821615156101009092041615151480156115965750600584015460ff1615155b1561174c57600584015460ff16156115b7576000606461116b846050611ccc565b600060646115c6846014611ccc565b6115d09190611e80565b85600201546115df9190611ce9565b9050600060646115f0856050611ccc565b6115fa9190611e80565b86600301546116099190611ce9565b600354875460405163a9059cbb60e01b81529293506001600160a01b039182169263a9059cbb926116409216908690600401611c52565b6020604051808303816000875af115801561165f573d6000803e3d6000fd5b505050506040513d601f19601f820116820180604052508101906116839190611c6b565b61169f5760405162461bcd60e51b81526004016105a690611ea2565b600354600187015460405163a9059cbb60e01b81526001600160a01b039283169263a9059cbb926116d7929116908590600401611c52565b6020604051808303816000875af11580156116f6573d6000803e3d6000fd5b505050506040513d601f19601f8201168201806040525081019061171a9190611c6b565b6117365760405162461bcd60e51b81526004016105a690611ed9565b50505060018301546001600160a01b0316611480565b6000611759600284611e80565b85600201546117689190611ce9565b90506000611777600285611e80565b86600301546117869190611ce9565b600354875460405163a9059cbb60e01b81529293506001600160a01b039182169263a9059cbb926117bd9216908690600401611c52565b6020604051808303816000875af11580156117dc573d6000803e3d6000fd5b505050506040513d601f19601f820116820180604052508101906118009190611c6b565b61181c5760405162461bcd60e51b81526004016105a690611ea2565b600354600187015460405163a9059cbb60e01b81526001600160a01b039283169263a9059cbb92611854929116908590600401611c52565b6020604051808303816000875af1158015611873573d6000803e3d6000fd5b505050506040513d601f19601f820116820180604052508101906118979190611c6b565b6118b35760405162461bcd60e51b81526004016105a690611ed9565b505060405182815260009150819086907f96a2bff66387be9e7910e4a9ddf9ba9d0b23439aa8c0790b867617d60a88914390602001611017565b600080546001600160a01b038381166001600160a01b0319831681178455604051919092169283917f8be0079c531659141344cd1fd0a4f28419497f9722a3daafe3b4186f6b6457e09190a35050565b60006020828403121561194f57600080fd5b5035919050565b6000815180845260005b8181101561197c57602081850181015186830182015201611960565b506000602082860101526020601f19601f83011685010191505092915050565b602081526119b66020820183516001600160a01b03169052565b600060208301516119d260408401826001600160a01b03169052565b50604083015160608301526060830151608083015260808301516101208060a0850152611a03610140850183611956565b915060a0850151611a1860c086018215159052565b5060c085015180151560e08601525060e0850151610100611a3c8187018315159052565b959095015193019290925250919050565b80356001600160a01b0381168114611a6457600080fd5b919050565b60008060408385031215611a7c57600080fd5b611a8583611a4d565b946020939093013593505050565b6001600160a01b038a8116825289166020820152604081018890526060810187905261012060808201819052600090611ace83820189611956565b96151560a0840152505092151560c084015290151560e08301526101009091015295945050505050565b80151581146109ee57600080fd5b60008060408385031215611b1957600080fd5b823591506020830135611b2b81611af8565b809150509250929050565b600080600080600060808688031215611b4e57600080fd5b8535945060208601359350604086013567ffffffffffffffff80821115611b7457600080fd5b818801915088601f830112611b8857600080fd5b813581811115611b9757600080fd5b896020828501011115611ba957600080fd5b96999598505060200195606001359392505050565b600080600060608486031215611bd357600080fd5b833592506020840135611be581611af8565b929592945050506040919091013590565b600060208284031215611c0857600080fd5b611c1182611a4d565b9392505050565b600181811c90821680611c2c57607f821691505b602082108103611c4c57634e487b7160e01b600052602260045260246000fd5b50919050565b6001600160a01b03929092168252602082015260400190565b600060208284031215611c7d57600080fd5b8151611c1181611af8565b60208082526014908201527310995d08185b1c9958591e481c995cdbdb1d995960621b604082015260600190565b634e487b7160e01b600052601160045260246000fd5b8082028115828204841417611ce357611ce3611cb6565b92915050565b80820180821115611ce357611ce3611cb6565b600060018201611d0e57611d0e611cb6565b5060010190565b634e487b7160e01b600052604160045260246000fd5b601f82111561045457600081815260208120601f850160051c81016020861015611d525750805b601f850160051c820191505b81811015611d7157828155600101611d5e565b505050505050565b815167ffffffffffffffff811115611d9357611d93611d15565b611da781611da18454611c18565b84611d2b565b602080601f831160018114611ddc5760008415611dc45750858301515b600019600386901b1c1916600185901b178555611d71565b600085815260208120601f198616915b82811015611e0b57888601518255948401946001909101908401611dec565b5085821015611e295787850151600019600388901b60f8161c191681555b5050505050600190811b01905550565b85815284602082015260806040820152826080820152828460a0830137600060a08483010152600060a0601f19601f86011683010190508260608301529695505050505050565b600082611e9d57634e487b7160e01b600052601260045260246000fd5b500490565b60208082526017908201527f43726561746f72207472616e73666572206661696c6564000000000000000000604082015260600190565b60208082526018908201527f4f70706f6e656e74207472616e73666572206661696c6564000000000000000060408201526060019056fea264697066735822122016e711af06abf0b7602884f38ef22cd3656a98f6772b9fc0ed48bd981fa9623364736f6c63430008130033",
  "linkReferences": {},
  "deployedLinkReferences": {}
}